{"contracts/LPMining/PriceOracle.sol":{"PriceOracle":{"abi":[{"inputs":[{"internalType":"address","name":"pairAddr","type":"address"},{"internalType":"address","name":"tokenA","type":"address"},{"internalType":"address","name":"tokenB","type":"address"}],"stateMutability":"nonpayable","type":"constructor"},{"inputs":[],"name":"PERIOD","outputs":[{"internalType":"uint256","name":"","type":"uint256"}],"stateMutability":"view","type":"function"},{"inputs":[],"name":"blockTimestampLast","outputs":[{"internalType":"uint32","name":"","type":"uint32"}],"stateMutability":"view","type":"function"},{"inputs":[{"internalType":"bytes","name":"checkData","type":"bytes"}],"name":"checkUpkeep","outputs":[{"internalType":"bool","name":"upkeepNeeded","type":"bool"},{"internalType":"bytes","name":"performData","type":"bytes"}],"stateMutability":"view","type":"function"},{"inputs":[{"internalType":"address","name":"token","type":"address"},{"internalType":"uint256","name":"amountIn","type":"uint256"}],"name":"consult","outputs":[{"internalType":"uint256","name":"amountOut","type":"uint256"}],"stateMutability":"view","type":"function"},{"inputs":[],"name":"pair","outputs":[{"internalType":"contract IUniswapV2Pair","name":"","type":"address"}],"stateMutability":"view","type":"function"},{"inputs":[{"internalType":"bytes","name":"performData","type":"bytes"}],"name":"performUpkeep","outputs":[],"stateMutability":"nonpayable","type":"function"},{"inputs":[],"name":"price0Average","outputs":[{"internalType":"uint224","name":"_x","type":"uint224"}],"stateMutability":"view","type":"function"},{"inputs":[],"name":"price0CumulativeLast","outputs":[{"internalType":"uint256","name":"","type":"uint256"}],"stateMutability":"view","type":"function"},{"inputs":[],"name":"price1Average","outputs":[{"internalType":"uint224","name":"_x","type":"uint224"}],"stateMutability":"view","type":"function"},{"inputs":[],"name":"price1CumulativeLast","outputs":[{"internalType":"uint256","name":"","type":"uint256"}],"stateMutability":"view","type":"function"},{"inputs":[],"name":"token0","outputs":[{"internalType":"address","name":"","type":"address"}],"stateMutability":"view","type":"function"},{"inputs":[],"name":"token1","outputs":[{"internalType":"address","name":"","type":"address"}],"stateMutability":"view","type":"function"},{"inputs":[],"name":"update","outputs":[],"stateMutability":"nonpayable","type":"function"}],"devdoc":{"kind":"dev","methods":{"checkUpkeep(bytes)":{"details":"To ensure that it is never called, you may want to add the cannotExecute modifier from KeeperBase to your implementation of this method.","params":{"checkData":"specified in the upkeep registration so it is always the same for a registered upkeep. This can easily be broken down into specific arguments using `abi.decode`, so multiple upkeeps can be registered on the same contract and easily differentiated by the contract."},"returns":{"performData":"bytes that the keeper should call performUpkeep with, if upkeep is needed. If you would like to encode data to decode later, try `abi.encode`.","upkeepNeeded":"boolean to indicate whether the keeper should call performUpkeep or not."}},"performUpkeep(bytes)":{"details":"The input to this method should not be trusted, and the caller of the method should not even be restricted to any single registry. Anyone should be able call it, and the input should be validated, there is no guarantee that the data passed in is the performData returned from checkUpkeep. This could happen due to malicious keepers, racing keepers, or simply a state change while the performUpkeep transaction is waiting for confirmation. Always validate the data passed in.","params":{"performData":"is the data which was passed back from the checkData simulation. If it is encoded, it can easily be decoded into other types by calling `abi.decode`. This data should not be trusted, and should be validated against the contract's current state."}}},"version":1},"evm":{"bytecode":{"linkReferences":{},"object":"60c06040523480156200001157600080fd5b5060405162001200380380620012008339810160408190526200003491620002cf565b600080546001600160a01b0319166001600160a01b03851690811790915560408051630dfe168160e01b81529051630dfe1681916004808201926020929091908290030181865afa1580156200008e573d6000803e3d6000fd5b505050506040513d601f19601f82011682018060405250810190620000b4919062000319565b6001600160a01b039081166080526000546040805163d21220a760e01b81529051919092169163d21220a79160048083019260209291908290030181865afa15801562000105573d6000803e3d6000fd5b505050506040513d601f19601f820116820180604052508101906200012b919062000319565b6001600160a01b0390811660a05260005460408051635909c0d560e01b815290519190921691635909c0d59160048083019260209291908290030181865afa1580156200017c573d6000803e3d6000fd5b505050506040513d601f19601f82011682018060405250810190620001a291906200033e565b60015560005460408051635a3d549360e01b815290516001600160a01b0390921691635a3d5493916004808201926020929091908290030181865afa158015620001f0573d6000803e3d6000fd5b505050506040513d601f19601f820116820180604052508101906200021691906200033e565b6002556000805460408051630240bc6b60e21b8152905183926001600160a01b031691630902f1ac9160048083019260609291908290030181865afa15801562000264573d6000803e3d6000fd5b505050506040513d601f19601f820116820180604052508101906200028a919062000370565b6003805463ffffffff191663ffffffff9290921691909117905550620003c695505050505050565b80516001600160a01b0381168114620002ca57600080fd5b919050565b600080600060608486031215620002e557600080fd5b620002f084620002b2565b92506200030060208501620002b2565b91506200031060408501620002b2565b90509250925092565b6000602082840312156200032c57600080fd5b6200033782620002b2565b9392505050565b6000602082840312156200035157600080fd5b5051919050565b80516001600160701b0381168114620002ca57600080fd5b6000806000606084860312156200038657600080fd5b620003918462000358565b9250620003a16020850162000358565b9150604084015163ffffffff81168114620003bb57600080fd5b809150509250925092565b60805160a051610e07620003f96000396000818161021d01526102c501526000818160e901526102430152610e076000f3fe608060405234801561001057600080fd5b50600436106100df5760003560e01c80636e04ff0d1161008c578063a8aa1b3111610066578063a8aa1b31146101d7578063b4d1d795146101ea578063c5700a02146101f3578063d21220a71461021857600080fd5b80636e04ff0d1461019b578063a2e62045146101bc578063a6bb4539146101c457600080fd5b80635909c0d5116100bd5780635909c0d51461015e5780635a3d5493146101675780635e6aaf2c1461017057600080fd5b80630dfe1681146100e45780633ddac953146101285780634585e33b14610149575b600080fd5b61010b7f000000000000000000000000000000000000000000000000000000000000000081565b6040516001600160a01b0390911681526020015b60405180910390f35b61013b610136366004610b8e565b61023f565b60405190815260200161011f565b61015c610157366004610bc6565b6103b3565b005b61013b60015481565b61013b60025481565b600554610183906001600160e01b031681565b6040516001600160e01b03909116815260200161011f565b6101ae6101a9366004610bc6565b6103dc565b60405161011f929190610c38565b61015c610440565b600454610183906001600160e01b031681565b60005461010b906001600160a01b031681565b61013b610e1081565b6003546102039063ffffffff1681565b60405163ffffffff909116815260200161011f565b61010b7f000000000000000000000000000000000000000000000000000000000000000081565b60007f00000000000000000000000000000000000000000000000000000000000000006001600160a01b0316836001600160a01b0316036102c35760408051602081019091526004546001600160e01b031681526102a8906102a1908461044a565b5160701c90565b71ffffffffffffffffffffffffffffffffffff1690506103ad565b7f00000000000000000000000000000000000000000000000000000000000000006001600160a01b0316836001600160a01b03161461036f5760405162461bcd60e51b815260206004820152602260248201527f4578616d706c654f7261636c6553696d706c653a20494e56414c49445f544f4b60448201527f454e00000000000000000000000000000000000000000000000000000000000060648201526084015b60405180910390fd5b60408051602081019091526005546001600160e01b03168152610396906102a1908461044a565b71ffffffffffffffffffffffffffffffffffff1690505b92915050565b600354610e10906103ca9063ffffffff1642610ca6565b11156103d8576103d86104e8565b5050565b600354600090606090610e10906103f99063ffffffff1642610ca6565b11848481818080601f016020809104026020016040519081016040528093929190818152602001838380828437600092019190915250959a92995091975050505050505050565b6104486104e8565b565b6040805160208101909152600081526000821580610487575083516001600160e01b0316836104798183610cb9565b92506104859083610ce6565b145b6104d35760405162461bcd60e51b815260206004820152601960248201527f4669786564506f696e743a3a6d756c3a206f766572666c6f77000000000000006044820152606401610366565b60408051602081019091529081529392505050565b6000805481908190610502906001600160a01b0316610695565b60035492955090935091506000906105209063ffffffff1683610cfa565b9050610e108163ffffffff1610156105a05760405162461bcd60e51b815260206004820152602760248201527f4578616d706c654f7261636c6553696d706c653a20504552494f445f4e4f545f60448201527f454c4150534544000000000000000000000000000000000000000000000000006064820152608401610366565b60405180602001604052808263ffffffff16600154876105c09190610ca6565b6105ca9190610ce6565b6001600160e01b039081169091529051600480547fffffffff0000000000000000000000000000000000000000000000000000000016919092161790556040805160208101909152600254819063ffffffff8416906106299087610ca6565b6106339190610ce6565b6001600160e01b039081169091529051600580547fffffffff000000000000000000000000000000000000000000000000000000001691909216179055506001929092556002556003805463ffffffff191663ffffffff909216919091179055565b60008060006106a26108a8565b9050836001600160a01b0316635909c0d56040518163ffffffff1660e01b8152600401602060405180830381865afa1580156106e2573d6000803e3d6000fd5b505050506040513d601f19601f820116820180604052508101906107069190610d1e565b9250836001600160a01b0316635a3d54936040518163ffffffff1660e01b8152600401602060405180830381865afa158015610746573d6000803e3d6000fd5b505050506040513d601f19601f8201168201806040525081019061076a9190610d1e565b91506000806000866001600160a01b0316630902f1ac6040518163ffffffff1660e01b8152600401606060405180830381865afa1580156107af573d6000803e3d6000fd5b505050506040513d601f19601f820116820180604052508101906107d39190610d5a565b9250925092508363ffffffff168163ffffffff161461089e5760006107f88286610cfa565b90508063ffffffff1661082b846dffffffffffffffffffffffffffff16866dffffffffffffffffffffffffffff166108be565b5161083f91906001600160e01b0316610cb9565b6108499088610daa565b96508063ffffffff1661087c856dffffffffffffffffffffffffffff16856dffffffffffffffffffffffffffff166108be565b5161089091906001600160e01b0316610cb9565b61089a9087610daa565b9550505b5050509193909250565b60006108b964010000000042610dbd565b905090565b604080516020810190915260008152600082116109435760405162461bcd60e51b815260206004820152602660248201527f4669786564506f696e743a3a6672616374696f6e3a206469766973696f6e206260448201527f79207a65726f00000000000000000000000000000000000000000000000000006064820152608401610366565b8260000361096057506040805160208101909152600081526103ad565b6dffffffffffffffffffffffffffff83116109fe57600061098583607086901b610ce6565b90506001600160e01b038111156109de5760405162461bcd60e51b815260206004820152601e60248201527f4669786564506f696e743a3a6672616374696f6e3a206f766572666c6f7700006044820152606401610366565b6040518060200160405280826001600160e01b03168152509150506103ad565b6000610985846e010000000000000000000000000000856000808060001985870985870292508281108382030391505080600003610a4e5760008411610a4357600080fd5b508290049050610b87565b808411610a5a57600080fd5b600084868809808403938111909203919050600085610a798183610ca6565b16958690049593849004936000819003046001019050610a998184610cb9565b909317926000610aaa876003610cb9565b6002189050610ab98188610cb9565b610ac4906002610ca6565b610ace9082610cb9565b9050610ada8188610cb9565b610ae5906002610ca6565b610aef9082610cb9565b9050610afb8188610cb9565b610b06906002610ca6565b610b109082610cb9565b9050610b1c8188610cb9565b610b27906002610ca6565b610b319082610cb9565b9050610b3d8188610cb9565b610b48906002610ca6565b610b529082610cb9565b9050610b5e8188610cb9565b610b69906002610ca6565b610b739082610cb9565b9050610b7f8186610cb9565b955050505050505b9392505050565b60008060408385031215610ba157600080fd5b82356001600160a01b0381168114610bb857600080fd5b946020939093013593505050565b60008060208385031215610bd957600080fd5b823567ffffffffffffffff80821115610bf157600080fd5b818501915085601f830112610c0557600080fd5b813581811115610c1457600080fd5b866020828501011115610c2657600080fd5b60209290920196919550909350505050565b821515815260006020604081840152835180604085015260005b81811015610c6e57858101830151858201606001528201610c52565b506000606082860101526060601f19601f830116850101925050509392505050565b634e487b7160e01b600052601160045260246000fd5b818103818111156103ad576103ad610c90565b80820281158282048414176103ad576103ad610c90565b634e487b7160e01b600052601260045260246000fd5b600082610cf557610cf5610cd0565b500490565b63ffffffff828116828216039080821115610d1757610d17610c90565b5092915050565b600060208284031215610d3057600080fd5b5051919050565b80516dffffffffffffffffffffffffffff81168114610d5557600080fd5b919050565b600080600060608486031215610d6f57600080fd5b610d7884610d37565b9250610d8660208501610d37565b9150604084015163ffffffff81168114610d9f57600080fd5b809150509250925092565b808201808211156103ad576103ad610c90565b600082610dcc57610dcc610cd0565b50069056fea26469706673582212203e408b526a167d6f91d8822c180b5110b85a221e9889a781b42e6ad1a8c6bf8f64736f6c63430008140033","opcodes":"PUSH1 0xC0 PUSH1 0x40 MSTORE CALLVALUE DUP1 ISZERO PUSH3 0x11 JUMPI PUSH1 0x0 DUP1 REVERT JUMPDEST POP PUSH1 0x40 MLOAD PUSH3 0x1200 CODESIZE SUB DUP1 PUSH3 0x1200 DUP4 CODECOPY DUP2 ADD PUSH1 0x40 DUP2 SWAP1 MSTORE PUSH3 0x34 SWAP2 PUSH3 0x2CF JUMP JUMPDEST PUSH1 0x0 DUP1 SLOAD PUSH1 0x1 PUSH1 0x1 PUSH1 0xA0 SHL SUB NOT AND PUSH1 0x1 PUSH1 0x1 PUSH1 0xA0 SHL SUB DUP6 AND SWAP1 DUP2 OR SWAP1 SWAP2 SSTORE PUSH1 0x40 DUP1 MLOAD PUSH4 0xDFE1681 PUSH1 0xE0 SHL DUP2 MSTORE SWAP1 MLOAD PUSH4 0xDFE1681 SWAP2 PUSH1 0x4 DUP1 DUP3 ADD SWAP3 PUSH1 0x20 SWAP3 SWAP1 SWAP2 SWAP1 DUP3 SWAP1 SUB ADD DUP2 DUP7 GAS STATICCALL ISZERO DUP1 ISZERO PUSH3 0x8E JUMPI RETURNDATASIZE PUSH1 0x0 DUP1 RETURNDATACOPY RETURNDATASIZE PUSH1 0x0 REVERT JUMPDEST POP POP POP POP PUSH1 0x40 MLOAD RETURNDATASIZE PUSH1 0x1F NOT PUSH1 0x1F DUP3 ADD AND DUP3 ADD DUP1 PUSH1 0x40 MSTORE POP DUP2 ADD SWAP1 PUSH3 0xB4 SWAP2 SWAP1 PUSH3 0x319 JUMP JUMPDEST PUSH1 0x1 PUSH1 0x1 PUSH1 0xA0 SHL SUB SWAP1 DUP2 AND PUSH1 0x80 MSTORE PUSH1 0x0 SLOAD PUSH1 0x40 DUP1 MLOAD PUSH4 0xD21220A7 PUSH1 0xE0 SHL DUP2 MSTORE SWAP1 MLOAD SWAP2 SWAP1 SWAP3 AND SWAP2 PUSH4 0xD21220A7 SWAP2 PUSH1 0x4 DUP1 DUP4 ADD SWAP3 PUSH1 0x20 SWAP3 SWAP2 SWAP1 DUP3 SWAP1 SUB ADD DUP2 DUP7 GAS STATICCALL ISZERO DUP1 ISZERO PUSH3 0x105 JUMPI RETURNDATASIZE PUSH1 0x0 DUP1 RETURNDATACOPY RETURNDATASIZE PUSH1 0x0 REVERT JUMPDEST POP POP POP POP PUSH1 0x40 MLOAD RETURNDATASIZE PUSH1 0x1F NOT PUSH1 0x1F DUP3 ADD AND DUP3 ADD DUP1 PUSH1 0x40 MSTORE POP DUP2 ADD SWAP1 PUSH3 0x12B SWAP2 SWAP1 PUSH3 0x319 JUMP JUMPDEST PUSH1 0x1 PUSH1 0x1 PUSH1 0xA0 SHL SUB SWAP1 DUP2 AND PUSH1 0xA0 MSTORE PUSH1 0x0 SLOAD PUSH1 0x40 DUP1 MLOAD PUSH4 0x5909C0D5 PUSH1 0xE0 SHL DUP2 MSTORE SWAP1 MLOAD SWAP2 SWAP1 SWAP3 AND SWAP2 PUSH4 0x5909C0D5 SWAP2 PUSH1 0x4 DUP1 DUP4 ADD SWAP3 PUSH1 0x20 SWAP3 SWAP2 SWAP1 DUP3 SWAP1 SUB ADD DUP2 DUP7 GAS STATICCALL ISZERO DUP1 ISZERO PUSH3 0x17C JUMPI RETURNDATASIZE PUSH1 0x0 DUP1 RETURNDATACOPY RETURNDATASIZE PUSH1 0x0 REVERT JUMPDEST POP POP POP POP PUSH1 0x40 MLOAD RETURNDATASIZE PUSH1 0x1F NOT PUSH1 0x1F DUP3 ADD AND DUP3 ADD DUP1 PUSH1 0x40 MSTORE POP DUP2 ADD SWAP1 PUSH3 0x1A2 SWAP2 SWAP1 PUSH3 0x33E JUMP JUMPDEST PUSH1 0x1 SSTORE PUSH1 0x0 SLOAD PUSH1 0x40 DUP1 MLOAD PUSH4 0x5A3D5493 PUSH1 0xE0 SHL DUP2 MSTORE SWAP1 MLOAD PUSH1 0x1 PUSH1 0x1 PUSH1 0xA0 SHL SUB SWAP1 SWAP3 AND SWAP2 PUSH4 0x5A3D5493 SWAP2 PUSH1 0x4 DUP1 DUP3 ADD SWAP3 PUSH1 0x20 SWAP3 SWAP1 SWAP2 SWAP1 DUP3 SWAP1 SUB ADD DUP2 DUP7 GAS STATICCALL ISZERO DUP1 ISZERO PUSH3 0x1F0 JUMPI RETURNDATASIZE PUSH1 0x0 DUP1 RETURNDATACOPY RETURNDATASIZE PUSH1 0x0 REVERT JUMPDEST POP POP POP POP PUSH1 0x40 MLOAD RETURNDATASIZE PUSH1 0x1F NOT PUSH1 0x1F DUP3 ADD AND DUP3 ADD DUP1 PUSH1 0x40 MSTORE POP DUP2 ADD SWAP1 PUSH3 0x216 SWAP2 SWAP1 PUSH3 0x33E JUMP JUMPDEST PUSH1 0x2 SSTORE PUSH1 0x0 DUP1 SLOAD PUSH1 0x40 DUP1 MLOAD PUSH4 0x240BC6B PUSH1 0xE2 SHL DUP2 MSTORE SWAP1 MLOAD DUP4 SWAP3 PUSH1 0x1 PUSH1 0x1 PUSH1 0xA0 SHL SUB AND SWAP2 PUSH4 0x902F1AC SWAP2 PUSH1 0x4 DUP1 DUP4 ADD SWAP3 PUSH1 0x60 SWAP3 SWAP2 SWAP1 DUP3 SWAP1 SUB ADD DUP2 DUP7 GAS STATICCALL ISZERO DUP1 ISZERO PUSH3 0x264 JUMPI RETURNDATASIZE PUSH1 0x0 DUP1 RETURNDATACOPY RETURNDATASIZE PUSH1 0x0 REVERT JUMPDEST POP POP POP POP PUSH1 0x40 MLOAD RETURNDATASIZE PUSH1 0x1F NOT PUSH1 0x1F DUP3 ADD AND DUP3 ADD DUP1 PUSH1 0x40 MSTORE POP DUP2 ADD SWAP1 PUSH3 0x28A SWAP2 SWAP1 PUSH3 0x370 JUMP JUMPDEST PUSH1 0x3 DUP1 SLOAD PUSH4 0xFFFFFFFF NOT AND PUSH4 0xFFFFFFFF SWAP3 SWAP1 SWAP3 AND SWAP2 SWAP1 SWAP2 OR SWAP1 SSTORE POP PUSH3 0x3C6 SWAP6 POP POP POP POP POP POP JUMP JUMPDEST DUP1 MLOAD PUSH1 0x1 PUSH1 0x1 PUSH1 0xA0 SHL SUB DUP2 AND DUP2 EQ PUSH3 0x2CA JUMPI PUSH1 0x0 DUP1 REVERT JUMPDEST SWAP2 SWAP1 POP JUMP JUMPDEST PUSH1 0x0 DUP1 PUSH1 0x0 PUSH1 0x60 DUP5 DUP7 SUB SLT ISZERO PUSH3 0x2E5 JUMPI PUSH1 0x0 DUP1 REVERT JUMPDEST PUSH3 0x2F0 DUP5 PUSH3 0x2B2 JUMP JUMPDEST SWAP3 POP PUSH3 0x300 PUSH1 0x20 DUP6 ADD PUSH3 0x2B2 JUMP JUMPDEST SWAP2 POP PUSH3 0x310 PUSH1 0x40 DUP6 ADD PUSH3 0x2B2 JUMP JUMPDEST SWAP1 POP SWAP3 POP SWAP3 POP SWAP3 JUMP JUMPDEST PUSH1 0x0 PUSH1 0x20 DUP3 DUP5 SUB SLT ISZERO PUSH3 0x32C JUMPI PUSH1 0x0 DUP1 REVERT JUMPDEST PUSH3 0x337 DUP3 PUSH3 0x2B2 JUMP JUMPDEST SWAP4 SWAP3 POP POP POP JUMP JUMPDEST PUSH1 0x0 PUSH1 0x20 DUP3 DUP5 SUB SLT ISZERO PUSH3 0x351 JUMPI PUSH1 0x0 DUP1 REVERT JUMPDEST POP MLOAD SWAP2 SWAP1 POP JUMP JUMPDEST DUP1 MLOAD PUSH1 0x1 PUSH1 0x1 PUSH1 0x70 SHL SUB DUP2 AND DUP2 EQ PUSH3 0x2CA JUMPI PUSH1 0x0 DUP1 REVERT JUMPDEST PUSH1 0x0 DUP1 PUSH1 0x0 PUSH1 0x60 DUP5 DUP7 SUB SLT ISZERO PUSH3 0x386 JUMPI PUSH1 0x0 DUP1 REVERT JUMPDEST PUSH3 0x391 DUP5 PUSH3 0x358 JUMP JUMPDEST SWAP3 POP PUSH3 0x3A1 PUSH1 0x20 DUP6 ADD PUSH3 0x358 JUMP JUMPDEST SWAP2 POP PUSH1 0x40 DUP5 ADD MLOAD PUSH4 0xFFFFFFFF DUP2 AND DUP2 EQ PUSH3 0x3BB JUMPI PUSH1 0x0 DUP1 REVERT JUMPDEST DUP1 SWAP2 POP POP SWAP3 POP SWAP3 POP SWAP3 JUMP JUMPDEST PUSH1 0x80 MLOAD PUSH1 0xA0 MLOAD PUSH2 0xE07 PUSH3 0x3F9 PUSH1 0x0 CODECOPY PUSH1 0x0 DUP2 DUP2 PUSH2 0x21D ADD MSTORE PUSH2 0x2C5 ADD MSTORE PUSH1 0x0 DUP2 DUP2 PUSH1 0xE9 ADD MSTORE PUSH2 0x243 ADD MSTORE PUSH2 0xE07 PUSH1 0x0 RETURN INVALID PUSH1 0x80 PUSH1 0x40 MSTORE CALLVALUE DUP1 ISZERO PUSH2 0x10 JUMPI PUSH1 0x0 DUP1 REVERT JUMPDEST POP PUSH1 0x4 CALLDATASIZE LT PUSH2 0xDF JUMPI PUSH1 0x0 CALLDATALOAD PUSH1 0xE0 SHR DUP1 PUSH4 0x6E04FF0D GT PUSH2 0x8C JUMPI DUP1 PUSH4 0xA8AA1B31 GT PUSH2 0x66 JUMPI DUP1 PUSH4 0xA8AA1B31 EQ PUSH2 0x1D7 JUMPI DUP1 PUSH4 0xB4D1D795 EQ PUSH2 0x1EA JUMPI DUP1 PUSH4 0xC5700A02 EQ PUSH2 0x1F3 JUMPI DUP1 PUSH4 0xD21220A7 EQ PUSH2 0x218 JUMPI PUSH1 0x0 DUP1 REVERT JUMPDEST DUP1 PUSH4 0x6E04FF0D EQ PUSH2 0x19B JUMPI DUP1 PUSH4 0xA2E62045 EQ PUSH2 0x1BC JUMPI DUP1 PUSH4 0xA6BB4539 EQ PUSH2 0x1C4 JUMPI PUSH1 0x0 DUP1 REVERT JUMPDEST DUP1 PUSH4 0x5909C0D5 GT PUSH2 0xBD JUMPI DUP1 PUSH4 0x5909C0D5 EQ PUSH2 0x15E JUMPI DUP1 PUSH4 0x5A3D5493 EQ PUSH2 0x167 JUMPI DUP1 PUSH4 0x5E6AAF2C EQ PUSH2 0x170 JUMPI PUSH1 0x0 DUP1 REVERT JUMPDEST DUP1 PUSH4 0xDFE1681 EQ PUSH2 0xE4 JUMPI DUP1 PUSH4 0x3DDAC953 EQ PUSH2 0x128 JUMPI DUP1 PUSH4 0x4585E33B EQ PUSH2 0x149 JUMPI JUMPDEST PUSH1 0x0 DUP1 REVERT JUMPDEST PUSH2 0x10B PUSH32 0x0 DUP2 JUMP JUMPDEST PUSH1 0x40 MLOAD PUSH1 0x1 PUSH1 0x1 PUSH1 0xA0 SHL SUB SWAP1 SWAP2 AND DUP2 MSTORE PUSH1 0x20 ADD JUMPDEST PUSH1 0x40 MLOAD DUP1 SWAP2 SUB SWAP1 RETURN JUMPDEST PUSH2 0x13B PUSH2 0x136 CALLDATASIZE PUSH1 0x4 PUSH2 0xB8E JUMP JUMPDEST PUSH2 0x23F JUMP JUMPDEST PUSH1 0x40 MLOAD SWAP1 DUP2 MSTORE PUSH1 0x20 ADD PUSH2 0x11F JUMP JUMPDEST PUSH2 0x15C PUSH2 0x157 CALLDATASIZE PUSH1 0x4 PUSH2 0xBC6 JUMP JUMPDEST PUSH2 0x3B3 JUMP JUMPDEST STOP JUMPDEST PUSH2 0x13B PUSH1 0x1 SLOAD DUP2 JUMP JUMPDEST PUSH2 0x13B PUSH1 0x2 SLOAD DUP2 JUMP JUMPDEST PUSH1 0x5 SLOAD PUSH2 0x183 SWAP1 PUSH1 0x1 PUSH1 0x1 PUSH1 0xE0 SHL SUB AND DUP2 JUMP JUMPDEST PUSH1 0x40 MLOAD PUSH1 0x1 PUSH1 0x1 PUSH1 0xE0 SHL SUB SWAP1 SWAP2 AND DUP2 MSTORE PUSH1 0x20 ADD PUSH2 0x11F JUMP JUMPDEST PUSH2 0x1AE PUSH2 0x1A9 CALLDATASIZE PUSH1 0x4 PUSH2 0xBC6 JUMP JUMPDEST PUSH2 0x3DC JUMP JUMPDEST PUSH1 0x40 MLOAD PUSH2 0x11F SWAP3 SWAP2 SWAP1 PUSH2 0xC38 JUMP JUMPDEST PUSH2 0x15C PUSH2 0x440 JUMP JUMPDEST PUSH1 0x4 SLOAD PUSH2 0x183 SWAP1 PUSH1 0x1 PUSH1 0x1 PUSH1 0xE0 SHL SUB AND DUP2 JUMP JUMPDEST PUSH1 0x0 SLOAD PUSH2 0x10B SWAP1 PUSH1 0x1 PUSH1 0x1 PUSH1 0xA0 SHL SUB AND DUP2 JUMP JUMPDEST PUSH2 0x13B PUSH2 0xE10 DUP2 JUMP JUMPDEST PUSH1 0x3 SLOAD PUSH2 0x203 SWAP1 PUSH4 0xFFFFFFFF AND DUP2 JUMP JUMPDEST PUSH1 0x40 MLOAD PUSH4 0xFFFFFFFF SWAP1 SWAP2 AND DUP2 MSTORE PUSH1 0x20 ADD PUSH2 0x11F JUMP JUMPDEST PUSH2 0x10B PUSH32 0x0 DUP2 JUMP JUMPDEST PUSH1 0x0 PUSH32 0x0 PUSH1 0x1 PUSH1 0x1 PUSH1 0xA0 SHL SUB AND DUP4 PUSH1 0x1 PUSH1 0x1 PUSH1 0xA0 SHL SUB AND SUB PUSH2 0x2C3 JUMPI PUSH1 0x40 DUP1 MLOAD PUSH1 0x20 DUP2 ADD SWAP1 SWAP2 MSTORE PUSH1 0x4 SLOAD PUSH1 0x1 PUSH1 0x1 PUSH1 0xE0 SHL SUB AND DUP2 MSTORE PUSH2 0x2A8 SWAP1 PUSH2 0x2A1 SWAP1 DUP5 PUSH2 0x44A JUMP JUMPDEST MLOAD PUSH1 0x70 SHR SWAP1 JUMP JUMPDEST PUSH18 0xFFFFFFFFFFFFFFFFFFFFFFFFFFFFFFFFFFFF AND SWAP1 POP PUSH2 0x3AD JUMP JUMPDEST PUSH32 0x0 PUSH1 0x1 PUSH1 0x1 PUSH1 0xA0 SHL SUB AND DUP4 PUSH1 0x1 PUSH1 0x1 PUSH1 0xA0 SHL SUB AND EQ PUSH2 0x36F JUMPI PUSH1 0x40 MLOAD PUSH3 0x461BCD PUSH1 0xE5 SHL DUP2 MSTORE PUSH1 0x20 PUSH1 0x4 DUP3 ADD MSTORE PUSH1 0x22 PUSH1 0x24 DUP3 ADD MSTORE PUSH32 0x4578616D706C654F7261636C6553696D706C653A20494E56414C49445F544F4B PUSH1 0x44 DUP3 ADD MSTORE PUSH32 0x454E000000000000000000000000000000000000000000000000000000000000 PUSH1 0x64 DUP3 ADD MSTORE PUSH1 0x84 ADD JUMPDEST PUSH1 0x40 MLOAD DUP1 SWAP2 SUB SWAP1 REVERT JUMPDEST PUSH1 0x40 DUP1 MLOAD PUSH1 0x20 DUP2 ADD SWAP1 SWAP2 MSTORE PUSH1 0x5 SLOAD PUSH1 0x1 PUSH1 0x1 PUSH1 0xE0 SHL SUB AND DUP2 MSTORE PUSH2 0x396 SWAP1 PUSH2 0x2A1 SWAP1 DUP5 PUSH2 0x44A JUMP JUMPDEST PUSH18 0xFFFFFFFFFFFFFFFFFFFFFFFFFFFFFFFFFFFF AND SWAP1 POP JUMPDEST SWAP3 SWAP2 POP POP JUMP JUMPDEST PUSH1 0x3 SLOAD PUSH2 0xE10 SWAP1 PUSH2 0x3CA SWAP1 PUSH4 0xFFFFFFFF AND TIMESTAMP PUSH2 0xCA6 JUMP JUMPDEST GT ISZERO PUSH2 0x3D8 JUMPI PUSH2 0x3D8 PUSH2 0x4E8 JUMP JUMPDEST POP POP JUMP JUMPDEST PUSH1 0x3 SLOAD PUSH1 0x0 SWAP1 PUSH1 0x60 SWAP1 PUSH2 0xE10 SWAP1 PUSH2 0x3F9 SWAP1 PUSH4 0xFFFFFFFF AND TIMESTAMP PUSH2 0xCA6 JUMP JUMPDEST GT DUP5 DUP5 DUP2 DUP2 DUP1 DUP1 PUSH1 0x1F ADD PUSH1 0x20 DUP1 SWAP2 DIV MUL PUSH1 0x20 ADD PUSH1 0x40 MLOAD SWAP1 DUP2 ADD PUSH1 0x40 MSTORE DUP1 SWAP4 SWAP3 SWAP2 SWAP1 DUP2 DUP2 MSTORE PUSH1 0x20 ADD DUP4 DUP4 DUP1 DUP3 DUP5 CALLDATACOPY PUSH1 0x0 SWAP3 ADD SWAP2 SWAP1 SWAP2 MSTORE POP SWAP6 SWAP11 SWAP3 SWAP10 POP SWAP2 SWAP8 POP POP POP POP POP POP POP POP JUMP JUMPDEST PUSH2 0x448 PUSH2 0x4E8 JUMP JUMPDEST JUMP JUMPDEST PUSH1 0x40 DUP1 MLOAD PUSH1 0x20 DUP2 ADD SWAP1 SWAP2 MSTORE PUSH1 0x0 DUP2 MSTORE PUSH1 0x0 DUP3 ISZERO DUP1 PUSH2 0x487 JUMPI POP DUP4 MLOAD PUSH1 0x1 PUSH1 0x1 PUSH1 0xE0 SHL SUB AND DUP4 PUSH2 0x479 DUP2 DUP4 PUSH2 0xCB9 JUMP JUMPDEST SWAP3 POP PUSH2 0x485 SWAP1 DUP4 PUSH2 0xCE6 JUMP JUMPDEST EQ JUMPDEST PUSH2 0x4D3 JUMPI PUSH1 0x40 MLOAD PUSH3 0x461BCD PUSH1 0xE5 SHL DUP2 MSTORE PUSH1 0x20 PUSH1 0x4 DUP3 ADD MSTORE PUSH1 0x19 PUSH1 0x24 DUP3 ADD MSTORE PUSH32 0x4669786564506F696E743A3A6D756C3A206F766572666C6F7700000000000000 PUSH1 0x44 DUP3 ADD MSTORE PUSH1 0x64 ADD PUSH2 0x366 JUMP JUMPDEST PUSH1 0x40 DUP1 MLOAD PUSH1 0x20 DUP2 ADD SWAP1 SWAP2 MSTORE SWAP1 DUP2 MSTORE SWAP4 SWAP3 POP POP POP JUMP JUMPDEST PUSH1 0x0 DUP1 SLOAD DUP2 SWAP1 DUP2 SWAP1 PUSH2 0x502 SWAP1 PUSH1 0x1 PUSH1 0x1 PUSH1 0xA0 SHL SUB AND PUSH2 0x695 JUMP JUMPDEST PUSH1 0x3 SLOAD SWAP3 SWAP6 POP SWAP1 SWAP4 POP SWAP2 POP PUSH1 0x0 SWAP1 PUSH2 0x520 SWAP1 PUSH4 0xFFFFFFFF AND DUP4 PUSH2 0xCFA JUMP JUMPDEST SWAP1 POP PUSH2 0xE10 DUP2 PUSH4 0xFFFFFFFF AND LT ISZERO PUSH2 0x5A0 JUMPI PUSH1 0x40 MLOAD PUSH3 0x461BCD PUSH1 0xE5 SHL DUP2 MSTORE PUSH1 0x20 PUSH1 0x4 DUP3 ADD MSTORE PUSH1 0x27 PUSH1 0x24 DUP3 ADD MSTORE PUSH32 0x4578616D706C654F7261636C6553696D706C653A20504552494F445F4E4F545F PUSH1 0x44 DUP3 ADD MSTORE PUSH32 0x454C415053454400000000000000000000000000000000000000000000000000 PUSH1 0x64 DUP3 ADD MSTORE PUSH1 0x84 ADD PUSH2 0x366 JUMP JUMPDEST PUSH1 0x40 MLOAD DUP1 PUSH1 0x20 ADD PUSH1 0x40 MSTORE DUP1 DUP3 PUSH4 0xFFFFFFFF AND PUSH1 0x1 SLOAD DUP8 PUSH2 0x5C0 SWAP2 SWAP1 PUSH2 0xCA6 JUMP JUMPDEST PUSH2 0x5CA SWAP2 SWAP1 PUSH2 0xCE6 JUMP JUMPDEST PUSH1 0x1 PUSH1 0x1 PUSH1 0xE0 SHL SUB SWAP1 DUP2 AND SWAP1 SWAP2 MSTORE SWAP1 MLOAD PUSH1 0x4 DUP1 SLOAD PUSH32 0xFFFFFFFF00000000000000000000000000000000000000000000000000000000 AND SWAP2 SWAP1 SWAP3 AND OR SWAP1 SSTORE PUSH1 0x40 DUP1 MLOAD PUSH1 0x20 DUP2 ADD SWAP1 SWAP2 MSTORE PUSH1 0x2 SLOAD DUP2 SWAP1 PUSH4 0xFFFFFFFF DUP5 AND SWAP1 PUSH2 0x629 SWAP1 DUP8 PUSH2 0xCA6 JUMP JUMPDEST PUSH2 0x633 SWAP2 SWAP1 PUSH2 0xCE6 JUMP JUMPDEST PUSH1 0x1 PUSH1 0x1 PUSH1 0xE0 SHL SUB SWAP1 DUP2 AND SWAP1 SWAP2 MSTORE SWAP1 MLOAD PUSH1 0x5 DUP1 SLOAD PUSH32 0xFFFFFFFF00000000000000000000000000000000000000000000000000000000 AND SWAP2 SWAP1 SWAP3 AND OR SWAP1 SSTORE POP PUSH1 0x1 SWAP3 SWAP1 SWAP3 SSTORE PUSH1 0x2 SSTORE PUSH1 0x3 DUP1 SLOAD PUSH4 0xFFFFFFFF NOT AND PUSH4 0xFFFFFFFF SWAP1 SWAP3 AND SWAP2 SWAP1 SWAP2 OR SWAP1 SSTORE JUMP JUMPDEST PUSH1 0x0 DUP1 PUSH1 0x0 PUSH2 0x6A2 PUSH2 0x8A8 JUMP JUMPDEST SWAP1 POP DUP4 PUSH1 0x1 PUSH1 0x1 PUSH1 0xA0 SHL SUB AND PUSH4 0x5909C0D5 PUSH1 0x40 MLOAD DUP2 PUSH4 0xFFFFFFFF AND PUSH1 0xE0 SHL DUP2 MSTORE PUSH1 0x4 ADD PUSH1 0x20 PUSH1 0x40 MLOAD DUP1 DUP4 SUB DUP2 DUP7 GAS STATICCALL ISZERO DUP1 ISZERO PUSH2 0x6E2 JUMPI RETURNDATASIZE PUSH1 0x0 DUP1 RETURNDATACOPY RETURNDATASIZE PUSH1 0x0 REVERT JUMPDEST POP POP POP POP PUSH1 0x40 MLOAD RETURNDATASIZE PUSH1 0x1F NOT PUSH1 0x1F DUP3 ADD AND DUP3 ADD DUP1 PUSH1 0x40 MSTORE POP DUP2 ADD SWAP1 PUSH2 0x706 SWAP2 SWAP1 PUSH2 0xD1E JUMP JUMPDEST SWAP3 POP DUP4 PUSH1 0x1 PUSH1 0x1 PUSH1 0xA0 SHL SUB AND PUSH4 0x5A3D5493 PUSH1 0x40 MLOAD DUP2 PUSH4 0xFFFFFFFF AND PUSH1 0xE0 SHL DUP2 MSTORE PUSH1 0x4 ADD PUSH1 0x20 PUSH1 0x40 MLOAD DUP1 DUP4 SUB DUP2 DUP7 GAS STATICCALL ISZERO DUP1 ISZERO PUSH2 0x746 JUMPI RETURNDATASIZE PUSH1 0x0 DUP1 RETURNDATACOPY RETURNDATASIZE PUSH1 0x0 REVERT JUMPDEST POP POP POP POP PUSH1 0x40 MLOAD RETURNDATASIZE PUSH1 0x1F NOT PUSH1 0x1F DUP3 ADD AND DUP3 ADD DUP1 PUSH1 0x40 MSTORE POP DUP2 ADD SWAP1 PUSH2 0x76A SWAP2 SWAP1 PUSH2 0xD1E JUMP JUMPDEST SWAP2 POP PUSH1 0x0 DUP1 PUSH1 0x0 DUP7 PUSH1 0x1 PUSH1 0x1 PUSH1 0xA0 SHL SUB AND PUSH4 0x902F1AC PUSH1 0x40 MLOAD DUP2 PUSH4 0xFFFFFFFF AND PUSH1 0xE0 SHL DUP2 MSTORE PUSH1 0x4 ADD PUSH1 0x60 PUSH1 0x40 MLOAD DUP1 DUP4 SUB DUP2 DUP7 GAS STATICCALL ISZERO DUP1 ISZERO PUSH2 0x7AF JUMPI RETURNDATASIZE PUSH1 0x0 DUP1 RETURNDATACOPY RETURNDATASIZE PUSH1 0x0 REVERT JUMPDEST POP POP POP POP PUSH1 0x40 MLOAD RETURNDATASIZE PUSH1 0x1F NOT PUSH1 0x1F DUP3 ADD AND DUP3 ADD DUP1 PUSH1 0x40 MSTORE POP DUP2 ADD SWAP1 PUSH2 0x7D3 SWAP2 SWAP1 PUSH2 0xD5A JUMP JUMPDEST SWAP3 POP SWAP3 POP SWAP3 POP DUP4 PUSH4 0xFFFFFFFF AND DUP2 PUSH4 0xFFFFFFFF AND EQ PUSH2 0x89E JUMPI PUSH1 0x0 PUSH2 0x7F8 DUP3 DUP7 PUSH2 0xCFA JUMP JUMPDEST SWAP1 POP DUP1 PUSH4 0xFFFFFFFF AND PUSH2 0x82B DUP5 PUSH14 0xFFFFFFFFFFFFFFFFFFFFFFFFFFFF AND DUP7 PUSH14 0xFFFFFFFFFFFFFFFFFFFFFFFFFFFF AND PUSH2 0x8BE JUMP JUMPDEST MLOAD PUSH2 0x83F SWAP2 SWAP1 PUSH1 0x1 PUSH1 0x1 PUSH1 0xE0 SHL SUB AND PUSH2 0xCB9 JUMP JUMPDEST PUSH2 0x849 SWAP1 DUP9 PUSH2 0xDAA JUMP JUMPDEST SWAP7 POP DUP1 PUSH4 0xFFFFFFFF AND PUSH2 0x87C DUP6 PUSH14 0xFFFFFFFFFFFFFFFFFFFFFFFFFFFF AND DUP6 PUSH14 0xFFFFFFFFFFFFFFFFFFFFFFFFFFFF AND PUSH2 0x8BE JUMP JUMPDEST MLOAD PUSH2 0x890 SWAP2 SWAP1 PUSH1 0x1 PUSH1 0x1 PUSH1 0xE0 SHL SUB AND PUSH2 0xCB9 JUMP JUMPDEST PUSH2 0x89A SWAP1 DUP8 PUSH2 0xDAA JUMP JUMPDEST SWAP6 POP POP JUMPDEST POP POP POP SWAP2 SWAP4 SWAP1 SWAP3 POP JUMP JUMPDEST PUSH1 0x0 PUSH2 0x8B9 PUSH5 0x100000000 TIMESTAMP PUSH2 0xDBD JUMP JUMPDEST SWAP1 POP SWAP1 JUMP JUMPDEST PUSH1 0x40 DUP1 MLOAD PUSH1 0x20 DUP2 ADD SWAP1 SWAP2 MSTORE PUSH1 0x0 DUP2 MSTORE PUSH1 0x0 DUP3 GT PUSH2 0x943 JUMPI PUSH1 0x40 MLOAD PUSH3 0x461BCD PUSH1 0xE5 SHL DUP2 MSTORE PUSH1 0x20 PUSH1 0x4 DUP3 ADD MSTORE PUSH1 0x26 PUSH1 0x24 DUP3 ADD MSTORE PUSH32 0x4669786564506F696E743A3A6672616374696F6E3A206469766973696F6E2062 PUSH1 0x44 DUP3 ADD MSTORE PUSH32 0x79207A65726F0000000000000000000000000000000000000000000000000000 PUSH1 0x64 DUP3 ADD MSTORE PUSH1 0x84 ADD PUSH2 0x366 JUMP JUMPDEST DUP3 PUSH1 0x0 SUB PUSH2 0x960 JUMPI POP PUSH1 0x40 DUP1 MLOAD PUSH1 0x20 DUP2 ADD SWAP1 SWAP2 MSTORE PUSH1 0x0 DUP2 MSTORE PUSH2 0x3AD JUMP JUMPDEST PUSH14 0xFFFFFFFFFFFFFFFFFFFFFFFFFFFF DUP4 GT PUSH2 0x9FE JUMPI PUSH1 0x0 PUSH2 0x985 DUP4 PUSH1 0x70 DUP7 SWAP1 SHL PUSH2 0xCE6 JUMP JUMPDEST SWAP1 POP PUSH1 0x1 PUSH1 0x1 PUSH1 0xE0 SHL SUB DUP2 GT ISZERO PUSH2 0x9DE JUMPI PUSH1 0x40 MLOAD PUSH3 0x461BCD PUSH1 0xE5 SHL DUP2 MSTORE PUSH1 0x20 PUSH1 0x4 DUP3 ADD MSTORE PUSH1 0x1E PUSH1 0x24 DUP3 ADD MSTORE PUSH32 0x4669786564506F696E743A3A6672616374696F6E3A206F766572666C6F770000 PUSH1 0x44 DUP3 ADD MSTORE PUSH1 0x64 ADD PUSH2 0x366 JUMP JUMPDEST PUSH1 0x40 MLOAD DUP1 PUSH1 0x20 ADD PUSH1 0x40 MSTORE DUP1 DUP3 PUSH1 0x1 PUSH1 0x1 PUSH1 0xE0 SHL SUB AND DUP2 MSTORE POP SWAP2 POP POP PUSH2 0x3AD JUMP JUMPDEST PUSH1 0x0 PUSH2 0x985 DUP5 PUSH15 0x10000000000000000000000000000 DUP6 PUSH1 0x0 DUP1 DUP1 PUSH1 0x0 NOT DUP6 DUP8 MULMOD DUP6 DUP8 MUL SWAP3 POP DUP3 DUP2 LT DUP4 DUP3 SUB SUB SWAP2 POP POP DUP1 PUSH1 0x0 SUB PUSH2 0xA4E JUMPI PUSH1 0x0 DUP5 GT PUSH2 0xA43 JUMPI PUSH1 0x0 DUP1 REVERT JUMPDEST POP DUP3 SWAP1 DIV SWAP1 POP PUSH2 0xB87 JUMP JUMPDEST DUP1 DUP5 GT PUSH2 0xA5A JUMPI PUSH1 0x0 DUP1 REVERT JUMPDEST PUSH1 0x0 DUP5 DUP7 DUP9 MULMOD DUP1 DUP5 SUB SWAP4 DUP2 GT SWAP1 SWAP3 SUB SWAP2 SWAP1 POP PUSH1 0x0 DUP6 PUSH2 0xA79 DUP2 DUP4 PUSH2 0xCA6 JUMP JUMPDEST AND SWAP6 DUP7 SWAP1 DIV SWAP6 SWAP4 DUP5 SWAP1 DIV SWAP4 PUSH1 0x0 DUP2 SWAP1 SUB DIV PUSH1 0x1 ADD SWAP1 POP PUSH2 0xA99 DUP2 DUP5 PUSH2 0xCB9 JUMP JUMPDEST SWAP1 SWAP4 OR SWAP3 PUSH1 0x0 PUSH2 0xAAA DUP8 PUSH1 0x3 PUSH2 0xCB9 JUMP JUMPDEST PUSH1 0x2 XOR SWAP1 POP PUSH2 0xAB9 DUP2 DUP9 PUSH2 0xCB9 JUMP JUMPDEST PUSH2 0xAC4 SWAP1 PUSH1 0x2 PUSH2 0xCA6 JUMP JUMPDEST PUSH2 0xACE SWAP1 DUP3 PUSH2 0xCB9 JUMP JUMPDEST SWAP1 POP PUSH2 0xADA DUP2 DUP9 PUSH2 0xCB9 JUMP JUMPDEST PUSH2 0xAE5 SWAP1 PUSH1 0x2 PUSH2 0xCA6 JUMP JUMPDEST PUSH2 0xAEF SWAP1 DUP3 PUSH2 0xCB9 JUMP JUMPDEST SWAP1 POP PUSH2 0xAFB DUP2 DUP9 PUSH2 0xCB9 JUMP JUMPDEST PUSH2 0xB06 SWAP1 PUSH1 0x2 PUSH2 0xCA6 JUMP JUMPDEST PUSH2 0xB10 SWAP1 DUP3 PUSH2 0xCB9 JUMP JUMPDEST SWAP1 POP PUSH2 0xB1C DUP2 DUP9 PUSH2 0xCB9 JUMP JUMPDEST PUSH2 0xB27 SWAP1 PUSH1 0x2 PUSH2 0xCA6 JUMP JUMPDEST PUSH2 0xB31 SWAP1 DUP3 PUSH2 0xCB9 JUMP JUMPDEST SWAP1 POP PUSH2 0xB3D DUP2 DUP9 PUSH2 0xCB9 JUMP JUMPDEST PUSH2 0xB48 SWAP1 PUSH1 0x2 PUSH2 0xCA6 JUMP JUMPDEST PUSH2 0xB52 SWAP1 DUP3 PUSH2 0xCB9 JUMP JUMPDEST SWAP1 POP PUSH2 0xB5E DUP2 DUP9 PUSH2 0xCB9 JUMP JUMPDEST PUSH2 0xB69 SWAP1 PUSH1 0x2 PUSH2 0xCA6 JUMP JUMPDEST PUSH2 0xB73 SWAP1 DUP3 PUSH2 0xCB9 JUMP JUMPDEST SWAP1 POP PUSH2 0xB7F DUP2 DUP7 PUSH2 0xCB9 JUMP JUMPDEST SWAP6 POP POP POP POP POP POP JUMPDEST SWAP4 SWAP3 POP POP POP JUMP JUMPDEST PUSH1 0x0 DUP1 PUSH1 0x40 DUP4 DUP6 SUB SLT ISZERO PUSH2 0xBA1 JUMPI PUSH1 0x0 DUP1 REVERT JUMPDEST DUP3 CALLDATALOAD PUSH1 0x1 PUSH1 0x1 PUSH1 0xA0 SHL SUB DUP2 AND DUP2 EQ PUSH2 0xBB8 JUMPI PUSH1 0x0 DUP1 REVERT JUMPDEST SWAP5 PUSH1 0x20 SWAP4 SWAP1 SWAP4 ADD CALLDATALOAD SWAP4 POP POP POP JUMP JUMPDEST PUSH1 0x0 DUP1 PUSH1 0x20 DUP4 DUP6 SUB SLT ISZERO PUSH2 0xBD9 JUMPI PUSH1 0x0 DUP1 REVERT JUMPDEST DUP3 CALLDATALOAD PUSH8 0xFFFFFFFFFFFFFFFF DUP1 DUP3 GT ISZERO PUSH2 0xBF1 JUMPI PUSH1 0x0 DUP1 REVERT JUMPDEST DUP2 DUP6 ADD SWAP2 POP DUP6 PUSH1 0x1F DUP4 ADD SLT PUSH2 0xC05 JUMPI PUSH1 0x0 DUP1 REVERT JUMPDEST DUP2 CALLDATALOAD DUP2 DUP2 GT ISZERO PUSH2 0xC14 JUMPI PUSH1 0x0 DUP1 REVERT JUMPDEST DUP7 PUSH1 0x20 DUP3 DUP6 ADD ADD GT ISZERO PUSH2 0xC26 JUMPI PUSH1 0x0 DUP1 REVERT JUMPDEST PUSH1 0x20 SWAP3 SWAP1 SWAP3 ADD SWAP7 SWAP2 SWAP6 POP SWAP1 SWAP4 POP POP POP POP JUMP JUMPDEST DUP3 ISZERO ISZERO DUP2 MSTORE PUSH1 0x0 PUSH1 0x20 PUSH1 0x40 DUP2 DUP5 ADD MSTORE DUP4 MLOAD DUP1 PUSH1 0x40 DUP6 ADD MSTORE PUSH1 0x0 JUMPDEST DUP2 DUP2 LT ISZERO PUSH2 0xC6E JUMPI DUP6 DUP2 ADD DUP4 ADD MLOAD DUP6 DUP3 ADD PUSH1 0x60 ADD MSTORE DUP3 ADD PUSH2 0xC52 JUMP JUMPDEST POP PUSH1 0x0 PUSH1 0x60 DUP3 DUP7 ADD ADD MSTORE PUSH1 0x60 PUSH1 0x1F NOT PUSH1 0x1F DUP4 ADD AND DUP6 ADD ADD SWAP3 POP POP POP SWAP4 SWAP3 POP POP POP JUMP JUMPDEST PUSH4 0x4E487B71 PUSH1 0xE0 SHL PUSH1 0x0 MSTORE PUSH1 0x11 PUSH1 0x4 MSTORE PUSH1 0x24 PUSH1 0x0 REVERT JUMPDEST DUP2 DUP2 SUB DUP2 DUP2 GT ISZERO PUSH2 0x3AD JUMPI PUSH2 0x3AD PUSH2 0xC90 JUMP JUMPDEST DUP1 DUP3 MUL DUP2 ISZERO DUP3 DUP3 DIV DUP5 EQ OR PUSH2 0x3AD JUMPI PUSH2 0x3AD PUSH2 0xC90 JUMP JUMPDEST PUSH4 0x4E487B71 PUSH1 0xE0 SHL PUSH1 0x0 MSTORE PUSH1 0x12 PUSH1 0x4 MSTORE PUSH1 0x24 PUSH1 0x0 REVERT JUMPDEST PUSH1 0x0 DUP3 PUSH2 0xCF5 JUMPI PUSH2 0xCF5 PUSH2 0xCD0 JUMP JUMPDEST POP DIV SWAP1 JUMP JUMPDEST PUSH4 0xFFFFFFFF DUP3 DUP2 AND DUP3 DUP3 AND SUB SWAP1 DUP1 DUP3 GT ISZERO PUSH2 0xD17 JUMPI PUSH2 0xD17 PUSH2 0xC90 JUMP JUMPDEST POP SWAP3 SWAP2 POP POP JUMP JUMPDEST PUSH1 0x0 PUSH1 0x20 DUP3 DUP5 SUB SLT ISZERO PUSH2 0xD30 JUMPI PUSH1 0x0 DUP1 REVERT JUMPDEST POP MLOAD SWAP2 SWAP1 POP JUMP JUMPDEST DUP1 MLOAD PUSH14 0xFFFFFFFFFFFFFFFFFFFFFFFFFFFF DUP2 AND DUP2 EQ PUSH2 0xD55 JUMPI PUSH1 0x0 DUP1 REVERT JUMPDEST SWAP2 SWAP1 POP JUMP JUMPDEST PUSH1 0x0 DUP1 PUSH1 0x0 PUSH1 0x60 DUP5 DUP7 SUB SLT ISZERO PUSH2 0xD6F JUMPI PUSH1 0x0 DUP1 REVERT JUMPDEST PUSH2 0xD78 DUP5 PUSH2 0xD37 JUMP JUMPDEST SWAP3 POP PUSH2 0xD86 PUSH1 0x20 DUP6 ADD PUSH2 0xD37 JUMP JUMPDEST SWAP2 POP PUSH1 0x40 DUP5 ADD MLOAD PUSH4 0xFFFFFFFF DUP2 AND DUP2 EQ PUSH2 0xD9F JUMPI PUSH1 0x0 DUP1 REVERT JUMPDEST DUP1 SWAP2 POP POP SWAP3 POP SWAP3 POP SWAP3 JUMP JUMPDEST DUP1 DUP3 ADD DUP1 DUP3 GT ISZERO PUSH2 0x3AD JUMPI PUSH2 0x3AD PUSH2 0xC90 JUMP JUMPDEST PUSH1 0x0 DUP3 PUSH2 0xDCC JUMPI PUSH2 0xDCC PUSH2 0xCD0 JUMP JUMPDEST POP MOD SWAP1 JUMP INVALID LOG2 PUSH5 0x6970667358 0x22 SLT KECCAK256 RETURNDATACOPY BLOCKHASH DUP12 MSTORE PUSH11 0x167D6F91D8822C180B5110 0xB8 GAS 0x22 0x1E SWAP9 DUP10 0xA7 DUP2 0xB4 0x2E PUSH11 0xD1A8C6BF8F64736F6C6343 STOP ADDMOD EQ STOP CALLER "},"gasEstimates":{"creation":{"codeDepositCost":"718200","executionCost":"infinite","totalCost":"infinite"},"external":{"PERIOD()":"239","blockTimestampLast()":"2379","checkUpkeep(bytes)":"infinite","consult(address,uint256)":"infinite","pair()":"2348","performUpkeep(bytes)":"infinite","price0Average()":"2404","price0CumulativeLast()":"2318","price1Average()":"2404","price1CumulativeLast()":"2340","token0()":"infinite","token1()":"infinite","update()":"infinite"},"internal":{"_update()":"infinite"}},"methodIdentifiers":{"PERIOD()":"b4d1d795","blockTimestampLast()":"c5700a02","checkUpkeep(bytes)":"6e04ff0d","consult(address,uint256)":"3ddac953","pair()":"a8aa1b31","performUpkeep(bytes)":"4585e33b","price0Average()":"a6bb4539","price0CumulativeLast()":"5909c0d5","price1Average()":"5e6aaf2c","price1CumulativeLast()":"5a3d5493","token0()":"0dfe1681","token1()":"d21220a7","update()":"a2e62045"}},"storageLayout":{"storage":[{"astId":39,"contract":"contracts/LPMining/PriceOracle.sol:PriceOracle","label":"pair","offset":0,"slot":"0","type":"t_contract(IUniswapV2Pair)600"},{"astId":45,"contract":"contracts/LPMining/PriceOracle.sol:PriceOracle","label":"price0CumulativeLast","offset":0,"slot":"1","type":"t_uint256"},{"astId":47,"contract":"contracts/LPMining/PriceOracle.sol:PriceOracle","label":"price1CumulativeLast","offset":0,"slot":"2","type":"t_uint256"},{"astId":49,"contract":"contracts/LPMining/PriceOracle.sol:PriceOracle","label":"blockTimestampLast","offset":0,"slot":"3","type":"t_uint32"},{"astId":52,"contract":"contracts/LPMining/PriceOracle.sol:PriceOracle","label":"price0Average","offset":0,"slot":"4","type":"t_struct(uq112x112)1089_storage"},{"astId":55,"contract":"contracts/LPMining/PriceOracle.sol:PriceOracle","label":"price1Average","offset":0,"slot":"5","type":"t_struct(uq112x112)1089_storage"}],"types":{"t_contract(IUniswapV2Pair)600":{"encoding":"inplace","label":"contract IUniswapV2Pair","numberOfBytes":"20"},"t_struct(uq112x112)1089_storage":{"encoding":"inplace","label":"struct FixedPoint.uq112x112","members":[{"astId":1088,"contract":"contracts/LPMining/PriceOracle.sol:PriceOracle","label":"_x","offset":0,"slot":"0","type":"t_uint224"}],"numberOfBytes":"32"},"t_uint224":{"encoding":"inplace","label":"uint224","numberOfBytes":"28"},"t_uint256":{"encoding":"inplace","label":"uint256","numberOfBytes":"32"},"t_uint32":{"encoding":"inplace","label":"uint32","numberOfBytes":"4"}}},"userdoc":{"kind":"user","methods":{"checkUpkeep(bytes)":{"notice":"method that is simulated by the keepers to see if any work actually needs to be performed. This method does does not actually need to be executable, and since it is only ever simulated it can consume lots of gas."},"performUpkeep(bytes)":{"notice":"method that is actually executed by the keepers, via the registry. The data returned by the checkUpkeep simulation will be passed into this method to actually be executed."}},"version":1}}}}