{
  "_format": "hh-sol-artifact-1",
  "contractName": "Mining",
  "sourceName": "contracts/LPMining/Mining.sol",
  "abi": [
    {
      "inputs": [
        {
          "internalType": "address",
          "name": "_fdicAddr",
          "type": "address"
        },
        {
          "internalType": "address",
          "name": "_wethAddr",
          "type": "address"
        },
        {
          "internalType": "address",
          "name": "_multisig",
          "type": "address"
        },
        {
          "internalType": "address",
          "name": "_vestingContractAddress",
          "type": "address"
        },
        {
          "internalType": "address",
          "name": "_oracle",
          "type": "address"
        },
        {
          "internalType": "address",
          "name": "_pairAddr",
          "type": "address"
        }
      ],
      "stateMutability": "nonpayable",
      "type": "constructor"
    },
    {
      "inputs": [
        {
          "internalType": "address",
          "name": "owner",
          "type": "address"
        }
      ],
      "name": "OwnableInvalidOwner",
      "type": "error"
    },
    {
      "inputs": [
        {
          "internalType": "address",
          "name": "account",
          "type": "address"
        }
      ],
      "name": "OwnableUnauthorizedAccount",
      "type": "error"
    },
    {
      "anonymous": false,
      "inputs": [
        {
          "indexed": true,
          "internalType": "address",
          "name": "depositor",
          "type": "address"
        },
        {
          "indexed": false,
          "internalType": "uint256",
          "name": "amount",
          "type": "uint256"
        },
        {
          "indexed": false,
          "internalType": "uint256",
          "name": "fdicPayout",
          "type": "uint256"
        }
      ],
      "name": "Capitalization",
      "type": "event"
    },
    {
      "anonymous": false,
      "inputs": [
        {
          "indexed": true,
          "internalType": "address",
          "name": "previousOwner",
          "type": "address"
        },
        {
          "indexed": true,
          "internalType": "address",
          "name": "newOwner",
          "type": "address"
        }
      ],
      "name": "OwnershipTransferred",
      "type": "event"
    },
    {
      "inputs": [],
      "name": "MAX_LP",
      "outputs": [
        {
          "internalType": "uint256",
          "name": "",
          "type": "uint256"
        }
      ],
      "stateMutability": "view",
      "type": "function"
    },
    {
      "inputs": [
        {
          "internalType": "uint256",
          "name": "_lpTokenAmount",
          "type": "uint256"
        }
      ],
      "name": "calculatePayout",
      "outputs": [
        {
          "internalType": "uint256",
          "name": "fdicPayout",
          "type": "uint256"
        }
      ],
      "stateMutability": "view",
      "type": "function"
    },
    {
      "inputs": [
        {
          "internalType": "uint256",
          "name": "_lpTokenAmount",
          "type": "uint256"
        }
      ],
      "name": "deposit",
      "outputs": [],
      "stateMutability": "nonpayable",
      "type": "function"
    },
    {
      "inputs": [],
      "name": "discount",
      "outputs": [
        {
          "internalType": "uint256",
          "name": "",
          "type": "uint256"
        }
      ],
      "stateMutability": "view",
      "type": "function"
    },
    {
      "inputs": [],
      "name": "oracle",
      "outputs": [
        {
          "internalType": "contract IPriceOracle",
          "name": "",
          "type": "address"
        }
      ],
      "stateMutability": "view",
      "type": "function"
    },
    {
      "inputs": [],
      "name": "owner",
      "outputs": [
        {
          "internalType": "address",
          "name": "",
          "type": "address"
        }
      ],
      "stateMutability": "view",
      "type": "function"
    },
    {
      "inputs": [],
      "name": "pair",
      "outputs": [
        {
          "internalType": "contract IUniswapV2Pair",
          "name": "",
          "type": "address"
        }
      ],
      "stateMutability": "view",
      "type": "function"
    },
    {
      "inputs": [],
      "name": "renounceOwnership",
      "outputs": [],
      "stateMutability": "nonpayable",
      "type": "function"
    },
    {
      "inputs": [
        {
          "internalType": "address",
          "name": "_pair",
          "type": "address"
        }
      ],
      "name": "setTokenPair",
      "outputs": [],
      "stateMutability": "nonpayable",
      "type": "function"
    },
    {
      "inputs": [],
      "name": "totalLPTokens",
      "outputs": [
        {
          "internalType": "uint256",
          "name": "",
          "type": "uint256"
        }
      ],
      "stateMutability": "view",
      "type": "function"
    },
    {
      "inputs": [
        {
          "internalType": "address",
          "name": "newOwner",
          "type": "address"
        }
      ],
      "name": "transferOwnership",
      "outputs": [],
      "stateMutability": "nonpayable",
      "type": "function"
    },
    {
      "inputs": [
        {
          "internalType": "uint256",
          "name": "_newDiscount",
          "type": "uint256"
        }
      ],
      "name": "updateDiscount",
      "outputs": [],
      "stateMutability": "nonpayable",
      "type": "function"
    }
  ],
  "bytecode": "0x60806040523480156200001157600080fd5b5060405162000fd438038062000fd4833981016040819052620000349162000153565b33806200005b57604051631e4fbdf760e01b81526000600482015260240160405180910390fd5b6200006681620000e6565b50600380546001600160a01b03199081166001600160a01b039889161790915560028054821696881696909617909555600180548616938716939093179092556064600455600019600855600a805485169386169390931790925560078054841692851692909217909155600680549092169216919091179055620001d4565b600080546001600160a01b038381166001600160a01b0319831681178455604051919092169283917f8be0079c531659141344cd1fd0a4f28419497f9722a3daafe3b4186f6b6457e09190a35050565b80516001600160a01b03811681146200014e57600080fd5b919050565b60008060008060008060c087890312156200016d57600080fd5b620001788762000136565b9550620001886020880162000136565b9450620001986040880162000136565b9350620001a86060880162000136565b9250620001b86080880162000136565b9150620001c860a0880162000136565b90509295509295509295565b610df080620001e46000396000f3fe608060405234801561001057600080fd5b50600436106100d45760003560e01c80638da5cb5b11610081578063d0c3df0f1161005b578063d0c3df0f14610190578063ef6283d9146101a3578063f2fde38b146101ac57600080fd5b80638da5cb5b14610159578063a8aa1b311461016a578063b6b55f251461017d57600080fd5b80636b6f4a9d116100b25780636b6f4a9d1461011d578063715018a6146101265780637dc0d1d01461012e57600080fd5b80633bb91c77146100d957806344294436146100ff5780635d3fdd1914610108575b600080fd5b6100ec6100e7366004610c3b565b6101bf565b6040519081526020015b60405180910390f35b6100ec60085481565b61011b610116366004610c3b565b6104fd565b005b6100ec60045481565b61011b61050a565b600754610141906001600160a01b031681565b6040516001600160a01b0390911681526020016100f6565b6000546001600160a01b0316610141565b600654610141906001600160a01b031681565b61011b61018b366004610c3b565b61051e565b61011b61019e366004610c69565b610947565b6100ec60055481565b61011b6101ba366004610c69565b61097e565b600080600080600660009054906101000a90046001600160a01b03166001600160a01b0316630dfe16816040518163ffffffff1660e01b8152600401602060405180830381865afa158015610218573d6000803e3d6000fd5b505050506040513d601f19601f8201168201806040525081019061023c9190610c8d565b6002546001600160a01b039081169116146102d557600660009054906101000a90046001600160a01b03166001600160a01b0316630902f1ac6040518163ffffffff1660e01b8152600401606060405180830381865afa1580156102a4573d6000803e3d6000fd5b505050506040513d601f19601f820116820180604052508101906102c89190610ccd565b9094509092509050610354565b600660009054906101000a90046001600160a01b03166001600160a01b0316630902f1ac6040518163ffffffff1660e01b8152600401606060405180830381865afa158015610328573d6000803e3d6000fd5b505050506040513d601f19601f8201168201806040525081019061034c9190610ccd565b919450925090505b600654604080517f18160ddd00000000000000000000000000000000000000000000000000000000815290516000926001600160a01b0316916318160ddd9160048083019260209291908290030181865afa1580156103b7573d6000803e3d6000fd5b505050506040513d601f19601f820116820180604052508101906103db9190610d1d565b6103f56dffffffffffffffffffffffffffff861688610d4c565b6103ff9190610d63565b90506000600660009054906101000a90046001600160a01b03166001600160a01b03166318160ddd6040518163ffffffff1660e01b8152600401602060405180830381865afa158015610456573d6000803e3d6000fd5b505050506040513d601f19601f8201168201806040525081019061047a9190610d1d565b6104946dffffffffffffffffffffffffffff861689610d4c565b61049e9190610d63565b905060006104cd83876dffffffffffffffffffffffffffff16876dffffffffffffffffffffffffffff166109d5565b905060006104db8383610d85565b90506104e681610aeb565b6104f09082610d85565b9998505050505050505050565b610505610b0e565b600455565b610512610b0e565b61051c6000610b54565b565b6008548160055461052f9190610d85565b106105a75760405162461bcd60e51b815260206004820152603960248201527f72656163686564204c50207468726573686f6c642c206e6f206c6f6e6765722060448201527f616363657074696e67206361706974616c697a6174696f6e730000000000000060648201526084015b60405180910390fd5b6006546040517f70a0823100000000000000000000000000000000000000000000000000000000815233600482015282916001600160a01b0316906370a0823190602401602060405180830381865afa158015610608573d6000803e3d6000fd5b505050506040513d601f19601f8201168201806040525081019061062c9190610d1d565b101561067a5760405162461bcd60e51b815260206004820152601260248201527f496e73756666696369656e742066756e64730000000000000000000000000000604482015260640161059e565b600081116106ca5760405162461bcd60e51b815260206004820152600e60248201527f496e76616c696420616d6f756e74000000000000000000000000000000000000604482015260640161059e565b600654600a546040517f23b872dd0000000000000000000000000000000000000000000000000000000081523360048201526001600160a01b0391821660248201526044810184905260009291909116906323b872dd906064016020604051808303816000875af1158015610743573d6000803e3d6000fd5b505050506040513d601f19601f820116820180604052508101906107679190610d98565b9050806107b65760405162461bcd60e51b815260206004820152601860248201527f4c5020746f6b656e207472616e73666572206661696c65640000000000000000604482015260640161059e565b6040517f3bb91c77000000000000000000000000000000000000000000000000000000008152600481018390526000903090633bb91c7790602401602060405180830381865afa15801561080e573d6000803e3d6000fd5b505050506040513d601f19601f820116820180604052508101906108329190610d1d565b905061083d83610bb1565b604080518481526020810183905233917f66d18ebaf0b350f46e728ab4f8d428df7237d091a1d00f008bb1fb1ef927043b910160405180910390a2600180546040517f17e289e90000000000000000000000000000000000000000000000000000000081523360048201524260248201526000604482018190526203f4806064830152608482019390935260a481019290925260c482018390526001600160a01b0316906317e289e99060e401600060405180830381600087803b15801561090457600080fd5b505af1158015610918573d6000803e3d6000fd5b505033600090815260096020526040812080546001945090925061093d908490610d85565b9091555050505050565b61094f610b0e565b6006805473ffffffffffffffffffffffffffffffffffffffff19166001600160a01b0392909216919091179055565b610986610b0e565b6001600160a01b0381166109c9576040517f1e4fbdf70000000000000000000000000000000000000000000000000000000081526000600482015260240161059e565b6109d281610b54565b50565b6000808411610a4c5760405162461bcd60e51b815260206004820152602560248201527f556e697377617056324c6962726172793a20494e53554646494349454e545f4160448201527f4d4f554e54000000000000000000000000000000000000000000000000000000606482015260840161059e565b600083118015610a5c5750600082115b610ace5760405162461bcd60e51b815260206004820152602860248201527f556e697377617056324c6962726172793a20494e53554646494349454e545f4c60448201527f4951554944495459000000000000000000000000000000000000000000000000606482015260840161059e565b82610ad98584610bcb565b610ae39190610d63565b949350505050565b600061271082600454610afe9190610d4c565b610b089190610d63565b92915050565b6000546001600160a01b0316331461051c576040517f118cdaa700000000000000000000000000000000000000000000000000000000815233600482015260240161059e565b600080546001600160a01b0383811673ffffffffffffffffffffffffffffffffffffffff19831681178455604051919092169283917f8be0079c531659141344cd1fd0a4f28419497f9722a3daafe3b4186f6b6457e09190a35050565b8060056000828254610bc39190610d85565b909155505050565b6000811580610bef57508282610be18183610d4c565b9250610bed9083610d63565b145b610b085760405162461bcd60e51b815260206004820152601460248201527f64732d6d6174682d6d756c2d6f766572666c6f77000000000000000000000000604482015260640161059e565b600060208284031215610c4d57600080fd5b5035919050565b6001600160a01b03811681146109d257600080fd5b600060208284031215610c7b57600080fd5b8135610c8681610c54565b9392505050565b600060208284031215610c9f57600080fd5b8151610c8681610c54565b80516dffffffffffffffffffffffffffff81168114610cc857600080fd5b919050565b600080600060608486031215610ce257600080fd5b610ceb84610caa565b9250610cf960208501610caa565b9150604084015163ffffffff81168114610d1257600080fd5b809150509250925092565b600060208284031215610d2f57600080fd5b5051919050565b634e487b7160e01b600052601160045260246000fd5b8082028115828204841417610b0857610b08610d36565b600082610d8057634e487b7160e01b600052601260045260246000fd5b500490565b80820180821115610b0857610b08610d36565b600060208284031215610daa57600080fd5b81518015158114610c8657600080fdfea2646970667358221220be7dc0cde6c98030487e9978351c7cd51932b76005b1d51299ab979f6f59d6fc64736f6c63430008140033",
  "linkReferences": {},
  "deployedLinkReferences": {}
}