{
  "_format": "hh-sol-artifact-1",
  "contractName": "Mining",
  "sourceName": "contracts/LPMining/Mining.sol",
  "abi": [
    {
      "inputs": [
        {
          "internalType": "address",
          "name": "_fdicAddr",
          "type": "address"
        },
        {
          "internalType": "address",
          "name": "_wethAddr",
          "type": "address"
        },
        {
          "internalType": "address",
          "name": "_multisig",
          "type": "address"
        },
        {
          "internalType": "address",
          "name": "_vestingContractAddress",
          "type": "address"
        },
        {
          "internalType": "address",
          "name": "_pairAddr",
          "type": "address"
        }
      ],
      "stateMutability": "nonpayable",
      "type": "constructor"
    },
    {
      "inputs": [
        {
          "internalType": "address",
          "name": "owner",
          "type": "address"
        }
      ],
      "name": "OwnableInvalidOwner",
      "type": "error"
    },
    {
      "inputs": [
        {
          "internalType": "address",
          "name": "account",
          "type": "address"
        }
      ],
      "name": "OwnableUnauthorizedAccount",
      "type": "error"
    },
    {
      "anonymous": false,
      "inputs": [
        {
          "indexed": true,
          "internalType": "address",
          "name": "depositor",
          "type": "address"
        },
        {
          "indexed": false,
          "internalType": "uint256",
          "name": "amount",
          "type": "uint256"
        },
        {
          "indexed": false,
          "internalType": "uint256",
          "name": "fdicPayout",
          "type": "uint256"
        }
      ],
      "name": "Capitalization",
      "type": "event"
    },
    {
      "anonymous": false,
      "inputs": [
        {
          "indexed": true,
          "internalType": "address",
          "name": "previousOwner",
          "type": "address"
        },
        {
          "indexed": true,
          "internalType": "address",
          "name": "newOwner",
          "type": "address"
        }
      ],
      "name": "OwnershipTransferred",
      "type": "event"
    },
    {
      "inputs": [],
      "name": "MAX_LP",
      "outputs": [
        {
          "internalType": "uint256",
          "name": "",
          "type": "uint256"
        }
      ],
      "stateMutability": "view",
      "type": "function"
    },
    {
      "inputs": [
        {
          "internalType": "uint256",
          "name": "_lpTokenAmount",
          "type": "uint256"
        }
      ],
      "name": "calculatePayout",
      "outputs": [
        {
          "internalType": "uint256",
          "name": "fdicPayout",
          "type": "uint256"
        }
      ],
      "stateMutability": "view",
      "type": "function"
    },
    {
      "inputs": [
        {
          "internalType": "uint256",
          "name": "_lpTokenAmount",
          "type": "uint256"
        }
      ],
      "name": "deposit",
      "outputs": [],
      "stateMutability": "nonpayable",
      "type": "function"
    },
    {
      "inputs": [],
      "name": "discount",
      "outputs": [
        {
          "internalType": "uint256",
          "name": "",
          "type": "uint256"
        }
      ],
      "stateMutability": "view",
      "type": "function"
    },
    {
      "inputs": [],
      "name": "owner",
      "outputs": [
        {
          "internalType": "address",
          "name": "",
          "type": "address"
        }
      ],
      "stateMutability": "view",
      "type": "function"
    },
    {
      "inputs": [],
      "name": "pair",
      "outputs": [
        {
          "internalType": "contract IUniswapV2Pair",
          "name": "",
          "type": "address"
        }
      ],
      "stateMutability": "view",
      "type": "function"
    },
    {
      "inputs": [],
      "name": "renounceOwnership",
      "outputs": [],
      "stateMutability": "nonpayable",
      "type": "function"
    },
    {
      "inputs": [
        {
          "internalType": "address",
          "name": "_pair",
          "type": "address"
        }
      ],
      "name": "setTokenPair",
      "outputs": [],
      "stateMutability": "nonpayable",
      "type": "function"
    },
    {
      "inputs": [],
      "name": "totalLPTokens",
      "outputs": [
        {
          "internalType": "uint256",
          "name": "",
          "type": "uint256"
        }
      ],
      "stateMutability": "view",
      "type": "function"
    },
    {
      "inputs": [
        {
          "internalType": "address",
          "name": "newOwner",
          "type": "address"
        }
      ],
      "name": "transferOwnership",
      "outputs": [],
      "stateMutability": "nonpayable",
      "type": "function"
    },
    {
      "inputs": [
        {
          "internalType": "uint256",
          "name": "_newDiscount",
          "type": "uint256"
        }
      ],
      "name": "updateDiscount",
      "outputs": [],
      "stateMutability": "nonpayable",
      "type": "function"
    }
  ],
  "bytecode": "0x60806040523480156200001157600080fd5b5060405162000f9238038062000f92833981016040819052620000349162000144565b33806200005b57604051631e4fbdf760e01b81526000600482015260240160405180910390fd5b6200006681620000d7565b50600380546001600160a01b03199081166001600160a01b0397881617909155600280548216958716959095179094556001805485169286169290921790915561271060045560001960075560098054841692851692909217909155600680549092169216919091179055620001b4565b600080546001600160a01b038381166001600160a01b0319831681178455604051919092169283917f8be0079c531659141344cd1fd0a4f28419497f9722a3daafe3b4186f6b6457e09190a35050565b80516001600160a01b03811681146200013f57600080fd5b919050565b600080600080600060a086880312156200015d57600080fd5b620001688662000127565b9450620001786020870162000127565b9350620001886040870162000127565b9250620001986060870162000127565b9150620001a86080870162000127565b90509295509295909350565b610dce80620001c46000396000f3fe608060405234801561001057600080fd5b50600436106100c95760003560e01c80638da5cb5b11610081578063d0c3df0f1161005b578063d0c3df0f1461016e578063ef6283d914610181578063f2fde38b1461018a57600080fd5b80638da5cb5b14610123578063a8aa1b3114610148578063b6b55f251461015b57600080fd5b80635d3fdd19116100b25780635d3fdd19146100fd5780636b6f4a9d14610112578063715018a61461011b57600080fd5b80633bb91c77146100ce57806344294436146100f4575b600080fd5b6100e16100dc366004610c19565b61019d565b6040519081526020015b60405180910390f35b6100e160075481565b61011061010b366004610c19565b6104db565b005b6100e160045481565b6101106104e8565b6000546001600160a01b03165b6040516001600160a01b0390911681526020016100eb565b600654610130906001600160a01b031681565b610110610169366004610c19565b6104fc565b61011061017c366004610c47565b610925565b6100e160055481565b610110610198366004610c47565b61095c565b600080600080600660009054906101000a90046001600160a01b03166001600160a01b0316630dfe16816040518163ffffffff1660e01b8152600401602060405180830381865afa1580156101f6573d6000803e3d6000fd5b505050506040513d601f19601f8201168201806040525081019061021a9190610c6b565b6002546001600160a01b039081169116146102b357600660009054906101000a90046001600160a01b03166001600160a01b0316630902f1ac6040518163ffffffff1660e01b8152600401606060405180830381865afa158015610282573d6000803e3d6000fd5b505050506040513d601f19601f820116820180604052508101906102a69190610cab565b9094509092509050610332565b600660009054906101000a90046001600160a01b03166001600160a01b0316630902f1ac6040518163ffffffff1660e01b8152600401606060405180830381865afa158015610306573d6000803e3d6000fd5b505050506040513d601f19601f8201168201806040525081019061032a9190610cab565b919450925090505b600654604080517f18160ddd00000000000000000000000000000000000000000000000000000000815290516000926001600160a01b0316916318160ddd9160048083019260209291908290030181865afa158015610395573d6000803e3d6000fd5b505050506040513d601f19601f820116820180604052508101906103b99190610cfb565b6103d36dffffffffffffffffffffffffffff861688610d2a565b6103dd9190610d41565b90506000600660009054906101000a90046001600160a01b03166001600160a01b03166318160ddd6040518163ffffffff1660e01b8152600401602060405180830381865afa158015610434573d6000803e3d6000fd5b505050506040513d601f19601f820116820180604052508101906104589190610cfb565b6104726dffffffffffffffffffffffffffff861689610d2a565b61047c9190610d41565b905060006104ab83876dffffffffffffffffffffffffffff16876dffffffffffffffffffffffffffff166109b3565b905060006104b98383610d63565b90506104c481610ac9565b6104ce9082610d63565b9998505050505050505050565b6104e3610aec565b600455565b6104f0610aec565b6104fa6000610b32565b565b6007548160055461050d9190610d63565b106105855760405162461bcd60e51b815260206004820152603960248201527f72656163686564204c50207468726573686f6c642c206e6f206c6f6e6765722060448201527f616363657074696e67206361706974616c697a6174696f6e730000000000000060648201526084015b60405180910390fd5b6006546040517f70a0823100000000000000000000000000000000000000000000000000000000815233600482015282916001600160a01b0316906370a0823190602401602060405180830381865afa1580156105e6573d6000803e3d6000fd5b505050506040513d601f19601f8201168201806040525081019061060a9190610cfb565b10156106585760405162461bcd60e51b815260206004820152601260248201527f496e73756666696369656e742066756e64730000000000000000000000000000604482015260640161057c565b600081116106a85760405162461bcd60e51b815260206004820152600e60248201527f496e76616c696420616d6f756e74000000000000000000000000000000000000604482015260640161057c565b6006546009546040517f23b872dd0000000000000000000000000000000000000000000000000000000081523360048201526001600160a01b0391821660248201526044810184905260009291909116906323b872dd906064016020604051808303816000875af1158015610721573d6000803e3d6000fd5b505050506040513d601f19601f820116820180604052508101906107459190610d76565b9050806107945760405162461bcd60e51b815260206004820152601860248201527f4c5020746f6b656e207472616e73666572206661696c65640000000000000000604482015260640161057c565b6040517f3bb91c77000000000000000000000000000000000000000000000000000000008152600481018390526000903090633bb91c7790602401602060405180830381865afa1580156107ec573d6000803e3d6000fd5b505050506040513d601f19601f820116820180604052508101906108109190610cfb565b905061081b83610b8f565b604080518481526020810183905233917f66d18ebaf0b350f46e728ab4f8d428df7237d091a1d00f008bb1fb1ef927043b910160405180910390a2600180546040517f17e289e90000000000000000000000000000000000000000000000000000000081523360048201524260248201526000604482018190526276a7006064830152608482019390935260a481019290925260c482018390526001600160a01b0316906317e289e99060e401600060405180830381600087803b1580156108e257600080fd5b505af11580156108f6573d6000803e3d6000fd5b505033600090815260086020526040812080546001945090925061091b908490610d63565b9091555050505050565b61092d610aec565b6006805473ffffffffffffffffffffffffffffffffffffffff19166001600160a01b0392909216919091179055565b610964610aec565b6001600160a01b0381166109a7576040517f1e4fbdf70000000000000000000000000000000000000000000000000000000081526000600482015260240161057c565b6109b081610b32565b50565b6000808411610a2a5760405162461bcd60e51b815260206004820152602560248201527f556e697377617056324c6962726172793a20494e53554646494349454e545f4160448201527f4d4f554e54000000000000000000000000000000000000000000000000000000606482015260840161057c565b600083118015610a3a5750600082115b610aac5760405162461bcd60e51b815260206004820152602860248201527f556e697377617056324c6962726172793a20494e53554646494349454e545f4c60448201527f4951554944495459000000000000000000000000000000000000000000000000606482015260840161057c565b82610ab78584610ba9565b610ac19190610d41565b949350505050565b600061271082600454610adc9190610d2a565b610ae69190610d41565b92915050565b6000546001600160a01b031633146104fa576040517f118cdaa700000000000000000000000000000000000000000000000000000000815233600482015260240161057c565b600080546001600160a01b0383811673ffffffffffffffffffffffffffffffffffffffff19831681178455604051919092169283917f8be0079c531659141344cd1fd0a4f28419497f9722a3daafe3b4186f6b6457e09190a35050565b8060056000828254610ba19190610d63565b909155505050565b6000811580610bcd57508282610bbf8183610d2a565b9250610bcb9083610d41565b145b610ae65760405162461bcd60e51b815260206004820152601460248201527f64732d6d6174682d6d756c2d6f766572666c6f77000000000000000000000000604482015260640161057c565b600060208284031215610c2b57600080fd5b5035919050565b6001600160a01b03811681146109b057600080fd5b600060208284031215610c5957600080fd5b8135610c6481610c32565b9392505050565b600060208284031215610c7d57600080fd5b8151610c6481610c32565b80516dffffffffffffffffffffffffffff81168114610ca657600080fd5b919050565b600080600060608486031215610cc057600080fd5b610cc984610c88565b9250610cd760208501610c88565b9150604084015163ffffffff81168114610cf057600080fd5b809150509250925092565b600060208284031215610d0d57600080fd5b5051919050565b634e487b7160e01b600052601160045260246000fd5b8082028115828204841417610ae657610ae6610d14565b600082610d5e57634e487b7160e01b600052601260045260246000fd5b500490565b80820180821115610ae657610ae6610d14565b600060208284031215610d8857600080fd5b81518015158114610c6457600080fdfea26469706673582212208086455249ebf5c54ad70fff90e42c158611f1095f8379482a6d641a925c6f5d64736f6c63430008140033",
  "linkReferences": {},
  "deployedLinkReferences": {}
}