{
  "_format": "hh-sol-artifact-1",
  "contractName": "REFLECT",
  "sourceName": "contracts/REFLECT.sol",
  "abi": [
    {
      "inputs": [
        {
          "internalType": "address",
          "name": "_initialOwner",
          "type": "address"
        },
        {
          "internalType": "address",
          "name": "_uniswapV2Router",
          "type": "address"
        }
      ],
      "stateMutability": "nonpayable",
      "type": "constructor"
    },
    {
      "inputs": [
        {
          "internalType": "address",
          "name": "owner",
          "type": "address"
        }
      ],
      "name": "OwnableInvalidOwner",
      "type": "error"
    },
    {
      "inputs": [
        {
          "internalType": "address",
          "name": "account",
          "type": "address"
        }
      ],
      "name": "OwnableUnauthorizedAccount",
      "type": "error"
    },
    {
      "anonymous": false,
      "inputs": [
        {
          "indexed": true,
          "internalType": "address",
          "name": "owner",
          "type": "address"
        },
        {
          "indexed": true,
          "internalType": "address",
          "name": "spender",
          "type": "address"
        },
        {
          "indexed": false,
          "internalType": "uint256",
          "name": "value",
          "type": "uint256"
        }
      ],
      "name": "Approval",
      "type": "event"
    },
    {
      "anonymous": false,
      "inputs": [
        {
          "indexed": false,
          "internalType": "uint256",
          "name": "minTokensBeforeSwap",
          "type": "uint256"
        }
      ],
      "name": "MinTokensBeforeSwapUpdated",
      "type": "event"
    },
    {
      "anonymous": false,
      "inputs": [
        {
          "indexed": true,
          "internalType": "address",
          "name": "previousOwner",
          "type": "address"
        },
        {
          "indexed": true,
          "internalType": "address",
          "name": "newOwner",
          "type": "address"
        }
      ],
      "name": "OwnershipTransferred",
      "type": "event"
    },
    {
      "anonymous": false,
      "inputs": [
        {
          "indexed": false,
          "internalType": "uint256",
          "name": "tokensSwapped",
          "type": "uint256"
        },
        {
          "indexed": false,
          "internalType": "uint256",
          "name": "ethReceived",
          "type": "uint256"
        },
        {
          "indexed": false,
          "internalType": "uint256",
          "name": "tokensIntoLiqudity",
          "type": "uint256"
        }
      ],
      "name": "SwapAndLiquify",
      "type": "event"
    },
    {
      "anonymous": false,
      "inputs": [
        {
          "indexed": false,
          "internalType": "bool",
          "name": "enabled",
          "type": "bool"
        }
      ],
      "name": "SwapAndLiquifyEnabledUpdated",
      "type": "event"
    },
    {
      "anonymous": false,
      "inputs": [
        {
          "indexed": true,
          "internalType": "address",
          "name": "from",
          "type": "address"
        },
        {
          "indexed": true,
          "internalType": "address",
          "name": "to",
          "type": "address"
        },
        {
          "indexed": false,
          "internalType": "uint256",
          "name": "value",
          "type": "uint256"
        }
      ],
      "name": "Transfer",
      "type": "event"
    },
    {
      "inputs": [],
      "name": "_liquidityFee",
      "outputs": [
        {
          "internalType": "uint256",
          "name": "",
          "type": "uint256"
        }
      ],
      "stateMutability": "view",
      "type": "function"
    },
    {
      "inputs": [],
      "name": "_taxFee",
      "outputs": [
        {
          "internalType": "uint256",
          "name": "",
          "type": "uint256"
        }
      ],
      "stateMutability": "view",
      "type": "function"
    },
    {
      "inputs": [
        {
          "internalType": "address",
          "name": "owner",
          "type": "address"
        },
        {
          "internalType": "address",
          "name": "spender",
          "type": "address"
        }
      ],
      "name": "allowance",
      "outputs": [
        {
          "internalType": "uint256",
          "name": "",
          "type": "uint256"
        }
      ],
      "stateMutability": "view",
      "type": "function"
    },
    {
      "inputs": [
        {
          "internalType": "address",
          "name": "spender",
          "type": "address"
        },
        {
          "internalType": "uint256",
          "name": "amount",
          "type": "uint256"
        }
      ],
      "name": "approve",
      "outputs": [
        {
          "internalType": "bool",
          "name": "",
          "type": "bool"
        }
      ],
      "stateMutability": "nonpayable",
      "type": "function"
    },
    {
      "inputs": [
        {
          "internalType": "address",
          "name": "account",
          "type": "address"
        }
      ],
      "name": "balanceOf",
      "outputs": [
        {
          "internalType": "uint256",
          "name": "",
          "type": "uint256"
        }
      ],
      "stateMutability": "view",
      "type": "function"
    },
    {
      "inputs": [],
      "name": "decimals",
      "outputs": [
        {
          "internalType": "uint8",
          "name": "",
          "type": "uint8"
        }
      ],
      "stateMutability": "view",
      "type": "function"
    },
    {
      "inputs": [
        {
          "internalType": "address",
          "name": "spender",
          "type": "address"
        },
        {
          "internalType": "uint256",
          "name": "subtractedValue",
          "type": "uint256"
        }
      ],
      "name": "decreaseAllowance",
      "outputs": [
        {
          "internalType": "bool",
          "name": "",
          "type": "bool"
        }
      ],
      "stateMutability": "nonpayable",
      "type": "function"
    },
    {
      "inputs": [],
      "name": "enableLiquidation",
      "outputs": [],
      "stateMutability": "nonpayable",
      "type": "function"
    },
    {
      "inputs": [
        {
          "internalType": "address",
          "name": "account",
          "type": "address"
        }
      ],
      "name": "excludeAccount",
      "outputs": [],
      "stateMutability": "nonpayable",
      "type": "function"
    },
    {
      "inputs": [
        {
          "internalType": "address",
          "name": "account",
          "type": "address"
        }
      ],
      "name": "excludeFromFee",
      "outputs": [],
      "stateMutability": "nonpayable",
      "type": "function"
    },
    {
      "inputs": [
        {
          "internalType": "address",
          "name": "account",
          "type": "address"
        }
      ],
      "name": "getIntegerPercentOfSupply",
      "outputs": [
        {
          "internalType": "uint256",
          "name": "",
          "type": "uint256"
        }
      ],
      "stateMutability": "view",
      "type": "function"
    },
    {
      "inputs": [
        {
          "internalType": "address",
          "name": "account",
          "type": "address"
        }
      ],
      "name": "getLastTransaction",
      "outputs": [
        {
          "internalType": "uint256",
          "name": "",
          "type": "uint256"
        }
      ],
      "stateMutability": "view",
      "type": "function"
    },
    {
      "inputs": [
        {
          "internalType": "address",
          "name": "account",
          "type": "address"
        }
      ],
      "name": "includeAccount",
      "outputs": [],
      "stateMutability": "nonpayable",
      "type": "function"
    },
    {
      "inputs": [
        {
          "internalType": "address",
          "name": "account",
          "type": "address"
        }
      ],
      "name": "includeInFee",
      "outputs": [],
      "stateMutability": "nonpayable",
      "type": "function"
    },
    {
      "inputs": [
        {
          "internalType": "address",
          "name": "spender",
          "type": "address"
        },
        {
          "internalType": "uint256",
          "name": "addedValue",
          "type": "uint256"
        }
      ],
      "name": "increaseAllowance",
      "outputs": [
        {
          "internalType": "bool",
          "name": "",
          "type": "bool"
        }
      ],
      "stateMutability": "nonpayable",
      "type": "function"
    },
    {
      "inputs": [
        {
          "internalType": "address",
          "name": "account",
          "type": "address"
        }
      ],
      "name": "isExcluded",
      "outputs": [
        {
          "internalType": "bool",
          "name": "",
          "type": "bool"
        }
      ],
      "stateMutability": "view",
      "type": "function"
    },
    {
      "inputs": [
        {
          "internalType": "address",
          "name": "wallet",
          "type": "address"
        }
      ],
      "name": "liquidateInactiveWallet",
      "outputs": [],
      "stateMutability": "nonpayable",
      "type": "function"
    },
    {
      "inputs": [],
      "name": "liquidationEnabled",
      "outputs": [
        {
          "internalType": "bool",
          "name": "",
          "type": "bool"
        }
      ],
      "stateMutability": "view",
      "type": "function"
    },
    {
      "inputs": [],
      "name": "liquidationThresholdPercent",
      "outputs": [
        {
          "internalType": "uint256",
          "name": "",
          "type": "uint256"
        }
      ],
      "stateMutability": "view",
      "type": "function"
    },
    {
      "inputs": [],
      "name": "name",
      "outputs": [
        {
          "internalType": "string",
          "name": "",
          "type": "string"
        }
      ],
      "stateMutability": "view",
      "type": "function"
    },
    {
      "inputs": [],
      "name": "owner",
      "outputs": [
        {
          "internalType": "address",
          "name": "",
          "type": "address"
        }
      ],
      "stateMutability": "view",
      "type": "function"
    },
    {
      "inputs": [
        {
          "internalType": "uint256",
          "name": "tAmount",
          "type": "uint256"
        }
      ],
      "name": "reflect",
      "outputs": [],
      "stateMutability": "nonpayable",
      "type": "function"
    },
    {
      "inputs": [
        {
          "internalType": "uint256",
          "name": "tAmount",
          "type": "uint256"
        },
        {
          "internalType": "bool",
          "name": "deductTransferFee",
          "type": "bool"
        }
      ],
      "name": "reflectionFromToken",
      "outputs": [
        {
          "internalType": "uint256",
          "name": "",
          "type": "uint256"
        }
      ],
      "stateMutability": "view",
      "type": "function"
    },
    {
      "inputs": [],
      "name": "renounceOwnership",
      "outputs": [],
      "stateMutability": "nonpayable",
      "type": "function"
    },
    {
      "inputs": [
        {
          "internalType": "uint256",
          "name": "percent",
          "type": "uint256"
        }
      ],
      "name": "setLiquidationThresholdPercent",
      "outputs": [],
      "stateMutability": "nonpayable",
      "type": "function"
    },
    {
      "inputs": [
        {
          "internalType": "uint256",
          "name": "liquidityFee",
          "type": "uint256"
        }
      ],
      "name": "setLiquidityFeePercent",
      "outputs": [],
      "stateMutability": "nonpayable",
      "type": "function"
    },
    {
      "inputs": [
        {
          "internalType": "bool",
          "name": "_enabled",
          "type": "bool"
        }
      ],
      "name": "setSwapAndLiquifyEnabled",
      "outputs": [],
      "stateMutability": "nonpayable",
      "type": "function"
    },
    {
      "inputs": [
        {
          "internalType": "uint256",
          "name": "taxFee",
          "type": "uint256"
        }
      ],
      "name": "setTaxFeePercent",
      "outputs": [],
      "stateMutability": "nonpayable",
      "type": "function"
    },
    {
      "inputs": [],
      "name": "swapAndLiquifyEnabled",
      "outputs": [
        {
          "internalType": "bool",
          "name": "",
          "type": "bool"
        }
      ],
      "stateMutability": "view",
      "type": "function"
    },
    {
      "inputs": [],
      "name": "symbol",
      "outputs": [
        {
          "internalType": "string",
          "name": "",
          "type": "string"
        }
      ],
      "stateMutability": "view",
      "type": "function"
    },
    {
      "inputs": [
        {
          "internalType": "uint256",
          "name": "rAmount",
          "type": "uint256"
        }
      ],
      "name": "tokenFromReflection",
      "outputs": [
        {
          "internalType": "uint256",
          "name": "",
          "type": "uint256"
        }
      ],
      "stateMutability": "view",
      "type": "function"
    },
    {
      "inputs": [],
      "name": "totalFees",
      "outputs": [
        {
          "internalType": "uint256",
          "name": "",
          "type": "uint256"
        }
      ],
      "stateMutability": "view",
      "type": "function"
    },
    {
      "inputs": [],
      "name": "totalSupply",
      "outputs": [
        {
          "internalType": "uint256",
          "name": "",
          "type": "uint256"
        }
      ],
      "stateMutability": "pure",
      "type": "function"
    },
    {
      "inputs": [
        {
          "internalType": "address",
          "name": "recipient",
          "type": "address"
        },
        {
          "internalType": "uint256",
          "name": "amount",
          "type": "uint256"
        }
      ],
      "name": "transfer",
      "outputs": [
        {
          "internalType": "bool",
          "name": "",
          "type": "bool"
        }
      ],
      "stateMutability": "nonpayable",
      "type": "function"
    },
    {
      "inputs": [
        {
          "internalType": "address",
          "name": "sender",
          "type": "address"
        },
        {
          "internalType": "address",
          "name": "recipient",
          "type": "address"
        },
        {
          "internalType": "uint256",
          "name": "amount",
          "type": "uint256"
        }
      ],
      "name": "transferFrom",
      "outputs": [
        {
          "internalType": "bool",
          "name": "",
          "type": "bool"
        }
      ],
      "stateMutability": "nonpayable",
      "type": "function"
    },
    {
      "inputs": [
        {
          "internalType": "address",
          "name": "newOwner",
          "type": "address"
        }
      ],
      "name": "transferOwnership",
      "outputs": [],
      "stateMutability": "nonpayable",
      "type": "function"
    },
    {
      "inputs": [],
      "name": "uniswapV2Pair",
      "outputs": [
        {
          "internalType": "address",
          "name": "",
          "type": "address"
        }
      ],
      "stateMutability": "view",
      "type": "function"
    },
    {
      "inputs": [],
      "name": "uniswapV2Router",
      "outputs": [
        {
          "internalType": "contract IUniswapV2Router02",
          "name": "",
          "type": "address"
        }
      ],
      "stateMutability": "view",
      "type": "function"
    },
    {
      "stateMutability": "payable",
      "type": "receive"
    }
  ],
  "bytecode": "0x60c06040526200001d6a05be074c9e772fd7b60600600019620003ea565b6200002b906000196200040d565b6008556040805180820190915260048152634644494360e01b6020820152600a90620000589082620004da565b506040805180820190915260048152634644494360e01b6020820152600b90620000839082620004da565b50600c805460ff191660091790556002600d819055600e556001600f81905560108190556011556012805462ff00ff1916620100001790556402540be400601355348015620000d157600080fd5b506040516200302c3803806200302c833981016040819052620000f491620005c3565b816001600160a01b0381166200012457604051631e4fbdf760e01b81526000600482015260240160405180910390fd5b6200012f816200039a565b506008543360009081526001602090815260409182902092909255805163c45a015560e01b8152905183926001600160a01b0384169263c45a015592600480830193928290030181865afa1580156200018c573d6000803e3d6000fd5b505050506040513d601f19601f82011682018060405250810190620001b29190620005fb565b6001600160a01b031663c9c6539630836001600160a01b031663ad5c46486040518163ffffffff1660e01b8152600401602060405180830381865afa15801562000200573d6000803e3d6000fd5b505050506040513d601f19601f82011682018060405250810190620002269190620005fb565b6040516001600160e01b031960e085901b1681526001600160a01b039283166004820152911660248201526044016020604051808303816000875af115801562000274573d6000803e3d6000fd5b505050506040513d601f19601f820116820180604052508101906200029a9190620005fb565b6001600160a01b0390811660a0528116608052600160056000620002c66000546001600160a01b031690565b6001600160a01b03908116825260208083019390935260409182016000908120805495151560ff19968716179055308082526005855283822080548716600190811790915560a05190931682526006909452828120805486168317905592835291208054909216179055620003383390565b6001600160a01b031660006001600160a01b03167fddf252ad1be2c89b69c2b068fc378daa952ba7f163c4a11628f55a4df523b3ef6a05be074c9e772fd7b606006040516200038991815260200190565b60405180910390a350505062000620565b600080546001600160a01b038381166001600160a01b0319831681178455604051919092169283917f8be0079c531659141344cd1fd0a4f28419497f9722a3daafe3b4186f6b6457e09190a35050565b6000826200040857634e487b7160e01b600052601260045260246000fd5b500690565b818103818111156200042f57634e487b7160e01b600052601160045260246000fd5b92915050565b634e487b7160e01b600052604160045260246000fd5b600181811c908216806200046057607f821691505b6020821081036200048157634e487b7160e01b600052602260045260246000fd5b50919050565b601f821115620004d557600081815260208120601f850160051c81016020861015620004b05750805b601f850160051c820191505b81811015620004d157828155600101620004bc565b5050505b505050565b81516001600160401b03811115620004f657620004f662000435565b6200050e816200050784546200044b565b8462000487565b602080601f8311600181146200054657600084156200052d5750858301515b600019600386901b1c1916600185901b178555620004d1565b600085815260208120601f198616915b82811015620005775788860151825594840194600190910190840162000556565b5085821015620005965787850151600019600388901b60f8161c191681555b5050505050600190811b01905550565b80516001600160a01b0381168114620005be57600080fd5b919050565b60008060408385031215620005d757600080fd5b620005e283620005a6565b9150620005f260208401620005a6565b90509250929050565b6000602082840312156200060e57600080fd5b6200061982620005a6565b9392505050565b60805160a0516129bc62000670600039600081816104ef015261186901526000818161039701528181611e9001528181611f4901528181611f9e01528181612010015261203701526129bc6000f3fe6080604052600436106102885760003560e01c80636bc87c3a11610153578063ae574a90116100cb578063ea2f0b371161007f578063f2cc0c1811610064578063f2cc0c181461075e578063f2fde38b1461077e578063f84354f11461079e57600080fd5b8063ea2f0b371461071e578063eb5690f81461073e57600080fd5b8063c9fc4707116100b0578063c9fc470714610669578063cba0e9961461069f578063dd62ed3e146106d857600080fd5b8063ae574a901461062f578063c49b9a801461064957600080fd5b80638ee88c53116101225780639e2d9575116101075780639e2d9575146105cf578063a457c2d7146105ef578063a9059cbb1461060f57600080fd5b80638ee88c531461059a57806395d89b41146105ba57600080fd5b80636bc87c3a1461053157806370a0823114610547578063715018a6146105675780638da5cb5b1461057c57600080fd5b806323b872dd116102015780633b124fe7116101b55780634549b0391161019a5780634549b039146104bd57806349bd5a5e146104dd5780634a74bb021461051157600080fd5b80633b124fe714610487578063437823ec1461049d57600080fd5b8063313ce567116101e6578063313ce5671461042f578063320d2fa014610451578063395093511461046757600080fd5b806323b872dd146103ef5780632d8381191461040f57600080fd5b8063095ea7b31161025857806316317e7e1161023d57806316317e7e146103655780631694505e1461038557806318160ddd146103d157600080fd5b8063095ea7b31461031657806313114a9d1461034657600080fd5b8062bc2ea814610294578063053ab182146102ab578063061c82d0146102cb57806306fdde03146102eb57600080fd5b3661028f57005b600080fd5b3480156102a057600080fd5b506102a96107be565b005b3480156102b757600080fd5b506102a96102c636600461263b565b6107d5565b3480156102d757600080fd5b506102a96102e636600461263b565b610966565b3480156102f757600080fd5b50610300610973565b60405161030d9190612654565b60405180910390f35b34801561032257600080fd5b506103366103313660046126b7565b610a05565b604051901515815260200161030d565b34801561035257600080fd5b506009545b60405190815260200161030d565b34801561037157600080fd5b506102a961038036600461263b565b610a2e565b34801561039157600080fd5b506103b97f000000000000000000000000000000000000000000000000000000000000000081565b6040516001600160a01b03909116815260200161030d565b3480156103dd57600080fd5b506a05be074c9e772fd7b60600610357565b3480156103fb57600080fd5b5061033661040a3660046126e3565b610abb565b34801561041b57600080fd5b5061035761042a36600461263b565b610bd4565b34801561043b57600080fd5b50600c5460405160ff909116815260200161030d565b34801561045d57600080fd5b5061035760115481565b34801561047357600080fd5b506103366104823660046126b7565b610c6b565b34801561049357600080fd5b50610357600d5481565b3480156104a957600080fd5b506102a96104b8366004612724565b610ca2565b3480156104c957600080fd5b506103576104d8366004612756565b610cce565b3480156104e957600080fd5b506103b97f000000000000000000000000000000000000000000000000000000000000000081565b34801561051d57600080fd5b506012546103369062010000900460ff1681565b34801561053d57600080fd5b50610357600f5481565b34801561055357600080fd5b50610357610562366004612724565b610d64565b34801561057357600080fd5b506102a9610dc3565b34801561058857600080fd5b506000546001600160a01b03166103b9565b3480156105a657600080fd5b506102a96105b536600461263b565b610dd7565b3480156105c657600080fd5b50610300610de4565b3480156105db57600080fd5b506102a96105ea366004612724565b610df3565b3480156105fb57600080fd5b5061033661060a3660046126b7565b610fe0565b34801561061b57600080fd5b5061033661062a3660046126b7565b6110bb565b34801561063b57600080fd5b506012546103369060ff1681565b34801561065557600080fd5b506102a9610664366004612782565b6110f5565b34801561067557600080fd5b50610357610684366004612724565b6001600160a01b031660009081526004602052604090205490565b3480156106ab57600080fd5b506103366106ba366004612724565b6001600160a01b031660009081526006602052604090205460ff1690565b3480156106e457600080fd5b506103576106f336600461279d565b6001600160a01b03918216600090815260036020908152604080832093909416825291909152205490565b34801561072a57600080fd5b506102a9610739366004612724565b611153565b34801561074a57600080fd5b50610357610759366004612724565b61117c565b34801561076a57600080fd5b506102a9610779366004612724565b6111a8565b34801561078a57600080fd5b506102a9610799366004612724565b6112e6565b3480156107aa57600080fd5b506102a96107b9366004612724565b61133d565b6107c66114e7565b6012805460ff19166001179055565b3360008181526006602052604090205460ff161561084f5760405162461bcd60e51b815260206004820152602c60248201527f4578636c75646564206164647265737365732063616e6e6f742063616c6c207460448201526b3434b990333ab731ba34b7b760a11b60648201526084015b60405180910390fd5b6011546a05be074c9e772fd7b6060061086783610d64565b6108729060646127ec565b61087c9190612803565b106108ef5760405162461bcd60e51b815260206004820152602f60248201527f63616e6e6f74207265666c6563742c206163636f756e7420686f6c6473206f7660448201527f6572203125206f6620737570706c7900000000000000000000000000000000006064820152608401610846565b60006108fa8361152d565b505050506001600160a01b03841660009081526001602052604090205491925061092691839150612825565b6001600160a01b03831660009081526001602052604090205560085461094d908290612825565b60085560095461095e908490612838565b600955505050565b61096e6114e7565b600d55565b6060600a80546109829061284b565b80601f01602080910402602001604051908101604052809291908181526020018280546109ae9061284b565b80156109fb5780601f106109d0576101008083540402835291602001916109fb565b820191906000526020600020905b8154815290600101906020018083116109de57829003601f168201915b5050505050905090565b6000610a12338484611584565b5033600090815260046020526040902042905560015b92915050565b610a366114e7565b606481108015610a44575060015b610ab65760405162461bcd60e51b815260206004820152602160248201527f6d75737420626520612070657263656e742076616c75652066726f6d20302d3960448201527f39000000000000000000000000000000000000000000000000000000000000006064820152608401610846565b601155565b6000610ac88484846116dc565b6001600160a01b0384166000908152600360209081526040808320338452909152812054610af7908490612825565b1015610b6b5760405162461bcd60e51b815260206004820152602860248201527f45524332303a207472616e7366657220616d6f756e742065786365656473206160448201527f6c6c6f77616e63650000000000000000000000000000000000000000000000006064820152608401610846565b6001600160a01b038416600090815260036020908152604080832033808552925290912054610ba6918691610ba1908690612825565b611584565b50503360009081526004602052604080822042908190556001600160a01b0393909316825290205550600190565b6000600854821115610c4e5760405162461bcd60e51b815260206004820152602a60248201527f416d6f756e74206d757374206265206c657373207468616e20746f74616c207260448201527f65666c656374696f6e73000000000000000000000000000000000000000000006064820152608401610846565b6000610c58611938565b9050610c648184612803565b9392505050565b3360008181526003602090815260408083206001600160a01b03871684529091528120549091610a12918590610ba1908690612838565b610caa6114e7565b6001600160a01b03166000908152600560205260409020805460ff19166001179055565b60006a05be074c9e772fd7b60600831115610d2b5760405162461bcd60e51b815260206004820152601f60248201527f416d6f756e74206d757374206265206c657373207468616e20737570706c79006044820152606401610846565b81610d4a576000610d3b8461152d565b50939550610a28945050505050565b6000610d558461152d565b50929550610a28945050505050565b6001600160a01b03811660009081526006602052604081205460ff1615610da157506001600160a01b031660009081526002602052604090205490565b6001600160a01b038216600090815260016020526040902054610a2890610bd4565b610dcb6114e7565b610dd5600061195b565b565b610ddf6114e7565b600f55565b6060600b80546109829061284b565b601254339060ff16610e475760405162461bcd60e51b815260206004820152601e60248201527f4c69717569646174696f6e206973206e6f742079657420656e61626c656400006044820152606401610846565b6001600160a01b03821660009081526006602052604090205460ff1615610ed65760405162461bcd60e51b815260206004820152602360248201527f43616e6e6f74206c6971756964617465206578636c756465642061646472657360448201527f73657300000000000000000000000000000000000000000000000000000000006064820152608401610846565b6001600160a01b03811660009081526006602052604090205460ff1615610f545760405162461bcd60e51b815260206004820152602c60248201527f4578636c75646564206164647265737365732063616e6e6f742063616c6c207460448201526b3434b990333ab731ba34b7b760a11b6064820152608401610846565b6001600160a01b0382166000908152600460205260409020546212750090610f7c9042612825565b1015610fca5760405162461bcd60e51b815260206004820152601760248201527f4163636f756e74206973206e6f7420696e6163746976650000000000000000006044820152606401610846565b610fdc610fd683610d64565b836108ef565b5050565b3360009081526003602090815260408083206001600160a01b03861684529091528120548190611011908490612825565b10156110855760405162461bcd60e51b815260206004820152602560248201527f45524332303a2064656372656173656420616c6c6f77616e63652062656c6f7760448201527f207a65726f0000000000000000000000000000000000000000000000000000006064820152608401610846565b3360008181526003602090815260408083206001600160a01b0388168452909152902054610a1291908590610ba1908690612825565b60006110c83384846116dc565b50503360009081526004602052604080822042908190556001600160a01b03939093168252902055600190565b6110fd6114e7565b60128054821515620100000262ff0000199091161790556040517f53726dfcaf90650aa7eb35524f4d3220f07413c8d6cb404cc8c18bf5591bc1599061114890831515815260200190565b60405180910390a150565b61115b6114e7565b6001600160a01b03166000908152600560205260409020805460ff19169055565b60006a05be074c9e772fd7b6060061119383610d64565b61119e9060646127ec565b610a289190612803565b6111b06114e7565b6001600160a01b03811660009081526006602052604090205460ff16156112195760405162461bcd60e51b815260206004820152601b60248201527f4163636f756e7420697320616c7265616479206578636c7564656400000000006044820152606401610846565b6001600160a01b03811660009081526001602052604090205415611273576001600160a01b03811660009081526001602052604090205461125990610bd4565b6001600160a01b0382166000908152600260205260409020555b6001600160a01b03166000818152600660205260408120805460ff191660019081179091556007805491820181559091527fa66cc928b5edb82af9bd49922954155ab7b0942694bea4ce44661d9a8736c68801805473ffffffffffffffffffffffffffffffffffffffff19169091179055565b6112ee6114e7565b6001600160a01b038116611331576040517f1e4fbdf700000000000000000000000000000000000000000000000000000000815260006004820152602401610846565b61133a8161195b565b50565b6113456114e7565b6001600160a01b03811660009081526006602052604090205460ff166113ad5760405162461bcd60e51b815260206004820152601b60248201527f4163636f756e7420697320616c7265616479206578636c7564656400000000006044820152606401610846565b60005b600754811015610fdc57816001600160a01b0316600782815481106113d7576113d7612885565b6000918252602090912001546001600160a01b0316036114d5576007805461140190600190612825565b8154811061141157611411612885565b600091825260209091200154600780546001600160a01b03909216918390811061143d5761143d612885565b6000918252602080832091909101805473ffffffffffffffffffffffffffffffffffffffff19166001600160a01b039485161790559184168152600282526040808220829055600690925220805460ff1916905560078054806114a2576114a261289b565b6000828152602090208101600019908101805473ffffffffffffffffffffffffffffffffffffffff191690550190555050565b806114df816128b1565b9150506113b0565b6000546001600160a01b03163314610dd5576040517f118cdaa7000000000000000000000000000000000000000000000000000000008152336004820152602401610846565b60008060008060008060008060006115448a6119b8565b9250925092506000611554611938565b905060008060006115678e8786886119fb565b919e509c509a509598509396509194505050505091939550919395565b6001600160a01b0383166115ff5760405162461bcd60e51b8152602060048201526024808201527f45524332303a20617070726f76652066726f6d20746865207a65726f2061646460448201527f72657373000000000000000000000000000000000000000000000000000000006064820152608401610846565b6001600160a01b03821661167b5760405162461bcd60e51b815260206004820152602260248201527f45524332303a20617070726f766520746f20746865207a65726f20616464726560448201527f73730000000000000000000000000000000000000000000000000000000000006064820152608401610846565b6001600160a01b0383811660008181526003602090815260408083209487168084529482529182902085905590518481527f8c5be1e5ebec7d5bd14f71427d1e84f3dd0314c0f7b2291e5b200ac8c7c3b925910160405180910390a3505050565b6001600160a01b0383166117585760405162461bcd60e51b815260206004820152602560248201527f45524332303a207472616e736665722066726f6d20746865207a65726f20616460448201527f64726573730000000000000000000000000000000000000000000000000000006064820152608401610846565b6001600160a01b0382166117d45760405162461bcd60e51b815260206004820152602360248201527f45524332303a207472616e7366657220746f20746865207a65726f206164647260448201527f65737300000000000000000000000000000000000000000000000000000000006064820152608401610846565b6000811161184a5760405162461bcd60e51b815260206004820152602960248201527f5472616e7366657220616d6f756e74206d75737420626520677265617465722060448201527f7468616e207a65726f00000000000000000000000000000000000000000000006064820152608401610846565b600061185530610d64565b6013549091508110801590819061189e57507f00000000000000000000000000000000000000000000000000000000000000006001600160a01b0316856001600160a01b031614155b80156118b25750601254610100900460ff16155b80156118c6575060125462010000900460ff165b156118d95760135491506118d982611a52565b6001600160a01b03851660009081526005602052604090205460019060ff168061191b57506001600160a01b03851660009081526005602052604090205460ff165b15611924575060005b61193086868684611af3565b505050505050565b6000806000611945611c70565b90925090506119548183612803565b9250505090565b600080546001600160a01b0383811673ffffffffffffffffffffffffffffffffffffffff19831681178455604051919092169283917f8be0079c531659141344cd1fd0a4f28419497f9722a3daafe3b4186f6b6457e09190a35050565b6000806000806119c785611e15565b905060006119d486611e27565b90506000816119e38489612825565b6119ed9190612825565b979296509094509092505050565b6000808080611a0a86896127ec565b90506000611a1887896127ec565b90506000611a2688886127ec565b9050600081611a358486612825565b611a3f9190612825565b939b939a50919850919650505050505050565b6012805461ff0019166101001790556000611a6e600283612803565b90506000611a7c8284612803565b905047611a8883611e39565b6000611a948247612825565b9050611aa0838261200a565b60408051858152602081018390529081018490527f17bbfb9a6069321b6ded73bd96327c9e6b7212a5cd51ff219cd61370acafb5619060600160405180910390a150506012805461ff0019169055505050565b80611b0057611b00612128565b6001600160a01b03841660009081526006602052604090205460ff168015611b4157506001600160a01b03831660009081526006602052604090205460ff16155b15611b5657611b51848484612156565b611c54565b6001600160a01b03841660009081526006602052604090205460ff16158015611b9757506001600160a01b03831660009081526006602052604090205460ff165b15611ba757611b51848484612288565b6001600160a01b03841660009081526006602052604090205460ff16158015611be957506001600160a01b03831660009081526006602052604090205460ff16155b15611bf957611b51848484612369565b6001600160a01b03841660009081526006602052604090205460ff168015611c3957506001600160a01b03831660009081526006602052604090205460ff165b15611c4957611b51848484612413565b611c54848484612369565b80611c6a57611c6a600e54600d55601054600f55565b50505050565b60085460009081906a05be074c9e772fd7b60600825b600754811015611dd357826001600060078481548110611ca857611ca8612885565b60009182526020808320909101546001600160a01b031683528201929092526040019020541180611d135750816002600060078481548110611cec57611cec612885565b60009182526020808320909101546001600160a01b03168352820192909252604001902054115b15611d31575050600854936a05be074c9e772fd7b606009350915050565b6001600060078381548110611d4857611d48612885565b60009182526020808320909101546001600160a01b03168352820192909252604001902054611d779084612825565b92506002600060078381548110611d9057611d90612885565b60009182526020808320909101546001600160a01b03168352820192909252604001902054611dbf9083612825565b915080611dcb816128b1565b915050611c86565b506a05be074c9e772fd7b60600600854611ded9190612803565b821015611e0c575050600854926a05be074c9e772fd7b6060092509050565b90939092509050565b60006064600d548361119e91906127ec565b60006064600f548361119e91906127ec565b6040805160028082526060820183526000926020830190803683370190505090503081600081518110611e6e57611e6e612885565b60200260200101906001600160a01b031690816001600160a01b0316815250507f00000000000000000000000000000000000000000000000000000000000000006001600160a01b031663ad5c46486040518163ffffffff1660e01b8152600401602060405180830381865afa158015611eec573d6000803e3d6000fd5b505050506040513d601f19601f82011682018060405250810190611f1091906128ca565b81600181518110611f2357611f23612885565b60200260200101906001600160a01b031690816001600160a01b031681525050611f6e307f000000000000000000000000000000000000000000000000000000000000000084611584565b6040517f791ac9470000000000000000000000000000000000000000000000000000000081526001600160a01b037f0000000000000000000000000000000000000000000000000000000000000000169063791ac94790611fdc9085906000908690309042906004016128e7565b600060405180830381600087803b158015611ff657600080fd5b505af1158015611930573d6000803e3d6000fd5b612035307f000000000000000000000000000000000000000000000000000000000000000084611584565b7f00000000000000000000000000000000000000000000000000000000000000006001600160a01b031663f305d71982308560008061207c6000546001600160a01b031690565b60405160e088901b7fffffffff000000000000000000000000000000000000000000000000000000001681526001600160a01b03958616600482015260248101949094526044840192909252606483015290911660848201524260a482015260c40160606040518083038185885af11580156120fc573d6000803e3d6000fd5b50505050506040513d601f19601f820116820180604052508101906121219190612958565b5050505050565b600d541580156121385750600f54155b1561213f57565b600d8054600e55600f805460105560009182905555565b6000806000806000806121688761152d565b6001600160a01b038f16600090815260026020526040902054959b5093995091975095509350915061219b908890612825565b6001600160a01b038a166000908152600260209081526040808320939093556001905220546121cb908790612825565b6001600160a01b03808b1660009081526001602052604080822093909355908a16815220546121fb908690612838565b6001600160a01b03891660009081526001602052604090205561221d81612512565b612227848361259d565b612230886125c3565b876001600160a01b0316896001600160a01b03167fddf252ad1be2c89b69c2b068fc378daa952ba7f163c4a11628f55a4df523b3ef8560405161227591815260200190565b60405180910390a3505050505050505050565b60008060008060008061229a8761152d565b6001600160a01b038f16600090815260016020526040902054959b509399509197509550935091506122cd908790612825565b6001600160a01b03808b16600090815260016020908152604080832094909455918b16815260029091522054612304908490612838565b6001600160a01b038916600090815260026020908152604080832093909355600190522054612334908690612838565b6001600160a01b03891660009081526001602052604090205561235681612512565b612360848361259d565b612230896125c3565b60008060008060008061237b8761152d565b6001600160a01b038f16600090815260016020526040902054959b509399509197509550935091506123ae908790612825565b6001600160a01b03808b1660009081526001602052604080822093909355908a16815220546123de908690612838565b6001600160a01b03891660009081526001602052604090205561240081612512565b61240a848361259d565b612360886125c3565b6000806000806000806124258761152d565b6001600160a01b038f16600090815260026020526040902054959b50939950919750955093509150612458908890612825565b6001600160a01b038a16600090815260026020908152604080832093909355600190522054612488908790612825565b6001600160a01b03808b16600090815260016020908152604080832094909455918b168152600290915220546124bf908490612838565b6001600160a01b0389166000908152600260209081526040808320939093556001905220546124ef908690612838565b6001600160a01b038916600090815260016020526040902055612230848361259d565b600061251c611938565b9050600061252a82846127ec565b30600090815260016020526040902054909150612548908290612838565b3060009081526001602090815260408083209390935560069052205460ff16156125985730600090815260026020526040902054612587908490612838565b306000908152600260205260409020555b505050565b816008546125ab9190612825565b6008556009546125bc908290612838565b6009555050565b600080546001600160a01b031690506011546a05be074c9e772fd7b606006125ea84610d64565b6125f59060646127ec565b6125ff9190612803565b1015801561261f5750806001600160a01b0316826001600160a01b031614155b15610fdc5760125460ff1615610fdc57610fdc610fd683610d64565b60006020828403121561264d57600080fd5b5035919050565b600060208083528351808285015260005b8181101561268157858101830151858201604001528201612665565b506000604082860101526040601f19601f8301168501019250505092915050565b6001600160a01b038116811461133a57600080fd5b600080604083850312156126ca57600080fd5b82356126d5816126a2565b946020939093013593505050565b6000806000606084860312156126f857600080fd5b8335612703816126a2565b92506020840135612713816126a2565b929592945050506040919091013590565b60006020828403121561273657600080fd5b8135610c64816126a2565b8035801515811461275157600080fd5b919050565b6000806040838503121561276957600080fd5b8235915061277960208401612741565b90509250929050565b60006020828403121561279457600080fd5b610c6482612741565b600080604083850312156127b057600080fd5b82356127bb816126a2565b915060208301356127cb816126a2565b809150509250929050565b634e487b7160e01b600052601160045260246000fd5b8082028115828204841417610a2857610a286127d6565b60008261282057634e487b7160e01b600052601260045260246000fd5b500490565b81810381811115610a2857610a286127d6565b80820180821115610a2857610a286127d6565b600181811c9082168061285f57607f821691505b60208210810361287f57634e487b7160e01b600052602260045260246000fd5b50919050565b634e487b7160e01b600052603260045260246000fd5b634e487b7160e01b600052603160045260246000fd5b6000600182016128c3576128c36127d6565b5060010190565b6000602082840312156128dc57600080fd5b8151610c64816126a2565b600060a082018783526020878185015260a0604085015281875180845260c086019150828901935060005b818110156129375784516001600160a01b031683529383019391830191600101612912565b50506001600160a01b03969096166060850152505050608001529392505050565b60008060006060848603121561296d57600080fd5b835192506020840151915060408401519050925092509256fea2646970667358221220c126e313d4a1fbd8bc49f1795b1dad4c0d5e7390816e080fd9c3d730e69c6cdb64736f6c63430008140033",
  "linkReferences": {},
  "deployedLinkReferences": {}
}