{
  "_format": "hh-sol-artifact-1",
  "contractName": "REFLECT",
  "sourceName": "contracts/REFLECT.sol",
  "abi": [
    {
      "inputs": [
        {
          "internalType": "address",
          "name": "_initialOwner",
          "type": "address"
        },
        {
          "internalType": "address",
          "name": "_uniswapV2Router",
          "type": "address"
        }
      ],
      "stateMutability": "nonpayable",
      "type": "constructor"
    },
    {
      "inputs": [
        {
          "internalType": "address",
          "name": "owner",
          "type": "address"
        }
      ],
      "name": "OwnableInvalidOwner",
      "type": "error"
    },
    {
      "inputs": [
        {
          "internalType": "address",
          "name": "account",
          "type": "address"
        }
      ],
      "name": "OwnableUnauthorizedAccount",
      "type": "error"
    },
    {
      "anonymous": false,
      "inputs": [
        {
          "indexed": true,
          "internalType": "address",
          "name": "owner",
          "type": "address"
        },
        {
          "indexed": true,
          "internalType": "address",
          "name": "spender",
          "type": "address"
        },
        {
          "indexed": false,
          "internalType": "uint256",
          "name": "value",
          "type": "uint256"
        }
      ],
      "name": "Approval",
      "type": "event"
    },
    {
      "anonymous": false,
      "inputs": [
        {
          "indexed": false,
          "internalType": "uint256",
          "name": "minTokensBeforeSwap",
          "type": "uint256"
        }
      ],
      "name": "MinTokensBeforeSwapUpdated",
      "type": "event"
    },
    {
      "anonymous": false,
      "inputs": [
        {
          "indexed": true,
          "internalType": "address",
          "name": "previousOwner",
          "type": "address"
        },
        {
          "indexed": true,
          "internalType": "address",
          "name": "newOwner",
          "type": "address"
        }
      ],
      "name": "OwnershipTransferred",
      "type": "event"
    },
    {
      "anonymous": false,
      "inputs": [
        {
          "indexed": false,
          "internalType": "uint256",
          "name": "tokensSwapped",
          "type": "uint256"
        },
        {
          "indexed": false,
          "internalType": "uint256",
          "name": "ethReceived",
          "type": "uint256"
        },
        {
          "indexed": false,
          "internalType": "uint256",
          "name": "tokensIntoLiqudity",
          "type": "uint256"
        }
      ],
      "name": "SwapAndLiquify",
      "type": "event"
    },
    {
      "anonymous": false,
      "inputs": [
        {
          "indexed": false,
          "internalType": "bool",
          "name": "enabled",
          "type": "bool"
        }
      ],
      "name": "SwapAndLiquifyEnabledUpdated",
      "type": "event"
    },
    {
      "anonymous": false,
      "inputs": [
        {
          "indexed": true,
          "internalType": "address",
          "name": "from",
          "type": "address"
        },
        {
          "indexed": true,
          "internalType": "address",
          "name": "to",
          "type": "address"
        },
        {
          "indexed": false,
          "internalType": "uint256",
          "name": "value",
          "type": "uint256"
        }
      ],
      "name": "Transfer",
      "type": "event"
    },
    {
      "inputs": [],
      "name": "_liquidityFee",
      "outputs": [
        {
          "internalType": "uint256",
          "name": "",
          "type": "uint256"
        }
      ],
      "stateMutability": "view",
      "type": "function"
    },
    {
      "inputs": [],
      "name": "_taxFee",
      "outputs": [
        {
          "internalType": "uint256",
          "name": "",
          "type": "uint256"
        }
      ],
      "stateMutability": "view",
      "type": "function"
    },
    {
      "inputs": [
        {
          "internalType": "address",
          "name": "owner",
          "type": "address"
        },
        {
          "internalType": "address",
          "name": "spender",
          "type": "address"
        }
      ],
      "name": "allowance",
      "outputs": [
        {
          "internalType": "uint256",
          "name": "",
          "type": "uint256"
        }
      ],
      "stateMutability": "view",
      "type": "function"
    },
    {
      "inputs": [
        {
          "internalType": "address",
          "name": "spender",
          "type": "address"
        },
        {
          "internalType": "uint256",
          "name": "amount",
          "type": "uint256"
        }
      ],
      "name": "approve",
      "outputs": [
        {
          "internalType": "bool",
          "name": "",
          "type": "bool"
        }
      ],
      "stateMutability": "nonpayable",
      "type": "function"
    },
    {
      "inputs": [
        {
          "internalType": "address",
          "name": "account",
          "type": "address"
        }
      ],
      "name": "balanceOf",
      "outputs": [
        {
          "internalType": "uint256",
          "name": "",
          "type": "uint256"
        }
      ],
      "stateMutability": "view",
      "type": "function"
    },
    {
      "inputs": [],
      "name": "decimals",
      "outputs": [
        {
          "internalType": "uint8",
          "name": "",
          "type": "uint8"
        }
      ],
      "stateMutability": "view",
      "type": "function"
    },
    {
      "inputs": [
        {
          "internalType": "address",
          "name": "spender",
          "type": "address"
        },
        {
          "internalType": "uint256",
          "name": "subtractedValue",
          "type": "uint256"
        }
      ],
      "name": "decreaseAllowance",
      "outputs": [
        {
          "internalType": "bool",
          "name": "",
          "type": "bool"
        }
      ],
      "stateMutability": "nonpayable",
      "type": "function"
    },
    {
      "inputs": [],
      "name": "enableLiquidation",
      "outputs": [],
      "stateMutability": "nonpayable",
      "type": "function"
    },
    {
      "inputs": [],
      "name": "enableTrading",
      "outputs": [],
      "stateMutability": "nonpayable",
      "type": "function"
    },
    {
      "inputs": [
        {
          "internalType": "address",
          "name": "account",
          "type": "address"
        }
      ],
      "name": "excludeAccount",
      "outputs": [],
      "stateMutability": "nonpayable",
      "type": "function"
    },
    {
      "inputs": [
        {
          "internalType": "address",
          "name": "account",
          "type": "address"
        }
      ],
      "name": "excludeFromFee",
      "outputs": [],
      "stateMutability": "nonpayable",
      "type": "function"
    },
    {
      "inputs": [
        {
          "internalType": "address",
          "name": "account",
          "type": "address"
        }
      ],
      "name": "getIntegerPercentOfSupply",
      "outputs": [
        {
          "internalType": "uint256",
          "name": "",
          "type": "uint256"
        }
      ],
      "stateMutability": "view",
      "type": "function"
    },
    {
      "inputs": [
        {
          "internalType": "address",
          "name": "account",
          "type": "address"
        }
      ],
      "name": "getLastTransaction",
      "outputs": [
        {
          "internalType": "uint256",
          "name": "",
          "type": "uint256"
        }
      ],
      "stateMutability": "view",
      "type": "function"
    },
    {
      "inputs": [
        {
          "internalType": "address",
          "name": "account",
          "type": "address"
        }
      ],
      "name": "includeAccount",
      "outputs": [],
      "stateMutability": "nonpayable",
      "type": "function"
    },
    {
      "inputs": [
        {
          "internalType": "address",
          "name": "account",
          "type": "address"
        }
      ],
      "name": "includeInFee",
      "outputs": [],
      "stateMutability": "nonpayable",
      "type": "function"
    },
    {
      "inputs": [
        {
          "internalType": "address",
          "name": "spender",
          "type": "address"
        },
        {
          "internalType": "uint256",
          "name": "addedValue",
          "type": "uint256"
        }
      ],
      "name": "increaseAllowance",
      "outputs": [
        {
          "internalType": "bool",
          "name": "",
          "type": "bool"
        }
      ],
      "stateMutability": "nonpayable",
      "type": "function"
    },
    {
      "inputs": [
        {
          "internalType": "address",
          "name": "account",
          "type": "address"
        }
      ],
      "name": "isExcluded",
      "outputs": [
        {
          "internalType": "bool",
          "name": "",
          "type": "bool"
        }
      ],
      "stateMutability": "view",
      "type": "function"
    },
    {
      "inputs": [
        {
          "internalType": "address",
          "name": "wallet",
          "type": "address"
        }
      ],
      "name": "liquidateInactiveWallet",
      "outputs": [],
      "stateMutability": "nonpayable",
      "type": "function"
    },
    {
      "inputs": [],
      "name": "liquidationEnabled",
      "outputs": [
        {
          "internalType": "bool",
          "name": "",
          "type": "bool"
        }
      ],
      "stateMutability": "view",
      "type": "function"
    },
    {
      "inputs": [],
      "name": "liquidationThresholdPercent",
      "outputs": [
        {
          "internalType": "uint256",
          "name": "",
          "type": "uint256"
        }
      ],
      "stateMutability": "view",
      "type": "function"
    },
    {
      "inputs": [],
      "name": "liquidationThresholdTime",
      "outputs": [
        {
          "internalType": "uint256",
          "name": "",
          "type": "uint256"
        }
      ],
      "stateMutability": "view",
      "type": "function"
    },
    {
      "inputs": [],
      "name": "name",
      "outputs": [
        {
          "internalType": "string",
          "name": "",
          "type": "string"
        }
      ],
      "stateMutability": "view",
      "type": "function"
    },
    {
      "inputs": [],
      "name": "owner",
      "outputs": [
        {
          "internalType": "address",
          "name": "",
          "type": "address"
        }
      ],
      "stateMutability": "view",
      "type": "function"
    },
    {
      "inputs": [],
      "name": "presale",
      "outputs": [
        {
          "internalType": "address",
          "name": "",
          "type": "address"
        }
      ],
      "stateMutability": "view",
      "type": "function"
    },
    {
      "inputs": [
        {
          "internalType": "uint256",
          "name": "tAmount",
          "type": "uint256"
        }
      ],
      "name": "reflect",
      "outputs": [],
      "stateMutability": "nonpayable",
      "type": "function"
    },
    {
      "inputs": [
        {
          "internalType": "uint256",
          "name": "tAmount",
          "type": "uint256"
        },
        {
          "internalType": "bool",
          "name": "deductTransferFee",
          "type": "bool"
        }
      ],
      "name": "reflectionFromToken",
      "outputs": [
        {
          "internalType": "uint256",
          "name": "",
          "type": "uint256"
        }
      ],
      "stateMutability": "view",
      "type": "function"
    },
    {
      "inputs": [],
      "name": "renounceOwnership",
      "outputs": [],
      "stateMutability": "nonpayable",
      "type": "function"
    },
    {
      "inputs": [
        {
          "internalType": "uint256",
          "name": "percent",
          "type": "uint256"
        }
      ],
      "name": "setLiquidationThresholdPercent",
      "outputs": [],
      "stateMutability": "nonpayable",
      "type": "function"
    },
    {
      "inputs": [
        {
          "internalType": "uint256",
          "name": "time",
          "type": "uint256"
        }
      ],
      "name": "setLiquidationThresholdTime",
      "outputs": [],
      "stateMutability": "nonpayable",
      "type": "function"
    },
    {
      "inputs": [
        {
          "internalType": "uint256",
          "name": "liquidityFee",
          "type": "uint256"
        }
      ],
      "name": "setLiquidityFeePercent",
      "outputs": [],
      "stateMutability": "nonpayable",
      "type": "function"
    },
    {
      "inputs": [
        {
          "internalType": "address",
          "name": "_presale",
          "type": "address"
        }
      ],
      "name": "setPresaleAddress",
      "outputs": [],
      "stateMutability": "nonpayable",
      "type": "function"
    },
    {
      "inputs": [
        {
          "internalType": "bool",
          "name": "_enabled",
          "type": "bool"
        }
      ],
      "name": "setSwapAndLiquifyEnabled",
      "outputs": [],
      "stateMutability": "nonpayable",
      "type": "function"
    },
    {
      "inputs": [
        {
          "internalType": "uint256",
          "name": "taxFee",
          "type": "uint256"
        }
      ],
      "name": "setTaxFeePercent",
      "outputs": [],
      "stateMutability": "nonpayable",
      "type": "function"
    },
    {
      "inputs": [],
      "name": "swapAndLiquifyEnabled",
      "outputs": [
        {
          "internalType": "bool",
          "name": "",
          "type": "bool"
        }
      ],
      "stateMutability": "view",
      "type": "function"
    },
    {
      "inputs": [],
      "name": "symbol",
      "outputs": [
        {
          "internalType": "string",
          "name": "",
          "type": "string"
        }
      ],
      "stateMutability": "view",
      "type": "function"
    },
    {
      "inputs": [
        {
          "internalType": "uint256",
          "name": "rAmount",
          "type": "uint256"
        }
      ],
      "name": "tokenFromReflection",
      "outputs": [
        {
          "internalType": "uint256",
          "name": "",
          "type": "uint256"
        }
      ],
      "stateMutability": "view",
      "type": "function"
    },
    {
      "inputs": [],
      "name": "totalFees",
      "outputs": [
        {
          "internalType": "uint256",
          "name": "",
          "type": "uint256"
        }
      ],
      "stateMutability": "view",
      "type": "function"
    },
    {
      "inputs": [],
      "name": "totalSupply",
      "outputs": [
        {
          "internalType": "uint256",
          "name": "",
          "type": "uint256"
        }
      ],
      "stateMutability": "pure",
      "type": "function"
    },
    {
      "inputs": [],
      "name": "tradingEnabled",
      "outputs": [
        {
          "internalType": "bool",
          "name": "",
          "type": "bool"
        }
      ],
      "stateMutability": "view",
      "type": "function"
    },
    {
      "inputs": [
        {
          "internalType": "address",
          "name": "recipient",
          "type": "address"
        },
        {
          "internalType": "uint256",
          "name": "amount",
          "type": "uint256"
        }
      ],
      "name": "transfer",
      "outputs": [
        {
          "internalType": "bool",
          "name": "",
          "type": "bool"
        }
      ],
      "stateMutability": "nonpayable",
      "type": "function"
    },
    {
      "inputs": [
        {
          "internalType": "address",
          "name": "sender",
          "type": "address"
        },
        {
          "internalType": "address",
          "name": "recipient",
          "type": "address"
        },
        {
          "internalType": "uint256",
          "name": "amount",
          "type": "uint256"
        }
      ],
      "name": "transferFrom",
      "outputs": [
        {
          "internalType": "bool",
          "name": "",
          "type": "bool"
        }
      ],
      "stateMutability": "nonpayable",
      "type": "function"
    },
    {
      "inputs": [
        {
          "internalType": "address",
          "name": "newOwner",
          "type": "address"
        }
      ],
      "name": "transferOwnership",
      "outputs": [],
      "stateMutability": "nonpayable",
      "type": "function"
    },
    {
      "inputs": [],
      "name": "uniswapV2Pair",
      "outputs": [
        {
          "internalType": "address",
          "name": "",
          "type": "address"
        }
      ],
      "stateMutability": "view",
      "type": "function"
    },
    {
      "inputs": [],
      "name": "uniswapV2Router",
      "outputs": [
        {
          "internalType": "contract IUniswapV2Router02",
          "name": "",
          "type": "address"
        }
      ],
      "stateMutability": "view",
      "type": "function"
    },
    {
      "stateMutability": "payable",
      "type": "receive"
    }
  ],
  "bytecode": "0x60c06040526200001d6a05be074c9e772fd7b60600600019620003f6565b6200002b9060001962000419565b6008556040805180820190915260048152634644494360e01b6020820152600a90620000589082620004e6565b506040805180820190915260048152634644494360e01b6020820152600b90620000839082620004e6565b50600c805460ff191660091790556002600d819055600e556001600f8190556010819055601155620151806012556013805463ffff00ff60a01b1916600160b01b1790556402540be400601455348015620000dd57600080fd5b50604051620033d6380380620033d68339810160408190526200010091620005cf565b816001600160a01b0381166200013057604051631e4fbdf760e01b81526000600482015260240160405180910390fd5b6200013b81620003a6565b506008543360009081526001602090815260409182902092909255805163c45a015560e01b8152905183926001600160a01b0384169263c45a015592600480830193928290030181865afa15801562000198573d6000803e3d6000fd5b505050506040513d601f19601f82011682018060405250810190620001be919062000607565b6001600160a01b031663c9c6539630836001600160a01b031663ad5c46486040518163ffffffff1660e01b8152600401602060405180830381865afa1580156200020c573d6000803e3d6000fd5b505050506040513d601f19601f8201168201806040525081019062000232919062000607565b6040516001600160e01b031960e085901b1681526001600160a01b039283166004820152911660248201526044016020604051808303816000875af115801562000280573d6000803e3d6000fd5b505050506040513d601f19601f82011682018060405250810190620002a6919062000607565b6001600160a01b0390811660a0528116608052600160056000620002d26000546001600160a01b031690565b6001600160a01b03908116825260208083019390935260409182016000908120805495151560ff19968716179055308082526005855283822080548716600190811790915560a05190931682526006909452828120805486168317905592835291208054909216179055620003443390565b6001600160a01b031660006001600160a01b03167fddf252ad1be2c89b69c2b068fc378daa952ba7f163c4a11628f55a4df523b3ef6a05be074c9e772fd7b606006040516200039591815260200190565b60405180910390a35050506200062c565b600080546001600160a01b038381166001600160a01b0319831681178455604051919092169283917f8be0079c531659141344cd1fd0a4f28419497f9722a3daafe3b4186f6b6457e09190a35050565b6000826200041457634e487b7160e01b600052601260045260246000fd5b500690565b818103818111156200043b57634e487b7160e01b600052601160045260246000fd5b92915050565b634e487b7160e01b600052604160045260246000fd5b600181811c908216806200046c57607f821691505b6020821081036200048d57634e487b7160e01b600052602260045260246000fd5b50919050565b601f821115620004e157600081815260208120601f850160051c81016020861015620004bc5750805b601f850160051c820191505b81811015620004dd57828155600101620004c8565b5050505b505050565b81516001600160401b0381111562000502576200050262000441565b6200051a8162000513845462000457565b8462000493565b602080601f831160018114620005525760008415620005395750858301515b600019600386901b1c1916600185901b178555620004dd565b600085815260208120601f198616915b82811015620005835788860151825594840194600190910190840162000562565b5085821015620005a25787850151600019600388901b60f8161c191681555b5050505050600190811b01905550565b80516001600160a01b0381168114620005ca57600080fd5b919050565b60008060408385031215620005e357600080fd5b620005ee83620005b2565b9150620005fe60208401620005b2565b90509250929050565b6000602082840312156200061a57600080fd5b6200062582620005b2565b9392505050565b60805160a051612d5a6200067c600039600081816105510152611c040152600081816103f901528181612227015281816122e001528181612335015281816123a701526123ce0152612d5a6000f3fe6080604052600436106102ea5760003560e01c806370a0823111610184578063bdb9f28d116100d6578063ea2f0b371161008a578063f2fde38b11610064578063f2fde38b14610874578063f84354f114610894578063fdea8e0b146108b457600080fd5b8063ea2f0b3714610814578063eb5690f814610834578063f2cc0c181461085457600080fd5b8063c9fc4707116100bb578063c9fc47071461075f578063cba0e99614610795578063dd62ed3e146107ce57600080fd5b8063bdb9f28d1461071f578063c49b9a801461073f57600080fd5b80638ee88c5311610138578063a457c2d711610112578063a457c2d7146106be578063a9059cbb146106de578063ae574a90146106fe57600080fd5b80638ee88c531461066957806395d89b41146106895780639e2d95751461069e57600080fd5b806371ad4cc21161016957806371ad4cc2146106205780638a8c523c146106365780638da5cb5b1461064b57600080fd5b806370a08231146105eb578063715018a61461060b57600080fd5b8063313ce5671161023d5780634549b039116101f15780634ada218b116101cb5780634ada218b146105945780634e2fa203146105b55780636bc87c3a146105d557600080fd5b80634549b0391461051f57806349bd5a5e1461053f5780634a74bb021461057357600080fd5b8063395093511161022257806339509351146104c95780633b124fe7146104e9578063437823ec146104ff57600080fd5b8063313ce56714610491578063320d2fa0146104b357600080fd5b806313114a9d1161029f57806318160ddd1161027957806318160ddd1461043357806323b872dd146104515780632d8381191461047157600080fd5b806313114a9d146103a857806316317e7e146103c75780631694505e146103e757600080fd5b8063061c82d0116102d0578063061c82d01461032d57806306fdde031461034d578063095ea7b31461037857600080fd5b8062bc2ea8146102f6578063053ab1821461030d57600080fd5b366102f157005b600080fd5b34801561030257600080fd5b5061030b6108d4565b005b34801561031957600080fd5b5061030b6103283660046129d9565b61090c565b34801561033957600080fd5b5061030b6103483660046129d9565b610a9d565b34801561035957600080fd5b50610362610aaa565b60405161036f91906129f2565b60405180910390f35b34801561038457600080fd5b50610398610393366004612a55565b610b3c565b604051901515815260200161036f565b3480156103b457600080fd5b506009545b60405190815260200161036f565b3480156103d357600080fd5b5061030b6103e23660046129d9565b610b65565b3480156103f357600080fd5b5061041b7f000000000000000000000000000000000000000000000000000000000000000081565b6040516001600160a01b03909116815260200161036f565b34801561043f57600080fd5b506a05be074c9e772fd7b606006103b9565b34801561045d57600080fd5b5061039861046c366004612a81565b610bf2565b34801561047d57600080fd5b506103b961048c3660046129d9565b610d0b565b34801561049d57600080fd5b50600c5460405160ff909116815260200161036f565b3480156104bf57600080fd5b506103b960115481565b3480156104d557600080fd5b506103986104e4366004612a55565b610da2565b3480156104f557600080fd5b506103b9600d5481565b34801561050b57600080fd5b5061030b61051a366004612ac2565b610dd9565b34801561052b57600080fd5b506103b961053a366004612af4565b610e05565b34801561054b57600080fd5b5061041b7f000000000000000000000000000000000000000000000000000000000000000081565b34801561057f57600080fd5b5060135461039890600160b01b900460ff1681565b3480156105a057600080fd5b5060135461039890600160b81b900460ff1681565b3480156105c157600080fd5b5061030b6105d03660046129d9565b610e9b565b3480156105e157600080fd5b506103b9600f5481565b3480156105f757600080fd5b506103b9610606366004612ac2565b610f99565b34801561061757600080fd5b5061030b610ff8565b34801561062c57600080fd5b506103b960125481565b34801561064257600080fd5b5061030b61100c565b34801561065757600080fd5b506000546001600160a01b031661041b565b34801561067557600080fd5b5061030b6106843660046129d9565b611044565b34801561069557600080fd5b50610362611051565b3480156106aa57600080fd5b5061030b6106b9366004612ac2565b611060565b3480156106ca57600080fd5b506103986106d9366004612a55565b611252565b3480156106ea57600080fd5b506103986106f9366004612a55565b61132d565b34801561070a57600080fd5b5060135461039890600160a01b900460ff1681565b34801561072b57600080fd5b5061030b61073a366004612ac2565b611367565b34801561074b57600080fd5b5061030b61075a366004612b20565b6113c8565b34801561076b57600080fd5b506103b961077a366004612ac2565b6001600160a01b031660009081526004602052604090205490565b3480156107a157600080fd5b506103986107b0366004612ac2565b6001600160a01b031660009081526006602052604090205460ff1690565b3480156107da57600080fd5b506103b96107e9366004612b3b565b6001600160a01b03918216600090815260036020908152604080832093909416825291909152205490565b34801561082057600080fd5b5061030b61082f366004612ac2565b611443565b34801561084057600080fd5b506103b961084f366004612ac2565b61146c565b34801561086057600080fd5b5061030b61086f366004612ac2565b611498565b34801561088057600080fd5b5061030b61088f366004612ac2565b6115c9565b3480156108a057600080fd5b5061030b6108af366004612ac2565b611620565b3480156108c057600080fd5b5060135461041b906001600160a01b031681565b6108dc6117b0565b601380547fffffffffffffffffffffff00ffffffffffffffffffffffffffffffffffffffff16600160a01b179055565b3360008181526006602052604090205460ff16156109865760405162461bcd60e51b815260206004820152602c60248201527f4578636c75646564206164647265737365732063616e6e6f742063616c6c207460448201526b3434b990333ab731ba34b7b760a11b60648201526084015b60405180910390fd5b6011546a05be074c9e772fd7b6060061099e83610f99565b6109a9906064612b8a565b6109b39190612ba1565b10610a265760405162461bcd60e51b815260206004820152602f60248201527f43616e6e6f74207265666c6563742c206163636f756e7420686f6c6473206f7660448201527f6572203125206f6620737570706c790000000000000000000000000000000000606482015260840161097d565b6000610a31836117f6565b505050506001600160a01b038416600090815260016020526040902054919250610a5d91839150612bc3565b6001600160a01b038316600090815260016020526040902055600854610a84908290612bc3565b600855600954610a95908490612bd6565b600955505050565b610aa56117b0565b600d55565b6060600a8054610ab990612be9565b80601f0160208091040260200160405190810160405280929190818152602001828054610ae590612be9565b8015610b325780601f10610b0757610100808354040283529160200191610b32565b820191906000526020600020905b815481529060010190602001808311610b1557829003601f168201915b5050505050905090565b6000610b4933848461184d565b5033600090815260046020526040902042905560015b92915050565b610b6d6117b0565b606481108015610b7b575060015b610bed5760405162461bcd60e51b815260206004820152602160248201527f6d75737420626520612070657263656e742076616c75652066726f6d20302d3960448201527f3900000000000000000000000000000000000000000000000000000000000000606482015260840161097d565b601155565b6000610bff8484846119a5565b6001600160a01b0384166000908152600360209081526040808320338452909152812054610c2e908490612bc3565b1015610ca25760405162461bcd60e51b815260206004820152602860248201527f45524332303a207472616e7366657220616d6f756e742065786365656473206160448201527f6c6c6f77616e6365000000000000000000000000000000000000000000000000606482015260840161097d565b6001600160a01b038416600090815260036020908152604080832033808552925290912054610cdd918691610cd8908690612bc3565b61184d565b50503360009081526004602052604080822042908190556001600160a01b0393909316825290205550600190565b6000600854821115610d855760405162461bcd60e51b815260206004820152602a60248201527f416d6f756e74206d757374206265206c657373207468616e20746f74616c207260448201527f65666c656374696f6e7300000000000000000000000000000000000000000000606482015260840161097d565b6000610d8f611cd6565b9050610d9b8184612ba1565b9392505050565b3360008181526003602090815260408083206001600160a01b03871684529091528120549091610b49918590610cd8908690612bd6565b610de16117b0565b6001600160a01b03166000908152600560205260409020805460ff19166001179055565b60006a05be074c9e772fd7b60600831115610e625760405162461bcd60e51b815260206004820152601f60248201527f416d6f756e74206d757374206265206c657373207468616e20737570706c7900604482015260640161097d565b81610e81576000610e72846117f6565b50939550610b5f945050505050565b6000610e8c846117f6565b50929550610b5f945050505050565b610ea36117b0565b62015180811015610f1c5760405162461bcd60e51b815260206004820152603060248201527f6d696e696d756d2074696d6520666f72206163636f756e7420746f206265206960448201527f6e61637469766520697320312064617900000000000000000000000000000000606482015260840161097d565b601254811015610f945760405162461bcd60e51b815260206004820152602a60248201527f6e6577207468726573686f6c64206d757374206265206c61726765722074686160448201527f6e2070726576696f757300000000000000000000000000000000000000000000606482015260840161097d565b601255565b6001600160a01b03811660009081526006602052604081205460ff1615610fd657506001600160a01b031660009081526002602052604090205490565b6001600160a01b038216600090815260016020526040902054610b5f90610d0b565b6110006117b0565b61100a6000611cf9565b565b6110146117b0565b601380547fffffffffffffffff00ffffffffffffffffffffffffffffffffffffffffffffff16600160b81b179055565b61104c6117b0565b600f55565b6060600b8054610ab990612be9565b6013543390600160a01b900460ff166110bb5760405162461bcd60e51b815260206004820152601e60248201527f4c69717569646174696f6e206973206e6f742079657420656e61626c65640000604482015260640161097d565b6001600160a01b03821660009081526006602052604090205460ff161561114a5760405162461bcd60e51b815260206004820152602360248201527f43616e6e6f74206c6971756964617465206578636c756465642061646472657360448201527f7365730000000000000000000000000000000000000000000000000000000000606482015260840161097d565b6001600160a01b03811660009081526006602052604090205460ff16156111c85760405162461bcd60e51b815260206004820152602c60248201527f4578636c75646564206164647265737365732063616e6e6f742063616c6c207460448201526b3434b990333ab731ba34b7b760a11b606482015260840161097d565b6012546001600160a01b0383166000908152600460205260409020546111ee9042612bc3565b101561123c5760405162461bcd60e51b815260206004820152601760248201527f4163636f756e74206973206e6f7420696e616374697665000000000000000000604482015260640161097d565b61124e61124883610f99565b83610a26565b5050565b3360009081526003602090815260408083206001600160a01b03861684529091528120548190611283908490612bc3565b10156112f75760405162461bcd60e51b815260206004820152602560248201527f45524332303a2064656372656173656420616c6c6f77616e63652062656c6f7760448201527f207a65726f000000000000000000000000000000000000000000000000000000606482015260840161097d565b3360008181526003602090815260408083206001600160a01b0388168452909152902054610b4991908590610cd8908690612bc3565b600061133a3384846119a5565b50503360009081526004602052604080822042908190556001600160a01b03939093168252902055600190565b61136f6117b0565b601380546001600160a01b0319166001600160a01b0392831690811782556000908152600660209081526040808320805460ff199081166001908117909255945490951683526005909152902080549091169091179055565b6113d06117b0565b60138054821515600160b01b027fffffffffffffffffff00ffffffffffffffffffffffffffffffffffffffffffff9091161790556040517f53726dfcaf90650aa7eb35524f4d3220f07413c8d6cb404cc8c18bf5591bc1599061143890831515815260200190565b60405180910390a150565b61144b6117b0565b6001600160a01b03166000908152600560205260409020805460ff19169055565b60006a05be074c9e772fd7b6060061148383610f99565b61148e906064612b8a565b610b5f9190612ba1565b6114a06117b0565b6001600160a01b03811660009081526006602052604090205460ff16156115095760405162461bcd60e51b815260206004820152601b60248201527f4163636f756e7420697320616c7265616479206578636c756465640000000000604482015260640161097d565b6001600160a01b03811660009081526001602052604090205415611563576001600160a01b03811660009081526001602052604090205461154990610d0b565b6001600160a01b0382166000908152600260205260409020555b6001600160a01b03166000818152600660205260408120805460ff191660019081179091556007805491820181559091527fa66cc928b5edb82af9bd49922954155ab7b0942694bea4ce44661d9a8736c6880180546001600160a01b0319169091179055565b6115d16117b0565b6001600160a01b038116611614576040517f1e4fbdf70000000000000000000000000000000000000000000000000000000081526000600482015260240161097d565b61161d81611cf9565b50565b6116286117b0565b6001600160a01b03811660009081526006602052604090205460ff166116905760405162461bcd60e51b815260206004820152601b60248201527f4163636f756e7420697320616c7265616479206578636c756465640000000000604482015260640161097d565b60005b60075481101561124e57816001600160a01b0316600782815481106116ba576116ba612c23565b6000918252602090912001546001600160a01b03160361179e57600780546116e490600190612bc3565b815481106116f4576116f4612c23565b600091825260209091200154600780546001600160a01b03909216918390811061172057611720612c23565b600091825260208083209190910180546001600160a01b0319166001600160a01b039485161790559184168152600282526040808220829055600690925220805460ff19169055600780548061177857611778612c39565b600082815260209020810160001990810180546001600160a01b03191690550190555050565b806117a881612c4f565b915050611693565b6000546001600160a01b0316331461100a576040517f118cdaa700000000000000000000000000000000000000000000000000000000815233600482015260240161097d565b600080600080600080600080600061180d8a611d49565b925092509250600061181d611cd6565b905060008060006118308e878688611d8c565b919e509c509a509598509396509194505050505091939550919395565b6001600160a01b0383166118c85760405162461bcd60e51b8152602060048201526024808201527f45524332303a20617070726f76652066726f6d20746865207a65726f2061646460448201527f7265737300000000000000000000000000000000000000000000000000000000606482015260840161097d565b6001600160a01b0382166119445760405162461bcd60e51b815260206004820152602260248201527f45524332303a20617070726f766520746f20746865207a65726f20616464726560448201527f7373000000000000000000000000000000000000000000000000000000000000606482015260840161097d565b6001600160a01b0383811660008181526003602090815260408083209487168084529482529182902085905590518481527f8c5be1e5ebec7d5bd14f71427d1e84f3dd0314c0f7b2291e5b200ac8c7c3b925910160405180910390a3505050565b601354600160b81b900460ff16611a77576000546001600160a01b03848116911614806119df57506013546001600160a01b038481169116145b611a775760405162461bcd60e51b815260206004820152604160248201527f54726164696e67206973206e6f742079657420656e61626c65642c206f6e636560448201527f2070726573616c652069732066696e69736865642069742077696c6c206f706560648201527f6e00000000000000000000000000000000000000000000000000000000000000608482015260a40161097d565b6001600160a01b038316611af35760405162461bcd60e51b815260206004820152602560248201527f45524332303a207472616e736665722066726f6d20746865207a65726f20616460448201527f6472657373000000000000000000000000000000000000000000000000000000606482015260840161097d565b6001600160a01b038216611b6f5760405162461bcd60e51b815260206004820152602360248201527f45524332303a207472616e7366657220746f20746865207a65726f206164647260448201527f6573730000000000000000000000000000000000000000000000000000000000606482015260840161097d565b60008111611be55760405162461bcd60e51b815260206004820152602960248201527f5472616e7366657220616d6f756e74206d75737420626520677265617465722060448201527f7468616e207a65726f0000000000000000000000000000000000000000000000606482015260840161097d565b6000611bf030610f99565b60145490915081108015908190611c3957507f00000000000000000000000000000000000000000000000000000000000000006001600160a01b0316856001600160a01b031614155b8015611c4f5750601354600160a81b900460ff16155b8015611c645750601354600160b01b900460ff165b15611c77576014549150611c7782611de3565b6001600160a01b03851660009081526005602052604090205460019060ff1680611cb957506001600160a01b03851660009081526005602052604090205460ff165b15611cc2575060005b611cce86868684611e8a565b505050505050565b6000806000611ce3612007565b9092509050611cf28183612ba1565b9250505090565b600080546001600160a01b038381166001600160a01b0319831681178455604051919092169283917f8be0079c531659141344cd1fd0a4f28419497f9722a3daafe3b4186f6b6457e09190a35050565b600080600080611d58856121ac565b90506000611d65866121be565b9050600081611d748489612bc3565b611d7e9190612bc3565b979296509094509092505050565b6000808080611d9b8689612b8a565b90506000611da98789612b8a565b90506000611db78888612b8a565b9050600081611dc68486612bc3565b611dd09190612bc3565b939b939a50919850919650505050505050565b6013805460ff60a81b1916600160a81b1790556000611e03600283612ba1565b90506000611e118284612ba1565b905047611e1d836121d0565b6000611e298247612bc3565b9050611e3583826123a1565b60408051858152602081018390529081018490527f17bbfb9a6069321b6ded73bd96327c9e6b7212a5cd51ff219cd61370acafb5619060600160405180910390a150506013805460ff60a81b19169055505050565b80611e9757611e976124bf565b6001600160a01b03841660009081526006602052604090205460ff168015611ed857506001600160a01b03831660009081526006602052604090205460ff16155b15611eed57611ee88484846124ed565b611feb565b6001600160a01b03841660009081526006602052604090205460ff16158015611f2e57506001600160a01b03831660009081526006602052604090205460ff165b15611f3e57611ee884848461261f565b6001600160a01b03841660009081526006602052604090205460ff16158015611f8057506001600160a01b03831660009081526006602052604090205460ff16155b15611f9057611ee8848484612700565b6001600160a01b03841660009081526006602052604090205460ff168015611fd057506001600160a01b03831660009081526006602052604090205460ff165b15611fe057611ee88484846127aa565b611feb848484612700565b8061200157612001600e54600d55601054600f55565b50505050565b60085460009081906a05be074c9e772fd7b60600825b60075481101561216a5782600160006007848154811061203f5761203f612c23565b60009182526020808320909101546001600160a01b0316835282019290925260400190205411806120aa575081600260006007848154811061208357612083612c23565b60009182526020808320909101546001600160a01b03168352820192909252604001902054115b156120c8575050600854936a05be074c9e772fd7b606009350915050565b60016000600783815481106120df576120df612c23565b60009182526020808320909101546001600160a01b0316835282019290925260400190205461210e9084612bc3565b9250600260006007838154811061212757612127612c23565b60009182526020808320909101546001600160a01b031683528201929092526040019020546121569083612bc3565b91508061216281612c4f565b91505061201d565b506a05be074c9e772fd7b606006008546121849190612ba1565b8210156121a3575050600854926a05be074c9e772fd7b6060092509050565b90939092509050565b60006064600d548361148e9190612b8a565b60006064600f548361148e9190612b8a565b604080516002808252606082018352600092602083019080368337019050509050308160008151811061220557612205612c23565b60200260200101906001600160a01b031690816001600160a01b0316815250507f00000000000000000000000000000000000000000000000000000000000000006001600160a01b031663ad5c46486040518163ffffffff1660e01b8152600401602060405180830381865afa158015612283573d6000803e3d6000fd5b505050506040513d601f19601f820116820180604052508101906122a79190612c68565b816001815181106122ba576122ba612c23565b60200260200101906001600160a01b031690816001600160a01b031681525050612305307f00000000000000000000000000000000000000000000000000000000000000008461184d565b6040517f791ac9470000000000000000000000000000000000000000000000000000000081526001600160a01b037f0000000000000000000000000000000000000000000000000000000000000000169063791ac94790612373908590600090869030904290600401612c85565b600060405180830381600087803b15801561238d57600080fd5b505af1158015611cce573d6000803e3d6000fd5b6123cc307f00000000000000000000000000000000000000000000000000000000000000008461184d565b7f00000000000000000000000000000000000000000000000000000000000000006001600160a01b031663f305d7198230856000806124136000546001600160a01b031690565b60405160e088901b7fffffffff000000000000000000000000000000000000000000000000000000001681526001600160a01b03958616600482015260248101949094526044840192909252606483015290911660848201524260a482015260c40160606040518083038185885af1158015612493573d6000803e3d6000fd5b50505050506040513d601f19601f820116820180604052508101906124b89190612cf6565b5050505050565b600d541580156124cf5750600f54155b156124d657565b600d8054600e55600f805460105560009182905555565b6000806000806000806124ff876117f6565b6001600160a01b038f16600090815260026020526040902054959b50939950919750955093509150612532908890612bc3565b6001600160a01b038a16600090815260026020908152604080832093909355600190522054612562908790612bc3565b6001600160a01b03808b1660009081526001602052604080822093909355908a1681522054612592908690612bd6565b6001600160a01b0389166000908152600160205260409020556125b4816128a9565b6125be8483612934565b6125c78861295a565b876001600160a01b0316896001600160a01b03167fddf252ad1be2c89b69c2b068fc378daa952ba7f163c4a11628f55a4df523b3ef8560405161260c91815260200190565b60405180910390a3505050505050505050565b600080600080600080612631876117f6565b6001600160a01b038f16600090815260016020526040902054959b50939950919750955093509150612664908790612bc3565b6001600160a01b03808b16600090815260016020908152604080832094909455918b1681526002909152205461269b908490612bd6565b6001600160a01b0389166000908152600260209081526040808320939093556001905220546126cb908690612bd6565b6001600160a01b0389166000908152600160205260409020556126ed816128a9565b6126f78483612934565b6125c78961295a565b600080600080600080612712876117f6565b6001600160a01b038f16600090815260016020526040902054959b50939950919750955093509150612745908790612bc3565b6001600160a01b03808b1660009081526001602052604080822093909355908a1681522054612775908690612bd6565b6001600160a01b038916600090815260016020526040902055612797816128a9565b6127a18483612934565b6126f78861295a565b6000806000806000806127bc876117f6565b6001600160a01b038f16600090815260026020526040902054959b509399509197509550935091506127ef908890612bc3565b6001600160a01b038a1660009081526002602090815260408083209390935560019052205461281f908790612bc3565b6001600160a01b03808b16600090815260016020908152604080832094909455918b16815260029091522054612856908490612bd6565b6001600160a01b038916600090815260026020908152604080832093909355600190522054612886908690612bd6565b6001600160a01b0389166000908152600160205260409020556125c78483612934565b60006128b3611cd6565b905060006128c18284612b8a565b306000908152600160205260409020549091506128df908290612bd6565b3060009081526001602090815260408083209390935560069052205460ff161561292f573060009081526002602052604090205461291e908490612bd6565b306000908152600260205260409020555b505050565b816008546129429190612bc3565b600855600954612953908290612bd6565b6009555050565b600080546001600160a01b031690506011546a05be074c9e772fd7b6060061298184610f99565b61298c906064612b8a565b6129969190612ba1565b101580156129b65750806001600160a01b0316826001600160a01b031614155b1561124e57601354600160a01b900460ff161561124e5761124e61124883610f99565b6000602082840312156129eb57600080fd5b5035919050565b600060208083528351808285015260005b81811015612a1f57858101830151858201604001528201612a03565b506000604082860101526040601f19601f8301168501019250505092915050565b6001600160a01b038116811461161d57600080fd5b60008060408385031215612a6857600080fd5b8235612a7381612a40565b946020939093013593505050565b600080600060608486031215612a9657600080fd5b8335612aa181612a40565b92506020840135612ab181612a40565b929592945050506040919091013590565b600060208284031215612ad457600080fd5b8135610d9b81612a40565b80358015158114612aef57600080fd5b919050565b60008060408385031215612b0757600080fd5b82359150612b1760208401612adf565b90509250929050565b600060208284031215612b3257600080fd5b610d9b82612adf565b60008060408385031215612b4e57600080fd5b8235612b5981612a40565b91506020830135612b6981612a40565b809150509250929050565b634e487b7160e01b600052601160045260246000fd5b8082028115828204841417610b5f57610b5f612b74565b600082612bbe57634e487b7160e01b600052601260045260246000fd5b500490565b81810381811115610b5f57610b5f612b74565b80820180821115610b5f57610b5f612b74565b600181811c90821680612bfd57607f821691505b602082108103612c1d57634e487b7160e01b600052602260045260246000fd5b50919050565b634e487b7160e01b600052603260045260246000fd5b634e487b7160e01b600052603160045260246000fd5b600060018201612c6157612c61612b74565b5060010190565b600060208284031215612c7a57600080fd5b8151610d9b81612a40565b600060a082018783526020878185015260a0604085015281875180845260c086019150828901935060005b81811015612cd55784516001600160a01b031683529383019391830191600101612cb0565b50506001600160a01b03969096166060850152505050608001529392505050565b600080600060608486031215612d0b57600080fd5b835192506020840151915060408401519050925092509256fea26469706673582212209d79194665ddadbb7ea2bed2c539342bb3392624cf7638ca0b946523f8c5ae7764736f6c63430008140033",
  "linkReferences": {},
  "deployedLinkReferences": {}
}