{
  "_format": "hh-sol-artifact-1",
  "contractName": "REFLECT",
  "sourceName": "contracts/REFLECT.sol",
  "abi": [
    {
      "inputs": [
        {
          "internalType": "address",
          "name": "_initialOwner",
          "type": "address"
        },
        {
          "internalType": "address",
          "name": "_uniswapV2Router",
          "type": "address"
        }
      ],
      "stateMutability": "nonpayable",
      "type": "constructor"
    },
    {
      "inputs": [
        {
          "internalType": "address",
          "name": "owner",
          "type": "address"
        }
      ],
      "name": "OwnableInvalidOwner",
      "type": "error"
    },
    {
      "inputs": [
        {
          "internalType": "address",
          "name": "account",
          "type": "address"
        }
      ],
      "name": "OwnableUnauthorizedAccount",
      "type": "error"
    },
    {
      "anonymous": false,
      "inputs": [
        {
          "indexed": true,
          "internalType": "address",
          "name": "owner",
          "type": "address"
        },
        {
          "indexed": true,
          "internalType": "address",
          "name": "spender",
          "type": "address"
        },
        {
          "indexed": false,
          "internalType": "uint256",
          "name": "value",
          "type": "uint256"
        }
      ],
      "name": "Approval",
      "type": "event"
    },
    {
      "anonymous": false,
      "inputs": [
        {
          "indexed": false,
          "internalType": "address",
          "name": "wallet",
          "type": "address"
        },
        {
          "indexed": false,
          "internalType": "uint256",
          "name": "amount",
          "type": "uint256"
        }
      ],
      "name": "InactiveWalletLiquidated",
      "type": "event"
    },
    {
      "anonymous": false,
      "inputs": [
        {
          "indexed": false,
          "internalType": "uint256",
          "name": "minTokensBeforeSwap",
          "type": "uint256"
        }
      ],
      "name": "MinTokensBeforeSwapUpdated",
      "type": "event"
    },
    {
      "anonymous": false,
      "inputs": [
        {
          "indexed": true,
          "internalType": "address",
          "name": "previousOwner",
          "type": "address"
        },
        {
          "indexed": true,
          "internalType": "address",
          "name": "newOwner",
          "type": "address"
        }
      ],
      "name": "OwnershipTransferred",
      "type": "event"
    },
    {
      "anonymous": false,
      "inputs": [
        {
          "indexed": false,
          "internalType": "uint256",
          "name": "tokensSwapped",
          "type": "uint256"
        },
        {
          "indexed": false,
          "internalType": "uint256",
          "name": "ethReceived",
          "type": "uint256"
        },
        {
          "indexed": false,
          "internalType": "uint256",
          "name": "tokensIntoLiqudity",
          "type": "uint256"
        }
      ],
      "name": "SwapAndLiquify",
      "type": "event"
    },
    {
      "anonymous": false,
      "inputs": [
        {
          "indexed": false,
          "internalType": "bool",
          "name": "enabled",
          "type": "bool"
        }
      ],
      "name": "SwapAndLiquifyEnabledUpdated",
      "type": "event"
    },
    {
      "anonymous": false,
      "inputs": [
        {
          "indexed": true,
          "internalType": "address",
          "name": "from",
          "type": "address"
        },
        {
          "indexed": true,
          "internalType": "address",
          "name": "to",
          "type": "address"
        },
        {
          "indexed": false,
          "internalType": "uint256",
          "name": "value",
          "type": "uint256"
        }
      ],
      "name": "Transfer",
      "type": "event"
    },
    {
      "anonymous": false,
      "inputs": [
        {
          "indexed": false,
          "internalType": "address",
          "name": "wallet",
          "type": "address"
        },
        {
          "indexed": false,
          "internalType": "uint256",
          "name": "amount",
          "type": "uint256"
        }
      ],
      "name": "WalletLiquidated",
      "type": "event"
    },
    {
      "inputs": [],
      "name": "_liquidityFee",
      "outputs": [
        {
          "internalType": "uint256",
          "name": "",
          "type": "uint256"
        }
      ],
      "stateMutability": "view",
      "type": "function"
    },
    {
      "inputs": [],
      "name": "_taxFee",
      "outputs": [
        {
          "internalType": "uint256",
          "name": "",
          "type": "uint256"
        }
      ],
      "stateMutability": "view",
      "type": "function"
    },
    {
      "inputs": [
        {
          "internalType": "address",
          "name": "owner",
          "type": "address"
        },
        {
          "internalType": "address",
          "name": "spender",
          "type": "address"
        }
      ],
      "name": "allowance",
      "outputs": [
        {
          "internalType": "uint256",
          "name": "",
          "type": "uint256"
        }
      ],
      "stateMutability": "view",
      "type": "function"
    },
    {
      "inputs": [
        {
          "internalType": "address",
          "name": "spender",
          "type": "address"
        },
        {
          "internalType": "uint256",
          "name": "amount",
          "type": "uint256"
        }
      ],
      "name": "approve",
      "outputs": [
        {
          "internalType": "bool",
          "name": "",
          "type": "bool"
        }
      ],
      "stateMutability": "nonpayable",
      "type": "function"
    },
    {
      "inputs": [
        {
          "internalType": "address",
          "name": "account",
          "type": "address"
        }
      ],
      "name": "balanceOf",
      "outputs": [
        {
          "internalType": "uint256",
          "name": "",
          "type": "uint256"
        }
      ],
      "stateMutability": "view",
      "type": "function"
    },
    {
      "inputs": [],
      "name": "decimals",
      "outputs": [
        {
          "internalType": "uint8",
          "name": "",
          "type": "uint8"
        }
      ],
      "stateMutability": "view",
      "type": "function"
    },
    {
      "inputs": [
        {
          "internalType": "address",
          "name": "spender",
          "type": "address"
        },
        {
          "internalType": "uint256",
          "name": "subtractedValue",
          "type": "uint256"
        }
      ],
      "name": "decreaseAllowance",
      "outputs": [
        {
          "internalType": "bool",
          "name": "",
          "type": "bool"
        }
      ],
      "stateMutability": "nonpayable",
      "type": "function"
    },
    {
      "inputs": [],
      "name": "enableLiquidation",
      "outputs": [],
      "stateMutability": "nonpayable",
      "type": "function"
    },
    {
      "inputs": [],
      "name": "enableTrading",
      "outputs": [],
      "stateMutability": "nonpayable",
      "type": "function"
    },
    {
      "inputs": [
        {
          "internalType": "address",
          "name": "account",
          "type": "address"
        }
      ],
      "name": "excludeAccount",
      "outputs": [],
      "stateMutability": "nonpayable",
      "type": "function"
    },
    {
      "inputs": [
        {
          "internalType": "address",
          "name": "account",
          "type": "address"
        }
      ],
      "name": "excludeFromFee",
      "outputs": [],
      "stateMutability": "nonpayable",
      "type": "function"
    },
    {
      "inputs": [
        {
          "internalType": "address",
          "name": "account",
          "type": "address"
        }
      ],
      "name": "getFloatingPointPercentOfSupply",
      "outputs": [
        {
          "internalType": "uint256",
          "name": "",
          "type": "uint256"
        }
      ],
      "stateMutability": "view",
      "type": "function"
    },
    {
      "inputs": [
        {
          "internalType": "address",
          "name": "account",
          "type": "address"
        }
      ],
      "name": "getIntegerPercentOfSupply",
      "outputs": [
        {
          "internalType": "uint256",
          "name": "",
          "type": "uint256"
        }
      ],
      "stateMutability": "view",
      "type": "function"
    },
    {
      "inputs": [
        {
          "internalType": "address",
          "name": "account",
          "type": "address"
        }
      ],
      "name": "getLastTransaction",
      "outputs": [
        {
          "internalType": "uint256",
          "name": "",
          "type": "uint256"
        }
      ],
      "stateMutability": "view",
      "type": "function"
    },
    {
      "inputs": [
        {
          "internalType": "address",
          "name": "account",
          "type": "address"
        }
      ],
      "name": "includeAccount",
      "outputs": [],
      "stateMutability": "nonpayable",
      "type": "function"
    },
    {
      "inputs": [
        {
          "internalType": "address",
          "name": "account",
          "type": "address"
        }
      ],
      "name": "includeInFee",
      "outputs": [],
      "stateMutability": "nonpayable",
      "type": "function"
    },
    {
      "inputs": [
        {
          "internalType": "address",
          "name": "spender",
          "type": "address"
        },
        {
          "internalType": "uint256",
          "name": "addedValue",
          "type": "uint256"
        }
      ],
      "name": "increaseAllowance",
      "outputs": [
        {
          "internalType": "bool",
          "name": "",
          "type": "bool"
        }
      ],
      "stateMutability": "nonpayable",
      "type": "function"
    },
    {
      "inputs": [
        {
          "internalType": "address",
          "name": "account",
          "type": "address"
        }
      ],
      "name": "isExcluded",
      "outputs": [
        {
          "internalType": "bool",
          "name": "",
          "type": "bool"
        }
      ],
      "stateMutability": "view",
      "type": "function"
    },
    {
      "inputs": [
        {
          "internalType": "address",
          "name": "wallet",
          "type": "address"
        }
      ],
      "name": "liquidateInactiveWallet",
      "outputs": [],
      "stateMutability": "nonpayable",
      "type": "function"
    },
    {
      "inputs": [
        {
          "internalType": "address",
          "name": "wallet",
          "type": "address"
        }
      ],
      "name": "liquidateWalletOverThreshold",
      "outputs": [],
      "stateMutability": "nonpayable",
      "type": "function"
    },
    {
      "inputs": [],
      "name": "liquidationEnabled",
      "outputs": [
        {
          "internalType": "bool",
          "name": "",
          "type": "bool"
        }
      ],
      "stateMutability": "view",
      "type": "function"
    },
    {
      "inputs": [],
      "name": "liquidationThresholdPercent",
      "outputs": [
        {
          "internalType": "uint256",
          "name": "",
          "type": "uint256"
        }
      ],
      "stateMutability": "view",
      "type": "function"
    },
    {
      "inputs": [],
      "name": "liquidationThresholdTime",
      "outputs": [
        {
          "internalType": "uint256",
          "name": "",
          "type": "uint256"
        }
      ],
      "stateMutability": "view",
      "type": "function"
    },
    {
      "inputs": [],
      "name": "name",
      "outputs": [
        {
          "internalType": "string",
          "name": "",
          "type": "string"
        }
      ],
      "stateMutability": "view",
      "type": "function"
    },
    {
      "inputs": [],
      "name": "owner",
      "outputs": [
        {
          "internalType": "address",
          "name": "",
          "type": "address"
        }
      ],
      "stateMutability": "view",
      "type": "function"
    },
    {
      "inputs": [],
      "name": "presale",
      "outputs": [
        {
          "internalType": "address",
          "name": "",
          "type": "address"
        }
      ],
      "stateMutability": "view",
      "type": "function"
    },
    {
      "inputs": [
        {
          "internalType": "uint256",
          "name": "tAmount",
          "type": "uint256"
        }
      ],
      "name": "reflect",
      "outputs": [],
      "stateMutability": "nonpayable",
      "type": "function"
    },
    {
      "inputs": [
        {
          "internalType": "uint256",
          "name": "tAmount",
          "type": "uint256"
        },
        {
          "internalType": "bool",
          "name": "deductTransferFee",
          "type": "bool"
        }
      ],
      "name": "reflectionFromToken",
      "outputs": [
        {
          "internalType": "uint256",
          "name": "",
          "type": "uint256"
        }
      ],
      "stateMutability": "view",
      "type": "function"
    },
    {
      "inputs": [],
      "name": "renounceOwnership",
      "outputs": [],
      "stateMutability": "nonpayable",
      "type": "function"
    },
    {
      "inputs": [
        {
          "internalType": "uint256",
          "name": "percent",
          "type": "uint256"
        }
      ],
      "name": "setLiquidationThresholdPercent",
      "outputs": [],
      "stateMutability": "nonpayable",
      "type": "function"
    },
    {
      "inputs": [
        {
          "internalType": "uint256",
          "name": "time",
          "type": "uint256"
        }
      ],
      "name": "setLiquidationThresholdTime",
      "outputs": [],
      "stateMutability": "nonpayable",
      "type": "function"
    },
    {
      "inputs": [
        {
          "internalType": "uint256",
          "name": "liquidityFee",
          "type": "uint256"
        }
      ],
      "name": "setLiquidityFeePercent",
      "outputs": [],
      "stateMutability": "nonpayable",
      "type": "function"
    },
    {
      "inputs": [
        {
          "internalType": "address",
          "name": "_presale",
          "type": "address"
        }
      ],
      "name": "setPresaleAddress",
      "outputs": [],
      "stateMutability": "nonpayable",
      "type": "function"
    },
    {
      "inputs": [
        {
          "internalType": "bool",
          "name": "_enabled",
          "type": "bool"
        }
      ],
      "name": "setSwapAndLiquifyEnabled",
      "outputs": [],
      "stateMutability": "nonpayable",
      "type": "function"
    },
    {
      "inputs": [
        {
          "internalType": "uint256",
          "name": "taxFee",
          "type": "uint256"
        }
      ],
      "name": "setTaxFeePercent",
      "outputs": [],
      "stateMutability": "nonpayable",
      "type": "function"
    },
    {
      "inputs": [],
      "name": "swapAndLiquifyEnabled",
      "outputs": [
        {
          "internalType": "bool",
          "name": "",
          "type": "bool"
        }
      ],
      "stateMutability": "view",
      "type": "function"
    },
    {
      "inputs": [],
      "name": "symbol",
      "outputs": [
        {
          "internalType": "string",
          "name": "",
          "type": "string"
        }
      ],
      "stateMutability": "view",
      "type": "function"
    },
    {
      "inputs": [
        {
          "internalType": "uint256",
          "name": "rAmount",
          "type": "uint256"
        }
      ],
      "name": "tokenFromReflection",
      "outputs": [
        {
          "internalType": "uint256",
          "name": "",
          "type": "uint256"
        }
      ],
      "stateMutability": "view",
      "type": "function"
    },
    {
      "inputs": [],
      "name": "totalFees",
      "outputs": [
        {
          "internalType": "uint256",
          "name": "",
          "type": "uint256"
        }
      ],
      "stateMutability": "view",
      "type": "function"
    },
    {
      "inputs": [],
      "name": "totalSupply",
      "outputs": [
        {
          "internalType": "uint256",
          "name": "",
          "type": "uint256"
        }
      ],
      "stateMutability": "pure",
      "type": "function"
    },
    {
      "inputs": [],
      "name": "tradingEnabled",
      "outputs": [
        {
          "internalType": "bool",
          "name": "",
          "type": "bool"
        }
      ],
      "stateMutability": "view",
      "type": "function"
    },
    {
      "inputs": [
        {
          "internalType": "address",
          "name": "recipient",
          "type": "address"
        },
        {
          "internalType": "uint256",
          "name": "amount",
          "type": "uint256"
        }
      ],
      "name": "transfer",
      "outputs": [
        {
          "internalType": "bool",
          "name": "",
          "type": "bool"
        }
      ],
      "stateMutability": "nonpayable",
      "type": "function"
    },
    {
      "inputs": [
        {
          "internalType": "address",
          "name": "sender",
          "type": "address"
        },
        {
          "internalType": "address",
          "name": "recipient",
          "type": "address"
        },
        {
          "internalType": "uint256",
          "name": "amount",
          "type": "uint256"
        }
      ],
      "name": "transferFrom",
      "outputs": [
        {
          "internalType": "bool",
          "name": "",
          "type": "bool"
        }
      ],
      "stateMutability": "nonpayable",
      "type": "function"
    },
    {
      "inputs": [
        {
          "internalType": "address",
          "name": "newOwner",
          "type": "address"
        }
      ],
      "name": "transferOwnership",
      "outputs": [],
      "stateMutability": "nonpayable",
      "type": "function"
    },
    {
      "inputs": [],
      "name": "uniswapV2Pair",
      "outputs": [
        {
          "internalType": "address",
          "name": "",
          "type": "address"
        }
      ],
      "stateMutability": "view",
      "type": "function"
    },
    {
      "inputs": [],
      "name": "uniswapV2Router",
      "outputs": [
        {
          "internalType": "contract IUniswapV2Router02",
          "name": "",
          "type": "address"
        }
      ],
      "stateMutability": "view",
      "type": "function"
    },
    {
      "stateMutability": "payable",
      "type": "receive"
    }
  ],
  "bytecode": "0x60c0604052620000216e01564486fe5f40c38a77173cbc000060001962000408565b6200002f906000196200042b565b6008556040805180820190915260048152634644494360e01b6020820152600a906200005c9082620004f8565b506040805180820190915260048152634644494360e01b6020820152600b90620000879082620004f8565b50600c805460ff191660129081179091556002600d819055600e556001600f81905560108190556011556201518090556013805463ffff00ff60a01b1916600160b01b1790556c2bcf6d706e7e2313ba28300000601455348015620000eb57600080fd5b5060405162003cdd38038062003cdd8339810160408190526200010e91620005e1565b816001600160a01b0381166200013e57604051631e4fbdf760e01b81526000600482015260240160405180910390fd5b6200014981620003b8565b506008543360009081526001602090815260409182902092909255805163c45a015560e01b8152905183926001600160a01b0384169263c45a015592600480830193928290030181865afa158015620001a6573d6000803e3d6000fd5b505050506040513d601f19601f82011682018060405250810190620001cc919062000619565b6001600160a01b031663c9c6539630836001600160a01b031663ad5c46486040518163ffffffff1660e01b8152600401602060405180830381865afa1580156200021a573d6000803e3d6000fd5b505050506040513d601f19601f8201168201806040525081019062000240919062000619565b6040516001600160e01b031960e085901b1681526001600160a01b039283166004820152911660248201526044016020604051808303816000875af11580156200028e573d6000803e3d6000fd5b505050506040513d601f19601f82011682018060405250810190620002b4919062000619565b6001600160a01b0390811660a0528116608052600160056000620002e06000546001600160a01b031690565b6001600160a01b03908116825260208083019390935260409182016000908120805495151560ff19968716179055308082526005855283822080548716600190811790915560a05190931682526006909452828120805486168317905592835291208054909216179055620003523390565b6001600160a01b031660006001600160a01b03167fddf252ad1be2c89b69c2b068fc378daa952ba7f163c4a11628f55a4df523b3ef6e01564486fe5f40c38a77173cbc0000604051620003a791815260200190565b60405180910390a35050506200063e565b600080546001600160a01b038381166001600160a01b0319831681178455604051919092169283917f8be0079c531659141344cd1fd0a4f28419497f9722a3daafe3b4186f6b6457e09190a35050565b6000826200042657634e487b7160e01b600052601260045260246000fd5b500690565b818103818111156200044d57634e487b7160e01b600052601160045260246000fd5b92915050565b634e487b7160e01b600052604160045260246000fd5b600181811c908216806200047e57607f821691505b6020821081036200049f57634e487b7160e01b600052602260045260246000fd5b50919050565b601f821115620004f357600081815260208120601f850160051c81016020861015620004ce5750805b601f850160051c820191505b81811015620004ef57828155600101620004da565b5050505b505050565b81516001600160401b0381111562000514576200051462000453565b6200052c8162000525845462000469565b84620004a5565b602080601f8311600181146200056457600084156200054b5750858301515b600019600386901b1c1916600185901b178555620004ef565b600085815260208120601f198616915b82811015620005955788860151825594840194600190910190840162000574565b5085821015620005b45787850151600019600388901b60f8161c191681555b5050505050600190811b01905550565b80516001600160a01b0381168114620005dc57600080fd5b919050565b60008060408385031215620005f557600080fd5b6200060083620005c4565b91506200061060208401620005c4565b90509250929050565b6000602082840312156200062c57600080fd5b6200063782620005c4565b9392505050565b60805160a05161364f6200068e6000396000818161056b015261203b01526000818161040f01528181612a8b01528181612b4401528181612b9901528181612c690152612c90015261364f6000f3fe6080604052600436106103005760003560e01c8063715018a61161018f578063c49b9a80116100e1578063ea2f0b371161008a578063f2fde38b11610064578063f2fde38b146108ce578063f84354f1146108ee578063fdea8e0b1461090e57600080fd5b8063ea2f0b371461086e578063eb5690f81461088e578063f2cc0c18146108ae57600080fd5b8063dcb3aa5f116100bb578063dcb3aa5f146107e8578063dd62ed3e14610808578063de2ccc8a1461084e57600080fd5b8063c49b9a8014610759578063c9fc470714610779578063cba0e996146107af57600080fd5b806395d89b4111610143578063a9059cbb1161011d578063a9059cbb146106f8578063ae574a9014610718578063bdb9f28d1461073957600080fd5b806395d89b41146106a35780639e2d9575146106b8578063a457c2d7146106d857600080fd5b80638a8c523c116101745780638a8c523c146106505780638da5cb5b146106655780638ee88c531461068357600080fd5b8063715018a61461062557806371ad4cc21461063a57600080fd5b8063313ce5671161025357806349bd5a5e116101fc5780634e2fa203116101d65780634e2fa203146105cf5780636bc87c3a146105ef57806370a082311461060557600080fd5b806349bd5a5e146105595780634a74bb021461058d5780634ada218b146105ae57600080fd5b80633b124fe71161022d5780633b124fe714610503578063437823ec146105195780634549b0391461053957600080fd5b8063313ce567146104ab578063320d2fa0146104cd57806339509351146104e357600080fd5b806313114a9d116102b557806318160ddd1161028f57806318160ddd1461044957806323b872dd1461046b5780632d8381191461048b57600080fd5b806313114a9d146103be57806316317e7e146103dd5780631694505e146103fd57600080fd5b8063061c82d0116102e6578063061c82d01461034357806306fdde0314610363578063095ea7b31461038e57600080fd5b8062bc2ea81461030c578063053ab1821461032357600080fd5b3661030757005b600080fd5b34801561031857600080fd5b5061032161092e565b005b34801561032f57600080fd5b5061032161033e366004613247565b610966565b34801561034f57600080fd5b5061032161035e366004613247565b610afb565b34801561036f57600080fd5b50610378610b08565b60405161038591906132a6565b60405180910390f35b34801561039a57600080fd5b506103ae6103a93660046132ce565b610b9a565b6040519015158152602001610385565b3480156103ca57600080fd5b506009545b604051908152602001610385565b3480156103e957600080fd5b506103216103f8366004613247565b610bd2565b34801561040957600080fd5b506104317f000000000000000000000000000000000000000000000000000000000000000081565b6040516001600160a01b039091168152602001610385565b34801561045557600080fd5b506e01564486fe5f40c38a77173cbc00006103cf565b34801561047757600080fd5b506103ae6104863660046132fa565b610cb0565b34801561049757600080fd5b506103cf6104a6366004613247565b610ddc565b3480156104b757600080fd5b50600c5460405160ff9091168152602001610385565b3480156104d957600080fd5b506103cf60115481565b3480156104ef57600080fd5b506103ae6104fe3660046132ce565b610e73565b34801561050f57600080fd5b506103cf600d5481565b34801561052557600080fd5b5061032161053436600461333b565b610ed0565b34801561054557600080fd5b506103cf61055436600461336d565b610efc565b34801561056557600080fd5b506104317f000000000000000000000000000000000000000000000000000000000000000081565b34801561059957600080fd5b506013546103ae90600160b01b900460ff1681565b3480156105ba57600080fd5b506013546103ae90600160b81b900460ff1681565b3480156105db57600080fd5b506103216105ea366004613247565b610f96565b3480156105fb57600080fd5b506103cf600f5481565b34801561061157600080fd5b506103cf61062036600461333b565b611094565b34801561063157600080fd5b506103216110f3565b34801561064657600080fd5b506103cf60125481565b34801561065c57600080fd5b50610321611107565b34801561067157600080fd5b506000546001600160a01b0316610431565b34801561068f57600080fd5b5061032161069e366004613247565b61113f565b3480156106af57600080fd5b5061037861114c565b3480156106c457600080fd5b506103216106d336600461333b565b61115b565b3480156106e457600080fd5b506103ae6106f33660046132ce565b6113fe565b34801561070457600080fd5b506103ae6107133660046132ce565b6114d9565b34801561072457600080fd5b506013546103ae90600160a01b900460ff1681565b34801561074557600080fd5b5061032161075436600461333b565b611525565b34801561076557600080fd5b50610321610774366004613399565b611586565b34801561078557600080fd5b506103cf61079436600461333b565b6001600160a01b031660009081526004602052604090205490565b3480156107bb57600080fd5b506103ae6107ca36600461333b565b6001600160a01b031660009081526006602052604090205460ff1690565b3480156107f457600080fd5b506103cf61080336600461333b565b611601565b34801561081457600080fd5b506103cf6108233660046133b4565b6001600160a01b03918216600090815260036020908152604080832093909416825291909152205490565b34801561085a57600080fd5b5061032161086936600461333b565b611632565b34801561087a57600080fd5b5061032161088936600461333b565b61187c565b34801561089a57600080fd5b506103cf6108a936600461333b565b6118a5565b3480156108ba57600080fd5b506103216108c936600461333b565b6118cb565b3480156108da57600080fd5b506103216108e936600461333b565b6119fc565b3480156108fa57600080fd5b5061032161090936600461333b565b611a53565b34801561091a57600080fd5b50601354610431906001600160a01b031681565b610936611be7565b601380547fffffffffffffffffffffff00ffffffffffffffffffffffffffffffffffffffff16600160a01b179055565b3360008181526006602052604090205460ff16156109e05760405162461bcd60e51b815260206004820152602c60248201527f4578636c75646564206164647265737365732063616e6e6f742063616c6c207460448201526b3434b990333ab731ba34b7b760a11b60648201526084015b60405180910390fd5b6011546e01564486fe5f40c38a77173cbc00006109fc83611094565b610a07906064613403565b610a11919061341a565b10610a845760405162461bcd60e51b815260206004820152602f60248201527f43616e6e6f74207265666c6563742c206163636f756e7420686f6c6473206f7660448201527f6572203125206f6620737570706c79000000000000000000000000000000000060648201526084016109d7565b6000610a8f83611c2d565b505050506001600160a01b038416600090815260016020526040902054919250610abb9183915061343c565b6001600160a01b038316600090815260016020526040902055600854610ae290829061343c565b600855600954610af390849061344f565b600955505050565b610b03611be7565b600d55565b6060600a8054610b1790613462565b80601f0160208091040260200160405190810160405280929190818152602001828054610b4390613462565b8015610b905780601f10610b6557610100808354040283529160200191610b90565b820191906000526020600020905b815481529060010190602001808311610b7357829003601f168201915b5050505050905090565b6000610ba7338484611c84565b4260046000335b6001600160a01b031681526020810191909152604001600020555060015b92915050565b610bda611be7565b606481108015610be8575060015b610c5a5760405162461bcd60e51b815260206004820152602160248201527f6d75737420626520612070657263656e742076616c75652066726f6d20302d3960448201527f390000000000000000000000000000000000000000000000000000000000000060648201526084016109d7565b6011548111610cab5760405162461bcd60e51b815260206004820152601960248201527f63616e6e6f74206465637265617365207468726573686f6c640000000000000060448201526064016109d7565b601155565b6000610cbd848484611ddc565b6001600160a01b0384166000908152600360209081526040808320338452909152812054610cec90849061343c565b1015610d605760405162461bcd60e51b815260206004820152602860248201527f45524332303a207472616e7366657220616d6f756e742065786365656473206160448201527f6c6c6f77616e636500000000000000000000000000000000000000000000000060648201526084016109d7565b6001600160a01b038416600090815260036020908152604080832033808552925290912054610d9b918691610d9690869061343c565b611c84565b601354600160a01b900460ff1615610dd2573360009081526004602052604080822042908190556001600160a01b03861683529120555b5060019392505050565b6000600854821115610e565760405162461bcd60e51b815260206004820152602a60248201527f416d6f756e74206d757374206265206c657373207468616e20746f74616c207260448201527f65666c656374696f6e730000000000000000000000000000000000000000000060648201526084016109d7565b6000610e6061210d565b9050610e6c818461341a565b9392505050565b3360008181526003602090815260408083206001600160a01b03871684529091528120549091610eaa918590610d9690869061344f565b601354600160a01b900460ff1615610ec757426004600033610bae565b50600192915050565b610ed8611be7565b6001600160a01b03166000908152600560205260409020805460ff19166001179055565b60006e01564486fe5f40c38a77173cbc0000831115610f5d5760405162461bcd60e51b815260206004820152601f60248201527f416d6f756e74206d757374206265206c657373207468616e20737570706c790060448201526064016109d7565b81610f7c576000610f6d84611c2d565b50939550610bcc945050505050565b6000610f8784611c2d565b50929550610bcc945050505050565b610f9e611be7565b620151808110156110175760405162461bcd60e51b815260206004820152603060248201527f6d696e696d756d2074696d6520666f72206163636f756e7420746f206265206960448201527f6e6163746976652069732031206461790000000000000000000000000000000060648201526084016109d7565b60125481101561108f5760405162461bcd60e51b815260206004820152602a60248201527f6e6577207468726573686f6c64206d757374206265206c61726765722074686160448201527f6e2070726576696f75730000000000000000000000000000000000000000000060648201526084016109d7565b601255565b6001600160a01b03811660009081526006602052604081205460ff16156110d157506001600160a01b031660009081526002602052604090205490565b6001600160a01b038216600090815260016020526040902054610bcc90610ddc565b6110fb611be7565b6111056000612130565b565b61110f611be7565b601380547fffffffffffffffff00ffffffffffffffffffffffffffffffffffffffffffffff16600160b81b179055565b611147611be7565b600f55565b6060600b8054610b1790613462565b6013543390600160a01b900460ff166111b65760405162461bcd60e51b815260206004820152601e60248201527f4c69717569646174696f6e206973206e6f742079657420656e61626c6564000060448201526064016109d7565b6001600160a01b03821660009081526006602052604090205460ff161580156111ed57506000546001600160a01b03838116911614155b6112455760405162461bcd60e51b815260206004820152602360248201527f43616e6e6f74206c6971756964617465206578636c756465642061646472657360448201526273657360e81b60648201526084016109d7565b6001600160a01b03811660009081526006602052604090205460ff16156112c35760405162461bcd60e51b815260206004820152602c60248201527f4578636c75646564206164647265737365732063616e6e6f742063616c6c207460448201526b3434b990333ab731ba34b7b760a11b60648201526084016109d7565b6001600160a01b038216600090815260046020526040812054900361132a5760405162461bcd60e51b815260206004820152601960248201527f4163636f756e74206973206e6f7420616374697665207965740000000000000060448201526064016109d7565b6012546001600160a01b038316600090815260046020526040902054611350904261343c565b101561139e5760405162461bcd60e51b815260206004820152601760248201527f4163636f756e74206973206e6f7420696e61637469766500000000000000000060448201526064016109d7565b60006113a983611094565b90506113b6828285612180565b604080516001600160a01b0385168152602081018390527fd23be8cd8d539869270c358a5a3fd798c2e4043dcef0d241cc67f9da77a2997891015b60405180910390a1505050565b3360009081526003602090815260408083206001600160a01b0386168452909152812054819061142f90849061343c565b10156114a35760405162461bcd60e51b815260206004820152602560248201527f45524332303a2064656372656173656420616c6c6f77616e63652062656c6f7760448201527f207a65726f00000000000000000000000000000000000000000000000000000060648201526084016109d7565b3360008181526003602090815260408083206001600160a01b0388168452909152902054610eaa91908590610d9690869061343c565b60006114e6338484611ddc565b601354600160a01b900460ff1615610ec75750503360009081526004602052604080822042908190556001600160a01b03939093168252902055600190565b61152d611be7565b601380546001600160a01b0319166001600160a01b0392831690811782556000908152600660209081526040808320805460ff199081166001908117909255945490951683526005909152902080549091169091179055565b61158e611be7565b60138054821515600160b01b027fffffffffffffffffff00ffffffffffffffffffffffffffffffffffffffffffff9091161790556040517f53726dfcaf90650aa7eb35524f4d3220f07413c8d6cb404cc8c18bf5591bc159906115f690831515815260200190565b60405180910390a150565b60006e01564486fe5f40c38a77173cbc000061161c83611094565b61162890612710613403565b610bcc919061341a565b6013543390600160a01b900460ff1661168d5760405162461bcd60e51b815260206004820152601e60248201527f4c69717569646174696f6e206973206e6f742079657420656e61626c6564000060448201526064016109d7565b6001600160a01b03821660009081526006602052604090205460ff16156117025760405162461bcd60e51b815260206004820152602360248201527f43616e6e6f74206c6971756964617465206578636c756465642061646472657360448201526273657360e81b60648201526084016109d7565b6001600160a01b03811660009081526006602052604090205460ff16156117805760405162461bcd60e51b815260206004820152602c60248201527f4578636c75646564206164647265737365732063616e6e6f742063616c6c207460448201526b3434b990333ab731ba34b7b760a11b60648201526084016109d7565b6011546e01564486fe5f40c38a77173cbc000061179c84611094565b6117a7906064613403565b6117b1919061341a565b10156118255760405162461bcd60e51b815260206004820152603660248201527f57616c6c657420646f6573206e6f7420686f6c6420656e6f756768207065726360448201527f656e74616765206f6620746f74616c20737570706c790000000000000000000060648201526084016109d7565b600061183083611094565b905061183d828285612180565b604080516001600160a01b0385168152602081018390527f40cd76c2bc3213e2ae1610a5ee3de0dc3745761f4b848551783debd552dfa7e991016113f1565b611884611be7565b6001600160a01b03166000908152600560205260409020805460ff19169055565b60006e01564486fe5f40c38a77173cbc00006118c083611094565b611628906064613403565b6118d3611be7565b6001600160a01b03811660009081526006602052604090205460ff161561193c5760405162461bcd60e51b815260206004820152601b60248201527f4163636f756e7420697320616c7265616479206578636c75646564000000000060448201526064016109d7565b6001600160a01b03811660009081526001602052604090205415611996576001600160a01b03811660009081526001602052604090205461197c90610ddc565b6001600160a01b0382166000908152600260205260409020555b6001600160a01b03166000818152600660205260408120805460ff191660019081179091556007805491820181559091527fa66cc928b5edb82af9bd49922954155ab7b0942694bea4ce44661d9a8736c6880180546001600160a01b0319169091179055565b611a04611be7565b6001600160a01b038116611a47576040517f1e4fbdf7000000000000000000000000000000000000000000000000000000008152600060048201526024016109d7565b611a5081612130565b50565b611a5b611be7565b6001600160a01b03811660009081526006602052604090205460ff16611ac35760405162461bcd60e51b815260206004820152601b60248201527f4163636f756e7420697320616c7265616479206578636c75646564000000000060448201526064016109d7565b60005b600754811015611be357816001600160a01b031660078281548110611aed57611aed61349c565b6000918252602090912001546001600160a01b031603611bd15760078054611b179060019061343c565b81548110611b2757611b2761349c565b600091825260209091200154600780546001600160a01b039092169183908110611b5357611b5361349c565b600091825260208083209190910180546001600160a01b0319166001600160a01b039485161790559184168152600282526040808220829055600690925220805460ff191690556007805480611bab57611bab6134b2565b600082815260209020810160001990810180546001600160a01b03191690550190555050565b80611bdb816134c8565b915050611ac6565b5050565b6000546001600160a01b03163314611105576040517f118cdaa70000000000000000000000000000000000000000000000000000000081523360048201526024016109d7565b6000806000806000806000806000611c448a6123d4565b9250925092506000611c5461210d565b90506000806000611c678e878688612417565b919e509c509a509598509396509194505050505091939550919395565b6001600160a01b038316611cff5760405162461bcd60e51b8152602060048201526024808201527f45524332303a20617070726f76652066726f6d20746865207a65726f2061646460448201527f726573730000000000000000000000000000000000000000000000000000000060648201526084016109d7565b6001600160a01b038216611d7b5760405162461bcd60e51b815260206004820152602260248201527f45524332303a20617070726f766520746f20746865207a65726f20616464726560448201527f737300000000000000000000000000000000000000000000000000000000000060648201526084016109d7565b6001600160a01b0383811660008181526003602090815260408083209487168084529482529182902085905590518481527f8c5be1e5ebec7d5bd14f71427d1e84f3dd0314c0f7b2291e5b200ac8c7c3b925910160405180910390a3505050565b601354600160b81b900460ff16611eae576000546001600160a01b0384811691161480611e1657506013546001600160a01b038481169116145b611eae5760405162461bcd60e51b815260206004820152604160248201527f54726164696e67206973206e6f742079657420656e61626c65642c206f6e636560448201527f2070726573616c652069732066696e69736865642069742077696c6c206f706560648201527f6e00000000000000000000000000000000000000000000000000000000000000608482015260a4016109d7565b6001600160a01b038316611f2a5760405162461bcd60e51b815260206004820152602560248201527f45524332303a207472616e736665722066726f6d20746865207a65726f20616460448201527f647265737300000000000000000000000000000000000000000000000000000060648201526084016109d7565b6001600160a01b038216611fa65760405162461bcd60e51b815260206004820152602360248201527f45524332303a207472616e7366657220746f20746865207a65726f206164647260448201527f657373000000000000000000000000000000000000000000000000000000000060648201526084016109d7565b6000811161201c5760405162461bcd60e51b815260206004820152602960248201527f5472616e7366657220616d6f756e74206d75737420626520677265617465722060448201527f7468616e207a65726f000000000000000000000000000000000000000000000060648201526084016109d7565b600061202730611094565b6014549091508110801590819061207057507f00000000000000000000000000000000000000000000000000000000000000006001600160a01b0316856001600160a01b031614155b80156120865750601354600160a81b900460ff16155b801561209b5750601354600160b01b900460ff165b156120ae5760145491506120ae8261246e565b6001600160a01b03851660009081526005602052604090205460019060ff16806120f057506001600160a01b03851660009081526005602052604090205460ff165b156120f9575060005b61210586868684612593565b505050505050565b600080600061211a612710565b9092509050612129818361341a565b9250505090565b600080546001600160a01b038381166001600160a01b0319831681178455604051919092169283917f8be0079c531659141344cd1fd0a4f28419497f9722a3daafe3b4186f6b6457e09190a35050565b600061218b83611c2d565b505050505090506121d16040518060400160405280600681526020017f53454e4445520000000000000000000000000000000000000000000000000000815250856128c5565b6122106040518060400160405280600c81526020017f5448495320414444524553530000000000000000000000000000000000000000815250306128c5565b6000606461221f836005613403565b612229919061341a565b90506000612237828461343c565b905061227a6040518060400160405280602081526020017f72416d6f756e742c20724665652c20725265666c656374696f6e416d6f756e74815250848484612923565b82612285828461344f565b146122f85760405162461bcd60e51b815260206004820152602a60248201527f7266656520616e6420725265666c656374696f6e20646f206e6f742073756d2060448201527f746f2072416d6f756e740000000000000000000000000000000000000000000060648201526084016109d7565b6001600160a01b03841660009081526001602052604090205461231c90849061343c565b6001600160a01b03808616600090815260016020526040902091909155309087160361236c5760006064612351876005613403565b61235b919061341a565b905061236681612985565b506123aa565b6001600160a01b03861660009081526001602052604090205461239090839061344f565b6001600160a01b0387166000908152600160205260409020555b806008546123b8919061343c565b6008556009546123c990869061344f565b600955505050505050565b6000806000806123e385612a10565b905060006123f086612a22565b90506000816123ff848961343c565b612409919061343c565b979296509094509092505050565b60008080806124268689613403565b905060006124348789613403565b905060006124428888613403565b9050600081612451848661343c565b61245b919061343c565b939b939a50919850919650505050505050565b6013805460ff60a81b1916600160a81b179055600061248e60028361341a565b9050600061249c828461343c565b9050476124a883612a34565b60006124b4824761343c565b90506124f56040518060400160405280601281526020017f4554482042616c616e636520746f20616464000000000000000000000000000081525082612c05565b6125346040518060400160405280600b81526020017f6664696320746f2061646400000000000000000000000000000000000000000081525084612c05565b61253e8382612c63565b60408051858152602081018390529081018490527f17bbfb9a6069321b6ded73bd96327c9e6b7212a5cd51ff219cd61370acafb5619060600160405180910390a150506013805460ff60a81b19169055505050565b806125a0576125a0612d81565b6001600160a01b03841660009081526006602052604090205460ff1680156125e157506001600160a01b03831660009081526006602052604090205460ff16155b156125f6576125f1848484612daf565b6126f4565b6001600160a01b03841660009081526006602052604090205460ff1615801561263757506001600160a01b03831660009081526006602052604090205460ff165b15612647576125f1848484612ee1565b6001600160a01b03841660009081526006602052604090205460ff1615801561268957506001600160a01b03831660009081526006602052604090205460ff16155b15612699576125f1848484612fc2565b6001600160a01b03841660009081526006602052604090205460ff1680156126d957506001600160a01b03831660009081526006602052604090205460ff165b156126e9576125f184848461306c565b6126f4848484612fc2565b8061270a5761270a600e54600d55601054600f55565b50505050565b60085460009081906e01564486fe5f40c38a77173cbc0000825b60075481101561287b5782600160006007848154811061274c5761274c61349c565b60009182526020808320909101546001600160a01b0316835282019290925260400190205411806127b757508160026000600784815481106127905761279061349c565b60009182526020808320909101546001600160a01b03168352820192909252604001902054115b156127d9575050600854936e01564486fe5f40c38a77173cbc00009350915050565b60016000600783815481106127f0576127f061349c565b60009182526020808320909101546001600160a01b0316835282019290925260400190205461281f908461343c565b925060026000600783815481106128385761283861349c565b60009182526020808320909101546001600160a01b03168352820192909252604001902054612867908361343c565b915080612873816134c8565b91505061272a565b506e01564486fe5f40c38a77173cbc0000600854612899919061341a565b8210156128bc575050600854926e01564486fe5f40c38a77173cbc000092509050565b90939092509050565b611be382826040516024016128db9291906134e1565b60408051601f198184030181529190526020810180516001600160e01b03167f319af3330000000000000000000000000000000000000000000000000000000017905261316b565b61270a8484848460405160240161293d949392919061350c565b60408051601f198184030181529190526020810180516001600160e01b03167fa7a878530000000000000000000000000000000000000000000000000000000017905261316b565b600061298f61210d565b9050600061299d8284613403565b306000908152600160205260409020549091506129bb90829061344f565b3060009081526001602090815260408083209390935560069052205460ff1615612a0b57306000908152600260205260409020546129fa90849061344f565b306000908152600260205260409020555b505050565b60006064600d54836116289190613403565b60006064600f54836116289190613403565b6040805160028082526060820183526000926020830190803683370190505090503081600081518110612a6957612a6961349c565b60200260200101906001600160a01b031690816001600160a01b0316815250507f00000000000000000000000000000000000000000000000000000000000000006001600160a01b031663ad5c46486040518163ffffffff1660e01b8152600401602060405180830381865afa158015612ae7573d6000803e3d6000fd5b505050506040513d601f19601f82011682018060405250810190612b0b919061353b565b81600181518110612b1e57612b1e61349c565b60200260200101906001600160a01b031690816001600160a01b031681525050612b69307f000000000000000000000000000000000000000000000000000000000000000084611c84565b6040517f791ac9470000000000000000000000000000000000000000000000000000000081526001600160a01b037f0000000000000000000000000000000000000000000000000000000000000000169063791ac94790612bd7908590600090869030904290600401613558565b600060405180830381600087803b158015612bf157600080fd5b505af1158015612105573d6000803e3d6000fd5b611be38282604051602401612c1b9291906135c9565b60408051601f198184030181529190526020810180516001600160e01b03167fb60e72cc0000000000000000000000000000000000000000000000000000000017905261316b565b612c8e307f000000000000000000000000000000000000000000000000000000000000000084611c84565b7f00000000000000000000000000000000000000000000000000000000000000006001600160a01b031663f305d719823085600080612cd56000546001600160a01b031690565b60405160e088901b7fffffffff000000000000000000000000000000000000000000000000000000001681526001600160a01b03958616600482015260248101949094526044840192909252606483015290911660848201524260a482015260c40160606040518083038185885af1158015612d55573d6000803e3d6000fd5b50505050506040513d601f19601f82011682018060405250810190612d7a91906135eb565b5050505050565b600d54158015612d915750600f54155b15612d9857565b600d8054600e55600f805460105560009182905555565b600080600080600080612dc187611c2d565b6001600160a01b038f16600090815260026020526040902054959b50939950919750955093509150612df490889061343c565b6001600160a01b038a16600090815260026020908152604080832093909355600190522054612e2490879061343c565b6001600160a01b03808b1660009081526001602052604080822093909355908a1681522054612e5490869061344f565b6001600160a01b038916600090815260016020526040902055612e7681612985565b612e808483613174565b612e898861319a565b876001600160a01b0316896001600160a01b03167fddf252ad1be2c89b69c2b068fc378daa952ba7f163c4a11628f55a4df523b3ef85604051612ece91815260200190565b60405180910390a3505050505050505050565b600080600080600080612ef387611c2d565b6001600160a01b038f16600090815260016020526040902054959b50939950919750955093509150612f2690879061343c565b6001600160a01b03808b16600090815260016020908152604080832094909455918b16815260029091522054612f5d90849061344f565b6001600160a01b038916600090815260026020908152604080832093909355600190522054612f8d90869061344f565b6001600160a01b038916600090815260016020526040902055612faf81612985565b612fb98483613174565b612e898961319a565b600080600080600080612fd487611c2d565b6001600160a01b038f16600090815260016020526040902054959b5093995091975095509350915061300790879061343c565b6001600160a01b03808b1660009081526001602052604080822093909355908a168152205461303790869061344f565b6001600160a01b03891660009081526001602052604090205561305981612985565b6130638483613174565b612fb98861319a565b60008060008060008061307e87611c2d565b6001600160a01b038f16600090815260026020526040902054959b509399509197509550935091506130b190889061343c565b6001600160a01b038a166000908152600260209081526040808320939093556001905220546130e190879061343c565b6001600160a01b03808b16600090815260016020908152604080832094909455918b1681526002909152205461311890849061344f565b6001600160a01b03891660009081526002602090815260408083209390935560019052205461314890869061344f565b6001600160a01b038916600090815260016020526040902055612e898483613174565b611a5081613226565b81600854613182919061343c565b60085560095461319390829061344f565b6009555050565b600080546001600160a01b0316906131b183611094565b6011549091506e01564486fe5f40c38a77173cbc00006131d2836064613403565b6131dc919061341a565b101580156131fc5750816001600160a01b0316836001600160a01b031614155b15612a0b57601354600160a01b900460ff1615612a0b5761183d3061322085611094565b85612180565b60006a636f6e736f6c652e6c6f679050600080835160208501845afa505050565b60006020828403121561325957600080fd5b5035919050565b6000815180845260005b818110156132865760208185018101518683018201520161326a565b506000602082860101526020601f19601f83011685010191505092915050565b602081526000610e6c6020830184613260565b6001600160a01b0381168114611a5057600080fd5b600080604083850312156132e157600080fd5b82356132ec816132b9565b946020939093013593505050565b60008060006060848603121561330f57600080fd5b833561331a816132b9565b9250602084013561332a816132b9565b929592945050506040919091013590565b60006020828403121561334d57600080fd5b8135610e6c816132b9565b8035801515811461336857600080fd5b919050565b6000806040838503121561338057600080fd5b8235915061339060208401613358565b90509250929050565b6000602082840312156133ab57600080fd5b610e6c82613358565b600080604083850312156133c757600080fd5b82356133d2816132b9565b915060208301356133e2816132b9565b809150509250929050565b634e487b7160e01b600052601160045260246000fd5b8082028115828204841417610bcc57610bcc6133ed565b60008261343757634e487b7160e01b600052601260045260246000fd5b500490565b81810381811115610bcc57610bcc6133ed565b80820180821115610bcc57610bcc6133ed565b600181811c9082168061347657607f821691505b60208210810361349657634e487b7160e01b600052602260045260246000fd5b50919050565b634e487b7160e01b600052603260045260246000fd5b634e487b7160e01b600052603160045260246000fd5b6000600182016134da576134da6133ed565b5060010190565b6040815260006134f46040830185613260565b90506001600160a01b03831660208301529392505050565b60808152600061351f6080830187613260565b6020830195909552506040810192909252606090910152919050565b60006020828403121561354d57600080fd5b8151610e6c816132b9565b600060a082018783526020878185015260a0604085015281875180845260c086019150828901935060005b818110156135a85784516001600160a01b031683529383019391830191600101613583565b50506001600160a01b03969096166060850152505050608001529392505050565b6040815260006135dc6040830185613260565b90508260208301529392505050565b60008060006060848603121561360057600080fd5b835192506020840151915060408401519050925092509256fea2646970667358221220f76cdf3a1eb9e20e51987bbbbf0ad92d1a88dba0309d92be7d9467ce15865fc564736f6c63430008140033",
  "linkReferences": {},
  "deployedLinkReferences": {}
}