{
  "_format": "hh-sol-artifact-1",
  "contractName": "REFLECT",
  "sourceName": "contracts/REFLECT.sol",
  "abi": [
    {
      "inputs": [
        {
          "internalType": "address",
          "name": "_initialOwner",
          "type": "address"
        },
        {
          "internalType": "address",
          "name": "_uniswapV2Router",
          "type": "address"
        }
      ],
      "stateMutability": "nonpayable",
      "type": "constructor"
    },
    {
      "inputs": [
        {
          "internalType": "address",
          "name": "owner",
          "type": "address"
        }
      ],
      "name": "OwnableInvalidOwner",
      "type": "error"
    },
    {
      "inputs": [
        {
          "internalType": "address",
          "name": "account",
          "type": "address"
        }
      ],
      "name": "OwnableUnauthorizedAccount",
      "type": "error"
    },
    {
      "anonymous": false,
      "inputs": [
        {
          "indexed": true,
          "internalType": "address",
          "name": "owner",
          "type": "address"
        },
        {
          "indexed": true,
          "internalType": "address",
          "name": "spender",
          "type": "address"
        },
        {
          "indexed": false,
          "internalType": "uint256",
          "name": "value",
          "type": "uint256"
        }
      ],
      "name": "Approval",
      "type": "event"
    },
    {
      "anonymous": false,
      "inputs": [
        {
          "indexed": false,
          "internalType": "uint256",
          "name": "minTokensBeforeSwap",
          "type": "uint256"
        }
      ],
      "name": "MinTokensBeforeSwapUpdated",
      "type": "event"
    },
    {
      "anonymous": false,
      "inputs": [
        {
          "indexed": true,
          "internalType": "address",
          "name": "previousOwner",
          "type": "address"
        },
        {
          "indexed": true,
          "internalType": "address",
          "name": "newOwner",
          "type": "address"
        }
      ],
      "name": "OwnershipTransferred",
      "type": "event"
    },
    {
      "anonymous": false,
      "inputs": [
        {
          "indexed": false,
          "internalType": "uint256",
          "name": "tokensSwapped",
          "type": "uint256"
        },
        {
          "indexed": false,
          "internalType": "uint256",
          "name": "ethReceived",
          "type": "uint256"
        },
        {
          "indexed": false,
          "internalType": "uint256",
          "name": "tokensIntoLiqudity",
          "type": "uint256"
        }
      ],
      "name": "SwapAndLiquify",
      "type": "event"
    },
    {
      "anonymous": false,
      "inputs": [
        {
          "indexed": false,
          "internalType": "bool",
          "name": "enabled",
          "type": "bool"
        }
      ],
      "name": "SwapAndLiquifyEnabledUpdated",
      "type": "event"
    },
    {
      "anonymous": false,
      "inputs": [
        {
          "indexed": true,
          "internalType": "address",
          "name": "from",
          "type": "address"
        },
        {
          "indexed": true,
          "internalType": "address",
          "name": "to",
          "type": "address"
        },
        {
          "indexed": false,
          "internalType": "uint256",
          "name": "value",
          "type": "uint256"
        }
      ],
      "name": "Transfer",
      "type": "event"
    },
    {
      "inputs": [],
      "name": "_liquidityFee",
      "outputs": [
        {
          "internalType": "uint256",
          "name": "",
          "type": "uint256"
        }
      ],
      "stateMutability": "view",
      "type": "function"
    },
    {
      "inputs": [],
      "name": "_taxFee",
      "outputs": [
        {
          "internalType": "uint256",
          "name": "",
          "type": "uint256"
        }
      ],
      "stateMutability": "view",
      "type": "function"
    },
    {
      "inputs": [
        {
          "internalType": "address",
          "name": "owner",
          "type": "address"
        },
        {
          "internalType": "address",
          "name": "spender",
          "type": "address"
        }
      ],
      "name": "allowance",
      "outputs": [
        {
          "internalType": "uint256",
          "name": "",
          "type": "uint256"
        }
      ],
      "stateMutability": "view",
      "type": "function"
    },
    {
      "inputs": [
        {
          "internalType": "address",
          "name": "spender",
          "type": "address"
        },
        {
          "internalType": "uint256",
          "name": "amount",
          "type": "uint256"
        }
      ],
      "name": "approve",
      "outputs": [
        {
          "internalType": "bool",
          "name": "",
          "type": "bool"
        }
      ],
      "stateMutability": "nonpayable",
      "type": "function"
    },
    {
      "inputs": [
        {
          "internalType": "address",
          "name": "account",
          "type": "address"
        }
      ],
      "name": "balanceOf",
      "outputs": [
        {
          "internalType": "uint256",
          "name": "",
          "type": "uint256"
        }
      ],
      "stateMutability": "view",
      "type": "function"
    },
    {
      "inputs": [],
      "name": "decimals",
      "outputs": [
        {
          "internalType": "uint8",
          "name": "",
          "type": "uint8"
        }
      ],
      "stateMutability": "view",
      "type": "function"
    },
    {
      "inputs": [
        {
          "internalType": "address",
          "name": "spender",
          "type": "address"
        },
        {
          "internalType": "uint256",
          "name": "subtractedValue",
          "type": "uint256"
        }
      ],
      "name": "decreaseAllowance",
      "outputs": [
        {
          "internalType": "bool",
          "name": "",
          "type": "bool"
        }
      ],
      "stateMutability": "nonpayable",
      "type": "function"
    },
    {
      "inputs": [],
      "name": "enableLiquidation",
      "outputs": [],
      "stateMutability": "nonpayable",
      "type": "function"
    },
    {
      "inputs": [
        {
          "internalType": "address",
          "name": "account",
          "type": "address"
        }
      ],
      "name": "excludeAccount",
      "outputs": [],
      "stateMutability": "nonpayable",
      "type": "function"
    },
    {
      "inputs": [
        {
          "internalType": "address",
          "name": "account",
          "type": "address"
        }
      ],
      "name": "excludeFromFee",
      "outputs": [],
      "stateMutability": "nonpayable",
      "type": "function"
    },
    {
      "inputs": [
        {
          "internalType": "address",
          "name": "account",
          "type": "address"
        }
      ],
      "name": "getIntegerPercentOfSupply",
      "outputs": [
        {
          "internalType": "uint256",
          "name": "",
          "type": "uint256"
        }
      ],
      "stateMutability": "view",
      "type": "function"
    },
    {
      "inputs": [
        {
          "internalType": "address",
          "name": "account",
          "type": "address"
        }
      ],
      "name": "getLastTransaction",
      "outputs": [
        {
          "internalType": "uint256",
          "name": "",
          "type": "uint256"
        }
      ],
      "stateMutability": "view",
      "type": "function"
    },
    {
      "inputs": [
        {
          "internalType": "address",
          "name": "account",
          "type": "address"
        }
      ],
      "name": "includeAccount",
      "outputs": [],
      "stateMutability": "nonpayable",
      "type": "function"
    },
    {
      "inputs": [
        {
          "internalType": "address",
          "name": "account",
          "type": "address"
        }
      ],
      "name": "includeInFee",
      "outputs": [],
      "stateMutability": "nonpayable",
      "type": "function"
    },
    {
      "inputs": [
        {
          "internalType": "address",
          "name": "spender",
          "type": "address"
        },
        {
          "internalType": "uint256",
          "name": "addedValue",
          "type": "uint256"
        }
      ],
      "name": "increaseAllowance",
      "outputs": [
        {
          "internalType": "bool",
          "name": "",
          "type": "bool"
        }
      ],
      "stateMutability": "nonpayable",
      "type": "function"
    },
    {
      "inputs": [
        {
          "internalType": "address",
          "name": "account",
          "type": "address"
        }
      ],
      "name": "isExcluded",
      "outputs": [
        {
          "internalType": "bool",
          "name": "",
          "type": "bool"
        }
      ],
      "stateMutability": "view",
      "type": "function"
    },
    {
      "inputs": [
        {
          "internalType": "address",
          "name": "wallet",
          "type": "address"
        }
      ],
      "name": "liquidateInactiveWallet",
      "outputs": [],
      "stateMutability": "nonpayable",
      "type": "function"
    },
    {
      "inputs": [],
      "name": "liquidationEnabled",
      "outputs": [
        {
          "internalType": "bool",
          "name": "",
          "type": "bool"
        }
      ],
      "stateMutability": "view",
      "type": "function"
    },
    {
      "inputs": [],
      "name": "liquidationThresholdPercent",
      "outputs": [
        {
          "internalType": "uint256",
          "name": "",
          "type": "uint256"
        }
      ],
      "stateMutability": "view",
      "type": "function"
    },
    {
      "inputs": [],
      "name": "liquidationThresholdTime",
      "outputs": [
        {
          "internalType": "uint256",
          "name": "",
          "type": "uint256"
        }
      ],
      "stateMutability": "view",
      "type": "function"
    },
    {
      "inputs": [],
      "name": "name",
      "outputs": [
        {
          "internalType": "string",
          "name": "",
          "type": "string"
        }
      ],
      "stateMutability": "view",
      "type": "function"
    },
    {
      "inputs": [],
      "name": "owner",
      "outputs": [
        {
          "internalType": "address",
          "name": "",
          "type": "address"
        }
      ],
      "stateMutability": "view",
      "type": "function"
    },
    {
      "inputs": [
        {
          "internalType": "uint256",
          "name": "tAmount",
          "type": "uint256"
        }
      ],
      "name": "reflect",
      "outputs": [],
      "stateMutability": "nonpayable",
      "type": "function"
    },
    {
      "inputs": [
        {
          "internalType": "uint256",
          "name": "tAmount",
          "type": "uint256"
        },
        {
          "internalType": "bool",
          "name": "deductTransferFee",
          "type": "bool"
        }
      ],
      "name": "reflectionFromToken",
      "outputs": [
        {
          "internalType": "uint256",
          "name": "",
          "type": "uint256"
        }
      ],
      "stateMutability": "view",
      "type": "function"
    },
    {
      "inputs": [],
      "name": "renounceOwnership",
      "outputs": [],
      "stateMutability": "nonpayable",
      "type": "function"
    },
    {
      "inputs": [
        {
          "internalType": "uint256",
          "name": "percent",
          "type": "uint256"
        }
      ],
      "name": "setLiquidationThresholdPercent",
      "outputs": [],
      "stateMutability": "nonpayable",
      "type": "function"
    },
    {
      "inputs": [
        {
          "internalType": "uint256",
          "name": "time",
          "type": "uint256"
        }
      ],
      "name": "setLiquidationThresholdTime",
      "outputs": [],
      "stateMutability": "nonpayable",
      "type": "function"
    },
    {
      "inputs": [
        {
          "internalType": "uint256",
          "name": "liquidityFee",
          "type": "uint256"
        }
      ],
      "name": "setLiquidityFeePercent",
      "outputs": [],
      "stateMutability": "nonpayable",
      "type": "function"
    },
    {
      "inputs": [
        {
          "internalType": "bool",
          "name": "_enabled",
          "type": "bool"
        }
      ],
      "name": "setSwapAndLiquifyEnabled",
      "outputs": [],
      "stateMutability": "nonpayable",
      "type": "function"
    },
    {
      "inputs": [
        {
          "internalType": "uint256",
          "name": "taxFee",
          "type": "uint256"
        }
      ],
      "name": "setTaxFeePercent",
      "outputs": [],
      "stateMutability": "nonpayable",
      "type": "function"
    },
    {
      "inputs": [],
      "name": "swapAndLiquifyEnabled",
      "outputs": [
        {
          "internalType": "bool",
          "name": "",
          "type": "bool"
        }
      ],
      "stateMutability": "view",
      "type": "function"
    },
    {
      "inputs": [],
      "name": "symbol",
      "outputs": [
        {
          "internalType": "string",
          "name": "",
          "type": "string"
        }
      ],
      "stateMutability": "view",
      "type": "function"
    },
    {
      "inputs": [
        {
          "internalType": "uint256",
          "name": "rAmount",
          "type": "uint256"
        }
      ],
      "name": "tokenFromReflection",
      "outputs": [
        {
          "internalType": "uint256",
          "name": "",
          "type": "uint256"
        }
      ],
      "stateMutability": "view",
      "type": "function"
    },
    {
      "inputs": [],
      "name": "totalFees",
      "outputs": [
        {
          "internalType": "uint256",
          "name": "",
          "type": "uint256"
        }
      ],
      "stateMutability": "view",
      "type": "function"
    },
    {
      "inputs": [],
      "name": "totalSupply",
      "outputs": [
        {
          "internalType": "uint256",
          "name": "",
          "type": "uint256"
        }
      ],
      "stateMutability": "pure",
      "type": "function"
    },
    {
      "inputs": [
        {
          "internalType": "address",
          "name": "recipient",
          "type": "address"
        },
        {
          "internalType": "uint256",
          "name": "amount",
          "type": "uint256"
        }
      ],
      "name": "transfer",
      "outputs": [
        {
          "internalType": "bool",
          "name": "",
          "type": "bool"
        }
      ],
      "stateMutability": "nonpayable",
      "type": "function"
    },
    {
      "inputs": [
        {
          "internalType": "address",
          "name": "sender",
          "type": "address"
        },
        {
          "internalType": "address",
          "name": "recipient",
          "type": "address"
        },
        {
          "internalType": "uint256",
          "name": "amount",
          "type": "uint256"
        }
      ],
      "name": "transferFrom",
      "outputs": [
        {
          "internalType": "bool",
          "name": "",
          "type": "bool"
        }
      ],
      "stateMutability": "nonpayable",
      "type": "function"
    },
    {
      "inputs": [
        {
          "internalType": "address",
          "name": "newOwner",
          "type": "address"
        }
      ],
      "name": "transferOwnership",
      "outputs": [],
      "stateMutability": "nonpayable",
      "type": "function"
    },
    {
      "inputs": [],
      "name": "uniswapV2Pair",
      "outputs": [
        {
          "internalType": "address",
          "name": "",
          "type": "address"
        }
      ],
      "stateMutability": "view",
      "type": "function"
    },
    {
      "inputs": [],
      "name": "uniswapV2Router",
      "outputs": [
        {
          "internalType": "contract IUniswapV2Router02",
          "name": "",
          "type": "address"
        }
      ],
      "stateMutability": "view",
      "type": "function"
    },
    {
      "stateMutability": "payable",
      "type": "receive"
    }
  ],
  "bytecode": "0x60c06040526200001d6a05be074c9e772fd7b60600600019620003f1565b6200002b9060001962000414565b6008556040805180820190915260048152634644494360e01b6020820152600a90620000589082620004e1565b506040805180820190915260048152634644494360e01b6020820152600b90620000839082620004e1565b50600c805460ff191660091790556002600d819055600e556001600f8190556010819055601155620151806012556013805462ff00ff1916620100001790556402540be400601455348015620000d857600080fd5b506040516200312338038062003123833981016040819052620000fb91620005ca565b816001600160a01b0381166200012b57604051631e4fbdf760e01b81526000600482015260240160405180910390fd5b6200013681620003a1565b506008543360009081526001602090815260409182902092909255805163c45a015560e01b8152905183926001600160a01b0384169263c45a015592600480830193928290030181865afa15801562000193573d6000803e3d6000fd5b505050506040513d601f19601f82011682018060405250810190620001b9919062000602565b6001600160a01b031663c9c6539630836001600160a01b031663ad5c46486040518163ffffffff1660e01b8152600401602060405180830381865afa15801562000207573d6000803e3d6000fd5b505050506040513d601f19601f820116820180604052508101906200022d919062000602565b6040516001600160e01b031960e085901b1681526001600160a01b039283166004820152911660248201526044016020604051808303816000875af11580156200027b573d6000803e3d6000fd5b505050506040513d601f19601f82011682018060405250810190620002a1919062000602565b6001600160a01b0390811660a0528116608052600160056000620002cd6000546001600160a01b031690565b6001600160a01b03908116825260208083019390935260409182016000908120805495151560ff19968716179055308082526005855283822080548716600190811790915560a051909316825260069094528281208054861683179055928352912080549092161790556200033f3390565b6001600160a01b031660006001600160a01b03167fddf252ad1be2c89b69c2b068fc378daa952ba7f163c4a11628f55a4df523b3ef6a05be074c9e772fd7b606006040516200039091815260200190565b60405180910390a350505062000627565b600080546001600160a01b038381166001600160a01b0319831681178455604051919092169283917f8be0079c531659141344cd1fd0a4f28419497f9722a3daafe3b4186f6b6457e09190a35050565b6000826200040f57634e487b7160e01b600052601260045260246000fd5b500690565b818103818111156200043657634e487b7160e01b600052601160045260246000fd5b92915050565b634e487b7160e01b600052604160045260246000fd5b600181811c908216806200046757607f821691505b6020821081036200048857634e487b7160e01b600052602260045260246000fd5b50919050565b601f821115620004dc57600081815260208120601f850160051c81016020861015620004b75750805b601f850160051c820191505b81811015620004d857828155600101620004c3565b5050505b505050565b81516001600160401b03811115620004fd57620004fd6200043c565b62000515816200050e845462000452565b846200048e565b602080601f8311600181146200054d5760008415620005345750858301515b600019600386901b1c1916600185901b178555620004d8565b600085815260208120601f198616915b828110156200057e578886015182559484019460019091019084016200055d565b50858210156200059d5787850151600019600388901b60f8161c191681555b5050505050600190811b01905550565b80516001600160a01b0381168114620005c557600080fd5b919050565b60008060408385031215620005de57600080fd5b620005e983620005ad565b9150620005f960208401620005ad565b90509250929050565b6000602082840312156200061557600080fd5b6200062082620005ad565b9392505050565b60805160a051612aac620006776000396000818161052501526119590152600081816103cd01528181611f80015281816120390152818161208e0152818161210001526121270152612aac6000f3fe6080604052600436106102be5760003560e01c80636bc87c3a1161016e578063ae574a90116100cb578063ea2f0b371161007f578063f2cc0c1811610064578063f2cc0c18146107ca578063f2fde38b146107ea578063f84354f11461080a57600080fd5b8063ea2f0b371461078a578063eb5690f8146107aa57600080fd5b8063c9fc4707116100b0578063c9fc4707146106d5578063cba0e9961461070b578063dd62ed3e1461074457600080fd5b8063ae574a901461069b578063c49b9a80146106b557600080fd5b80638ee88c53116101225780639e2d9575116101075780639e2d95751461063b578063a457c2d71461065b578063a9059cbb1461067b57600080fd5b80638ee88c531461060657806395d89b411461062657600080fd5b8063715018a611610153578063715018a6146105bd57806371ad4cc2146105d25780638da5cb5b146105e857600080fd5b80636bc87c3a1461058757806370a082311461059d57600080fd5b80632d8381191161021c578063437823ec116101d057806349bd5a5e116101b557806349bd5a5e146105135780634a74bb02146105475780634e2fa2031461056757600080fd5b8063437823ec146104d35780634549b039146104f357600080fd5b8063320d2fa011610201578063320d2fa014610487578063395093511461049d5780633b124fe7146104bd57600080fd5b80632d83811914610445578063313ce5671461046557600080fd5b806313114a9d116102735780631694505e116102585780631694505e146103bb57806318160ddd1461040757806323b872dd1461042557600080fd5b806313114a9d1461037c57806316317e7e1461039b57600080fd5b8063061c82d0116102a4578063061c82d01461030157806306fdde0314610321578063095ea7b31461034c57600080fd5b8062bc2ea8146102ca578063053ab182146102e157600080fd5b366102c557005b600080fd5b3480156102d657600080fd5b506102df61082a565b005b3480156102ed57600080fd5b506102df6102fc36600461272b565b610841565b34801561030d57600080fd5b506102df61031c36600461272b565b6109d2565b34801561032d57600080fd5b506103366109df565b6040516103439190612744565b60405180910390f35b34801561035857600080fd5b5061036c6103673660046127a7565b610a71565b6040519015158152602001610343565b34801561038857600080fd5b506009545b604051908152602001610343565b3480156103a757600080fd5b506102df6103b636600461272b565b610a9a565b3480156103c757600080fd5b506103ef7f000000000000000000000000000000000000000000000000000000000000000081565b6040516001600160a01b039091168152602001610343565b34801561041357600080fd5b506a05be074c9e772fd7b6060061038d565b34801561043157600080fd5b5061036c6104403660046127d3565b610b27565b34801561045157600080fd5b5061038d61046036600461272b565b610c40565b34801561047157600080fd5b50600c5460405160ff9091168152602001610343565b34801561049357600080fd5b5061038d60115481565b3480156104a957600080fd5b5061036c6104b83660046127a7565b610cd7565b3480156104c957600080fd5b5061038d600d5481565b3480156104df57600080fd5b506102df6104ee366004612814565b610d0e565b3480156104ff57600080fd5b5061038d61050e366004612846565b610d3a565b34801561051f57600080fd5b506103ef7f000000000000000000000000000000000000000000000000000000000000000081565b34801561055357600080fd5b5060135461036c9062010000900460ff1681565b34801561057357600080fd5b506102df61058236600461272b565b610dd0565b34801561059357600080fd5b5061038d600f5481565b3480156105a957600080fd5b5061038d6105b8366004612814565b610e56565b3480156105c957600080fd5b506102df610eb5565b3480156105de57600080fd5b5061038d60125481565b3480156105f457600080fd5b506000546001600160a01b03166103ef565b34801561061257600080fd5b506102df61062136600461272b565b610ec9565b34801561063257600080fd5b50610336610ed6565b34801561064757600080fd5b506102df610656366004612814565b610ee5565b34801561066757600080fd5b5061036c6106763660046127a7565b6110d0565b34801561068757600080fd5b5061036c6106963660046127a7565b6111ab565b3480156106a757600080fd5b5060135461036c9060ff1681565b3480156106c157600080fd5b506102df6106d0366004612872565b6111e5565b3480156106e157600080fd5b5061038d6106f0366004612814565b6001600160a01b031660009081526004602052604090205490565b34801561071757600080fd5b5061036c610726366004612814565b6001600160a01b031660009081526006602052604090205460ff1690565b34801561075057600080fd5b5061038d61075f36600461288d565b6001600160a01b03918216600090815260036020908152604080832093909416825291909152205490565b34801561079657600080fd5b506102df6107a5366004612814565b611243565b3480156107b657600080fd5b5061038d6107c5366004612814565b61126c565b3480156107d657600080fd5b506102df6107e5366004612814565b611298565b3480156107f657600080fd5b506102df610805366004612814565b6113d6565b34801561081657600080fd5b506102df610825366004612814565b61142d565b6108326115d7565b6013805460ff19166001179055565b3360008181526006602052604090205460ff16156108bb5760405162461bcd60e51b815260206004820152602c60248201527f4578636c75646564206164647265737365732063616e6e6f742063616c6c207460448201526b3434b990333ab731ba34b7b760a11b60648201526084015b60405180910390fd5b6011546a05be074c9e772fd7b606006108d383610e56565b6108de9060646128dc565b6108e891906128f3565b1061095b5760405162461bcd60e51b815260206004820152602f60248201527f63616e6e6f74207265666c6563742c206163636f756e7420686f6c6473206f7660448201527f6572203125206f6620737570706c79000000000000000000000000000000000060648201526084016108b2565b60006109668361161d565b505050506001600160a01b03841660009081526001602052604090205491925061099291839150612915565b6001600160a01b0383166000908152600160205260409020556008546109b9908290612915565b6008556009546109ca908490612928565b600955505050565b6109da6115d7565b600d55565b6060600a80546109ee9061293b565b80601f0160208091040260200160405190810160405280929190818152602001828054610a1a9061293b565b8015610a675780601f10610a3c57610100808354040283529160200191610a67565b820191906000526020600020905b815481529060010190602001808311610a4a57829003601f168201915b5050505050905090565b6000610a7e338484611674565b5033600090815260046020526040902042905560015b92915050565b610aa26115d7565b606481108015610ab0575060015b610b225760405162461bcd60e51b815260206004820152602160248201527f6d75737420626520612070657263656e742076616c75652066726f6d20302d3960448201527f390000000000000000000000000000000000000000000000000000000000000060648201526084016108b2565b601155565b6000610b348484846117cc565b6001600160a01b0384166000908152600360209081526040808320338452909152812054610b63908490612915565b1015610bd75760405162461bcd60e51b815260206004820152602860248201527f45524332303a207472616e7366657220616d6f756e742065786365656473206160448201527f6c6c6f77616e636500000000000000000000000000000000000000000000000060648201526084016108b2565b6001600160a01b038416600090815260036020908152604080832033808552925290912054610c12918691610c0d908690612915565b611674565b50503360009081526004602052604080822042908190556001600160a01b0393909316825290205550600190565b6000600854821115610cba5760405162461bcd60e51b815260206004820152602a60248201527f416d6f756e74206d757374206265206c657373207468616e20746f74616c207260448201527f65666c656374696f6e730000000000000000000000000000000000000000000060648201526084016108b2565b6000610cc4611a28565b9050610cd081846128f3565b9392505050565b3360008181526003602090815260408083206001600160a01b03871684529091528120549091610a7e918590610c0d908690612928565b610d166115d7565b6001600160a01b03166000908152600560205260409020805460ff19166001179055565b60006a05be074c9e772fd7b60600831115610d975760405162461bcd60e51b815260206004820152601f60248201527f416d6f756e74206d757374206265206c657373207468616e20737570706c790060448201526064016108b2565b81610db6576000610da78461161d565b50939550610a94945050505050565b6000610dc18461161d565b50929550610a94945050505050565b610dd86115d7565b62015180811015610e515760405162461bcd60e51b815260206004820152603060248201527f6d696e696d756d2074696d6520666f72206163636f756e7420746f206265206960448201527f6e6163746976652069732031206461790000000000000000000000000000000060648201526084016108b2565b601255565b6001600160a01b03811660009081526006602052604081205460ff1615610e9357506001600160a01b031660009081526002602052604090205490565b6001600160a01b038216600090815260016020526040902054610a9490610c40565b610ebd6115d7565b610ec76000611a4b565b565b610ed16115d7565b600f55565b6060600b80546109ee9061293b565b601354339060ff16610f395760405162461bcd60e51b815260206004820152601e60248201527f4c69717569646174696f6e206973206e6f742079657420656e61626c6564000060448201526064016108b2565b6001600160a01b03821660009081526006602052604090205460ff1615610fc85760405162461bcd60e51b815260206004820152602360248201527f43616e6e6f74206c6971756964617465206578636c756465642061646472657360448201527f736573000000000000000000000000000000000000000000000000000000000060648201526084016108b2565b6001600160a01b03811660009081526006602052604090205460ff16156110465760405162461bcd60e51b815260206004820152602c60248201527f4578636c75646564206164647265737365732063616e6e6f742063616c6c207460448201526b3434b990333ab731ba34b7b760a11b60648201526084016108b2565b6012546001600160a01b03831660009081526004602052604090205461106c9042612915565b10156110ba5760405162461bcd60e51b815260206004820152601760248201527f4163636f756e74206973206e6f7420696e61637469766500000000000000000060448201526064016108b2565b6110cc6110c683610e56565b8361095b565b5050565b3360009081526003602090815260408083206001600160a01b03861684529091528120548190611101908490612915565b10156111755760405162461bcd60e51b815260206004820152602560248201527f45524332303a2064656372656173656420616c6c6f77616e63652062656c6f7760448201527f207a65726f00000000000000000000000000000000000000000000000000000060648201526084016108b2565b3360008181526003602090815260408083206001600160a01b0388168452909152902054610a7e91908590610c0d908690612915565b60006111b83384846117cc565b50503360009081526004602052604080822042908190556001600160a01b03939093168252902055600190565b6111ed6115d7565b60138054821515620100000262ff0000199091161790556040517f53726dfcaf90650aa7eb35524f4d3220f07413c8d6cb404cc8c18bf5591bc1599061123890831515815260200190565b60405180910390a150565b61124b6115d7565b6001600160a01b03166000908152600560205260409020805460ff19169055565b60006a05be074c9e772fd7b6060061128383610e56565b61128e9060646128dc565b610a9491906128f3565b6112a06115d7565b6001600160a01b03811660009081526006602052604090205460ff16156113095760405162461bcd60e51b815260206004820152601b60248201527f4163636f756e7420697320616c7265616479206578636c75646564000000000060448201526064016108b2565b6001600160a01b03811660009081526001602052604090205415611363576001600160a01b03811660009081526001602052604090205461134990610c40565b6001600160a01b0382166000908152600260205260409020555b6001600160a01b03166000818152600660205260408120805460ff191660019081179091556007805491820181559091527fa66cc928b5edb82af9bd49922954155ab7b0942694bea4ce44661d9a8736c68801805473ffffffffffffffffffffffffffffffffffffffff19169091179055565b6113de6115d7565b6001600160a01b038116611421576040517f1e4fbdf7000000000000000000000000000000000000000000000000000000008152600060048201526024016108b2565b61142a81611a4b565b50565b6114356115d7565b6001600160a01b03811660009081526006602052604090205460ff1661149d5760405162461bcd60e51b815260206004820152601b60248201527f4163636f756e7420697320616c7265616479206578636c75646564000000000060448201526064016108b2565b60005b6007548110156110cc57816001600160a01b0316600782815481106114c7576114c7612975565b6000918252602090912001546001600160a01b0316036115c557600780546114f190600190612915565b8154811061150157611501612975565b600091825260209091200154600780546001600160a01b03909216918390811061152d5761152d612975565b6000918252602080832091909101805473ffffffffffffffffffffffffffffffffffffffff19166001600160a01b039485161790559184168152600282526040808220829055600690925220805460ff1916905560078054806115925761159261298b565b6000828152602090208101600019908101805473ffffffffffffffffffffffffffffffffffffffff191690550190555050565b806115cf816129a1565b9150506114a0565b6000546001600160a01b03163314610ec7576040517f118cdaa70000000000000000000000000000000000000000000000000000000081523360048201526024016108b2565b60008060008060008060008060006116348a611aa8565b9250925092506000611644611a28565b905060008060006116578e878688611aeb565b919e509c509a509598509396509194505050505091939550919395565b6001600160a01b0383166116ef5760405162461bcd60e51b8152602060048201526024808201527f45524332303a20617070726f76652066726f6d20746865207a65726f2061646460448201527f726573730000000000000000000000000000000000000000000000000000000060648201526084016108b2565b6001600160a01b03821661176b5760405162461bcd60e51b815260206004820152602260248201527f45524332303a20617070726f766520746f20746865207a65726f20616464726560448201527f737300000000000000000000000000000000000000000000000000000000000060648201526084016108b2565b6001600160a01b0383811660008181526003602090815260408083209487168084529482529182902085905590518481527f8c5be1e5ebec7d5bd14f71427d1e84f3dd0314c0f7b2291e5b200ac8c7c3b925910160405180910390a3505050565b6001600160a01b0383166118485760405162461bcd60e51b815260206004820152602560248201527f45524332303a207472616e736665722066726f6d20746865207a65726f20616460448201527f647265737300000000000000000000000000000000000000000000000000000060648201526084016108b2565b6001600160a01b0382166118c45760405162461bcd60e51b815260206004820152602360248201527f45524332303a207472616e7366657220746f20746865207a65726f206164647260448201527f657373000000000000000000000000000000000000000000000000000000000060648201526084016108b2565b6000811161193a5760405162461bcd60e51b815260206004820152602960248201527f5472616e7366657220616d6f756e74206d75737420626520677265617465722060448201527f7468616e207a65726f000000000000000000000000000000000000000000000060648201526084016108b2565b600061194530610e56565b6014549091508110801590819061198e57507f00000000000000000000000000000000000000000000000000000000000000006001600160a01b0316856001600160a01b031614155b80156119a25750601354610100900460ff16155b80156119b6575060135462010000900460ff165b156119c95760145491506119c982611b42565b6001600160a01b03851660009081526005602052604090205460019060ff1680611a0b57506001600160a01b03851660009081526005602052604090205460ff165b15611a14575060005b611a2086868684611be3565b505050505050565b6000806000611a35611d60565b9092509050611a4481836128f3565b9250505090565b600080546001600160a01b0383811673ffffffffffffffffffffffffffffffffffffffff19831681178455604051919092169283917f8be0079c531659141344cd1fd0a4f28419497f9722a3daafe3b4186f6b6457e09190a35050565b600080600080611ab785611f05565b90506000611ac486611f17565b9050600081611ad38489612915565b611add9190612915565b979296509094509092505050565b6000808080611afa86896128dc565b90506000611b0887896128dc565b90506000611b1688886128dc565b9050600081611b258486612915565b611b2f9190612915565b939b939a50919850919650505050505050565b6013805461ff0019166101001790556000611b5e6002836128f3565b90506000611b6c82846128f3565b905047611b7883611f29565b6000611b848247612915565b9050611b9083826120fa565b60408051858152602081018390529081018490527f17bbfb9a6069321b6ded73bd96327c9e6b7212a5cd51ff219cd61370acafb5619060600160405180910390a150506013805461ff0019169055505050565b80611bf057611bf0612218565b6001600160a01b03841660009081526006602052604090205460ff168015611c3157506001600160a01b03831660009081526006602052604090205460ff16155b15611c4657611c41848484612246565b611d44565b6001600160a01b03841660009081526006602052604090205460ff16158015611c8757506001600160a01b03831660009081526006602052604090205460ff165b15611c9757611c41848484612378565b6001600160a01b03841660009081526006602052604090205460ff16158015611cd957506001600160a01b03831660009081526006602052604090205460ff16155b15611ce957611c41848484612459565b6001600160a01b03841660009081526006602052604090205460ff168015611d2957506001600160a01b03831660009081526006602052604090205460ff165b15611d3957611c41848484612503565b611d44848484612459565b80611d5a57611d5a600e54600d55601054600f55565b50505050565b60085460009081906a05be074c9e772fd7b60600825b600754811015611ec357826001600060078481548110611d9857611d98612975565b60009182526020808320909101546001600160a01b031683528201929092526040019020541180611e035750816002600060078481548110611ddc57611ddc612975565b60009182526020808320909101546001600160a01b03168352820192909252604001902054115b15611e21575050600854936a05be074c9e772fd7b606009350915050565b6001600060078381548110611e3857611e38612975565b60009182526020808320909101546001600160a01b03168352820192909252604001902054611e679084612915565b92506002600060078381548110611e8057611e80612975565b60009182526020808320909101546001600160a01b03168352820192909252604001902054611eaf9083612915565b915080611ebb816129a1565b915050611d76565b506a05be074c9e772fd7b60600600854611edd91906128f3565b821015611efc575050600854926a05be074c9e772fd7b6060092509050565b90939092509050565b60006064600d548361128e91906128dc565b60006064600f548361128e91906128dc565b6040805160028082526060820183526000926020830190803683370190505090503081600081518110611f5e57611f5e612975565b60200260200101906001600160a01b031690816001600160a01b0316815250507f00000000000000000000000000000000000000000000000000000000000000006001600160a01b031663ad5c46486040518163ffffffff1660e01b8152600401602060405180830381865afa158015611fdc573d6000803e3d6000fd5b505050506040513d601f19601f8201168201806040525081019061200091906129ba565b8160018151811061201357612013612975565b60200260200101906001600160a01b031690816001600160a01b03168152505061205e307f000000000000000000000000000000000000000000000000000000000000000084611674565b6040517f791ac9470000000000000000000000000000000000000000000000000000000081526001600160a01b037f0000000000000000000000000000000000000000000000000000000000000000169063791ac947906120cc9085906000908690309042906004016129d7565b600060405180830381600087803b1580156120e657600080fd5b505af1158015611a20573d6000803e3d6000fd5b612125307f000000000000000000000000000000000000000000000000000000000000000084611674565b7f00000000000000000000000000000000000000000000000000000000000000006001600160a01b031663f305d71982308560008061216c6000546001600160a01b031690565b60405160e088901b7fffffffff000000000000000000000000000000000000000000000000000000001681526001600160a01b03958616600482015260248101949094526044840192909252606483015290911660848201524260a482015260c40160606040518083038185885af11580156121ec573d6000803e3d6000fd5b50505050506040513d601f19601f820116820180604052508101906122119190612a48565b5050505050565b600d541580156122285750600f54155b1561222f57565b600d8054600e55600f805460105560009182905555565b6000806000806000806122588761161d565b6001600160a01b038f16600090815260026020526040902054959b5093995091975095509350915061228b908890612915565b6001600160a01b038a166000908152600260209081526040808320939093556001905220546122bb908790612915565b6001600160a01b03808b1660009081526001602052604080822093909355908a16815220546122eb908690612928565b6001600160a01b03891660009081526001602052604090205561230d81612602565b612317848361268d565b612320886126b3565b876001600160a01b0316896001600160a01b03167fddf252ad1be2c89b69c2b068fc378daa952ba7f163c4a11628f55a4df523b3ef8560405161236591815260200190565b60405180910390a3505050505050505050565b60008060008060008061238a8761161d565b6001600160a01b038f16600090815260016020526040902054959b509399509197509550935091506123bd908790612915565b6001600160a01b03808b16600090815260016020908152604080832094909455918b168152600290915220546123f4908490612928565b6001600160a01b038916600090815260026020908152604080832093909355600190522054612424908690612928565b6001600160a01b03891660009081526001602052604090205561244681612602565b612450848361268d565b612320896126b3565b60008060008060008061246b8761161d565b6001600160a01b038f16600090815260016020526040902054959b5093995091975095509350915061249e908790612915565b6001600160a01b03808b1660009081526001602052604080822093909355908a16815220546124ce908690612928565b6001600160a01b0389166000908152600160205260409020556124f081612602565b6124fa848361268d565b612450886126b3565b6000806000806000806125158761161d565b6001600160a01b038f16600090815260026020526040902054959b50939950919750955093509150612548908890612915565b6001600160a01b038a16600090815260026020908152604080832093909355600190522054612578908790612915565b6001600160a01b03808b16600090815260016020908152604080832094909455918b168152600290915220546125af908490612928565b6001600160a01b0389166000908152600260209081526040808320939093556001905220546125df908690612928565b6001600160a01b038916600090815260016020526040902055612320848361268d565b600061260c611a28565b9050600061261a82846128dc565b30600090815260016020526040902054909150612638908290612928565b3060009081526001602090815260408083209390935560069052205460ff16156126885730600090815260026020526040902054612677908490612928565b306000908152600260205260409020555b505050565b8160085461269b9190612915565b6008556009546126ac908290612928565b6009555050565b600080546001600160a01b031690506011546a05be074c9e772fd7b606006126da84610e56565b6126e59060646128dc565b6126ef91906128f3565b1015801561270f5750806001600160a01b0316826001600160a01b031614155b156110cc5760135460ff16156110cc576110cc6110c683610e56565b60006020828403121561273d57600080fd5b5035919050565b600060208083528351808285015260005b8181101561277157858101830151858201604001528201612755565b506000604082860101526040601f19601f8301168501019250505092915050565b6001600160a01b038116811461142a57600080fd5b600080604083850312156127ba57600080fd5b82356127c581612792565b946020939093013593505050565b6000806000606084860312156127e857600080fd5b83356127f381612792565b9250602084013561280381612792565b929592945050506040919091013590565b60006020828403121561282657600080fd5b8135610cd081612792565b8035801515811461284157600080fd5b919050565b6000806040838503121561285957600080fd5b8235915061286960208401612831565b90509250929050565b60006020828403121561288457600080fd5b610cd082612831565b600080604083850312156128a057600080fd5b82356128ab81612792565b915060208301356128bb81612792565b809150509250929050565b634e487b7160e01b600052601160045260246000fd5b8082028115828204841417610a9457610a946128c6565b60008261291057634e487b7160e01b600052601260045260246000fd5b500490565b81810381811115610a9457610a946128c6565b80820180821115610a9457610a946128c6565b600181811c9082168061294f57607f821691505b60208210810361296f57634e487b7160e01b600052602260045260246000fd5b50919050565b634e487b7160e01b600052603260045260246000fd5b634e487b7160e01b600052603160045260246000fd5b6000600182016129b3576129b36128c6565b5060010190565b6000602082840312156129cc57600080fd5b8151610cd081612792565b600060a082018783526020878185015260a0604085015281875180845260c086019150828901935060005b81811015612a275784516001600160a01b031683529383019391830191600101612a02565b50506001600160a01b03969096166060850152505050608001529392505050565b600080600060608486031215612a5d57600080fd5b835192506020840151915060408401519050925092509256fea264697066735822122039b6bdaaed3e2c23265a3d0f587c68bae6fd7dc4fad93285b715bc00fb0e40a464736f6c63430008140033",
  "linkReferences": {},
  "deployedLinkReferences": {}
}