{
  "_format": "hh-sol-artifact-1",
  "contractName": "REFLECT",
  "sourceName": "contracts/REFLECT.sol",
  "abi": [
    {
      "inputs": [
        {
          "internalType": "address",
          "name": "_initialOwner",
          "type": "address"
        },
        {
          "internalType": "address",
          "name": "_uniswapV2Router",
          "type": "address"
        }
      ],
      "stateMutability": "nonpayable",
      "type": "constructor"
    },
    {
      "inputs": [
        {
          "internalType": "address",
          "name": "owner",
          "type": "address"
        }
      ],
      "name": "OwnableInvalidOwner",
      "type": "error"
    },
    {
      "inputs": [
        {
          "internalType": "address",
          "name": "account",
          "type": "address"
        }
      ],
      "name": "OwnableUnauthorizedAccount",
      "type": "error"
    },
    {
      "anonymous": false,
      "inputs": [
        {
          "indexed": true,
          "internalType": "address",
          "name": "owner",
          "type": "address"
        },
        {
          "indexed": true,
          "internalType": "address",
          "name": "spender",
          "type": "address"
        },
        {
          "indexed": false,
          "internalType": "uint256",
          "name": "value",
          "type": "uint256"
        }
      ],
      "name": "Approval",
      "type": "event"
    },
    {
      "anonymous": false,
      "inputs": [
        {
          "indexed": false,
          "internalType": "address",
          "name": "wallet",
          "type": "address"
        },
        {
          "indexed": false,
          "internalType": "uint256",
          "name": "amount",
          "type": "uint256"
        }
      ],
      "name": "InactiveWalletLiquidated",
      "type": "event"
    },
    {
      "anonymous": false,
      "inputs": [
        {
          "indexed": false,
          "internalType": "uint256",
          "name": "minTokensBeforeSwap",
          "type": "uint256"
        }
      ],
      "name": "MinTokensBeforeSwapUpdated",
      "type": "event"
    },
    {
      "anonymous": false,
      "inputs": [
        {
          "indexed": true,
          "internalType": "address",
          "name": "previousOwner",
          "type": "address"
        },
        {
          "indexed": true,
          "internalType": "address",
          "name": "newOwner",
          "type": "address"
        }
      ],
      "name": "OwnershipTransferred",
      "type": "event"
    },
    {
      "anonymous": false,
      "inputs": [
        {
          "indexed": false,
          "internalType": "uint256",
          "name": "tokensSwapped",
          "type": "uint256"
        },
        {
          "indexed": false,
          "internalType": "uint256",
          "name": "ethReceived",
          "type": "uint256"
        },
        {
          "indexed": false,
          "internalType": "uint256",
          "name": "tokensIntoLiqudity",
          "type": "uint256"
        }
      ],
      "name": "SwapAndLiquify",
      "type": "event"
    },
    {
      "anonymous": false,
      "inputs": [
        {
          "indexed": false,
          "internalType": "bool",
          "name": "enabled",
          "type": "bool"
        }
      ],
      "name": "SwapAndLiquifyEnabledUpdated",
      "type": "event"
    },
    {
      "anonymous": false,
      "inputs": [
        {
          "indexed": true,
          "internalType": "address",
          "name": "from",
          "type": "address"
        },
        {
          "indexed": true,
          "internalType": "address",
          "name": "to",
          "type": "address"
        },
        {
          "indexed": false,
          "internalType": "uint256",
          "name": "value",
          "type": "uint256"
        }
      ],
      "name": "Transfer",
      "type": "event"
    },
    {
      "anonymous": false,
      "inputs": [
        {
          "indexed": false,
          "internalType": "address",
          "name": "wallet",
          "type": "address"
        },
        {
          "indexed": false,
          "internalType": "uint256",
          "name": "amount",
          "type": "uint256"
        }
      ],
      "name": "WalletLiquidated",
      "type": "event"
    },
    {
      "inputs": [],
      "name": "_liquidityFee",
      "outputs": [
        {
          "internalType": "uint256",
          "name": "",
          "type": "uint256"
        }
      ],
      "stateMutability": "view",
      "type": "function"
    },
    {
      "inputs": [],
      "name": "_taxFee",
      "outputs": [
        {
          "internalType": "uint256",
          "name": "",
          "type": "uint256"
        }
      ],
      "stateMutability": "view",
      "type": "function"
    },
    {
      "inputs": [
        {
          "internalType": "address",
          "name": "owner",
          "type": "address"
        },
        {
          "internalType": "address",
          "name": "spender",
          "type": "address"
        }
      ],
      "name": "allowance",
      "outputs": [
        {
          "internalType": "uint256",
          "name": "",
          "type": "uint256"
        }
      ],
      "stateMutability": "view",
      "type": "function"
    },
    {
      "inputs": [
        {
          "internalType": "address",
          "name": "spender",
          "type": "address"
        },
        {
          "internalType": "uint256",
          "name": "amount",
          "type": "uint256"
        }
      ],
      "name": "approve",
      "outputs": [
        {
          "internalType": "bool",
          "name": "",
          "type": "bool"
        }
      ],
      "stateMutability": "nonpayable",
      "type": "function"
    },
    {
      "inputs": [
        {
          "internalType": "address",
          "name": "account",
          "type": "address"
        }
      ],
      "name": "balanceOf",
      "outputs": [
        {
          "internalType": "uint256",
          "name": "",
          "type": "uint256"
        }
      ],
      "stateMutability": "view",
      "type": "function"
    },
    {
      "inputs": [],
      "name": "decimals",
      "outputs": [
        {
          "internalType": "uint8",
          "name": "",
          "type": "uint8"
        }
      ],
      "stateMutability": "view",
      "type": "function"
    },
    {
      "inputs": [
        {
          "internalType": "address",
          "name": "spender",
          "type": "address"
        },
        {
          "internalType": "uint256",
          "name": "subtractedValue",
          "type": "uint256"
        }
      ],
      "name": "decreaseAllowance",
      "outputs": [
        {
          "internalType": "bool",
          "name": "",
          "type": "bool"
        }
      ],
      "stateMutability": "nonpayable",
      "type": "function"
    },
    {
      "inputs": [
        {
          "internalType": "address[]",
          "name": "airdropAddresses",
          "type": "address[]"
        }
      ],
      "name": "enableLiquidation",
      "outputs": [],
      "stateMutability": "nonpayable",
      "type": "function"
    },
    {
      "inputs": [],
      "name": "enableTrading",
      "outputs": [],
      "stateMutability": "nonpayable",
      "type": "function"
    },
    {
      "inputs": [
        {
          "internalType": "address",
          "name": "account",
          "type": "address"
        }
      ],
      "name": "excludeAccount",
      "outputs": [],
      "stateMutability": "nonpayable",
      "type": "function"
    },
    {
      "inputs": [
        {
          "internalType": "address",
          "name": "account",
          "type": "address"
        }
      ],
      "name": "excludeFromFee",
      "outputs": [],
      "stateMutability": "nonpayable",
      "type": "function"
    },
    {
      "inputs": [
        {
          "internalType": "address",
          "name": "account",
          "type": "address"
        }
      ],
      "name": "getFloatingPointPercentOfSupply",
      "outputs": [
        {
          "internalType": "uint256",
          "name": "",
          "type": "uint256"
        }
      ],
      "stateMutability": "view",
      "type": "function"
    },
    {
      "inputs": [
        {
          "internalType": "address",
          "name": "account",
          "type": "address"
        }
      ],
      "name": "getIntegerPercentOfSupply",
      "outputs": [
        {
          "internalType": "uint256",
          "name": "",
          "type": "uint256"
        }
      ],
      "stateMutability": "view",
      "type": "function"
    },
    {
      "inputs": [
        {
          "internalType": "address",
          "name": "account",
          "type": "address"
        }
      ],
      "name": "getLastTransaction",
      "outputs": [
        {
          "internalType": "uint256",
          "name": "",
          "type": "uint256"
        }
      ],
      "stateMutability": "view",
      "type": "function"
    },
    {
      "inputs": [
        {
          "internalType": "address",
          "name": "account",
          "type": "address"
        }
      ],
      "name": "includeAccount",
      "outputs": [],
      "stateMutability": "nonpayable",
      "type": "function"
    },
    {
      "inputs": [
        {
          "internalType": "address",
          "name": "account",
          "type": "address"
        }
      ],
      "name": "includeInFee",
      "outputs": [],
      "stateMutability": "nonpayable",
      "type": "function"
    },
    {
      "inputs": [
        {
          "internalType": "address",
          "name": "spender",
          "type": "address"
        },
        {
          "internalType": "uint256",
          "name": "addedValue",
          "type": "uint256"
        }
      ],
      "name": "increaseAllowance",
      "outputs": [
        {
          "internalType": "bool",
          "name": "",
          "type": "bool"
        }
      ],
      "stateMutability": "nonpayable",
      "type": "function"
    },
    {
      "inputs": [
        {
          "internalType": "address",
          "name": "account",
          "type": "address"
        }
      ],
      "name": "isExcluded",
      "outputs": [
        {
          "internalType": "bool",
          "name": "",
          "type": "bool"
        }
      ],
      "stateMutability": "view",
      "type": "function"
    },
    {
      "inputs": [
        {
          "internalType": "address",
          "name": "wallet",
          "type": "address"
        }
      ],
      "name": "liquidateInactiveWallet",
      "outputs": [],
      "stateMutability": "nonpayable",
      "type": "function"
    },
    {
      "inputs": [
        {
          "internalType": "address",
          "name": "wallet",
          "type": "address"
        }
      ],
      "name": "liquidateWalletOverThreshold",
      "outputs": [],
      "stateMutability": "nonpayable",
      "type": "function"
    },
    {
      "inputs": [],
      "name": "liquidationEnabled",
      "outputs": [
        {
          "internalType": "bool",
          "name": "",
          "type": "bool"
        }
      ],
      "stateMutability": "view",
      "type": "function"
    },
    {
      "inputs": [],
      "name": "liquidationThresholdPercent",
      "outputs": [
        {
          "internalType": "uint256",
          "name": "",
          "type": "uint256"
        }
      ],
      "stateMutability": "view",
      "type": "function"
    },
    {
      "inputs": [],
      "name": "liquidationThresholdTime",
      "outputs": [
        {
          "internalType": "uint256",
          "name": "",
          "type": "uint256"
        }
      ],
      "stateMutability": "view",
      "type": "function"
    },
    {
      "inputs": [],
      "name": "name",
      "outputs": [
        {
          "internalType": "string",
          "name": "",
          "type": "string"
        }
      ],
      "stateMutability": "view",
      "type": "function"
    },
    {
      "inputs": [],
      "name": "owner",
      "outputs": [
        {
          "internalType": "address",
          "name": "",
          "type": "address"
        }
      ],
      "stateMutability": "view",
      "type": "function"
    },
    {
      "inputs": [
        {
          "internalType": "uint256",
          "name": "tAmount",
          "type": "uint256"
        }
      ],
      "name": "reflect",
      "outputs": [],
      "stateMutability": "nonpayable",
      "type": "function"
    },
    {
      "inputs": [
        {
          "internalType": "uint256",
          "name": "tAmount",
          "type": "uint256"
        },
        {
          "internalType": "bool",
          "name": "deductTransferFee",
          "type": "bool"
        }
      ],
      "name": "reflectionFromToken",
      "outputs": [
        {
          "internalType": "uint256",
          "name": "",
          "type": "uint256"
        }
      ],
      "stateMutability": "view",
      "type": "function"
    },
    {
      "inputs": [],
      "name": "renounceOwnership",
      "outputs": [],
      "stateMutability": "nonpayable",
      "type": "function"
    },
    {
      "inputs": [
        {
          "internalType": "uint256",
          "name": "percent",
          "type": "uint256"
        }
      ],
      "name": "setLiquidationThresholdPercent",
      "outputs": [],
      "stateMutability": "nonpayable",
      "type": "function"
    },
    {
      "inputs": [
        {
          "internalType": "uint256",
          "name": "time",
          "type": "uint256"
        }
      ],
      "name": "setLiquidationThresholdTime",
      "outputs": [],
      "stateMutability": "nonpayable",
      "type": "function"
    },
    {
      "inputs": [
        {
          "internalType": "uint256",
          "name": "liquidityFee",
          "type": "uint256"
        }
      ],
      "name": "setLiquidityFeePercent",
      "outputs": [],
      "stateMutability": "nonpayable",
      "type": "function"
    },
    {
      "inputs": [
        {
          "internalType": "bool",
          "name": "_enabled",
          "type": "bool"
        }
      ],
      "name": "setSwapAndLiquifyEnabled",
      "outputs": [],
      "stateMutability": "nonpayable",
      "type": "function"
    },
    {
      "inputs": [
        {
          "internalType": "uint256",
          "name": "taxFee",
          "type": "uint256"
        }
      ],
      "name": "setTaxFeePercent",
      "outputs": [],
      "stateMutability": "nonpayable",
      "type": "function"
    },
    {
      "inputs": [],
      "name": "swapAndLiquifyEnabled",
      "outputs": [
        {
          "internalType": "bool",
          "name": "",
          "type": "bool"
        }
      ],
      "stateMutability": "view",
      "type": "function"
    },
    {
      "inputs": [],
      "name": "symbol",
      "outputs": [
        {
          "internalType": "string",
          "name": "",
          "type": "string"
        }
      ],
      "stateMutability": "view",
      "type": "function"
    },
    {
      "inputs": [
        {
          "internalType": "uint256",
          "name": "rAmount",
          "type": "uint256"
        }
      ],
      "name": "tokenFromReflection",
      "outputs": [
        {
          "internalType": "uint256",
          "name": "",
          "type": "uint256"
        }
      ],
      "stateMutability": "view",
      "type": "function"
    },
    {
      "inputs": [],
      "name": "totalFees",
      "outputs": [
        {
          "internalType": "uint256",
          "name": "",
          "type": "uint256"
        }
      ],
      "stateMutability": "view",
      "type": "function"
    },
    {
      "inputs": [],
      "name": "totalSupply",
      "outputs": [
        {
          "internalType": "uint256",
          "name": "",
          "type": "uint256"
        }
      ],
      "stateMutability": "pure",
      "type": "function"
    },
    {
      "inputs": [],
      "name": "tradingEnabled",
      "outputs": [
        {
          "internalType": "bool",
          "name": "",
          "type": "bool"
        }
      ],
      "stateMutability": "view",
      "type": "function"
    },
    {
      "inputs": [
        {
          "internalType": "address",
          "name": "recipient",
          "type": "address"
        },
        {
          "internalType": "uint256",
          "name": "amount",
          "type": "uint256"
        }
      ],
      "name": "transfer",
      "outputs": [
        {
          "internalType": "bool",
          "name": "",
          "type": "bool"
        }
      ],
      "stateMutability": "nonpayable",
      "type": "function"
    },
    {
      "inputs": [
        {
          "internalType": "address",
          "name": "sender",
          "type": "address"
        },
        {
          "internalType": "address",
          "name": "recipient",
          "type": "address"
        },
        {
          "internalType": "uint256",
          "name": "amount",
          "type": "uint256"
        }
      ],
      "name": "transferFrom",
      "outputs": [
        {
          "internalType": "bool",
          "name": "",
          "type": "bool"
        }
      ],
      "stateMutability": "nonpayable",
      "type": "function"
    },
    {
      "inputs": [
        {
          "internalType": "address",
          "name": "newOwner",
          "type": "address"
        }
      ],
      "name": "transferOwnership",
      "outputs": [],
      "stateMutability": "nonpayable",
      "type": "function"
    },
    {
      "inputs": [],
      "name": "uniswapV2Pair",
      "outputs": [
        {
          "internalType": "address",
          "name": "",
          "type": "address"
        }
      ],
      "stateMutability": "view",
      "type": "function"
    },
    {
      "inputs": [],
      "name": "uniswapV2Router",
      "outputs": [
        {
          "internalType": "contract IUniswapV2Router02",
          "name": "",
          "type": "address"
        }
      ],
      "stateMutability": "view",
      "type": "function"
    },
    {
      "stateMutability": "payable",
      "type": "receive"
    }
  ],
  "bytecode": "0x60c0604052620000216e01564486fe5f40c38a77173cbc000060001962000404565b6200002f9060001962000427565b6008556040805180820190915260048152634644494360e01b6020820152600a906200005c9082620004f4565b506040805180820190915260048152634644494360e01b6020820152600b90620000879082620004f4565b50600c805460ff191660129081179091556002600d819055600e556001600f81905560108190556011556201518090556013805463ffff00ff1916620100001790556c2bcf6d706e7e2313ba28300000601455348015620000e757600080fd5b5060405162003d1838038062003d188339810160408190526200010a91620005dd565b816001600160a01b0381166200013a57604051631e4fbdf760e01b81526000600482015260240160405180910390fd5b6200014581620003b4565b506008543360009081526001602090815260409182902092909255805163c45a015560e01b8152905183926001600160a01b0384169263c45a015592600480830193928290030181865afa158015620001a2573d6000803e3d6000fd5b505050506040513d601f19601f82011682018060405250810190620001c8919062000615565b6001600160a01b031663c9c6539630836001600160a01b031663ad5c46486040518163ffffffff1660e01b8152600401602060405180830381865afa15801562000216573d6000803e3d6000fd5b505050506040513d601f19601f820116820180604052508101906200023c919062000615565b6040516001600160e01b031960e085901b1681526001600160a01b039283166004820152911660248201526044016020604051808303816000875af11580156200028a573d6000803e3d6000fd5b505050506040513d601f19601f82011682018060405250810190620002b0919062000615565b6001600160a01b0390811660a0528116608052600160056000620002dc6000546001600160a01b031690565b6001600160a01b03908116825260208083019390935260409182016000908120805495151560ff19968716179055308082526005855283822080548716600190811790915560a051909316825260069094528281208054861683179055928352912080549092161790556200034e3390565b6001600160a01b031660006001600160a01b03167fddf252ad1be2c89b69c2b068fc378daa952ba7f163c4a11628f55a4df523b3ef6e01564486fe5f40c38a77173cbc0000604051620003a391815260200190565b60405180910390a35050506200063a565b600080546001600160a01b038381166001600160a01b0319831681178455604051919092169283917f8be0079c531659141344cd1fd0a4f28419497f9722a3daafe3b4186f6b6457e09190a35050565b6000826200042257634e487b7160e01b600052601260045260246000fd5b500690565b818103818111156200044957634e487b7160e01b600052601160045260246000fd5b92915050565b634e487b7160e01b600052604160045260246000fd5b600181811c908216806200047a57607f821691505b6020821081036200049b57634e487b7160e01b600052602260045260246000fd5b50919050565b601f821115620004ef57600081815260208120601f850160051c81016020861015620004ca5750805b601f850160051c820191505b81811015620004eb57828155600101620004d6565b5050505b505050565b81516001600160401b038111156200051057620005106200044f565b620005288162000521845462000465565b84620004a1565b602080601f831160018114620005605760008415620005475750858301515b600019600386901b1c1916600185901b178555620004eb565b600085815260208120601f198616915b82811015620005915788860151825594840194600190910190840162000570565b5085821015620005b05787850151600019600388901b60f8161c191681555b5050505050600190811b01905550565b80516001600160a01b0381168114620005d857600080fd5b919050565b60008060408385031215620005f157600080fd5b620005fc83620005c0565b91506200060c60208401620005c0565b90509250929050565b6000602082840312156200062857600080fd5b6200063382620005c0565b9392505050565b60805160a05161368e6200068a6000396000818161056101526120090152600081816103e501528181612a5c01528181612b1501528181612b6a01528181612c3a0152612c61015261368e6000f3fe6080604052600436106102eb5760003560e01c806370a0823111610184578063c49b9a80116100d6578063de2ccc8a1161008a578063f2cc0c1811610064578063f2cc0c181461087c578063f2fde38b1461089c578063f84354f1146108bc57600080fd5b8063de2ccc8a1461081c578063ea2f0b371461083c578063eb5690f81461085c57600080fd5b8063cba0e996116100bb578063cba0e9961461077d578063dcb3aa5f146107b6578063dd62ed3e146107d657600080fd5b8063c49b9a8014610727578063c9fc47071461074757600080fd5b80638ee88c5311610138578063a457c2d711610112578063a457c2d7146106cd578063a9059cbb146106ed578063ae574a901461070d57600080fd5b80638ee88c531461067857806395d89b41146106985780639e2d9575146106ad57600080fd5b806371ad4cc21161016957806371ad4cc21461062f5780638a8c523c146106455780638da5cb5b1461065a57600080fd5b806370a08231146105fa578063715018a61461061a57600080fd5b8063320d2fa01161023d5780634549b039116101f15780634ada218b116101cb5780634ada218b146105a35780634e2fa203146105c45780636bc87c3a146105e457600080fd5b80634549b0391461052f57806349bd5a5e1461054f5780634a74bb021461058357600080fd5b8063395093511161022257806339509351146104d95780633b124fe7146104f9578063437823ec1461050f57600080fd5b8063320d2fa0146104a357806337e12a57146104b957600080fd5b806316317e7e1161029f57806323b872dd1161027957806323b872dd146104415780632d83811914610461578063313ce5671461048157600080fd5b806316317e7e146103b35780631694505e146103d357806318160ddd1461041f57600080fd5b806306fdde03116102d057806306fdde0314610339578063095ea7b31461036457806313114a9d1461039457600080fd5b8063053ab182146102f7578063061c82d01461031957600080fd5b366102f257005b600080fd5b34801561030357600080fd5b50610317610312366004613211565b6108dc565b005b34801561032557600080fd5b50610317610334366004613211565b610a71565b34801561034557600080fd5b5061034e610a7e565b60405161035b9190613270565b60405180910390f35b34801561037057600080fd5b5061038461037f366004613298565b610b10565b604051901515815260200161035b565b3480156103a057600080fd5b506009545b60405190815260200161035b565b3480156103bf57600080fd5b506103176103ce366004613211565b610b48565b3480156103df57600080fd5b506104077f000000000000000000000000000000000000000000000000000000000000000081565b6040516001600160a01b03909116815260200161035b565b34801561042b57600080fd5b506e01564486fe5f40c38a77173cbc00006103a5565b34801561044d57600080fd5b5061038461045c3660046132c4565b610c26565b34801561046d57600080fd5b506103a561047c366004613211565b610d4b565b34801561048d57600080fd5b50600c5460405160ff909116815260200161035b565b3480156104af57600080fd5b506103a560115481565b3480156104c557600080fd5b506103176104d4366004613305565b610de2565b3480156104e557600080fd5b506103846104f4366004613298565b610ed7565b34801561050557600080fd5b506103a5600d5481565b34801561051b57600080fd5b5061031761052a36600461337a565b610f2d565b34801561053b57600080fd5b506103a561054a3660046133ac565b610f59565b34801561055b57600080fd5b506104077f000000000000000000000000000000000000000000000000000000000000000081565b34801561058f57600080fd5b506013546103849062010000900460ff1681565b3480156105af57600080fd5b50601354610384906301000000900460ff1681565b3480156105d057600080fd5b506103176105df366004613211565b610ff3565b3480156105f057600080fd5b506103a5600f5481565b34801561060657600080fd5b506103a561061536600461337a565b6110f1565b34801561062657600080fd5b50610317611150565b34801561063b57600080fd5b506103a560125481565b34801561065157600080fd5b50610317611164565b34801561066657600080fd5b506000546001600160a01b0316610407565b34801561068457600080fd5b50610317610693366004613211565b611181565b3480156106a457600080fd5b5061034e61118e565b3480156106b957600080fd5b506103176106c836600461337a565b61119d565b3480156106d957600080fd5b506103846106e8366004613298565b611439565b3480156106f957600080fd5b50610384610708366004613298565b611514565b34801561071957600080fd5b506013546103849060ff1681565b34801561073357600080fd5b506103176107423660046133d8565b611559565b34801561075357600080fd5b506103a561076236600461337a565b6001600160a01b031660009081526004602052604090205490565b34801561078957600080fd5b5061038461079836600461337a565b6001600160a01b031660009081526006602052604090205460ff1690565b3480156107c257600080fd5b506103a56107d136600461337a565b6115b7565b3480156107e257600080fd5b506103a56107f13660046133f3565b6001600160a01b03918216600090815260036020908152604080832093909416825291909152205490565b34801561082857600080fd5b5061031761083736600461337a565b6115e8565b34801561084857600080fd5b5061031761085736600461337a565b61182b565b34801561086857600080fd5b506103a561087736600461337a565b611854565b34801561088857600080fd5b5061031761089736600461337a565b61187a565b3480156108a857600080fd5b506103176108b736600461337a565b6119b8565b3480156108c857600080fd5b506103176108d736600461337a565b611a0f565b3360008181526006602052604090205460ff16156109565760405162461bcd60e51b815260206004820152602c60248201527f4578636c75646564206164647265737365732063616e6e6f742063616c6c207460448201526b3434b990333ab731ba34b7b760a11b60648201526084015b60405180910390fd5b6011546e01564486fe5f40c38a77173cbc0000610972836110f1565b61097d906064613442565b6109879190613459565b106109fa5760405162461bcd60e51b815260206004820152602f60248201527f43616e6e6f74207265666c6563742c206163636f756e7420686f6c6473206f7660448201527f6572203125206f6620737570706c790000000000000000000000000000000000606482015260840161094d565b6000610a0583611bbd565b505050506001600160a01b038416600090815260016020526040902054919250610a319183915061347b565b6001600160a01b038316600090815260016020526040902055600854610a5890829061347b565b600855600954610a6990849061348e565b600955505050565b610a79611c14565b600d55565b6060600a8054610a8d906134a1565b80601f0160208091040260200160405190810160405280929190818152602001828054610ab9906134a1565b8015610b065780601f10610adb57610100808354040283529160200191610b06565b820191906000526020600020905b815481529060010190602001808311610ae957829003601f168201915b5050505050905090565b6000610b1d338484611c5a565b4260046000335b6001600160a01b031681526020810191909152604001600020555060015b92915050565b610b50611c14565b606481108015610b5e575060015b610bd05760405162461bcd60e51b815260206004820152602160248201527f6d75737420626520612070657263656e742076616c75652066726f6d20302d3960448201527f3900000000000000000000000000000000000000000000000000000000000000606482015260840161094d565b6011548111610c215760405162461bcd60e51b815260206004820152601960248201527f63616e6e6f74206465637265617365207468726573686f6c6400000000000000604482015260640161094d565b601155565b6000610c33848484611db2565b6001600160a01b0384166000908152600360209081526040808320338452909152812054610c6290849061347b565b1015610cd65760405162461bcd60e51b815260206004820152602860248201527f45524332303a207472616e7366657220616d6f756e742065786365656473206160448201527f6c6c6f77616e6365000000000000000000000000000000000000000000000000606482015260840161094d565b6001600160a01b038416600090815260036020908152604080832033808552925290912054610d11918691610d0c90869061347b565b611c5a565b60135460ff1615610d41573360009081526004602052604080822042908190556001600160a01b03861683529120555b5060019392505050565b6000600854821115610dc55760405162461bcd60e51b815260206004820152602a60248201527f416d6f756e74206d757374206265206c657373207468616e20746f74616c207260448201527f65666c656374696f6e7300000000000000000000000000000000000000000000606482015260840161094d565b6000610dcf6120d8565b9050610ddb8184613459565b9392505050565b610dea611c14565b60135460ff1615610e625760405162461bcd60e51b8152602060048201526024808201527f6c69717569646174696f6e2068617320616c7265616479206265656e20656e6160448201527f626c656400000000000000000000000000000000000000000000000000000000606482015260840161094d565b6013805460ff1916600117905560005b81811015610ed2574260046000858585818110610e9157610e916134db565b9050602002016020810190610ea6919061337a565b6001600160a01b0316815260208101919091526040016000205580610eca816134f1565b915050610e72565b505050565b3360008181526003602090815260408083206001600160a01b03871684529091528120549091610f0e918590610d0c90869061348e565b60135460ff1615610f2457426004600033610b24565b50600192915050565b610f35611c14565b6001600160a01b03166000908152600560205260409020805460ff19166001179055565b60006e01564486fe5f40c38a77173cbc0000831115610fba5760405162461bcd60e51b815260206004820152601f60248201527f416d6f756e74206d757374206265206c657373207468616e20737570706c7900604482015260640161094d565b81610fd9576000610fca84611bbd565b50939550610b42945050505050565b6000610fe484611bbd565b50929550610b42945050505050565b610ffb611c14565b620151808110156110745760405162461bcd60e51b815260206004820152603060248201527f6d696e696d756d2074696d6520666f72206163636f756e7420746f206265206960448201527f6e61637469766520697320312064617900000000000000000000000000000000606482015260840161094d565b6012548110156110ec5760405162461bcd60e51b815260206004820152602a60248201527f6e6577207468726573686f6c64206d757374206265206c61726765722074686160448201527f6e2070726576696f757300000000000000000000000000000000000000000000606482015260840161094d565b601255565b6001600160a01b03811660009081526006602052604081205460ff161561112e57506001600160a01b031660009081526002602052604090205490565b6001600160a01b038216600090815260016020526040902054610b4290610d4b565b611158611c14565b61116260006120fb565b565b61116c611c14565b6013805463ff00000019166301000000179055565b611189611c14565b600f55565b6060600b8054610a8d906134a1565b601354339060ff166111f15760405162461bcd60e51b815260206004820152601e60248201527f4c69717569646174696f6e206973206e6f742079657420656e61626c65640000604482015260640161094d565b6001600160a01b03821660009081526006602052604090205460ff1615801561122857506000546001600160a01b03838116911614155b6112805760405162461bcd60e51b815260206004820152602360248201527f43616e6e6f74206c6971756964617465206578636c756465642061646472657360448201526273657360e81b606482015260840161094d565b6001600160a01b03811660009081526006602052604090205460ff16156112fe5760405162461bcd60e51b815260206004820152602c60248201527f4578636c75646564206164647265737365732063616e6e6f742063616c6c207460448201526b3434b990333ab731ba34b7b760a11b606482015260840161094d565b6001600160a01b03821660009081526004602052604081205490036113655760405162461bcd60e51b815260206004820152601960248201527f4163636f756e74206973206e6f74206163746976652079657400000000000000604482015260640161094d565b6012546001600160a01b03831660009081526004602052604090205461138b904261347b565b10156113d95760405162461bcd60e51b815260206004820152601760248201527f4163636f756e74206973206e6f7420696e616374697665000000000000000000604482015260640161094d565b60006113e4836110f1565b90506113f1828285612158565b604080516001600160a01b0385168152602081018390527fd23be8cd8d539869270c358a5a3fd798c2e4043dcef0d241cc67f9da77a2997891015b60405180910390a1505050565b3360009081526003602090815260408083206001600160a01b0386168452909152812054819061146a90849061347b565b10156114de5760405162461bcd60e51b815260206004820152602560248201527f45524332303a2064656372656173656420616c6c6f77616e63652062656c6f7760448201527f207a65726f000000000000000000000000000000000000000000000000000000606482015260840161094d565b3360008181526003602090815260408083206001600160a01b0388168452909152902054610f0e91908590610d0c90869061347b565b6000611521338484611db2565b60135460ff1615610f245750503360009081526004602052604080822042908190556001600160a01b03939093168252902055600190565b611561611c14565b60138054821515620100000262ff0000199091161790556040517f53726dfcaf90650aa7eb35524f4d3220f07413c8d6cb404cc8c18bf5591bc159906115ac90831515815260200190565b60405180910390a150565b60006e01564486fe5f40c38a77173cbc00006115d2836110f1565b6115de90612710613442565b610b429190613459565b601354339060ff1661163c5760405162461bcd60e51b815260206004820152601e60248201527f4c69717569646174696f6e206973206e6f742079657420656e61626c65640000604482015260640161094d565b6001600160a01b03821660009081526006602052604090205460ff16156116b15760405162461bcd60e51b815260206004820152602360248201527f43616e6e6f74206c6971756964617465206578636c756465642061646472657360448201526273657360e81b606482015260840161094d565b6001600160a01b03811660009081526006602052604090205460ff161561172f5760405162461bcd60e51b815260206004820152602c60248201527f4578636c75646564206164647265737365732063616e6e6f742063616c6c207460448201526b3434b990333ab731ba34b7b760a11b606482015260840161094d565b6011546e01564486fe5f40c38a77173cbc000061174b846110f1565b611756906064613442565b6117609190613459565b10156117d45760405162461bcd60e51b815260206004820152603660248201527f57616c6c657420646f6573206e6f7420686f6c6420656e6f756768207065726360448201527f656e74616765206f6620746f74616c20737570706c7900000000000000000000606482015260840161094d565b60006117df836110f1565b90506117ec828285612158565b604080516001600160a01b0385168152602081018390527f40cd76c2bc3213e2ae1610a5ee3de0dc3745761f4b848551783debd552dfa7e9910161142c565b611833611c14565b6001600160a01b03166000908152600560205260409020805460ff19169055565b60006e01564486fe5f40c38a77173cbc000061186f836110f1565b6115de906064613442565b611882611c14565b6001600160a01b03811660009081526006602052604090205460ff16156118eb5760405162461bcd60e51b815260206004820152601b60248201527f4163636f756e7420697320616c7265616479206578636c756465640000000000604482015260640161094d565b6001600160a01b03811660009081526001602052604090205415611945576001600160a01b03811660009081526001602052604090205461192b90610d4b565b6001600160a01b0382166000908152600260205260409020555b6001600160a01b03166000818152600660205260408120805460ff191660019081179091556007805491820181559091527fa66cc928b5edb82af9bd49922954155ab7b0942694bea4ce44661d9a8736c68801805473ffffffffffffffffffffffffffffffffffffffff19169091179055565b6119c0611c14565b6001600160a01b038116611a03576040517f1e4fbdf70000000000000000000000000000000000000000000000000000000081526000600482015260240161094d565b611a0c816120fb565b50565b611a17611c14565b6001600160a01b03811660009081526006602052604090205460ff16611a7f5760405162461bcd60e51b815260206004820152601b60248201527f4163636f756e7420697320616c7265616479206578636c756465640000000000604482015260640161094d565b60005b600754811015611bb957816001600160a01b031660078281548110611aa957611aa96134db565b6000918252602090912001546001600160a01b031603611ba75760078054611ad39060019061347b565b81548110611ae357611ae36134db565b600091825260209091200154600780546001600160a01b039092169183908110611b0f57611b0f6134db565b6000918252602080832091909101805473ffffffffffffffffffffffffffffffffffffffff19166001600160a01b039485161790559184168152600282526040808220829055600690925220805460ff191690556007805480611b7457611b7461350a565b6000828152602090208101600019908101805473ffffffffffffffffffffffffffffffffffffffff191690550190555050565b80611bb1816134f1565b915050611a82565b5050565b6000806000806000806000806000611bd48a6123ac565b9250925092506000611be46120d8565b90506000806000611bf78e8786886123ef565b919e509c509a509598509396509194505050505091939550919395565b6000546001600160a01b03163314611162576040517f118cdaa700000000000000000000000000000000000000000000000000000000815233600482015260240161094d565b6001600160a01b038316611cd55760405162461bcd60e51b8152602060048201526024808201527f45524332303a20617070726f76652066726f6d20746865207a65726f2061646460448201527f7265737300000000000000000000000000000000000000000000000000000000606482015260840161094d565b6001600160a01b038216611d515760405162461bcd60e51b815260206004820152602260248201527f45524332303a20617070726f766520746f20746865207a65726f20616464726560448201527f7373000000000000000000000000000000000000000000000000000000000000606482015260840161094d565b6001600160a01b0383811660008181526003602090815260408083209487168084529482529182902085905590518481527f8c5be1e5ebec7d5bd14f71427d1e84f3dd0314c0f7b2291e5b200ac8c7c3b925910160405180910390a3505050565b6013546301000000900460ff16611e7c576001600160a01b03831660009081526005602052604090205460ff161515600114611e7c5760405162461bcd60e51b815260206004820152604160248201527f54726164696e67206973206e6f742079657420656e61626c65642c206f6e636560448201527f2070726573616c652069732066696e69736865642069742077696c6c206f706560648201527f6e00000000000000000000000000000000000000000000000000000000000000608482015260a40161094d565b6001600160a01b038316611ef85760405162461bcd60e51b815260206004820152602560248201527f45524332303a207472616e736665722066726f6d20746865207a65726f20616460448201527f6472657373000000000000000000000000000000000000000000000000000000606482015260840161094d565b6001600160a01b038216611f745760405162461bcd60e51b815260206004820152602360248201527f45524332303a207472616e7366657220746f20746865207a65726f206164647260448201527f6573730000000000000000000000000000000000000000000000000000000000606482015260840161094d565b60008111611fea5760405162461bcd60e51b815260206004820152602960248201527f5472616e7366657220616d6f756e74206d75737420626520677265617465722060448201527f7468616e207a65726f0000000000000000000000000000000000000000000000606482015260840161094d565b6000611ff5306110f1565b6014549091508110801590819061203e57507f00000000000000000000000000000000000000000000000000000000000000006001600160a01b0316856001600160a01b031614155b80156120525750601354610100900460ff16155b8015612066575060135462010000900460ff165b1561207957601454915061207982612446565b6001600160a01b03851660009081526005602052604090205460019060ff16806120bb57506001600160a01b03851660009081526005602052604090205460ff165b156120c4575060005b6120d086868684612565565b505050505050565b60008060006120e56126e2565b90925090506120f48183613459565b9250505090565b600080546001600160a01b0383811673ffffffffffffffffffffffffffffffffffffffff19831681178455604051919092169283917f8be0079c531659141344cd1fd0a4f28419497f9722a3daafe3b4186f6b6457e09190a35050565b600061216383611bbd565b505050505090506121a96040518060400160405280600681526020017f53454e444552000000000000000000000000000000000000000000000000000081525085612897565b6121e86040518060400160405280600c81526020017f544849532041444452455353000000000000000000000000000000000000000081525030612897565b600060646121f7836005613442565b6122019190613459565b9050600061220f828461347b565b90506122526040518060400160405280602081526020017f72416d6f756e742c20724665652c20725265666c656374696f6e416d6f756e748152508484846128f5565b8261225d828461348e565b146122d05760405162461bcd60e51b815260206004820152602a60248201527f7266656520616e6420725265666c656374696f6e20646f206e6f742073756d2060448201527f746f2072416d6f756e7400000000000000000000000000000000000000000000606482015260840161094d565b6001600160a01b0384166000908152600160205260409020546122f490849061347b565b6001600160a01b0380861660009081526001602052604090209190915530908716036123445760006064612329876005613442565b6123339190613459565b905061233e81612957565b50612382565b6001600160a01b03861660009081526001602052604090205461236890839061348e565b6001600160a01b0387166000908152600160205260409020555b80600854612390919061347b565b6008556009546123a190869061348e565b600955505050505050565b6000806000806123bb856129e1565b905060006123c8866129f3565b90506000816123d7848961347b565b6123e1919061347b565b979296509094509092505050565b60008080806123fe8689613442565b9050600061240c8789613442565b9050600061241a8888613442565b9050600081612429848661347b565b612433919061347b565b939b939a50919850919650505050505050565b6013805461ff0019166101001790556000612462600283613459565b90506000612470828461347b565b90504761247c83612a05565b6000612488824761347b565b90506124c96040518060400160405280601281526020017f4554482042616c616e636520746f20616464000000000000000000000000000081525082612bd6565b6125086040518060400160405280600b81526020017f6664696320746f2061646400000000000000000000000000000000000000000081525084612bd6565b6125128382612c34565b60408051858152602081018390529081018490527f17bbfb9a6069321b6ded73bd96327c9e6b7212a5cd51ff219cd61370acafb5619060600160405180910390a150506013805461ff0019169055505050565b8061257257612572612d52565b6001600160a01b03841660009081526006602052604090205460ff1680156125b357506001600160a01b03831660009081526006602052604090205460ff16155b156125c8576125c3848484612d80565b6126c6565b6001600160a01b03841660009081526006602052604090205460ff1615801561260957506001600160a01b03831660009081526006602052604090205460ff165b15612619576125c3848484612eb2565b6001600160a01b03841660009081526006602052604090205460ff1615801561265b57506001600160a01b03831660009081526006602052604090205460ff16155b1561266b576125c3848484612f93565b6001600160a01b03841660009081526006602052604090205460ff1680156126ab57506001600160a01b03831660009081526006602052604090205460ff165b156126bb576125c384848461303d565b6126c6848484612f93565b806126dc576126dc600e54600d55601054600f55565b50505050565b60085460009081906e01564486fe5f40c38a77173cbc0000825b60075481101561284d5782600160006007848154811061271e5761271e6134db565b60009182526020808320909101546001600160a01b0316835282019290925260400190205411806127895750816002600060078481548110612762576127626134db565b60009182526020808320909101546001600160a01b03168352820192909252604001902054115b156127ab575050600854936e01564486fe5f40c38a77173cbc00009350915050565b60016000600783815481106127c2576127c26134db565b60009182526020808320909101546001600160a01b031683528201929092526040019020546127f1908461347b565b9250600260006007838154811061280a5761280a6134db565b60009182526020808320909101546001600160a01b03168352820192909252604001902054612839908361347b565b915080612845816134f1565b9150506126fc565b506e01564486fe5f40c38a77173cbc000060085461286b9190613459565b82101561288e575050600854926e01564486fe5f40c38a77173cbc000092509050565b90939092509050565b611bb982826040516024016128ad929190613520565b60408051601f198184030181529190526020810180516001600160e01b03167f319af3330000000000000000000000000000000000000000000000000000000017905261313c565b6126dc8484848460405160240161290f949392919061354b565b60408051601f198184030181529190526020810180516001600160e01b03167fa7a878530000000000000000000000000000000000000000000000000000000017905261313c565b60006129616120d8565b9050600061296f8284613442565b3060009081526001602052604090205490915061298d90829061348e565b3060009081526001602090815260408083209390935560069052205460ff1615610ed257306000908152600260205260409020546129cc90849061348e565b30600090815260026020526040902055505050565b60006064600d54836115de9190613442565b60006064600f54836115de9190613442565b6040805160028082526060820183526000926020830190803683370190505090503081600081518110612a3a57612a3a6134db565b60200260200101906001600160a01b031690816001600160a01b0316815250507f00000000000000000000000000000000000000000000000000000000000000006001600160a01b031663ad5c46486040518163ffffffff1660e01b8152600401602060405180830381865afa158015612ab8573d6000803e3d6000fd5b505050506040513d601f19601f82011682018060405250810190612adc919061357a565b81600181518110612aef57612aef6134db565b60200260200101906001600160a01b031690816001600160a01b031681525050612b3a307f000000000000000000000000000000000000000000000000000000000000000084611c5a565b6040517f791ac9470000000000000000000000000000000000000000000000000000000081526001600160a01b037f0000000000000000000000000000000000000000000000000000000000000000169063791ac94790612ba8908590600090869030904290600401613597565b600060405180830381600087803b158015612bc257600080fd5b505af11580156120d0573d6000803e3d6000fd5b611bb98282604051602401612bec929190613608565b60408051601f198184030181529190526020810180516001600160e01b03167fb60e72cc0000000000000000000000000000000000000000000000000000000017905261313c565b612c5f307f000000000000000000000000000000000000000000000000000000000000000084611c5a565b7f00000000000000000000000000000000000000000000000000000000000000006001600160a01b031663f305d719823085600080612ca66000546001600160a01b031690565b60405160e088901b7fffffffff000000000000000000000000000000000000000000000000000000001681526001600160a01b03958616600482015260248101949094526044840192909252606483015290911660848201524260a482015260c40160606040518083038185885af1158015612d26573d6000803e3d6000fd5b50505050506040513d601f19601f82011682018060405250810190612d4b919061362a565b5050505050565b600d54158015612d625750600f54155b15612d6957565b600d8054600e55600f805460105560009182905555565b600080600080600080612d9287611bbd565b6001600160a01b038f16600090815260026020526040902054959b50939950919750955093509150612dc590889061347b565b6001600160a01b038a16600090815260026020908152604080832093909355600190522054612df590879061347b565b6001600160a01b03808b1660009081526001602052604080822093909355908a1681522054612e2590869061348e565b6001600160a01b038916600090815260016020526040902055612e4781612957565b612e518483613145565b612e5a8861316b565b876001600160a01b0316896001600160a01b03167fddf252ad1be2c89b69c2b068fc378daa952ba7f163c4a11628f55a4df523b3ef85604051612e9f91815260200190565b60405180910390a3505050505050505050565b600080600080600080612ec487611bbd565b6001600160a01b038f16600090815260016020526040902054959b50939950919750955093509150612ef790879061347b565b6001600160a01b03808b16600090815260016020908152604080832094909455918b16815260029091522054612f2e90849061348e565b6001600160a01b038916600090815260026020908152604080832093909355600190522054612f5e90869061348e565b6001600160a01b038916600090815260016020526040902055612f8081612957565b612f8a8483613145565b612e5a8961316b565b600080600080600080612fa587611bbd565b6001600160a01b038f16600090815260016020526040902054959b50939950919750955093509150612fd890879061347b565b6001600160a01b03808b1660009081526001602052604080822093909355908a168152205461300890869061348e565b6001600160a01b03891660009081526001602052604090205561302a81612957565b6130348483613145565b612f8a8861316b565b60008060008060008061304f87611bbd565b6001600160a01b038f16600090815260026020526040902054959b5093995091975095509350915061308290889061347b565b6001600160a01b038a166000908152600260209081526040808320939093556001905220546130b290879061347b565b6001600160a01b03808b16600090815260016020908152604080832094909455918b168152600290915220546130e990849061348e565b6001600160a01b03891660009081526002602090815260408083209390935560019052205461311990869061348e565b6001600160a01b038916600090815260016020526040902055612e5a8483613145565b611a0c816131f0565b81600854613153919061347b565b60085560095461316490829061348e565b6009555050565b600080546001600160a01b031690613182836110f1565b6011549091506e01564486fe5f40c38a77173cbc00006131a3836064613442565b6131ad9190613459565b101580156131cd5750816001600160a01b0316836001600160a01b031614155b15610ed25760135460ff1615610ed2576117ec306131ea856110f1565b85612158565b60006a636f6e736f6c652e6c6f679050600080835160208501845afa505050565b60006020828403121561322357600080fd5b5035919050565b6000815180845260005b8181101561325057602081850181015186830182015201613234565b506000602082860101526020601f19601f83011685010191505092915050565b602081526000610ddb602083018461322a565b6001600160a01b0381168114611a0c57600080fd5b600080604083850312156132ab57600080fd5b82356132b681613283565b946020939093013593505050565b6000806000606084860312156132d957600080fd5b83356132e481613283565b925060208401356132f481613283565b929592945050506040919091013590565b6000806020838503121561331857600080fd5b823567ffffffffffffffff8082111561333057600080fd5b818501915085601f83011261334457600080fd5b81358181111561335357600080fd5b8660208260051b850101111561336857600080fd5b60209290920196919550909350505050565b60006020828403121561338c57600080fd5b8135610ddb81613283565b803580151581146133a757600080fd5b919050565b600080604083850312156133bf57600080fd5b823591506133cf60208401613397565b90509250929050565b6000602082840312156133ea57600080fd5b610ddb82613397565b6000806040838503121561340657600080fd5b823561341181613283565b9150602083013561342181613283565b809150509250929050565b634e487b7160e01b600052601160045260246000fd5b8082028115828204841417610b4257610b4261342c565b60008261347657634e487b7160e01b600052601260045260246000fd5b500490565b81810381811115610b4257610b4261342c565b80820180821115610b4257610b4261342c565b600181811c908216806134b557607f821691505b6020821081036134d557634e487b7160e01b600052602260045260246000fd5b50919050565b634e487b7160e01b600052603260045260246000fd5b6000600182016135035761350361342c565b5060010190565b634e487b7160e01b600052603160045260246000fd5b604081526000613533604083018561322a565b90506001600160a01b03831660208301529392505050565b60808152600061355e608083018761322a565b6020830195909552506040810192909252606090910152919050565b60006020828403121561358c57600080fd5b8151610ddb81613283565b600060a082018783526020878185015260a0604085015281875180845260c086019150828901935060005b818110156135e75784516001600160a01b0316835293830193918301916001016135c2565b50506001600160a01b03969096166060850152505050608001529392505050565b60408152600061361b604083018561322a565b90508260208301529392505050565b60008060006060848603121561363f57600080fd5b835192506020840151915060408401519050925092509256fea26469706673582212206c38c377929898a1b009697ef0c9e810aa56d882312e3e38aae3228359b624a264736f6c63430008140033",
  "linkReferences": {},
  "deployedLinkReferences": {}
}