{
  "_format": "hh-sol-artifact-1",
  "contractName": "REFLECT",
  "sourceName": "contracts/REFLECT.sol",
  "abi": [
    {
      "inputs": [
        {
          "internalType": "address",
          "name": "_initialOwner",
          "type": "address"
        },
        {
          "internalType": "address",
          "name": "_uniswapV2Router",
          "type": "address"
        }
      ],
      "stateMutability": "nonpayable",
      "type": "constructor"
    },
    {
      "inputs": [
        {
          "internalType": "address",
          "name": "owner",
          "type": "address"
        }
      ],
      "name": "OwnableInvalidOwner",
      "type": "error"
    },
    {
      "inputs": [
        {
          "internalType": "address",
          "name": "account",
          "type": "address"
        }
      ],
      "name": "OwnableUnauthorizedAccount",
      "type": "error"
    },
    {
      "anonymous": false,
      "inputs": [
        {
          "indexed": true,
          "internalType": "address",
          "name": "owner",
          "type": "address"
        },
        {
          "indexed": true,
          "internalType": "address",
          "name": "spender",
          "type": "address"
        },
        {
          "indexed": false,
          "internalType": "uint256",
          "name": "value",
          "type": "uint256"
        }
      ],
      "name": "Approval",
      "type": "event"
    },
    {
      "anonymous": false,
      "inputs": [
        {
          "indexed": false,
          "internalType": "address",
          "name": "wallet",
          "type": "address"
        },
        {
          "indexed": false,
          "internalType": "uint256",
          "name": "amount",
          "type": "uint256"
        }
      ],
      "name": "InactiveWalletLiquidated",
      "type": "event"
    },
    {
      "anonymous": false,
      "inputs": [
        {
          "indexed": false,
          "internalType": "uint256",
          "name": "minTokensBeforeSwap",
          "type": "uint256"
        }
      ],
      "name": "MinTokensBeforeSwapUpdated",
      "type": "event"
    },
    {
      "anonymous": false,
      "inputs": [
        {
          "indexed": true,
          "internalType": "address",
          "name": "previousOwner",
          "type": "address"
        },
        {
          "indexed": true,
          "internalType": "address",
          "name": "newOwner",
          "type": "address"
        }
      ],
      "name": "OwnershipTransferred",
      "type": "event"
    },
    {
      "anonymous": false,
      "inputs": [
        {
          "indexed": false,
          "internalType": "uint256",
          "name": "tokensSwapped",
          "type": "uint256"
        },
        {
          "indexed": false,
          "internalType": "uint256",
          "name": "ethReceived",
          "type": "uint256"
        },
        {
          "indexed": false,
          "internalType": "uint256",
          "name": "tokensIntoLiqudity",
          "type": "uint256"
        }
      ],
      "name": "SwapAndLiquify",
      "type": "event"
    },
    {
      "anonymous": false,
      "inputs": [
        {
          "indexed": false,
          "internalType": "bool",
          "name": "enabled",
          "type": "bool"
        }
      ],
      "name": "SwapAndLiquifyEnabledUpdated",
      "type": "event"
    },
    {
      "anonymous": false,
      "inputs": [
        {
          "indexed": true,
          "internalType": "address",
          "name": "from",
          "type": "address"
        },
        {
          "indexed": true,
          "internalType": "address",
          "name": "to",
          "type": "address"
        },
        {
          "indexed": false,
          "internalType": "uint256",
          "name": "value",
          "type": "uint256"
        }
      ],
      "name": "Transfer",
      "type": "event"
    },
    {
      "anonymous": false,
      "inputs": [
        {
          "indexed": false,
          "internalType": "address",
          "name": "wallet",
          "type": "address"
        },
        {
          "indexed": false,
          "internalType": "uint256",
          "name": "amount",
          "type": "uint256"
        }
      ],
      "name": "WalletLiquidated",
      "type": "event"
    },
    {
      "inputs": [],
      "name": "_liquidityFee",
      "outputs": [
        {
          "internalType": "uint256",
          "name": "",
          "type": "uint256"
        }
      ],
      "stateMutability": "view",
      "type": "function"
    },
    {
      "inputs": [],
      "name": "_taxFee",
      "outputs": [
        {
          "internalType": "uint256",
          "name": "",
          "type": "uint256"
        }
      ],
      "stateMutability": "view",
      "type": "function"
    },
    {
      "inputs": [
        {
          "internalType": "address",
          "name": "owner",
          "type": "address"
        },
        {
          "internalType": "address",
          "name": "spender",
          "type": "address"
        }
      ],
      "name": "allowance",
      "outputs": [
        {
          "internalType": "uint256",
          "name": "",
          "type": "uint256"
        }
      ],
      "stateMutability": "view",
      "type": "function"
    },
    {
      "inputs": [
        {
          "internalType": "address",
          "name": "spender",
          "type": "address"
        },
        {
          "internalType": "uint256",
          "name": "amount",
          "type": "uint256"
        }
      ],
      "name": "approve",
      "outputs": [
        {
          "internalType": "bool",
          "name": "",
          "type": "bool"
        }
      ],
      "stateMutability": "nonpayable",
      "type": "function"
    },
    {
      "inputs": [
        {
          "internalType": "address",
          "name": "account",
          "type": "address"
        }
      ],
      "name": "balanceOf",
      "outputs": [
        {
          "internalType": "uint256",
          "name": "",
          "type": "uint256"
        }
      ],
      "stateMutability": "view",
      "type": "function"
    },
    {
      "inputs": [],
      "name": "decimals",
      "outputs": [
        {
          "internalType": "uint8",
          "name": "",
          "type": "uint8"
        }
      ],
      "stateMutability": "view",
      "type": "function"
    },
    {
      "inputs": [
        {
          "internalType": "address",
          "name": "spender",
          "type": "address"
        },
        {
          "internalType": "uint256",
          "name": "subtractedValue",
          "type": "uint256"
        }
      ],
      "name": "decreaseAllowance",
      "outputs": [
        {
          "internalType": "bool",
          "name": "",
          "type": "bool"
        }
      ],
      "stateMutability": "nonpayable",
      "type": "function"
    },
    {
      "inputs": [
        {
          "internalType": "address[]",
          "name": "airdropAddresses",
          "type": "address[]"
        }
      ],
      "name": "enableLiquidation",
      "outputs": [],
      "stateMutability": "nonpayable",
      "type": "function"
    },
    {
      "inputs": [],
      "name": "enableTrading",
      "outputs": [],
      "stateMutability": "nonpayable",
      "type": "function"
    },
    {
      "inputs": [
        {
          "internalType": "address",
          "name": "account",
          "type": "address"
        }
      ],
      "name": "excludeAccount",
      "outputs": [],
      "stateMutability": "nonpayable",
      "type": "function"
    },
    {
      "inputs": [
        {
          "internalType": "address",
          "name": "account",
          "type": "address"
        }
      ],
      "name": "excludeFromFee",
      "outputs": [],
      "stateMutability": "nonpayable",
      "type": "function"
    },
    {
      "inputs": [
        {
          "internalType": "address",
          "name": "account",
          "type": "address"
        }
      ],
      "name": "getFloatingPointPercentOfSupply",
      "outputs": [
        {
          "internalType": "uint256",
          "name": "",
          "type": "uint256"
        }
      ],
      "stateMutability": "view",
      "type": "function"
    },
    {
      "inputs": [
        {
          "internalType": "address",
          "name": "account",
          "type": "address"
        }
      ],
      "name": "getIntegerPercentOfSupply",
      "outputs": [
        {
          "internalType": "uint256",
          "name": "",
          "type": "uint256"
        }
      ],
      "stateMutability": "view",
      "type": "function"
    },
    {
      "inputs": [
        {
          "internalType": "address",
          "name": "account",
          "type": "address"
        }
      ],
      "name": "getLastTransaction",
      "outputs": [
        {
          "internalType": "uint256",
          "name": "",
          "type": "uint256"
        }
      ],
      "stateMutability": "view",
      "type": "function"
    },
    {
      "inputs": [
        {
          "internalType": "address",
          "name": "account",
          "type": "address"
        }
      ],
      "name": "includeAccount",
      "outputs": [],
      "stateMutability": "nonpayable",
      "type": "function"
    },
    {
      "inputs": [
        {
          "internalType": "address",
          "name": "account",
          "type": "address"
        }
      ],
      "name": "includeInFee",
      "outputs": [],
      "stateMutability": "nonpayable",
      "type": "function"
    },
    {
      "inputs": [
        {
          "internalType": "address",
          "name": "spender",
          "type": "address"
        },
        {
          "internalType": "uint256",
          "name": "addedValue",
          "type": "uint256"
        }
      ],
      "name": "increaseAllowance",
      "outputs": [
        {
          "internalType": "bool",
          "name": "",
          "type": "bool"
        }
      ],
      "stateMutability": "nonpayable",
      "type": "function"
    },
    {
      "inputs": [
        {
          "internalType": "address",
          "name": "account",
          "type": "address"
        }
      ],
      "name": "isExcluded",
      "outputs": [
        {
          "internalType": "bool",
          "name": "",
          "type": "bool"
        }
      ],
      "stateMutability": "view",
      "type": "function"
    },
    {
      "inputs": [
        {
          "internalType": "address",
          "name": "wallet",
          "type": "address"
        }
      ],
      "name": "liquidateInactiveWallet",
      "outputs": [],
      "stateMutability": "nonpayable",
      "type": "function"
    },
    {
      "inputs": [
        {
          "internalType": "address",
          "name": "wallet",
          "type": "address"
        }
      ],
      "name": "liquidateWalletOverThreshold",
      "outputs": [],
      "stateMutability": "nonpayable",
      "type": "function"
    },
    {
      "inputs": [],
      "name": "liquidationEnabled",
      "outputs": [
        {
          "internalType": "bool",
          "name": "",
          "type": "bool"
        }
      ],
      "stateMutability": "view",
      "type": "function"
    },
    {
      "inputs": [],
      "name": "liquidationThresholdPercent",
      "outputs": [
        {
          "internalType": "uint256",
          "name": "",
          "type": "uint256"
        }
      ],
      "stateMutability": "view",
      "type": "function"
    },
    {
      "inputs": [],
      "name": "liquidationThresholdTime",
      "outputs": [
        {
          "internalType": "uint256",
          "name": "",
          "type": "uint256"
        }
      ],
      "stateMutability": "view",
      "type": "function"
    },
    {
      "inputs": [],
      "name": "name",
      "outputs": [
        {
          "internalType": "string",
          "name": "",
          "type": "string"
        }
      ],
      "stateMutability": "view",
      "type": "function"
    },
    {
      "inputs": [],
      "name": "owner",
      "outputs": [
        {
          "internalType": "address",
          "name": "",
          "type": "address"
        }
      ],
      "stateMutability": "view",
      "type": "function"
    },
    {
      "inputs": [
        {
          "internalType": "uint256",
          "name": "tAmount",
          "type": "uint256"
        }
      ],
      "name": "reflect",
      "outputs": [],
      "stateMutability": "nonpayable",
      "type": "function"
    },
    {
      "inputs": [
        {
          "internalType": "uint256",
          "name": "tAmount",
          "type": "uint256"
        },
        {
          "internalType": "bool",
          "name": "deductTransferFee",
          "type": "bool"
        }
      ],
      "name": "reflectionFromToken",
      "outputs": [
        {
          "internalType": "uint256",
          "name": "",
          "type": "uint256"
        }
      ],
      "stateMutability": "view",
      "type": "function"
    },
    {
      "inputs": [],
      "name": "renounceOwnership",
      "outputs": [],
      "stateMutability": "nonpayable",
      "type": "function"
    },
    {
      "inputs": [
        {
          "internalType": "uint256",
          "name": "percent",
          "type": "uint256"
        }
      ],
      "name": "setLiquidationThresholdPercent",
      "outputs": [],
      "stateMutability": "nonpayable",
      "type": "function"
    },
    {
      "inputs": [
        {
          "internalType": "uint256",
          "name": "time",
          "type": "uint256"
        }
      ],
      "name": "setLiquidationThresholdTime",
      "outputs": [],
      "stateMutability": "nonpayable",
      "type": "function"
    },
    {
      "inputs": [
        {
          "internalType": "uint256",
          "name": "liquidityFee",
          "type": "uint256"
        }
      ],
      "name": "setLiquidityFeePercent",
      "outputs": [],
      "stateMutability": "nonpayable",
      "type": "function"
    },
    {
      "inputs": [
        {
          "internalType": "bool",
          "name": "_enabled",
          "type": "bool"
        }
      ],
      "name": "setSwapAndLiquifyEnabled",
      "outputs": [],
      "stateMutability": "nonpayable",
      "type": "function"
    },
    {
      "inputs": [
        {
          "internalType": "uint256",
          "name": "taxFee",
          "type": "uint256"
        }
      ],
      "name": "setTaxFeePercent",
      "outputs": [],
      "stateMutability": "nonpayable",
      "type": "function"
    },
    {
      "inputs": [],
      "name": "swapAndLiquifyEnabled",
      "outputs": [
        {
          "internalType": "bool",
          "name": "",
          "type": "bool"
        }
      ],
      "stateMutability": "view",
      "type": "function"
    },
    {
      "inputs": [],
      "name": "symbol",
      "outputs": [
        {
          "internalType": "string",
          "name": "",
          "type": "string"
        }
      ],
      "stateMutability": "view",
      "type": "function"
    },
    {
      "inputs": [
        {
          "internalType": "uint256",
          "name": "rAmount",
          "type": "uint256"
        }
      ],
      "name": "tokenFromReflection",
      "outputs": [
        {
          "internalType": "uint256",
          "name": "",
          "type": "uint256"
        }
      ],
      "stateMutability": "view",
      "type": "function"
    },
    {
      "inputs": [],
      "name": "totalFees",
      "outputs": [
        {
          "internalType": "uint256",
          "name": "",
          "type": "uint256"
        }
      ],
      "stateMutability": "view",
      "type": "function"
    },
    {
      "inputs": [],
      "name": "totalSupply",
      "outputs": [
        {
          "internalType": "uint256",
          "name": "",
          "type": "uint256"
        }
      ],
      "stateMutability": "view",
      "type": "function"
    },
    {
      "inputs": [],
      "name": "tradingEnabled",
      "outputs": [
        {
          "internalType": "bool",
          "name": "",
          "type": "bool"
        }
      ],
      "stateMutability": "view",
      "type": "function"
    },
    {
      "inputs": [
        {
          "internalType": "address",
          "name": "recipient",
          "type": "address"
        },
        {
          "internalType": "uint256",
          "name": "amount",
          "type": "uint256"
        }
      ],
      "name": "transfer",
      "outputs": [
        {
          "internalType": "bool",
          "name": "",
          "type": "bool"
        }
      ],
      "stateMutability": "nonpayable",
      "type": "function"
    },
    {
      "inputs": [
        {
          "internalType": "address",
          "name": "sender",
          "type": "address"
        },
        {
          "internalType": "address",
          "name": "recipient",
          "type": "address"
        },
        {
          "internalType": "uint256",
          "name": "amount",
          "type": "uint256"
        }
      ],
      "name": "transferFrom",
      "outputs": [
        {
          "internalType": "bool",
          "name": "",
          "type": "bool"
        }
      ],
      "stateMutability": "nonpayable",
      "type": "function"
    },
    {
      "inputs": [
        {
          "internalType": "address",
          "name": "newOwner",
          "type": "address"
        }
      ],
      "name": "transferOwnership",
      "outputs": [],
      "stateMutability": "nonpayable",
      "type": "function"
    },
    {
      "inputs": [],
      "name": "uniswapV2Pair",
      "outputs": [
        {
          "internalType": "address",
          "name": "",
          "type": "address"
        }
      ],
      "stateMutability": "view",
      "type": "function"
    },
    {
      "inputs": [],
      "name": "uniswapV2Router",
      "outputs": [
        {
          "internalType": "contract IUniswapV2Router02",
          "name": "",
          "type": "address"
        }
      ],
      "stateMutability": "view",
      "type": "function"
    },
    {
      "stateMutability": "payable",
      "type": "receive"
    }
  ],
  "bytecode": "0x60c0604052620000216e01564486fe5f40c38a77173cbc000060001962000404565b6200002f9060001962000427565b6008556040805180820190915260048152634644494360e01b6020820152600a906200005c9082620004f4565b506040805180820190915260048152634644494360e01b6020820152600b90620000879082620004f4565b50600c805460ff191660129081179091556002600d819055600e556001600f81905560108190556011556201518090556013805463ffff00ff1916620100001790556c2bcf6d706e7e2313ba28300000601455348015620000e757600080fd5b5060405162003a2338038062003a238339810160408190526200010a91620005dd565b816001600160a01b0381166200013a57604051631e4fbdf760e01b81526000600482015260240160405180910390fd5b6200014581620003b4565b506008543360009081526001602090815260409182902092909255805163c45a015560e01b8152905183926001600160a01b0384169263c45a015592600480830193928290030181865afa158015620001a2573d6000803e3d6000fd5b505050506040513d601f19601f82011682018060405250810190620001c8919062000615565b6001600160a01b031663c9c6539630836001600160a01b031663ad5c46486040518163ffffffff1660e01b8152600401602060405180830381865afa15801562000216573d6000803e3d6000fd5b505050506040513d601f19601f820116820180604052508101906200023c919062000615565b6040516001600160e01b031960e085901b1681526001600160a01b039283166004820152911660248201526044016020604051808303816000875af11580156200028a573d6000803e3d6000fd5b505050506040513d601f19601f82011682018060405250810190620002b0919062000615565b6001600160a01b0390811660a0528116608052600160056000620002dc6000546001600160a01b031690565b6001600160a01b03908116825260208083019390935260409182016000908120805495151560ff19968716179055308082526005855283822080548716600190811790915560a051909316825260069094528281208054861683179055928352912080549092161790556200034e3390565b6001600160a01b031660006001600160a01b03167fddf252ad1be2c89b69c2b068fc378daa952ba7f163c4a11628f55a4df523b3ef6e01564486fe5f40c38a77173cbc0000604051620003a391815260200190565b60405180910390a35050506200063a565b600080546001600160a01b038381166001600160a01b0319831681178455604051919092169283917f8be0079c531659141344cd1fd0a4f28419497f9722a3daafe3b4186f6b6457e09190a35050565b6000826200042257634e487b7160e01b600052601260045260246000fd5b500690565b818103818111156200044957634e487b7160e01b600052601160045260246000fd5b92915050565b634e487b7160e01b600052604160045260246000fd5b600181811c908216806200047a57607f821691505b6020821081036200049b57634e487b7160e01b600052602260045260246000fd5b50919050565b601f821115620004ef57600081815260208120601f850160051c81016020861015620004ca5750805b601f850160051c820191505b81811015620004eb57828155600101620004d6565b5050505b505050565b81516001600160401b038111156200051057620005106200044f565b620005288162000521845462000465565b84620004a1565b602080601f831160018114620005605760008415620005475750858301515b600019600386901b1c1916600185901b178555620004eb565b600085815260208120601f198616915b82811015620005915788860151825594840194600190910190840162000570565b5085821015620005b05787850151600019600388901b60f8161c191681555b5050505050600190811b01905550565b80516001600160a01b0381168114620005d857600080fd5b919050565b60008060408385031215620005f157600080fd5b620005fc83620005c0565b91506200060c60208401620005c0565b90509250929050565b6000602082840312156200062857600080fd5b6200063382620005c0565b9392505050565b60805160a0516133996200068a600039600081816105610152611fe70152600081816103e5015281816128820152818161293b0152818161299001528181612a020152612a2901526133996000f3fe6080604052600436106102eb5760003560e01c806370a0823111610184578063c49b9a80116100d6578063de2ccc8a1161008a578063f2cc0c1811610064578063f2cc0c181461087c578063f2fde38b1461089c578063f84354f1146108bc57600080fd5b8063de2ccc8a1461081c578063ea2f0b371461083c578063eb5690f81461085c57600080fd5b8063cba0e996116100bb578063cba0e9961461077d578063dcb3aa5f146107b6578063dd62ed3e146107d657600080fd5b8063c49b9a8014610727578063c9fc47071461074757600080fd5b80638ee88c5311610138578063a457c2d711610112578063a457c2d7146106cd578063a9059cbb146106ed578063ae574a901461070d57600080fd5b80638ee88c531461067857806395d89b41146106985780639e2d9575146106ad57600080fd5b806371ad4cc21161016957806371ad4cc21461062f5780638a8c523c146106455780638da5cb5b1461065a57600080fd5b806370a08231146105fa578063715018a61461061a57600080fd5b8063320d2fa01161023d5780634549b039116101f15780634ada218b116101cb5780634ada218b146105a35780634e2fa203146105c45780636bc87c3a146105e457600080fd5b80634549b0391461052f57806349bd5a5e1461054f5780634a74bb021461058357600080fd5b8063395093511161022257806339509351146104d95780633b124fe7146104f9578063437823ec1461050f57600080fd5b8063320d2fa0146104a357806337e12a57146104b957600080fd5b806316317e7e1161029f57806323b872dd1161027957806323b872dd146104415780632d83811914610461578063313ce5671461048157600080fd5b806316317e7e146103b35780631694505e146103d357806318160ddd1461041f57600080fd5b806306fdde03116102d057806306fdde0314610339578063095ea7b31461036457806313114a9d1461039457600080fd5b8063053ab182146102f7578063061c82d01461031957600080fd5b366102f257005b600080fd5b34801561030357600080fd5b50610317610312366004612fa3565b6108dc565b005b34801561032557600080fd5b50610317610334366004612fa3565b610a71565b34801561034557600080fd5b5061034e610a7e565b60405161035b9190612fbc565b60405180910390f35b34801561037057600080fd5b5061038461037f36600461301f565b610b10565b604051901515815260200161035b565b3480156103a057600080fd5b506009545b60405190815260200161035b565b3480156103bf57600080fd5b506103176103ce366004612fa3565b610b45565b3480156103df57600080fd5b506104077f000000000000000000000000000000000000000000000000000000000000000081565b6040516001600160a01b03909116815260200161035b565b34801561042b57600080fd5b506e01564486fe5f40c38a77173cbc00006103a5565b34801561044d57600080fd5b5061038461045c36600461304b565b610c23565b34801561046d57600080fd5b506103a561047c366004612fa3565b610d48565b34801561048d57600080fd5b50600c5460405160ff909116815260200161035b565b3480156104af57600080fd5b506103a560115481565b3480156104c557600080fd5b506103176104d436600461308c565b610ddf565b3480156104e557600080fd5b506103846104f436600461301f565b610ed4565b34801561050557600080fd5b506103a5600d5481565b34801561051b57600080fd5b5061031761052a366004613101565b610f0b565b34801561053b57600080fd5b506103a561054a366004613133565b610f37565b34801561055b57600080fd5b506104077f000000000000000000000000000000000000000000000000000000000000000081565b34801561058f57600080fd5b506013546103849062010000900460ff1681565b3480156105af57600080fd5b50601354610384906301000000900460ff1681565b3480156105d057600080fd5b506103176105df366004612fa3565b610fd1565b3480156105f057600080fd5b506103a5600f5481565b34801561060657600080fd5b506103a5610615366004613101565b6110cf565b34801561062657600080fd5b5061031761112e565b34801561063b57600080fd5b506103a560125481565b34801561065157600080fd5b50610317611142565b34801561066657600080fd5b506000546001600160a01b0316610407565b34801561068457600080fd5b50610317610693366004612fa3565b61115f565b3480156106a457600080fd5b5061034e61116c565b3480156106b957600080fd5b506103176106c8366004613101565b61117b565b3480156106d957600080fd5b506103846106e836600461301f565b611417565b3480156106f957600080fd5b5061038461070836600461301f565b6114f2565b34801561071957600080fd5b506013546103849060ff1681565b34801561073357600080fd5b5061031761074236600461315f565b611537565b34801561075357600080fd5b506103a5610762366004613101565b6001600160a01b031660009081526004602052604090205490565b34801561078957600080fd5b50610384610798366004613101565b6001600160a01b031660009081526006602052604090205460ff1690565b3480156107c257600080fd5b506103a56107d1366004613101565b611595565b3480156107e257600080fd5b506103a56107f136600461317a565b6001600160a01b03918216600090815260036020908152604080832093909416825291909152205490565b34801561082857600080fd5b50610317610837366004613101565b6115c6565b34801561084857600080fd5b50610317610857366004613101565b611809565b34801561086857600080fd5b506103a5610877366004613101565b611832565b34801561088857600080fd5b50610317610897366004613101565b611858565b3480156108a857600080fd5b506103176108b7366004613101565b611996565b3480156108c857600080fd5b506103176108d7366004613101565b6119ed565b3360008181526006602052604090205460ff16156109565760405162461bcd60e51b815260206004820152602c60248201527f4578636c75646564206164647265737365732063616e6e6f742063616c6c207460448201526b3434b990333ab731ba34b7b760a11b60648201526084015b60405180910390fd5b6011546e01564486fe5f40c38a77173cbc0000610972836110cf565b61097d9060646131c9565b61098791906131e0565b106109fa5760405162461bcd60e51b815260206004820152602f60248201527f43616e6e6f74207265666c6563742c206163636f756e7420686f6c6473206f7660448201527f6572203125206f6620737570706c790000000000000000000000000000000000606482015260840161094d565b6000610a0583611b9b565b505050506001600160a01b038416600090815260016020526040902054919250610a3191839150613202565b6001600160a01b038316600090815260016020526040902055600854610a58908290613202565b600855600954610a69908490613215565b600955505050565b610a79611bf2565b600d55565b6060600a8054610a8d90613228565b80601f0160208091040260200160405190810160405280929190818152602001828054610ab990613228565b8015610b065780601f10610adb57610100808354040283529160200191610b06565b820191906000526020600020905b815481529060010190602001808311610ae957829003601f168201915b5050505050905090565b6000610b1d338484611c38565b60135460ff1615610b3b573360009081526004602052604090204290555b5060015b92915050565b610b4d611bf2565b606481108015610b5b575060015b610bcd5760405162461bcd60e51b815260206004820152602160248201527f6d75737420626520612070657263656e742076616c75652066726f6d20302d3960448201527f3900000000000000000000000000000000000000000000000000000000000000606482015260840161094d565b6011548111610c1e5760405162461bcd60e51b815260206004820152601960248201527f63616e6e6f74206465637265617365207468726573686f6c6400000000000000604482015260640161094d565b601155565b6000610c30848484611d90565b6001600160a01b0384166000908152600360209081526040808320338452909152812054610c5f908490613202565b1015610cd35760405162461bcd60e51b815260206004820152602860248201527f45524332303a207472616e7366657220616d6f756e742065786365656473206160448201527f6c6c6f77616e6365000000000000000000000000000000000000000000000000606482015260840161094d565b6001600160a01b038416600090815260036020908152604080832033808552925290912054610d0e918691610d09908690613202565b611c38565b60135460ff1615610d3e573360009081526004602052604080822042908190556001600160a01b03861683529120555b5060019392505050565b6000600854821115610dc25760405162461bcd60e51b815260206004820152602a60248201527f416d6f756e74206d757374206265206c657373207468616e20746f74616c207260448201527f65666c656374696f6e7300000000000000000000000000000000000000000000606482015260840161094d565b6000610dcc6120b6565b9050610dd881846131e0565b9392505050565b610de7611bf2565b60135460ff1615610e5f5760405162461bcd60e51b8152602060048201526024808201527f6c69717569646174696f6e2068617320616c7265616479206265656e20656e6160448201527f626c656400000000000000000000000000000000000000000000000000000000606482015260840161094d565b6013805460ff1916600117905560005b81811015610ecf574260046000858585818110610e8e57610e8e613262565b9050602002016020810190610ea39190613101565b6001600160a01b0316815260208101919091526040016000205580610ec781613278565b915050610e6f565b505050565b3360008181526003602090815260408083206001600160a01b03871684529091528120549091610b1d918590610d09908690613215565b610f13611bf2565b6001600160a01b03166000908152600560205260409020805460ff19166001179055565b60006e01564486fe5f40c38a77173cbc0000831115610f985760405162461bcd60e51b815260206004820152601f60248201527f416d6f756e74206d757374206265206c657373207468616e20737570706c7900604482015260640161094d565b81610fb7576000610fa884611b9b565b50939550610b3f945050505050565b6000610fc284611b9b565b50929550610b3f945050505050565b610fd9611bf2565b620151808110156110525760405162461bcd60e51b815260206004820152603060248201527f6d696e696d756d2074696d6520666f72206163636f756e7420746f206265206960448201527f6e61637469766520697320312064617900000000000000000000000000000000606482015260840161094d565b6012548110156110ca5760405162461bcd60e51b815260206004820152602a60248201527f6e6577207468726573686f6c64206d757374206265206c61726765722074686160448201527f6e2070726576696f757300000000000000000000000000000000000000000000606482015260840161094d565b601255565b6001600160a01b03811660009081526006602052604081205460ff161561110c57506001600160a01b031660009081526002602052604090205490565b6001600160a01b038216600090815260016020526040902054610b3f90610d48565b611136611bf2565b61114060006120d9565b565b61114a611bf2565b6013805463ff00000019166301000000179055565b611167611bf2565b600f55565b6060600b8054610a8d90613228565b601354339060ff166111cf5760405162461bcd60e51b815260206004820152601e60248201527f4c69717569646174696f6e206973206e6f742079657420656e61626c65640000604482015260640161094d565b6001600160a01b03821660009081526006602052604090205460ff1615801561120657506000546001600160a01b03838116911614155b61125e5760405162461bcd60e51b815260206004820152602360248201527f43616e6e6f74206c6971756964617465206578636c756465642061646472657360448201526273657360e81b606482015260840161094d565b6001600160a01b03811660009081526006602052604090205460ff16156112dc5760405162461bcd60e51b815260206004820152602c60248201527f4578636c75646564206164647265737365732063616e6e6f742063616c6c207460448201526b3434b990333ab731ba34b7b760a11b606482015260840161094d565b6001600160a01b03821660009081526004602052604081205490036113435760405162461bcd60e51b815260206004820152601960248201527f4163636f756e74206973206e6f74206163746976652079657400000000000000604482015260640161094d565b6012546001600160a01b0383166000908152600460205260409020546113699042613202565b10156113b75760405162461bcd60e51b815260206004820152601760248201527f4163636f756e74206973206e6f7420696e616374697665000000000000000000604482015260640161094d565b60006113c2836110cf565b90506113cf828285612136565b604080516001600160a01b0385168152602081018390527fd23be8cd8d539869270c358a5a3fd798c2e4043dcef0d241cc67f9da77a2997891015b60405180910390a1505050565b3360009081526003602090815260408083206001600160a01b03861684529091528120548190611448908490613202565b10156114bc5760405162461bcd60e51b815260206004820152602560248201527f45524332303a2064656372656173656420616c6c6f77616e63652062656c6f7760448201527f207a65726f000000000000000000000000000000000000000000000000000000606482015260840161094d565b3360008181526003602090815260408083206001600160a01b0388168452909152902054610b1d91908590610d09908690613202565b60006114ff338484611d90565b60135460ff1615610b3b5750503360009081526004602052604080822042908190556001600160a01b03939093168252902055600190565b61153f611bf2565b60138054821515620100000262ff0000199091161790556040517f53726dfcaf90650aa7eb35524f4d3220f07413c8d6cb404cc8c18bf5591bc1599061158a90831515815260200190565b60405180910390a150565b60006e01564486fe5f40c38a77173cbc00006115b0836110cf565b6115bc906127106131c9565b610b3f91906131e0565b601354339060ff1661161a5760405162461bcd60e51b815260206004820152601e60248201527f4c69717569646174696f6e206973206e6f742079657420656e61626c65640000604482015260640161094d565b6001600160a01b03821660009081526006602052604090205460ff161561168f5760405162461bcd60e51b815260206004820152602360248201527f43616e6e6f74206c6971756964617465206578636c756465642061646472657360448201526273657360e81b606482015260840161094d565b6001600160a01b03811660009081526006602052604090205460ff161561170d5760405162461bcd60e51b815260206004820152602c60248201527f4578636c75646564206164647265737365732063616e6e6f742063616c6c207460448201526b3434b990333ab731ba34b7b760a11b606482015260840161094d565b6011546e01564486fe5f40c38a77173cbc0000611729846110cf565b6117349060646131c9565b61173e91906131e0565b10156117b25760405162461bcd60e51b815260206004820152603660248201527f57616c6c657420646f6573206e6f7420686f6c6420656e6f756768207065726360448201527f656e74616765206f6620746f74616c20737570706c7900000000000000000000606482015260840161094d565b60006117bd836110cf565b90506117ca828285612136565b604080516001600160a01b0385168152602081018390527f40cd76c2bc3213e2ae1610a5ee3de0dc3745761f4b848551783debd552dfa7e9910161140a565b611811611bf2565b6001600160a01b03166000908152600560205260409020805460ff19169055565b60006e01564486fe5f40c38a77173cbc000061184d836110cf565b6115bc9060646131c9565b611860611bf2565b6001600160a01b03811660009081526006602052604090205460ff16156118c95760405162461bcd60e51b815260206004820152601b60248201527f4163636f756e7420697320616c7265616479206578636c756465640000000000604482015260640161094d565b6001600160a01b03811660009081526001602052604090205415611923576001600160a01b03811660009081526001602052604090205461190990610d48565b6001600160a01b0382166000908152600260205260409020555b6001600160a01b03166000818152600660205260408120805460ff191660019081179091556007805491820181559091527fa66cc928b5edb82af9bd49922954155ab7b0942694bea4ce44661d9a8736c68801805473ffffffffffffffffffffffffffffffffffffffff19169091179055565b61199e611bf2565b6001600160a01b0381166119e1576040517f1e4fbdf70000000000000000000000000000000000000000000000000000000081526000600482015260240161094d565b6119ea816120d9565b50565b6119f5611bf2565b6001600160a01b03811660009081526006602052604090205460ff16611a5d5760405162461bcd60e51b815260206004820152601b60248201527f4163636f756e7420697320616c7265616479206578636c756465640000000000604482015260640161094d565b60005b600754811015611b9757816001600160a01b031660078281548110611a8757611a87613262565b6000918252602090912001546001600160a01b031603611b855760078054611ab190600190613202565b81548110611ac157611ac1613262565b600091825260209091200154600780546001600160a01b039092169183908110611aed57611aed613262565b6000918252602080832091909101805473ffffffffffffffffffffffffffffffffffffffff19166001600160a01b039485161790559184168152600282526040808220829055600690925220805460ff191690556007805480611b5257611b52613291565b6000828152602090208101600019908101805473ffffffffffffffffffffffffffffffffffffffff191690550190555050565b80611b8f81613278565b915050611a60565b5050565b6000806000806000806000806000611bb28a612310565b9250925092506000611bc26120b6565b90506000806000611bd58e878688612353565b919e509c509a509598509396509194505050505091939550919395565b6000546001600160a01b03163314611140576040517f118cdaa700000000000000000000000000000000000000000000000000000000815233600482015260240161094d565b6001600160a01b038316611cb35760405162461bcd60e51b8152602060048201526024808201527f45524332303a20617070726f76652066726f6d20746865207a65726f2061646460448201527f7265737300000000000000000000000000000000000000000000000000000000606482015260840161094d565b6001600160a01b038216611d2f5760405162461bcd60e51b815260206004820152602260248201527f45524332303a20617070726f766520746f20746865207a65726f20616464726560448201527f7373000000000000000000000000000000000000000000000000000000000000606482015260840161094d565b6001600160a01b0383811660008181526003602090815260408083209487168084529482529182902085905590518481527f8c5be1e5ebec7d5bd14f71427d1e84f3dd0314c0f7b2291e5b200ac8c7c3b925910160405180910390a3505050565b6013546301000000900460ff16611e5a576001600160a01b03831660009081526005602052604090205460ff161515600114611e5a5760405162461bcd60e51b815260206004820152604160248201527f54726164696e67206973206e6f742079657420656e61626c65642c206f6e636560448201527f2070726573616c652069732066696e69736865642069742077696c6c206f706560648201527f6e00000000000000000000000000000000000000000000000000000000000000608482015260a40161094d565b6001600160a01b038316611ed65760405162461bcd60e51b815260206004820152602560248201527f45524332303a207472616e736665722066726f6d20746865207a65726f20616460448201527f6472657373000000000000000000000000000000000000000000000000000000606482015260840161094d565b6001600160a01b038216611f525760405162461bcd60e51b815260206004820152602360248201527f45524332303a207472616e7366657220746f20746865207a65726f206164647260448201527f6573730000000000000000000000000000000000000000000000000000000000606482015260840161094d565b60008111611fc85760405162461bcd60e51b815260206004820152602960248201527f5472616e7366657220616d6f756e74206d75737420626520677265617465722060448201527f7468616e207a65726f0000000000000000000000000000000000000000000000606482015260840161094d565b6000611fd3306110cf565b6014549091508110801590819061201c57507f00000000000000000000000000000000000000000000000000000000000000006001600160a01b0316856001600160a01b031614155b80156120305750601354610100900460ff16155b8015612044575060135462010000900460ff165b15612057576014549150612057826123aa565b6001600160a01b03851660009081526005602052604090205460019060ff168061209957506001600160a01b03851660009081526005602052604090205460ff165b156120a2575060005b6120ae8686868461244b565b505050505050565b60008060006120c36125c8565b90925090506120d281836131e0565b9250505090565b600080546001600160a01b0383811673ffffffffffffffffffffffffffffffffffffffff19831681178455604051919092169283917f8be0079c531659141344cd1fd0a4f28419497f9722a3daafe3b4186f6b6457e09190a35050565b600061214183611b9b565b505050505090506000606482600561215991906131c9565b61216391906131e0565b9050600060646121748660056131c9565b61217e91906131e0565b9050600061218c8385613202565b9050836121998285613215565b1461220c5760405162461bcd60e51b815260206004820152602a60248201527f7266656520616e6420725265666c656374696f6e20646f206e6f742073756d2060448201527f746f2072416d6f756e7400000000000000000000000000000000000000000000606482015260840161094d565b6001600160a01b038516600090815260016020526040902054612230908590613202565b6001600160a01b0380871660009081526001602052604090209190915530908816036122645761225f8261277d565b6122e5565b6001600160a01b038716600090815260016020526040902054612288908490613215565b6001600160a01b0380891660008181526001602052604090819020939093559151908716907fddf252ad1be2c89b69c2b068fc378daa952ba7f163c4a11628f55a4df523b3ef906122dc9086815260200190565b60405180910390a35b806008546122f39190613202565b600855600954612304908790613215565b60095550505050505050565b60008060008061231f85612807565b9050600061232c86612819565b905060008161233b8489613202565b6123459190613202565b979296509094509092505050565b600080808061236286896131c9565b9050600061237087896131c9565b9050600061237e88886131c9565b905060008161238d8486613202565b6123979190613202565b939b939a50919850919650505050505050565b6013805461ff00191661010017905560006123c66002836131e0565b905060006123d48284613202565b9050476123e08361282b565b60006123ec8247613202565b90506123f883826129fc565b60408051858152602081018390529081018490527f17bbfb9a6069321b6ded73bd96327c9e6b7212a5cd51ff219cd61370acafb5619060600160405180910390a150506013805461ff0019169055505050565b8061245857612458612b1a565b6001600160a01b03841660009081526006602052604090205460ff16801561249957506001600160a01b03831660009081526006602052604090205460ff16155b156124ae576124a9848484612b48565b6125ac565b6001600160a01b03841660009081526006602052604090205460ff161580156124ef57506001600160a01b03831660009081526006602052604090205460ff165b156124ff576124a9848484612c7a565b6001600160a01b03841660009081526006602052604090205460ff1615801561254157506001600160a01b03831660009081526006602052604090205460ff16155b15612551576124a9848484612d5b565b6001600160a01b03841660009081526006602052604090205460ff16801561259157506001600160a01b03831660009081526006602052604090205460ff165b156125a1576124a9848484612e05565b6125ac848484612d5b565b806125c2576125c2600e54600d55601054600f55565b50505050565b60085460009081906e01564486fe5f40c38a77173cbc0000825b6007548110156127335782600160006007848154811061260457612604613262565b60009182526020808320909101546001600160a01b03168352820192909252604001902054118061266f575081600260006007848154811061264857612648613262565b60009182526020808320909101546001600160a01b03168352820192909252604001902054115b15612691575050600854936e01564486fe5f40c38a77173cbc00009350915050565b60016000600783815481106126a8576126a8613262565b60009182526020808320909101546001600160a01b031683528201929092526040019020546126d79084613202565b925060026000600783815481106126f0576126f0613262565b60009182526020808320909101546001600160a01b0316835282019290925260400190205461271f9083613202565b91508061272b81613278565b9150506125e2565b506e01564486fe5f40c38a77173cbc000060085461275191906131e0565b821015612774575050600854926e01564486fe5f40c38a77173cbc000092509050565b90939092509050565b60006127876120b6565b9050600061279582846131c9565b306000908152600160205260409020549091506127b3908290613215565b3060009081526001602090815260408083209390935560069052205460ff1615610ecf57306000908152600260205260409020546127f2908490613215565b30600090815260026020526040902055505050565b60006064600d54836115bc91906131c9565b60006064600f54836115bc91906131c9565b604080516002808252606082018352600092602083019080368337019050509050308160008151811061286057612860613262565b60200260200101906001600160a01b031690816001600160a01b0316815250507f00000000000000000000000000000000000000000000000000000000000000006001600160a01b031663ad5c46486040518163ffffffff1660e01b8152600401602060405180830381865afa1580156128de573d6000803e3d6000fd5b505050506040513d601f19601f8201168201806040525081019061290291906132a7565b8160018151811061291557612915613262565b60200260200101906001600160a01b031690816001600160a01b031681525050612960307f000000000000000000000000000000000000000000000000000000000000000084611c38565b6040517f791ac9470000000000000000000000000000000000000000000000000000000081526001600160a01b037f0000000000000000000000000000000000000000000000000000000000000000169063791ac947906129ce9085906000908690309042906004016132c4565b600060405180830381600087803b1580156129e857600080fd5b505af11580156120ae573d6000803e3d6000fd5b612a27307f000000000000000000000000000000000000000000000000000000000000000084611c38565b7f00000000000000000000000000000000000000000000000000000000000000006001600160a01b031663f305d719823085600080612a6e6000546001600160a01b031690565b60405160e088901b7fffffffff000000000000000000000000000000000000000000000000000000001681526001600160a01b03958616600482015260248101949094526044840192909252606483015290911660848201524260a482015260c40160606040518083038185885af1158015612aee573d6000803e3d6000fd5b50505050506040513d601f19601f82011682018060405250810190612b139190613335565b5050505050565b600d54158015612b2a5750600f54155b15612b3157565b600d8054600e55600f805460105560009182905555565b600080600080600080612b5a87611b9b565b6001600160a01b038f16600090815260026020526040902054959b50939950919750955093509150612b8d908890613202565b6001600160a01b038a16600090815260026020908152604080832093909355600190522054612bbd908790613202565b6001600160a01b03808b1660009081526001602052604080822093909355908a1681522054612bed908690613215565b6001600160a01b038916600090815260016020526040902055612c0f8161277d565b612c198483612f00565b612c2288612f26565b876001600160a01b0316896001600160a01b03167fddf252ad1be2c89b69c2b068fc378daa952ba7f163c4a11628f55a4df523b3ef85604051612c6791815260200190565b60405180910390a3505050505050505050565b600080600080600080612c8c87611b9b565b6001600160a01b038f16600090815260016020526040902054959b50939950919750955093509150612cbf908790613202565b6001600160a01b03808b16600090815260016020908152604080832094909455918b16815260029091522054612cf6908490613215565b6001600160a01b038916600090815260026020908152604080832093909355600190522054612d26908690613215565b6001600160a01b038916600090815260016020526040902055612d488161277d565b612d5189612f26565b612c228483612f00565b600080600080600080612d6d87611b9b565b6001600160a01b038f16600090815260016020526040902054959b50939950919750955093509150612da0908790613202565b6001600160a01b03808b1660009081526001602052604080822093909355908a1681522054612dd0908690613215565b6001600160a01b038916600090815260016020526040902055612df28161277d565b612dfc8483612f00565b612c1989612f26565b600080600080600080612e1787611b9b565b6001600160a01b038f16600090815260026020526040902054959b50939950919750955093509150612e4a908890613202565b6001600160a01b038a16600090815260026020908152604080832093909355600190522054612e7a908790613202565b6001600160a01b03808b16600090815260016020908152604080832094909455918b16815260029091522054612eb1908490613215565b6001600160a01b038916600090815260026020908152604080832093909355600190522054612ee1908690613215565b6001600160a01b038916600090815260016020526040902055612c2284835b81600854612f0e9190613202565b600855600954612f1f908290613215565b6009555050565b600080546001600160a01b031690612f3d836110cf565b6011549091506e01564486fe5f40c38a77173cbc0000612f5e8360646131c9565b612f6891906131e0565b10158015612f885750816001600160a01b0316836001600160a01b031614155b15610ecf5760135460ff1615610ecf576117ca308285612136565b600060208284031215612fb557600080fd5b5035919050565b600060208083528351808285015260005b81811015612fe957858101830151858201604001528201612fcd565b506000604082860101526040601f19601f8301168501019250505092915050565b6001600160a01b03811681146119ea57600080fd5b6000806040838503121561303257600080fd5b823561303d8161300a565b946020939093013593505050565b60008060006060848603121561306057600080fd5b833561306b8161300a565b9250602084013561307b8161300a565b929592945050506040919091013590565b6000806020838503121561309f57600080fd5b823567ffffffffffffffff808211156130b757600080fd5b818501915085601f8301126130cb57600080fd5b8135818111156130da57600080fd5b8660208260051b85010111156130ef57600080fd5b60209290920196919550909350505050565b60006020828403121561311357600080fd5b8135610dd88161300a565b8035801515811461312e57600080fd5b919050565b6000806040838503121561314657600080fd5b823591506131566020840161311e565b90509250929050565b60006020828403121561317157600080fd5b610dd88261311e565b6000806040838503121561318d57600080fd5b82356131988161300a565b915060208301356131a88161300a565b809150509250929050565b634e487b7160e01b600052601160045260246000fd5b8082028115828204841417610b3f57610b3f6131b3565b6000826131fd57634e487b7160e01b600052601260045260246000fd5b500490565b81810381811115610b3f57610b3f6131b3565b80820180821115610b3f57610b3f6131b3565b600181811c9082168061323c57607f821691505b60208210810361325c57634e487b7160e01b600052602260045260246000fd5b50919050565b634e487b7160e01b600052603260045260246000fd5b60006001820161328a5761328a6131b3565b5060010190565b634e487b7160e01b600052603160045260246000fd5b6000602082840312156132b957600080fd5b8151610dd88161300a565b600060a082018783526020878185015260a0604085015281875180845260c086019150828901935060005b818110156133145784516001600160a01b0316835293830193918301916001016132ef565b50506001600160a01b03969096166060850152505050608001529392505050565b60008060006060848603121561334a57600080fd5b835192506020840151915060408401519050925092509256fea264697066735822122083301e3611d0ae073ef2e3d062513a235ec43ab2e5d1d3d4b0f4344473fee12e64736f6c63430008140033",
  "linkReferences": {},
  "deployedLinkReferences": {}
}