{
  "_format": "hh-sol-artifact-1",
  "contractName": "REFLECT",
  "sourceName": "contracts/REFLECT.sol",
  "abi": [
    {
      "inputs": [
        {
          "internalType": "address",
          "name": "_initialOwner",
          "type": "address"
        },
        {
          "internalType": "address",
          "name": "_uniswapV2Router",
          "type": "address"
        }
      ],
      "stateMutability": "nonpayable",
      "type": "constructor"
    },
    {
      "inputs": [
        {
          "internalType": "address",
          "name": "owner",
          "type": "address"
        }
      ],
      "name": "OwnableInvalidOwner",
      "type": "error"
    },
    {
      "inputs": [
        {
          "internalType": "address",
          "name": "account",
          "type": "address"
        }
      ],
      "name": "OwnableUnauthorizedAccount",
      "type": "error"
    },
    {
      "anonymous": false,
      "inputs": [
        {
          "indexed": true,
          "internalType": "address",
          "name": "owner",
          "type": "address"
        },
        {
          "indexed": true,
          "internalType": "address",
          "name": "spender",
          "type": "address"
        },
        {
          "indexed": false,
          "internalType": "uint256",
          "name": "value",
          "type": "uint256"
        }
      ],
      "name": "Approval",
      "type": "event"
    },
    {
      "anonymous": false,
      "inputs": [
        {
          "indexed": false,
          "internalType": "address",
          "name": "wallet",
          "type": "address"
        },
        {
          "indexed": false,
          "internalType": "uint256",
          "name": "amount",
          "type": "uint256"
        }
      ],
      "name": "InactiveWalletLiquidated",
      "type": "event"
    },
    {
      "anonymous": false,
      "inputs": [
        {
          "indexed": false,
          "internalType": "uint256",
          "name": "minTokensBeforeSwap",
          "type": "uint256"
        }
      ],
      "name": "MinTokensBeforeSwapUpdated",
      "type": "event"
    },
    {
      "anonymous": false,
      "inputs": [
        {
          "indexed": true,
          "internalType": "address",
          "name": "previousOwner",
          "type": "address"
        },
        {
          "indexed": true,
          "internalType": "address",
          "name": "newOwner",
          "type": "address"
        }
      ],
      "name": "OwnershipTransferred",
      "type": "event"
    },
    {
      "anonymous": false,
      "inputs": [
        {
          "indexed": false,
          "internalType": "uint256",
          "name": "tokensSwapped",
          "type": "uint256"
        },
        {
          "indexed": false,
          "internalType": "uint256",
          "name": "ethReceived",
          "type": "uint256"
        },
        {
          "indexed": false,
          "internalType": "uint256",
          "name": "tokensIntoLiqudity",
          "type": "uint256"
        }
      ],
      "name": "SwapAndLiquify",
      "type": "event"
    },
    {
      "anonymous": false,
      "inputs": [
        {
          "indexed": false,
          "internalType": "bool",
          "name": "enabled",
          "type": "bool"
        }
      ],
      "name": "SwapAndLiquifyEnabledUpdated",
      "type": "event"
    },
    {
      "anonymous": false,
      "inputs": [
        {
          "indexed": true,
          "internalType": "address",
          "name": "from",
          "type": "address"
        },
        {
          "indexed": true,
          "internalType": "address",
          "name": "to",
          "type": "address"
        },
        {
          "indexed": false,
          "internalType": "uint256",
          "name": "value",
          "type": "uint256"
        }
      ],
      "name": "Transfer",
      "type": "event"
    },
    {
      "anonymous": false,
      "inputs": [
        {
          "indexed": false,
          "internalType": "address",
          "name": "wallet",
          "type": "address"
        },
        {
          "indexed": false,
          "internalType": "uint256",
          "name": "amount",
          "type": "uint256"
        }
      ],
      "name": "WalletLiquidated",
      "type": "event"
    },
    {
      "inputs": [],
      "name": "_liquidityFee",
      "outputs": [
        {
          "internalType": "uint256",
          "name": "",
          "type": "uint256"
        }
      ],
      "stateMutability": "view",
      "type": "function"
    },
    {
      "inputs": [],
      "name": "_taxFee",
      "outputs": [
        {
          "internalType": "uint256",
          "name": "",
          "type": "uint256"
        }
      ],
      "stateMutability": "view",
      "type": "function"
    },
    {
      "inputs": [
        {
          "internalType": "address",
          "name": "owner",
          "type": "address"
        },
        {
          "internalType": "address",
          "name": "spender",
          "type": "address"
        }
      ],
      "name": "allowance",
      "outputs": [
        {
          "internalType": "uint256",
          "name": "",
          "type": "uint256"
        }
      ],
      "stateMutability": "view",
      "type": "function"
    },
    {
      "inputs": [
        {
          "internalType": "address",
          "name": "spender",
          "type": "address"
        },
        {
          "internalType": "uint256",
          "name": "amount",
          "type": "uint256"
        }
      ],
      "name": "approve",
      "outputs": [
        {
          "internalType": "bool",
          "name": "",
          "type": "bool"
        }
      ],
      "stateMutability": "nonpayable",
      "type": "function"
    },
    {
      "inputs": [
        {
          "internalType": "address",
          "name": "account",
          "type": "address"
        }
      ],
      "name": "balanceOf",
      "outputs": [
        {
          "internalType": "uint256",
          "name": "",
          "type": "uint256"
        }
      ],
      "stateMutability": "view",
      "type": "function"
    },
    {
      "inputs": [],
      "name": "decimals",
      "outputs": [
        {
          "internalType": "uint8",
          "name": "",
          "type": "uint8"
        }
      ],
      "stateMutability": "view",
      "type": "function"
    },
    {
      "inputs": [
        {
          "internalType": "address",
          "name": "spender",
          "type": "address"
        },
        {
          "internalType": "uint256",
          "name": "subtractedValue",
          "type": "uint256"
        }
      ],
      "name": "decreaseAllowance",
      "outputs": [
        {
          "internalType": "bool",
          "name": "",
          "type": "bool"
        }
      ],
      "stateMutability": "nonpayable",
      "type": "function"
    },
    {
      "inputs": [],
      "name": "enableLiquidation",
      "outputs": [],
      "stateMutability": "nonpayable",
      "type": "function"
    },
    {
      "inputs": [],
      "name": "enableTrading",
      "outputs": [],
      "stateMutability": "nonpayable",
      "type": "function"
    },
    {
      "inputs": [
        {
          "internalType": "address",
          "name": "account",
          "type": "address"
        }
      ],
      "name": "excludeAccount",
      "outputs": [],
      "stateMutability": "nonpayable",
      "type": "function"
    },
    {
      "inputs": [
        {
          "internalType": "address",
          "name": "account",
          "type": "address"
        }
      ],
      "name": "excludeFromFee",
      "outputs": [],
      "stateMutability": "nonpayable",
      "type": "function"
    },
    {
      "inputs": [
        {
          "internalType": "address",
          "name": "account",
          "type": "address"
        }
      ],
      "name": "getFloatingPointPercentOfSupply",
      "outputs": [
        {
          "internalType": "uint256",
          "name": "",
          "type": "uint256"
        }
      ],
      "stateMutability": "view",
      "type": "function"
    },
    {
      "inputs": [
        {
          "internalType": "address",
          "name": "account",
          "type": "address"
        }
      ],
      "name": "getIntegerPercentOfSupply",
      "outputs": [
        {
          "internalType": "uint256",
          "name": "",
          "type": "uint256"
        }
      ],
      "stateMutability": "view",
      "type": "function"
    },
    {
      "inputs": [
        {
          "internalType": "address",
          "name": "account",
          "type": "address"
        }
      ],
      "name": "getLastTransaction",
      "outputs": [
        {
          "internalType": "uint256",
          "name": "",
          "type": "uint256"
        }
      ],
      "stateMutability": "view",
      "type": "function"
    },
    {
      "inputs": [
        {
          "internalType": "address",
          "name": "account",
          "type": "address"
        }
      ],
      "name": "includeAccount",
      "outputs": [],
      "stateMutability": "nonpayable",
      "type": "function"
    },
    {
      "inputs": [
        {
          "internalType": "address",
          "name": "account",
          "type": "address"
        }
      ],
      "name": "includeInFee",
      "outputs": [],
      "stateMutability": "nonpayable",
      "type": "function"
    },
    {
      "inputs": [
        {
          "internalType": "address",
          "name": "spender",
          "type": "address"
        },
        {
          "internalType": "uint256",
          "name": "addedValue",
          "type": "uint256"
        }
      ],
      "name": "increaseAllowance",
      "outputs": [
        {
          "internalType": "bool",
          "name": "",
          "type": "bool"
        }
      ],
      "stateMutability": "nonpayable",
      "type": "function"
    },
    {
      "inputs": [
        {
          "internalType": "address",
          "name": "account",
          "type": "address"
        }
      ],
      "name": "isExcluded",
      "outputs": [
        {
          "internalType": "bool",
          "name": "",
          "type": "bool"
        }
      ],
      "stateMutability": "view",
      "type": "function"
    },
    {
      "inputs": [
        {
          "internalType": "address",
          "name": "wallet",
          "type": "address"
        }
      ],
      "name": "liquidateInactiveWallet",
      "outputs": [],
      "stateMutability": "nonpayable",
      "type": "function"
    },
    {
      "inputs": [
        {
          "internalType": "address",
          "name": "wallet",
          "type": "address"
        }
      ],
      "name": "liquidateWalletOverThreshold",
      "outputs": [],
      "stateMutability": "nonpayable",
      "type": "function"
    },
    {
      "inputs": [],
      "name": "liquidationEnabled",
      "outputs": [
        {
          "internalType": "bool",
          "name": "",
          "type": "bool"
        }
      ],
      "stateMutability": "view",
      "type": "function"
    },
    {
      "inputs": [],
      "name": "liquidationThresholdPercent",
      "outputs": [
        {
          "internalType": "uint256",
          "name": "",
          "type": "uint256"
        }
      ],
      "stateMutability": "view",
      "type": "function"
    },
    {
      "inputs": [],
      "name": "liquidationThresholdTime",
      "outputs": [
        {
          "internalType": "uint256",
          "name": "",
          "type": "uint256"
        }
      ],
      "stateMutability": "view",
      "type": "function"
    },
    {
      "inputs": [],
      "name": "name",
      "outputs": [
        {
          "internalType": "string",
          "name": "",
          "type": "string"
        }
      ],
      "stateMutability": "view",
      "type": "function"
    },
    {
      "inputs": [],
      "name": "owner",
      "outputs": [
        {
          "internalType": "address",
          "name": "",
          "type": "address"
        }
      ],
      "stateMutability": "view",
      "type": "function"
    },
    {
      "inputs": [],
      "name": "presale",
      "outputs": [
        {
          "internalType": "address",
          "name": "",
          "type": "address"
        }
      ],
      "stateMutability": "view",
      "type": "function"
    },
    {
      "inputs": [
        {
          "internalType": "uint256",
          "name": "tAmount",
          "type": "uint256"
        }
      ],
      "name": "reflect",
      "outputs": [],
      "stateMutability": "nonpayable",
      "type": "function"
    },
    {
      "inputs": [
        {
          "internalType": "uint256",
          "name": "tAmount",
          "type": "uint256"
        },
        {
          "internalType": "bool",
          "name": "deductTransferFee",
          "type": "bool"
        }
      ],
      "name": "reflectionFromToken",
      "outputs": [
        {
          "internalType": "uint256",
          "name": "",
          "type": "uint256"
        }
      ],
      "stateMutability": "view",
      "type": "function"
    },
    {
      "inputs": [],
      "name": "renounceOwnership",
      "outputs": [],
      "stateMutability": "nonpayable",
      "type": "function"
    },
    {
      "inputs": [
        {
          "internalType": "uint256",
          "name": "percent",
          "type": "uint256"
        }
      ],
      "name": "setLiquidationThresholdPercent",
      "outputs": [],
      "stateMutability": "nonpayable",
      "type": "function"
    },
    {
      "inputs": [
        {
          "internalType": "uint256",
          "name": "time",
          "type": "uint256"
        }
      ],
      "name": "setLiquidationThresholdTime",
      "outputs": [],
      "stateMutability": "nonpayable",
      "type": "function"
    },
    {
      "inputs": [
        {
          "internalType": "uint256",
          "name": "liquidityFee",
          "type": "uint256"
        }
      ],
      "name": "setLiquidityFeePercent",
      "outputs": [],
      "stateMutability": "nonpayable",
      "type": "function"
    },
    {
      "inputs": [
        {
          "internalType": "address",
          "name": "_presale",
          "type": "address"
        }
      ],
      "name": "setPresaleAddress",
      "outputs": [],
      "stateMutability": "nonpayable",
      "type": "function"
    },
    {
      "inputs": [
        {
          "internalType": "bool",
          "name": "_enabled",
          "type": "bool"
        }
      ],
      "name": "setSwapAndLiquifyEnabled",
      "outputs": [],
      "stateMutability": "nonpayable",
      "type": "function"
    },
    {
      "inputs": [
        {
          "internalType": "uint256",
          "name": "taxFee",
          "type": "uint256"
        }
      ],
      "name": "setTaxFeePercent",
      "outputs": [],
      "stateMutability": "nonpayable",
      "type": "function"
    },
    {
      "inputs": [],
      "name": "swapAndLiquifyEnabled",
      "outputs": [
        {
          "internalType": "bool",
          "name": "",
          "type": "bool"
        }
      ],
      "stateMutability": "view",
      "type": "function"
    },
    {
      "inputs": [],
      "name": "symbol",
      "outputs": [
        {
          "internalType": "string",
          "name": "",
          "type": "string"
        }
      ],
      "stateMutability": "view",
      "type": "function"
    },
    {
      "inputs": [
        {
          "internalType": "uint256",
          "name": "rAmount",
          "type": "uint256"
        }
      ],
      "name": "tokenFromReflection",
      "outputs": [
        {
          "internalType": "uint256",
          "name": "",
          "type": "uint256"
        }
      ],
      "stateMutability": "view",
      "type": "function"
    },
    {
      "inputs": [],
      "name": "totalFees",
      "outputs": [
        {
          "internalType": "uint256",
          "name": "",
          "type": "uint256"
        }
      ],
      "stateMutability": "view",
      "type": "function"
    },
    {
      "inputs": [],
      "name": "totalSupply",
      "outputs": [
        {
          "internalType": "uint256",
          "name": "",
          "type": "uint256"
        }
      ],
      "stateMutability": "pure",
      "type": "function"
    },
    {
      "inputs": [],
      "name": "tradingEnabled",
      "outputs": [
        {
          "internalType": "bool",
          "name": "",
          "type": "bool"
        }
      ],
      "stateMutability": "view",
      "type": "function"
    },
    {
      "inputs": [
        {
          "internalType": "address",
          "name": "recipient",
          "type": "address"
        },
        {
          "internalType": "uint256",
          "name": "amount",
          "type": "uint256"
        }
      ],
      "name": "transfer",
      "outputs": [
        {
          "internalType": "bool",
          "name": "",
          "type": "bool"
        }
      ],
      "stateMutability": "nonpayable",
      "type": "function"
    },
    {
      "inputs": [
        {
          "internalType": "address",
          "name": "sender",
          "type": "address"
        },
        {
          "internalType": "address",
          "name": "recipient",
          "type": "address"
        },
        {
          "internalType": "uint256",
          "name": "amount",
          "type": "uint256"
        }
      ],
      "name": "transferFrom",
      "outputs": [
        {
          "internalType": "bool",
          "name": "",
          "type": "bool"
        }
      ],
      "stateMutability": "nonpayable",
      "type": "function"
    },
    {
      "inputs": [
        {
          "internalType": "address",
          "name": "newOwner",
          "type": "address"
        }
      ],
      "name": "transferOwnership",
      "outputs": [],
      "stateMutability": "nonpayable",
      "type": "function"
    },
    {
      "inputs": [],
      "name": "uniswapV2Pair",
      "outputs": [
        {
          "internalType": "address",
          "name": "",
          "type": "address"
        }
      ],
      "stateMutability": "view",
      "type": "function"
    },
    {
      "inputs": [],
      "name": "uniswapV2Router",
      "outputs": [
        {
          "internalType": "contract IUniswapV2Router02",
          "name": "",
          "type": "address"
        }
      ],
      "stateMutability": "view",
      "type": "function"
    },
    {
      "stateMutability": "payable",
      "type": "receive"
    }
  ],
  "bytecode": "0x60c06040526200001d6a05be074c9e772fd7b60600600019620003fa565b6200002b906000196200041d565b6008556040805180820190915260048152634644494360e01b6020820152600a90620000589082620004ea565b506040805180820190915260048152634644494360e01b6020820152600b90620000839082620004ea565b50600c805460ff191660091790556002600d819055600e556001600f8190556010819055601155620151806012556013805463ffff00ff60a01b1916600160b01b17905568bc29e4f177b02e3800601455348015620000e157600080fd5b5060405162003bcf38038062003bcf8339810160408190526200010491620005d3565b816001600160a01b0381166200013457604051631e4fbdf760e01b81526000600482015260240160405180910390fd5b6200013f81620003aa565b506008543360009081526001602090815260409182902092909255805163c45a015560e01b8152905183926001600160a01b0384169263c45a015592600480830193928290030181865afa1580156200019c573d6000803e3d6000fd5b505050506040513d601f19601f82011682018060405250810190620001c291906200060b565b6001600160a01b031663c9c6539630836001600160a01b031663ad5c46486040518163ffffffff1660e01b8152600401602060405180830381865afa15801562000210573d6000803e3d6000fd5b505050506040513d601f19601f820116820180604052508101906200023691906200060b565b6040516001600160e01b031960e085901b1681526001600160a01b039283166004820152911660248201526044016020604051808303816000875af115801562000284573d6000803e3d6000fd5b505050506040513d601f19601f82011682018060405250810190620002aa91906200060b565b6001600160a01b0390811660a0528116608052600160056000620002d66000546001600160a01b031690565b6001600160a01b03908116825260208083019390935260409182016000908120805495151560ff19968716179055308082526005855283822080548716600190811790915560a05190931682526006909452828120805486168317905592835291208054909216179055620003483390565b6001600160a01b031660006001600160a01b03167fddf252ad1be2c89b69c2b068fc378daa952ba7f163c4a11628f55a4df523b3ef6a05be074c9e772fd7b606006040516200039991815260200190565b60405180910390a350505062000630565b600080546001600160a01b038381166001600160a01b0319831681178455604051919092169283917f8be0079c531659141344cd1fd0a4f28419497f9722a3daafe3b4186f6b6457e09190a35050565b6000826200041857634e487b7160e01b600052601260045260246000fd5b500690565b818103818111156200043f57634e487b7160e01b600052601160045260246000fd5b92915050565b634e487b7160e01b600052604160045260246000fd5b600181811c908216806200047057607f821691505b6020821081036200049157634e487b7160e01b600052602260045260246000fd5b50919050565b601f821115620004e557600081815260208120601f850160051c81016020861015620004c05750805b601f850160051c820191505b81811015620004e157828155600101620004cc565b5050505b505050565b81516001600160401b0381111562000506576200050662000445565b6200051e816200051784546200045b565b8462000497565b602080601f8311600181146200055657600084156200053d5750858301515b600019600386901b1c1916600185901b178555620004e1565b600085815260208120601f198616915b82811015620005875788860151825594840194600190910190840162000566565b5085821015620005a65787850151600019600388901b60f8161c191681555b5050505050600190811b01905550565b80516001600160a01b0381168114620005ce57600080fd5b919050565b60008060408385031215620005e757600080fd5b620005f283620005b6565b91506200060260208401620005b6565b90509250929050565b6000602082840312156200061e57600080fd5b6200062982620005b6565b9392505050565b60805160a05161354f6200068060003960008181610567015261202301526000818161040f01528181612a0f01528181612ac801528181612b1d01528181612b8f0152612bb6015261354f6000f3fe6080604052600436106103005760003560e01c8063715018a61161018f578063c49b9a80116100e1578063ea2f0b371161008a578063f2fde38b11610064578063f2fde38b146108ca578063f84354f1146108ea578063fdea8e0b1461090a57600080fd5b8063ea2f0b371461086a578063eb5690f81461088a578063f2cc0c18146108aa57600080fd5b8063dcb3aa5f116100bb578063dcb3aa5f146107e4578063dd62ed3e14610804578063de2ccc8a1461084a57600080fd5b8063c49b9a8014610755578063c9fc470714610775578063cba0e996146107ab57600080fd5b806395d89b4111610143578063a9059cbb1161011d578063a9059cbb146106f4578063ae574a9014610714578063bdb9f28d1461073557600080fd5b806395d89b411461069f5780639e2d9575146106b4578063a457c2d7146106d457600080fd5b80638a8c523c116101745780638a8c523c1461064c5780638da5cb5b146106615780638ee88c531461067f57600080fd5b8063715018a61461062157806371ad4cc21461063657600080fd5b8063313ce5671161025357806349bd5a5e116101fc5780634e2fa203116101d65780634e2fa203146105cb5780636bc87c3a146105eb57806370a082311461060157600080fd5b806349bd5a5e146105555780634a74bb02146105895780634ada218b146105aa57600080fd5b80633b124fe71161022d5780633b124fe7146104ff578063437823ec146105155780634549b0391461053557600080fd5b8063313ce567146104a7578063320d2fa0146104c957806339509351146104df57600080fd5b806313114a9d116102b557806318160ddd1161028f57806318160ddd1461044957806323b872dd146104675780632d8381191461048757600080fd5b806313114a9d146103be57806316317e7e146103dd5780631694505e146103fd57600080fd5b8063061c82d0116102e6578063061c82d01461034357806306fdde0314610363578063095ea7b31461038e57600080fd5b8062bc2ea81461030c578063053ab1821461032357600080fd5b3661030757005b600080fd5b34801561031857600080fd5b5061032161092a565b005b34801561032f57600080fd5b5061032161033e366004613169565b610962565b34801561034f57600080fd5b5061032161035e366004613169565b610af3565b34801561036f57600080fd5b50610378610b00565b60405161038591906131c8565b60405180910390f35b34801561039a57600080fd5b506103ae6103a93660046131f0565b610b92565b6040519015158152602001610385565b3480156103ca57600080fd5b506009545b604051908152602001610385565b3480156103e957600080fd5b506103216103f8366004613169565b610bca565b34801561040957600080fd5b506104317f000000000000000000000000000000000000000000000000000000000000000081565b6040516001600160a01b039091168152602001610385565b34801561045557600080fd5b506a05be074c9e772fd7b606006103cf565b34801561047357600080fd5b506103ae61048236600461321c565b610ca8565b34801561049357600080fd5b506103cf6104a2366004613169565b610dd4565b3480156104b357600080fd5b50600c5460405160ff9091168152602001610385565b3480156104d557600080fd5b506103cf60115481565b3480156104eb57600080fd5b506103ae6104fa3660046131f0565b610e6b565b34801561050b57600080fd5b506103cf600d5481565b34801561052157600080fd5b5061032161053036600461325d565b610ec8565b34801561054157600080fd5b506103cf61055036600461328f565b610ef4565b34801561056157600080fd5b506104317f000000000000000000000000000000000000000000000000000000000000000081565b34801561059557600080fd5b506013546103ae90600160b01b900460ff1681565b3480156105b657600080fd5b506013546103ae90600160b81b900460ff1681565b3480156105d757600080fd5b506103216105e6366004613169565b610f8a565b3480156105f757600080fd5b506103cf600f5481565b34801561060d57600080fd5b506103cf61061c36600461325d565b611088565b34801561062d57600080fd5b506103216110e7565b34801561064257600080fd5b506103cf60125481565b34801561065857600080fd5b506103216110fb565b34801561066d57600080fd5b506000546001600160a01b0316610431565b34801561068b57600080fd5b5061032161069a366004613169565b611133565b3480156106ab57600080fd5b50610378611140565b3480156106c057600080fd5b506103216106cf36600461325d565b61114f565b3480156106e057600080fd5b506103ae6106ef3660046131f0565b6113f2565b34801561070057600080fd5b506103ae61070f3660046131f0565b6114cd565b34801561072057600080fd5b506013546103ae90600160a01b900460ff1681565b34801561074157600080fd5b5061032161075036600461325d565b611519565b34801561076157600080fd5b506103216107703660046132bb565b61157a565b34801561078157600080fd5b506103cf61079036600461325d565b6001600160a01b031660009081526004602052604090205490565b3480156107b757600080fd5b506103ae6107c636600461325d565b6001600160a01b031660009081526006602052604090205460ff1690565b3480156107f057600080fd5b506103cf6107ff36600461325d565b6115f5565b34801561081057600080fd5b506103cf61081f3660046132d6565b6001600160a01b03918216600090815260036020908152604080832093909416825291909152205490565b34801561085657600080fd5b5061032161086536600461325d565b611622565b34801561087657600080fd5b5061032161088536600461325d565b611868565b34801561089657600080fd5b506103cf6108a536600461325d565b611891565b3480156108b657600080fd5b506103216108c536600461325d565b6118b3565b3480156108d657600080fd5b506103216108e536600461325d565b6119e4565b3480156108f657600080fd5b5061032161090536600461325d565b611a3b565b34801561091657600080fd5b50601354610431906001600160a01b031681565b610932611bcf565b601380547fffffffffffffffffffffff00ffffffffffffffffffffffffffffffffffffffff16600160a01b179055565b3360008181526006602052604090205460ff16156109dc5760405162461bcd60e51b815260206004820152602c60248201527f4578636c75646564206164647265737365732063616e6e6f742063616c6c207460448201526b3434b990333ab731ba34b7b760a11b60648201526084015b60405180910390fd5b6011546a05be074c9e772fd7b606006109f483611088565b6109ff906064613325565b610a09919061333c565b10610a7c5760405162461bcd60e51b815260206004820152602f60248201527f43616e6e6f74207265666c6563742c206163636f756e7420686f6c6473206f7660448201527f6572203125206f6620737570706c79000000000000000000000000000000000060648201526084016109d3565b6000610a8783611c15565b505050506001600160a01b038416600090815260016020526040902054919250610ab39183915061335e565b6001600160a01b038316600090815260016020526040902055600854610ada90829061335e565b600855600954610aeb908490613371565b600955505050565b610afb611bcf565b600d55565b6060600a8054610b0f90613384565b80601f0160208091040260200160405190810160405280929190818152602001828054610b3b90613384565b8015610b885780601f10610b5d57610100808354040283529160200191610b88565b820191906000526020600020905b815481529060010190602001808311610b6b57829003601f168201915b5050505050905090565b6000610b9f338484611c6c565b4260046000335b6001600160a01b031681526020810191909152604001600020555060015b92915050565b610bd2611bcf565b606481108015610be0575060015b610c525760405162461bcd60e51b815260206004820152602160248201527f6d75737420626520612070657263656e742076616c75652066726f6d20302d3960448201527f390000000000000000000000000000000000000000000000000000000000000060648201526084016109d3565b6011548111610ca35760405162461bcd60e51b815260206004820152601960248201527f63616e6e6f74206465637265617365207468726573686f6c640000000000000060448201526064016109d3565b601155565b6000610cb5848484611dc4565b6001600160a01b0384166000908152600360209081526040808320338452909152812054610ce490849061335e565b1015610d585760405162461bcd60e51b815260206004820152602860248201527f45524332303a207472616e7366657220616d6f756e742065786365656473206160448201527f6c6c6f77616e636500000000000000000000000000000000000000000000000060648201526084016109d3565b6001600160a01b038416600090815260036020908152604080832033808552925290912054610d93918691610d8e90869061335e565b611c6c565b601354600160a01b900460ff1615610dca573360009081526004602052604080822042908190556001600160a01b03861683529120555b5060019392505050565b6000600854821115610e4e5760405162461bcd60e51b815260206004820152602a60248201527f416d6f756e74206d757374206265206c657373207468616e20746f74616c207260448201527f65666c656374696f6e730000000000000000000000000000000000000000000060648201526084016109d3565b6000610e586120f5565b9050610e64818461333c565b9392505050565b3360008181526003602090815260408083206001600160a01b03871684529091528120549091610ea2918590610d8e908690613371565b601354600160a01b900460ff1615610ebf57426004600033610ba6565b50600192915050565b610ed0611bcf565b6001600160a01b03166000908152600560205260409020805460ff19166001179055565b60006a05be074c9e772fd7b60600831115610f515760405162461bcd60e51b815260206004820152601f60248201527f416d6f756e74206d757374206265206c657373207468616e20737570706c790060448201526064016109d3565b81610f70576000610f6184611c15565b50939550610bc4945050505050565b6000610f7b84611c15565b50929550610bc4945050505050565b610f92611bcf565b6201518081101561100b5760405162461bcd60e51b815260206004820152603060248201527f6d696e696d756d2074696d6520666f72206163636f756e7420746f206265206960448201527f6e6163746976652069732031206461790000000000000000000000000000000060648201526084016109d3565b6012548110156110835760405162461bcd60e51b815260206004820152602a60248201527f6e6577207468726573686f6c64206d757374206265206c61726765722074686160448201527f6e2070726576696f75730000000000000000000000000000000000000000000060648201526084016109d3565b601255565b6001600160a01b03811660009081526006602052604081205460ff16156110c557506001600160a01b031660009081526002602052604090205490565b6001600160a01b038216600090815260016020526040902054610bc490610dd4565b6110ef611bcf565b6110f96000612118565b565b611103611bcf565b601380547fffffffffffffffff00ffffffffffffffffffffffffffffffffffffffffffffff16600160b81b179055565b61113b611bcf565b600f55565b6060600b8054610b0f90613384565b6013543390600160a01b900460ff166111aa5760405162461bcd60e51b815260206004820152601e60248201527f4c69717569646174696f6e206973206e6f742079657420656e61626c6564000060448201526064016109d3565b6001600160a01b03821660009081526006602052604090205460ff161580156111e157506000546001600160a01b03838116911614155b6112395760405162461bcd60e51b815260206004820152602360248201527f43616e6e6f74206c6971756964617465206578636c756465642061646472657360448201526273657360e81b60648201526084016109d3565b6001600160a01b03811660009081526006602052604090205460ff16156112b75760405162461bcd60e51b815260206004820152602c60248201527f4578636c75646564206164647265737365732063616e6e6f742063616c6c207460448201526b3434b990333ab731ba34b7b760a11b60648201526084016109d3565b6001600160a01b038216600090815260046020526040812054900361131e5760405162461bcd60e51b815260206004820152601960248201527f4163636f756e74206973206e6f7420616374697665207965740000000000000060448201526064016109d3565b6012546001600160a01b038316600090815260046020526040902054611344904261335e565b10156113925760405162461bcd60e51b815260206004820152601760248201527f4163636f756e74206973206e6f7420696e61637469766500000000000000000060448201526064016109d3565b600061139d83611088565b90506113aa828285612168565b604080516001600160a01b0385168152602081018390527fd23be8cd8d539869270c358a5a3fd798c2e4043dcef0d241cc67f9da77a2997891015b60405180910390a1505050565b3360009081526003602090815260408083206001600160a01b0386168452909152812054819061142390849061335e565b10156114975760405162461bcd60e51b815260206004820152602560248201527f45524332303a2064656372656173656420616c6c6f77616e63652062656c6f7760448201527f207a65726f00000000000000000000000000000000000000000000000000000060648201526084016109d3565b3360008181526003602090815260408083206001600160a01b0388168452909152902054610ea291908590610d8e90869061335e565b60006114da338484611dc4565b601354600160a01b900460ff1615610ebf5750503360009081526004602052604080822042908190556001600160a01b03939093168252902055600190565b611521611bcf565b601380546001600160a01b0319166001600160a01b0392831690811782556000908152600660209081526040808320805460ff199081166001908117909255945490951683526005909152902080549091169091179055565b611582611bcf565b60138054821515600160b01b027fffffffffffffffffff00ffffffffffffffffffffffffffffffffffffffffffff9091161790556040517f53726dfcaf90650aa7eb35524f4d3220f07413c8d6cb404cc8c18bf5591bc159906115ea90831515815260200190565b60405180910390a150565b60006a05be074c9e772fd7b6060061160c83611088565b61161890612710613325565b610bc4919061333c565b6013543390600160a01b900460ff1661167d5760405162461bcd60e51b815260206004820152601e60248201527f4c69717569646174696f6e206973206e6f742079657420656e61626c6564000060448201526064016109d3565b6001600160a01b03821660009081526006602052604090205460ff16156116f25760405162461bcd60e51b815260206004820152602360248201527f43616e6e6f74206c6971756964617465206578636c756465642061646472657360448201526273657360e81b60648201526084016109d3565b6001600160a01b03811660009081526006602052604090205460ff16156117705760405162461bcd60e51b815260206004820152602c60248201527f4578636c75646564206164647265737365732063616e6e6f742063616c6c207460448201526b3434b990333ab731ba34b7b760a11b60648201526084016109d3565b6011546a05be074c9e772fd7b6060061178884611088565b611793906064613325565b61179d919061333c565b10156118115760405162461bcd60e51b815260206004820152603660248201527f57616c6c657420646f6573206e6f7420686f6c6420656e6f756768207065726360448201527f656e74616765206f6620746f74616c20737570706c790000000000000000000060648201526084016109d3565b600061181c83611088565b9050611829828285612168565b604080516001600160a01b0385168152602081018390527f40cd76c2bc3213e2ae1610a5ee3de0dc3745761f4b848551783debd552dfa7e991016113e5565b611870611bcf565b6001600160a01b03166000908152600560205260409020805460ff19169055565b60006a05be074c9e772fd7b606006118a883611088565b611618906064613325565b6118bb611bcf565b6001600160a01b03811660009081526006602052604090205460ff16156119245760405162461bcd60e51b815260206004820152601b60248201527f4163636f756e7420697320616c7265616479206578636c75646564000000000060448201526064016109d3565b6001600160a01b0381166000908152600160205260409020541561197e576001600160a01b03811660009081526001602052604090205461196490610dd4565b6001600160a01b0382166000908152600260205260409020555b6001600160a01b03166000818152600660205260408120805460ff191660019081179091556007805491820181559091527fa66cc928b5edb82af9bd49922954155ab7b0942694bea4ce44661d9a8736c6880180546001600160a01b0319169091179055565b6119ec611bcf565b6001600160a01b038116611a2f576040517f1e4fbdf7000000000000000000000000000000000000000000000000000000008152600060048201526024016109d3565b611a3881612118565b50565b611a43611bcf565b6001600160a01b03811660009081526006602052604090205460ff16611aab5760405162461bcd60e51b815260206004820152601b60248201527f4163636f756e7420697320616c7265616479206578636c75646564000000000060448201526064016109d3565b60005b600754811015611bcb57816001600160a01b031660078281548110611ad557611ad56133be565b6000918252602090912001546001600160a01b031603611bb95760078054611aff9060019061335e565b81548110611b0f57611b0f6133be565b600091825260209091200154600780546001600160a01b039092169183908110611b3b57611b3b6133be565b600091825260208083209190910180546001600160a01b0319166001600160a01b039485161790559184168152600282526040808220829055600690925220805460ff191690556007805480611b9357611b936133d4565b600082815260209020810160001990810180546001600160a01b03191690550190555050565b80611bc3816133ea565b915050611aae565b5050565b6000546001600160a01b031633146110f9576040517f118cdaa70000000000000000000000000000000000000000000000000000000081523360048201526024016109d3565b6000806000806000806000806000611c2c8a6123bc565b9250925092506000611c3c6120f5565b90506000806000611c4f8e8786886123ff565b919e509c509a509598509396509194505050505091939550919395565b6001600160a01b038316611ce75760405162461bcd60e51b8152602060048201526024808201527f45524332303a20617070726f76652066726f6d20746865207a65726f2061646460448201527f726573730000000000000000000000000000000000000000000000000000000060648201526084016109d3565b6001600160a01b038216611d635760405162461bcd60e51b815260206004820152602260248201527f45524332303a20617070726f766520746f20746865207a65726f20616464726560448201527f737300000000000000000000000000000000000000000000000000000000000060648201526084016109d3565b6001600160a01b0383811660008181526003602090815260408083209487168084529482529182902085905590518481527f8c5be1e5ebec7d5bd14f71427d1e84f3dd0314c0f7b2291e5b200ac8c7c3b925910160405180910390a3505050565b601354600160b81b900460ff16611e96576000546001600160a01b0384811691161480611dfe57506013546001600160a01b038481169116145b611e965760405162461bcd60e51b815260206004820152604160248201527f54726164696e67206973206e6f742079657420656e61626c65642c206f6e636560448201527f2070726573616c652069732066696e69736865642069742077696c6c206f706560648201527f6e00000000000000000000000000000000000000000000000000000000000000608482015260a4016109d3565b6001600160a01b038316611f125760405162461bcd60e51b815260206004820152602560248201527f45524332303a207472616e736665722066726f6d20746865207a65726f20616460448201527f647265737300000000000000000000000000000000000000000000000000000060648201526084016109d3565b6001600160a01b038216611f8e5760405162461bcd60e51b815260206004820152602360248201527f45524332303a207472616e7366657220746f20746865207a65726f206164647260448201527f657373000000000000000000000000000000000000000000000000000000000060648201526084016109d3565b600081116120045760405162461bcd60e51b815260206004820152602960248201527f5472616e7366657220616d6f756e74206d75737420626520677265617465722060448201527f7468616e207a65726f000000000000000000000000000000000000000000000060648201526084016109d3565b600061200f30611088565b6014549091508110801590819061205857507f00000000000000000000000000000000000000000000000000000000000000006001600160a01b0316856001600160a01b031614155b801561206e5750601354600160a81b900460ff16155b80156120835750601354600160b01b900460ff165b1561209657601454915061209682612456565b6001600160a01b03851660009081526005602052604090205460019060ff16806120d857506001600160a01b03851660009081526005602052604090205460ff165b156120e1575060005b6120ed868686846124fd565b505050505050565b600080600061210261267a565b9092509050612111818361333c565b9250505090565b600080546001600160a01b038381166001600160a01b0319831681178455604051919092169283917f8be0079c531659141344cd1fd0a4f28419497f9722a3daafe3b4186f6b6457e09190a35050565b600061217383611c15565b505050505090506121b96040518060400160405280600681526020017f53454e44455200000000000000000000000000000000000000000000000000008152508561281f565b6121f86040518060400160405280600c81526020017f54484953204144445245535300000000000000000000000000000000000000008152503061281f565b60006064612207836005613325565b612211919061333c565b9050600061221f828461335e565b90506122626040518060400160405280602081526020017f72416d6f756e742c20724665652c20725265666c656374696f6e416d6f756e74815250848484612892565b8261226d8284613371565b146122e05760405162461bcd60e51b815260206004820152602a60248201527f7266656520616e6420725265666c656374696f6e20646f206e6f742073756d2060448201527f746f2072416d6f756e740000000000000000000000000000000000000000000060648201526084016109d3565b6001600160a01b03841660009081526001602052604090205461230490849061335e565b6001600160a01b0380861660009081526001602052604090209190915530908716036123545760006064612339876005613325565b612343919061333c565b905061234e81612909565b50612392565b6001600160a01b038616600090815260016020526040902054612378908390613371565b6001600160a01b0387166000908152600160205260409020555b806008546123a0919061335e565b6008556009546123b1908690613371565b600955505050505050565b6000806000806123cb85612994565b905060006123d8866129a6565b90506000816123e7848961335e565b6123f1919061335e565b979296509094509092505050565b600080808061240e8689613325565b9050600061241c8789613325565b9050600061242a8888613325565b9050600081612439848661335e565b612443919061335e565b939b939a50919850919650505050505050565b6013805460ff60a81b1916600160a81b179055600061247660028361333c565b90506000612484828461333c565b905047612490836129b8565b600061249c824761335e565b90506124a88382612b89565b60408051858152602081018390529081018490527f17bbfb9a6069321b6ded73bd96327c9e6b7212a5cd51ff219cd61370acafb5619060600160405180910390a150506013805460ff60a81b19169055505050565b8061250a5761250a612ca7565b6001600160a01b03841660009081526006602052604090205460ff16801561254b57506001600160a01b03831660009081526006602052604090205460ff16155b156125605761255b848484612cd5565b61265e565b6001600160a01b03841660009081526006602052604090205460ff161580156125a157506001600160a01b03831660009081526006602052604090205460ff165b156125b15761255b848484612e07565b6001600160a01b03841660009081526006602052604090205460ff161580156125f357506001600160a01b03831660009081526006602052604090205460ff16155b156126035761255b848484612ee8565b6001600160a01b03841660009081526006602052604090205460ff16801561264357506001600160a01b03831660009081526006602052604090205460ff165b156126535761255b848484612f92565b61265e848484612ee8565b8061267457612674600e54600d55601054600f55565b50505050565b60085460009081906a05be074c9e772fd7b60600825b6007548110156127dd578260016000600784815481106126b2576126b26133be565b60009182526020808320909101546001600160a01b03168352820192909252604001902054118061271d57508160026000600784815481106126f6576126f66133be565b60009182526020808320909101546001600160a01b03168352820192909252604001902054115b1561273b575050600854936a05be074c9e772fd7b606009350915050565b6001600060078381548110612752576127526133be565b60009182526020808320909101546001600160a01b03168352820192909252604001902054612781908461335e565b9250600260006007838154811061279a5761279a6133be565b60009182526020808320909101546001600160a01b031683528201929092526040019020546127c9908361335e565b9150806127d5816133ea565b915050612690565b506a05be074c9e772fd7b606006008546127f7919061333c565b821015612816575050600854926a05be074c9e772fd7b6060092509050565b90939092509050565b611bcb8282604051602401612835929190613403565b60408051601f198184030181529190526020810180517bffffffffffffffffffffffffffffffffffffffffffffffffffffffff167f319af33300000000000000000000000000000000000000000000000000000000179052613091565b612674848484846040516024016128ac949392919061342e565b60408051601f198184030181529190526020810180517bffffffffffffffffffffffffffffffffffffffffffffffffffffffff167fa7a8785300000000000000000000000000000000000000000000000000000000179052613091565b60006129136120f5565b905060006129218284613325565b3060009081526001602052604090205490915061293f908290613371565b3060009081526001602090815260408083209390935560069052205460ff161561298f573060009081526002602052604090205461297e908490613371565b306000908152600260205260409020555b505050565b60006064600d54836116189190613325565b60006064600f54836116189190613325565b60408051600280825260608201835260009260208301908036833701905050905030816000815181106129ed576129ed6133be565b60200260200101906001600160a01b031690816001600160a01b0316815250507f00000000000000000000000000000000000000000000000000000000000000006001600160a01b031663ad5c46486040518163ffffffff1660e01b8152600401602060405180830381865afa158015612a6b573d6000803e3d6000fd5b505050506040513d601f19601f82011682018060405250810190612a8f919061345d565b81600181518110612aa257612aa26133be565b60200260200101906001600160a01b031690816001600160a01b031681525050612aed307f000000000000000000000000000000000000000000000000000000000000000084611c6c565b6040517f791ac9470000000000000000000000000000000000000000000000000000000081526001600160a01b037f0000000000000000000000000000000000000000000000000000000000000000169063791ac94790612b5b90859060009086903090429060040161347a565b600060405180830381600087803b158015612b7557600080fd5b505af11580156120ed573d6000803e3d6000fd5b612bb4307f000000000000000000000000000000000000000000000000000000000000000084611c6c565b7f00000000000000000000000000000000000000000000000000000000000000006001600160a01b031663f305d719823085600080612bfb6000546001600160a01b031690565b60405160e088901b7fffffffff000000000000000000000000000000000000000000000000000000001681526001600160a01b03958616600482015260248101949094526044840192909252606483015290911660848201524260a482015260c40160606040518083038185885af1158015612c7b573d6000803e3d6000fd5b50505050506040513d601f19601f82011682018060405250810190612ca091906134eb565b5050505050565b600d54158015612cb75750600f54155b15612cbe57565b600d8054600e55600f805460105560009182905555565b600080600080600080612ce787611c15565b6001600160a01b038f16600090815260026020526040902054959b50939950919750955093509150612d1a90889061335e565b6001600160a01b038a16600090815260026020908152604080832093909355600190522054612d4a90879061335e565b6001600160a01b03808b1660009081526001602052604080822093909355908a1681522054612d7a908690613371565b6001600160a01b038916600090815260016020526040902055612d9c81612909565b612da6848361309a565b612daf886130c0565b876001600160a01b0316896001600160a01b03167fddf252ad1be2c89b69c2b068fc378daa952ba7f163c4a11628f55a4df523b3ef85604051612df491815260200190565b60405180910390a3505050505050505050565b600080600080600080612e1987611c15565b6001600160a01b038f16600090815260016020526040902054959b50939950919750955093509150612e4c90879061335e565b6001600160a01b03808b16600090815260016020908152604080832094909455918b16815260029091522054612e83908490613371565b6001600160a01b038916600090815260026020908152604080832093909355600190522054612eb3908690613371565b6001600160a01b038916600090815260016020526040902055612ed581612909565b612edf848361309a565b612daf896130c0565b600080600080600080612efa87611c15565b6001600160a01b038f16600090815260016020526040902054959b50939950919750955093509150612f2d90879061335e565b6001600160a01b03808b1660009081526001602052604080822093909355908a1681522054612f5d908690613371565b6001600160a01b038916600090815260016020526040902055612f7f81612909565b612f89848361309a565b612edf886130c0565b600080600080600080612fa487611c15565b6001600160a01b038f16600090815260026020526040902054959b50939950919750955093509150612fd790889061335e565b6001600160a01b038a1660009081526002602090815260408083209390935560019052205461300790879061335e565b6001600160a01b03808b16600090815260016020908152604080832094909455918b1681526002909152205461303e908490613371565b6001600160a01b03891660009081526002602090815260408083209390935560019052205461306e908690613371565b6001600160a01b038916600090815260016020526040902055612daf848361309a565b611a3881613148565b816008546130a8919061335e565b6008556009546130b9908290613371565b6009555050565b600080546001600160a01b0316906130d783611088565b6011549091506a05be074c9e772fd7b606006130f4836064613325565b6130fe919061333c565b1015801561311e5750816001600160a01b0316836001600160a01b031614155b1561298f57601354600160a01b900460ff161561298f576118293061314285611088565b85612168565b60006a636f6e736f6c652e6c6f679050600080835160208501845afa505050565b60006020828403121561317b57600080fd5b5035919050565b6000815180845260005b818110156131a85760208185018101518683018201520161318c565b506000602082860101526020601f19601f83011685010191505092915050565b602081526000610e646020830184613182565b6001600160a01b0381168114611a3857600080fd5b6000806040838503121561320357600080fd5b823561320e816131db565b946020939093013593505050565b60008060006060848603121561323157600080fd5b833561323c816131db565b9250602084013561324c816131db565b929592945050506040919091013590565b60006020828403121561326f57600080fd5b8135610e64816131db565b8035801515811461328a57600080fd5b919050565b600080604083850312156132a257600080fd5b823591506132b26020840161327a565b90509250929050565b6000602082840312156132cd57600080fd5b610e648261327a565b600080604083850312156132e957600080fd5b82356132f4816131db565b91506020830135613304816131db565b809150509250929050565b634e487b7160e01b600052601160045260246000fd5b8082028115828204841417610bc457610bc461330f565b60008261335957634e487b7160e01b600052601260045260246000fd5b500490565b81810381811115610bc457610bc461330f565b80820180821115610bc457610bc461330f565b600181811c9082168061339857607f821691505b6020821081036133b857634e487b7160e01b600052602260045260246000fd5b50919050565b634e487b7160e01b600052603260045260246000fd5b634e487b7160e01b600052603160045260246000fd5b6000600182016133fc576133fc61330f565b5060010190565b6040815260006134166040830185613182565b90506001600160a01b03831660208301529392505050565b6080815260006134416080830187613182565b6020830195909552506040810192909252606090910152919050565b60006020828403121561346f57600080fd5b8151610e64816131db565b600060a082018783526020878185015260a0604085015281875180845260c086019150828901935060005b818110156134ca5784516001600160a01b0316835293830193918301916001016134a5565b50506001600160a01b03969096166060850152505050608001529392505050565b60008060006060848603121561350057600080fd5b835192506020840151915060408401519050925092509256fea26469706673582212205abeaf0baab5aee77c2f788cd8f68bd4ce246a5b2dc25c0ef527a4ebfbe0380f64736f6c63430008140033",
  "linkReferences": {},
  "deployedLinkReferences": {}
}