{
  "_format": "hh-sol-artifact-1",
  "contractName": "TokenVestingBase",
  "sourceName": "contracts/LPMining/TokenVestingBase.sol",
  "abi": [
    {
      "inputs": [
        {
          "internalType": "address",
          "name": "token_",
          "type": "address"
        },
        {
          "internalType": "address",
          "name": "multisig_",
          "type": "address"
        }
      ],
      "stateMutability": "nonpayable",
      "type": "constructor"
    },
    {
      "inputs": [],
      "name": "AccessControlBadConfirmation",
      "type": "error"
    },
    {
      "inputs": [
        {
          "internalType": "address",
          "name": "account",
          "type": "address"
        },
        {
          "internalType": "bytes32",
          "name": "neededRole",
          "type": "bytes32"
        }
      ],
      "name": "AccessControlUnauthorizedAccount",
      "type": "error"
    },
    {
      "inputs": [
        {
          "internalType": "address",
          "name": "target",
          "type": "address"
        }
      ],
      "name": "AddressEmptyCode",
      "type": "error"
    },
    {
      "inputs": [
        {
          "internalType": "address",
          "name": "account",
          "type": "address"
        }
      ],
      "name": "AddressInsufficientBalance",
      "type": "error"
    },
    {
      "inputs": [],
      "name": "FailedInnerCall",
      "type": "error"
    },
    {
      "inputs": [],
      "name": "ReentrancyGuardReentrantCall",
      "type": "error"
    },
    {
      "inputs": [
        {
          "internalType": "address",
          "name": "token",
          "type": "address"
        }
      ],
      "name": "SafeERC20FailedOperation",
      "type": "error"
    },
    {
      "anonymous": false,
      "inputs": [
        {
          "indexed": false,
          "internalType": "uint256",
          "name": "amount",
          "type": "uint256"
        }
      ],
      "name": "Released",
      "type": "event"
    },
    {
      "anonymous": false,
      "inputs": [],
      "name": "Revoked",
      "type": "event"
    },
    {
      "anonymous": false,
      "inputs": [
        {
          "indexed": true,
          "internalType": "bytes32",
          "name": "role",
          "type": "bytes32"
        },
        {
          "indexed": true,
          "internalType": "bytes32",
          "name": "previousAdminRole",
          "type": "bytes32"
        },
        {
          "indexed": true,
          "internalType": "bytes32",
          "name": "newAdminRole",
          "type": "bytes32"
        }
      ],
      "name": "RoleAdminChanged",
      "type": "event"
    },
    {
      "anonymous": false,
      "inputs": [
        {
          "indexed": true,
          "internalType": "bytes32",
          "name": "role",
          "type": "bytes32"
        },
        {
          "indexed": true,
          "internalType": "address",
          "name": "account",
          "type": "address"
        },
        {
          "indexed": true,
          "internalType": "address",
          "name": "sender",
          "type": "address"
        }
      ],
      "name": "RoleGranted",
      "type": "event"
    },
    {
      "anonymous": false,
      "inputs": [
        {
          "indexed": true,
          "internalType": "bytes32",
          "name": "role",
          "type": "bytes32"
        },
        {
          "indexed": true,
          "internalType": "address",
          "name": "account",
          "type": "address"
        },
        {
          "indexed": true,
          "internalType": "address",
          "name": "sender",
          "type": "address"
        }
      ],
      "name": "RoleRevoked",
      "type": "event"
    },
    {
      "stateMutability": "payable",
      "type": "fallback"
    },
    {
      "inputs": [],
      "name": "ADMIN_ROLE",
      "outputs": [
        {
          "internalType": "bytes32",
          "name": "",
          "type": "bytes32"
        }
      ],
      "stateMutability": "view",
      "type": "function"
    },
    {
      "inputs": [],
      "name": "DEFAULT_ADMIN_ROLE",
      "outputs": [
        {
          "internalType": "bytes32",
          "name": "",
          "type": "bytes32"
        }
      ],
      "stateMutability": "view",
      "type": "function"
    },
    {
      "inputs": [],
      "name": "FUND_HANDLER_ROLE",
      "outputs": [
        {
          "internalType": "bytes32",
          "name": "",
          "type": "bytes32"
        }
      ],
      "stateMutability": "view",
      "type": "function"
    },
    {
      "inputs": [
        {
          "internalType": "address",
          "name": "holder",
          "type": "address"
        }
      ],
      "name": "computeLatestVestingScheduleIdForHolder",
      "outputs": [
        {
          "internalType": "bytes32",
          "name": "",
          "type": "bytes32"
        }
      ],
      "stateMutability": "view",
      "type": "function"
    },
    {
      "inputs": [
        {
          "internalType": "address",
          "name": "holder",
          "type": "address"
        }
      ],
      "name": "computeNextVestingScheduleIdForHolder",
      "outputs": [
        {
          "internalType": "bytes32",
          "name": "",
          "type": "bytes32"
        }
      ],
      "stateMutability": "view",
      "type": "function"
    },
    {
      "inputs": [
        {
          "internalType": "bytes32",
          "name": "vestingScheduleId",
          "type": "bytes32"
        }
      ],
      "name": "computeReleasableAmount",
      "outputs": [
        {
          "internalType": "uint256",
          "name": "",
          "type": "uint256"
        }
      ],
      "stateMutability": "view",
      "type": "function"
    },
    {
      "inputs": [
        {
          "internalType": "address",
          "name": "holder",
          "type": "address"
        },
        {
          "internalType": "uint256",
          "name": "index",
          "type": "uint256"
        }
      ],
      "name": "computeVestingScheduleIdForAddressAndIndex",
      "outputs": [
        {
          "internalType": "bytes32",
          "name": "",
          "type": "bytes32"
        }
      ],
      "stateMutability": "pure",
      "type": "function"
    },
    {
      "inputs": [
        {
          "internalType": "address",
          "name": "_beneficiary",
          "type": "address"
        },
        {
          "internalType": "uint256",
          "name": "_start",
          "type": "uint256"
        },
        {
          "internalType": "uint256",
          "name": "_cliff",
          "type": "uint256"
        },
        {
          "internalType": "uint256",
          "name": "_duration",
          "type": "uint256"
        },
        {
          "internalType": "uint256",
          "name": "_slicePeriodSeconds",
          "type": "uint256"
        },
        {
          "internalType": "bool",
          "name": "_revocable",
          "type": "bool"
        },
        {
          "internalType": "uint256",
          "name": "_amount",
          "type": "uint256"
        }
      ],
      "name": "createVestingSchedule",
      "outputs": [],
      "stateMutability": "nonpayable",
      "type": "function"
    },
    {
      "inputs": [
        {
          "internalType": "address",
          "name": "holder",
          "type": "address"
        }
      ],
      "name": "getLastVestingScheduleForHolder",
      "outputs": [
        {
          "components": [
            {
              "internalType": "bool",
              "name": "initialized",
              "type": "bool"
            },
            {
              "internalType": "address",
              "name": "beneficiary",
              "type": "address"
            },
            {
              "internalType": "uint256",
              "name": "cliff",
              "type": "uint256"
            },
            {
              "internalType": "uint256",
              "name": "start",
              "type": "uint256"
            },
            {
              "internalType": "uint256",
              "name": "duration",
              "type": "uint256"
            },
            {
              "internalType": "uint256",
              "name": "slicePeriodSeconds",
              "type": "uint256"
            },
            {
              "internalType": "bool",
              "name": "revocable",
              "type": "bool"
            },
            {
              "internalType": "uint256",
              "name": "amountTotal",
              "type": "uint256"
            },
            {
              "internalType": "uint256",
              "name": "released",
              "type": "uint256"
            },
            {
              "internalType": "bool",
              "name": "revoked",
              "type": "bool"
            }
          ],
          "internalType": "struct TokenVestingBase.VestingSchedule",
          "name": "",
          "type": "tuple"
        }
      ],
      "stateMutability": "view",
      "type": "function"
    },
    {
      "inputs": [
        {
          "internalType": "bytes32",
          "name": "role",
          "type": "bytes32"
        }
      ],
      "name": "getRoleAdmin",
      "outputs": [
        {
          "internalType": "bytes32",
          "name": "",
          "type": "bytes32"
        }
      ],
      "stateMutability": "view",
      "type": "function"
    },
    {
      "inputs": [],
      "name": "getToken",
      "outputs": [
        {
          "internalType": "address",
          "name": "",
          "type": "address"
        }
      ],
      "stateMutability": "view",
      "type": "function"
    },
    {
      "inputs": [
        {
          "internalType": "uint256",
          "name": "index",
          "type": "uint256"
        }
      ],
      "name": "getVestingIdAtIndex",
      "outputs": [
        {
          "internalType": "bytes32",
          "name": "",
          "type": "bytes32"
        }
      ],
      "stateMutability": "view",
      "type": "function"
    },
    {
      "inputs": [
        {
          "internalType": "bytes32",
          "name": "vestingScheduleId",
          "type": "bytes32"
        }
      ],
      "name": "getVestingSchedule",
      "outputs": [
        {
          "components": [
            {
              "internalType": "bool",
              "name": "initialized",
              "type": "bool"
            },
            {
              "internalType": "address",
              "name": "beneficiary",
              "type": "address"
            },
            {
              "internalType": "uint256",
              "name": "cliff",
              "type": "uint256"
            },
            {
              "internalType": "uint256",
              "name": "start",
              "type": "uint256"
            },
            {
              "internalType": "uint256",
              "name": "duration",
              "type": "uint256"
            },
            {
              "internalType": "uint256",
              "name": "slicePeriodSeconds",
              "type": "uint256"
            },
            {
              "internalType": "bool",
              "name": "revocable",
              "type": "bool"
            },
            {
              "internalType": "uint256",
              "name": "amountTotal",
              "type": "uint256"
            },
            {
              "internalType": "uint256",
              "name": "released",
              "type": "uint256"
            },
            {
              "internalType": "bool",
              "name": "revoked",
              "type": "bool"
            }
          ],
          "internalType": "struct TokenVestingBase.VestingSchedule",
          "name": "",
          "type": "tuple"
        }
      ],
      "stateMutability": "view",
      "type": "function"
    },
    {
      "inputs": [
        {
          "internalType": "address",
          "name": "holder",
          "type": "address"
        },
        {
          "internalType": "uint256",
          "name": "index",
          "type": "uint256"
        }
      ],
      "name": "getVestingScheduleByAddressAndIndex",
      "outputs": [
        {
          "components": [
            {
              "internalType": "bool",
              "name": "initialized",
              "type": "bool"
            },
            {
              "internalType": "address",
              "name": "beneficiary",
              "type": "address"
            },
            {
              "internalType": "uint256",
              "name": "cliff",
              "type": "uint256"
            },
            {
              "internalType": "uint256",
              "name": "start",
              "type": "uint256"
            },
            {
              "internalType": "uint256",
              "name": "duration",
              "type": "uint256"
            },
            {
              "internalType": "uint256",
              "name": "slicePeriodSeconds",
              "type": "uint256"
            },
            {
              "internalType": "bool",
              "name": "revocable",
              "type": "bool"
            },
            {
              "internalType": "uint256",
              "name": "amountTotal",
              "type": "uint256"
            },
            {
              "internalType": "uint256",
              "name": "released",
              "type": "uint256"
            },
            {
              "internalType": "bool",
              "name": "revoked",
              "type": "bool"
            }
          ],
          "internalType": "struct TokenVestingBase.VestingSchedule",
          "name": "",
          "type": "tuple"
        }
      ],
      "stateMutability": "view",
      "type": "function"
    },
    {
      "inputs": [],
      "name": "getVestingSchedulesCount",
      "outputs": [
        {
          "internalType": "uint256",
          "name": "",
          "type": "uint256"
        }
      ],
      "stateMutability": "view",
      "type": "function"
    },
    {
      "inputs": [
        {
          "internalType": "address",
          "name": "_beneficiary",
          "type": "address"
        }
      ],
      "name": "getVestingSchedulesCountByBeneficiary",
      "outputs": [
        {
          "internalType": "uint256",
          "name": "",
          "type": "uint256"
        }
      ],
      "stateMutability": "view",
      "type": "function"
    },
    {
      "inputs": [],
      "name": "getVestingSchedulesTotalAmount",
      "outputs": [
        {
          "internalType": "uint256",
          "name": "",
          "type": "uint256"
        }
      ],
      "stateMutability": "view",
      "type": "function"
    },
    {
      "inputs": [],
      "name": "getWithdrawableAmount",
      "outputs": [
        {
          "internalType": "uint256",
          "name": "",
          "type": "uint256"
        }
      ],
      "stateMutability": "view",
      "type": "function"
    },
    {
      "inputs": [
        {
          "internalType": "bytes32",
          "name": "role",
          "type": "bytes32"
        },
        {
          "internalType": "address",
          "name": "account",
          "type": "address"
        }
      ],
      "name": "grantRole",
      "outputs": [],
      "stateMutability": "nonpayable",
      "type": "function"
    },
    {
      "inputs": [
        {
          "internalType": "bytes32",
          "name": "role",
          "type": "bytes32"
        },
        {
          "internalType": "address",
          "name": "account",
          "type": "address"
        }
      ],
      "name": "hasRole",
      "outputs": [
        {
          "internalType": "bool",
          "name": "",
          "type": "bool"
        }
      ],
      "stateMutability": "view",
      "type": "function"
    },
    {
      "inputs": [
        {
          "internalType": "bytes32",
          "name": "vestingScheduleId",
          "type": "bytes32"
        },
        {
          "internalType": "uint256",
          "name": "amount",
          "type": "uint256"
        }
      ],
      "name": "release",
      "outputs": [],
      "stateMutability": "nonpayable",
      "type": "function"
    },
    {
      "inputs": [
        {
          "internalType": "bytes32",
          "name": "role",
          "type": "bytes32"
        },
        {
          "internalType": "address",
          "name": "callerConfirmation",
          "type": "address"
        }
      ],
      "name": "renounceRole",
      "outputs": [],
      "stateMutability": "nonpayable",
      "type": "function"
    },
    {
      "inputs": [
        {
          "internalType": "bytes32",
          "name": "vestingScheduleId",
          "type": "bytes32"
        }
      ],
      "name": "revoke",
      "outputs": [],
      "stateMutability": "nonpayable",
      "type": "function"
    },
    {
      "inputs": [
        {
          "internalType": "bytes32",
          "name": "role",
          "type": "bytes32"
        },
        {
          "internalType": "address",
          "name": "account",
          "type": "address"
        }
      ],
      "name": "revokeRole",
      "outputs": [],
      "stateMutability": "nonpayable",
      "type": "function"
    },
    {
      "inputs": [
        {
          "internalType": "bytes4",
          "name": "interfaceId",
          "type": "bytes4"
        }
      ],
      "name": "supportsInterface",
      "outputs": [
        {
          "internalType": "bool",
          "name": "",
          "type": "bool"
        }
      ],
      "stateMutability": "view",
      "type": "function"
    },
    {
      "inputs": [
        {
          "internalType": "uint256",
          "name": "amount",
          "type": "uint256"
        }
      ],
      "name": "withdraw",
      "outputs": [],
      "stateMutability": "nonpayable",
      "type": "function"
    },
    {
      "stateMutability": "payable",
      "type": "receive"
    }
  ],
  "bytecode": "0x60a06040523480156200001157600080fd5b5060405162002203380380620022038339810160408190526200003491620001f6565b60016000908155620000479033620000a5565b5062000063600080516020620021e3833981519152336200013c565b6200007e600080516020620021e3833981519152826200013c565b6001600160a01b0382166200009257600080fd5b506001600160a01b03166080526200022e565b60008281526001602090815260408083206001600160a01b038516845290915281205460ff16620001325760008381526001602081815260408084206001600160a01b0387168086529252808420805460ff19169093179092559051339286917f2f8788117e7eff1d82e926ec794901d17c78024a50270940304540a733656f0d9190a450600162000136565b5060005b92915050565b600082815260016020819052604090912001546200015a816200016c565b620001668383620000a5565b50505050565b6200017881336200017b565b50565b60008281526001602090815260408083206001600160a01b038516845290915290205460ff16620001d55760405163e2517d3f60e01b81526001600160a01b03821660048201526024810183905260440160405180910390fd5b5050565b80516001600160a01b0381168114620001f157600080fd5b919050565b600080604083850312156200020a57600080fd5b6200021583620001d9565b91506200022560208401620001d9565b90509250929050565b608051611f846200025f60003960008181610224015281816109a701528181610ce90152610e9d0152611f846000f3fe60806040526004361061018d5760003560e01c80638af104da116100d5578063d547741f11610084578063ea1bb3d511610061578063ea1bb3d514610531578063f51321d714610551578063f7c469f014610571578063f9079b371461059157005b8063d547741f146104bd578063d5d7ec8b146104dd578063e64f6caf1461051157005b80639ef346b4116100b25780639ef346b414610468578063a217fddf14610488578063b75c7dc61461049d57005b80638af104da146103ab57806390be10cc1461040d57806391d148541461042257005b80632f2ff15d1161013c5780635a7bb69a116101195780635a7bb69a146102f457806366afd8ef1461032a57806375b238fc1461034a5780637e913dc61461037e57005b80632f2ff15d1461029f57806336568abe146102bf57806348deb471146102df57005b806321df0da71161016a57806321df0da71461020a578063248a9ca31461024e5780632e1a7d4d1461027f57005b806301ffc9a71461019657806313083617146101cb57806317e289e9146101ea57005b3661019457005b005b3480156101a257600080fd5b506101b66101b1366004611c54565b6105b1565b60405190151581526020015b60405180910390f35b3480156101d757600080fd5b506002545b6040519081526020016101c2565b3480156101f657600080fd5b50610194610205366004611cc0565b61064a565b34801561021657600080fd5b506040516001600160a01b037f00000000000000000000000000000000000000000000000000000000000000001681526020016101c2565b34801561025a57600080fd5b506101dc610269366004611d27565b6000908152600160208190526040909120015490565b34801561028b57600080fd5b5061019461029a366004611d27565b6108eb565b3480156102ab57600080fd5b506101946102ba366004611d40565b6109dc565b3480156102cb57600080fd5b506101946102da366004611d40565b610a08565b3480156102eb57600080fd5b506004546101dc565b34801561030057600080fd5b506101dc61030f366004611d6c565b6001600160a01b031660009081526005602052604090205490565b34801561033657600080fd5b50610194610345366004611d87565b610a59565b34801561035657600080fd5b506101dc7fa49807205ce4d355092ef5a8a18f56e8913cf4a201fbe287825b095693c2177581565b34801561038a57600080fd5b5061039e610399366004611d6c565b610d24565b6040516101c29190611da9565b3480156103b757600080fd5b506101dc6103c6366004611e34565b6040516bffffffffffffffffffffffff19606084901b1660208201526034810182905260009060540160405160208183030381529060405280519060200120905092915050565b34801561041957600080fd5b506101dc610e59565b34801561042e57600080fd5b506101b661043d366004611d40565b60009182526001602090815260408084206001600160a01b0393909316845291905290205460ff1690565b34801561047457600080fd5b5061039e610483366004611d27565b610f13565b34801561049457600080fd5b506101dc600081565b3480156104a957600080fd5b506101946104b8366004611d27565b611017565b3480156104c957600080fd5b506101946104d8366004611d40565b611260565b3480156104e957600080fd5b506101dc7fb55ee0901ded860dac3ba700b37e01b02ac545a5f63a4a51693d8afa1c84009a81565b34801561051d57600080fd5b506101dc61052c366004611d6c565b611286565b34801561053d57600080fd5b506101dc61054c366004611d27565b6112b1565b34801561055d57600080fd5b5061039e61056c366004611e34565b61139b565b34801561057d57600080fd5b506101dc61058c366004611d6c565b611450565b34801561059d57600080fd5b506101dc6105ac366004611d27565b6114a9565b60007fffffffff0000000000000000000000000000000000000000000000000000000082167f7965db0b00000000000000000000000000000000000000000000000000000000148061064457507f01ffc9a7000000000000000000000000000000000000000000000000000000007fffffffff000000000000000000000000000000000000000000000000000000008316145b92915050565b3360009081527f50efbde2d46c37e9785f1791697f77e94bb7b701e19f1930a668820722d37694602052604090205460ff166106f35760405162461bcd60e51b815260206004820152602360248201527f636f6e747261637420646f6573206e6f7420686176652061646d696e2061636360448201527f657373000000000000000000000000000000000000000000000000000000000060648201526084015b60405180910390fd5b806106fc610e59565b10156107965760405162461bcd60e51b815260206004820152604a60248201527f546f6b656e56657374696e673a2063616e6e6f7420637265617465207665737460448201527f696e67207363686564756c652062656361757365206e6f74207375666669636960648201527f656e7420746f6b656e7300000000000000000000000000000000000000000000608482015260a4016106ea565b6000841161080c5760405162461bcd60e51b815260206004820152602260248201527f546f6b656e56657374696e673a206475726174696f6e206d757374206265203e60448201527f203000000000000000000000000000000000000000000000000000000000000060648201526084016106ea565b6000811161085c5760405162461bcd60e51b815260206004820181905260248201527f546f6b656e56657374696e673a20616d6f756e74206d757374206265203e203060448201526064016106ea565b60018310156108d35760405162461bcd60e51b815260206004820152602d60248201527f546f6b656e56657374696e673a20736c696365506572696f645365636f6e647360448201527f206d757374206265203e3d20310000000000000000000000000000000000000060648201526084016106ea565b6108e28787878787878761154d565b50505050505050565b6108f3611737565b7fb55ee0901ded860dac3ba700b37e01b02ac545a5f63a4a51693d8afa1c84009a61091d8161177a565b81610926610e59565b101561099a5760405162461bcd60e51b815260206004820152602b60248201527f546f6b656e56657374696e673a206e6f7420656e6f756768207769746864726160448201527f7761626c652066756e647300000000000000000000000000000000000000000060648201526084016106ea565b6109ce6001600160a01b037f0000000000000000000000000000000000000000000000000000000000000000163384611784565b506109d96001600055565b50565b600082815260016020819052604090912001546109f88161177a565b610a028383611804565b50505050565b6001600160a01b0381163314610a4a576040517f6697b23200000000000000000000000000000000000000000000000000000000815260040160405180910390fd5b610a548282611897565b505050565b610a61611737565b600082815260036020526040902054829060ff161515600114610a8357600080fd5b60008181526003602052604090206008015460ff1615610aa257600080fd5b60008381526003602090815260408083208054338086527f50efbde2d46c37e9785f1791697f77e94bb7b701e19f1930a668820722d376949094529184205490936101009092046001600160a01b03169092149160ff1690508180610b045750805b610b9c5760405162461bcd60e51b815260206004820152604260248201527f546f6b656e56657374696e673a206f6e6c792062656e6566696369617279206160448201527f6e642061646d696e2063616e2072656c656173652076657374656420746f6b6560648201527f6e73000000000000000000000000000000000000000000000000000000000000608482015260a4016106ea565b6040805161014081018252845460ff808216151583526001600160a01b03610100928390041660208401526001870154938301939093526002860154606083015260038601546080830152600486015460a083015260058601548316151560c0830152600686015460e083015260078601549082015260088501549091161515610120820152600090610c2e9061191e565b905085811015610ca65760405162461bcd60e51b815260206004820152603d60248201527f546f6b656e56657374696e673a2063616e6e6f742072656c6561736520746f6b60448201527f656e732c206e6f7420656e6f7567682076657374656420746f6b656e7300000060648201526084016106ea565b6007840154610cb59087611a01565b600785015583546004546101009091046001600160a01b031690610cd99088611a0d565b600455610d106001600160a01b037f0000000000000000000000000000000000000000000000000000000000000000168289611784565b505050505050610d206001600055565b5050565b610d8960405180610140016040528060001515815260200160006001600160a01b031681526020016000815260200160008152602001600081526020016000815260200160001515815260200160008152602001600081526020016000151581525090565b6001600160a01b03821660009081526005602052604081205460039190610db89085906103c690600190611e74565b81526020808201929092526040908101600020815161014081018352815460ff808216151583526001600160a01b036101009283900416958301959095526001830154938201939093526002820154606082015260038201546080820152600482015460a082015260058201548416151560c0820152600682015460e082015260078201549281019290925260080154909116151561012082015292915050565b600480546040517f70a082310000000000000000000000000000000000000000000000000000000081523092810192909252600091610f0e91906001600160a01b037f000000000000000000000000000000000000000000000000000000000000000016906370a0823190602401602060405180830381865afa158015610ee4573d6000803e3d6000fd5b505050506040513d601f19601f82011682018060405250810190610f089190611e87565b90611a0d565b905090565b610f7860405180610140016040528060001515815260200160006001600160a01b031681526020016000815260200160008152602001600081526020016000815260200160001515815260200160008152602001600081526020016000151581525090565b50600090815260036020818152604092839020835161014081018552815460ff808216151583526001600160a01b0361010092839004169483019490945260018301549582019590955260028201546060820152928101546080840152600481015460a084015260058101548216151560c0840152600681015460e0840152600781015493830193909352600890920154909116151561012082015290565b600081815260036020526040902054819060ff16151560011461103957600080fd5b60008181526003602052604090206008015460ff161561105857600080fd5b7fa49807205ce4d355092ef5a8a18f56e8913cf4a201fbe287825b095693c217756110828161177a565b6000838152600360205260409020600581015460ff16151560011461110f5760405162461bcd60e51b815260206004820152602660248201527f546f6b656e56657374696e673a2076657374696e67206973206e6f742072657660448201527f6f6361626c65000000000000000000000000000000000000000000000000000060648201526084016106ea565b6040805161014081018252825460ff808216151583526001600160a01b03610100928390041660208401526001850154938301939093526002840154606083015260038401546080830152600484015460a083015260058401548316151560c0830152600684015460e0830152600784015490820152600883015490911615156101208201526000906111a19061191e565b9050801561121b576040517f66afd8ef000000000000000000000000000000000000000000000000000000008152600481018690526024810182905230906366afd8ef90604401600060405180830381600087803b15801561120257600080fd5b505af1158015611216573d6000803e3d6000fd5b505050505b600061123883600701548460060154611a0d90919063ffffffff16565b6004549091506112489082611a0d565b6004555050600801805460ff19166001179055505050565b6000828152600160208190526040909120015461127c8161177a565b610a028383611897565b6001600160a01b0381166000908152600560205260408120546106449083906103c690600190611e74565b600081815260036020526040812054829060ff1615156001146112d357600080fd5b60008181526003602052604090206008015460ff16156112f257600080fd5b600083815260036020818152604092839020835161014081018552815460ff808216151583526001600160a01b0361010092839004169483019490945260018301549582019590955260028201546060820152928101546080840152600481015460a084015260058101548216151560c0840152600681015460e084015260078101549383019390935260088301541615156101208201526113939061191e565b949350505050565b61140060405180610140016040528060001515815260200160006001600160a01b031681526020016000815260200160008152602001600081526020016000815260200160001515815260200160008152602001600081526020016000151581525090565b60408051606085901b6bffffffffffffffffffffffff19166020808301919091526034808301869052835180840390910181526054909201909252805191012061144990610f13565b9392505050565b6001600160a01b0381166000908152600560209081526040808320548151606086901b6bffffffffffffffffffffffff191681850152603480820192909252825180820390920182526054019091528051910120610644565b60006114b460025490565b82106115285760405162461bcd60e51b815260206004820152602160248201527f546f6b656e56657374696e673a20696e646578206f7574206f6620626f756e6460448201527f730000000000000000000000000000000000000000000000000000000000000060648201526084016106ea565b6002828154811061153b5761153b611ea0565b90600052602060002001549050919050565b600061155888611450565b905060006115668888611a01565b90506040518061014001604052806001151581526020018a6001600160a01b03168152602001828152602001898152602001878152602001868152602001851515815260200184815260200160008152602001600015158152506003600084815260200190815260200160002060008201518160000160006101000a81548160ff02191690831515021790555060208201518160000160016101000a8154816001600160a01b0302191690836001600160a01b0316021790555060408201518160010155606082015181600201556080820151816003015560a0820151816004015560c08201518160050160006101000a81548160ff02191690831515021790555060e0820151816006015561010082015181600701556101208201518160080160006101000a81548160ff0219169083151502179055509050506116b683600454611a0190919063ffffffff16565b6004556002805460018181019092557f405787fa12a823e0f2b7631cc41b3ba8828b3321ca811111fa75cd3aa3bb5ace018390556001600160a01b038a166000908152600560205260409020549061170f908290611a01565b6001600160a01b03909a16600090815260056020526040902099909955505050505050505050565b600260005403611773576040517f3ee5aeb500000000000000000000000000000000000000000000000000000000815260040160405180910390fd5b6002600055565b6109d98133611a19565b604080516001600160a01b038416602482015260448082018490528251808303909101815260649091019091526020810180517bffffffffffffffffffffffffffffffffffffffffffffffffffffffff167fa9059cbb00000000000000000000000000000000000000000000000000000000179052610a54908490611a87565b60008281526001602090815260408083206001600160a01b038516845290915281205460ff1661188f5760008381526001602081815260408084206001600160a01b0387168086529252808420805460ff19169093179092559051339286917f2f8788117e7eff1d82e926ec794901d17c78024a50270940304540a733656f0d9190a4506001610644565b506000610644565b60008281526001602090815260408083206001600160a01b038516845290915281205460ff161561188f5760008381526001602090815260408083206001600160a01b0386168085529252808320805460ff1916905551339286917ff6391f5c32d9c69d2a47ea670b442974b53935d1edc7fd64eb21e047a839171b9190a4506001610644565b6040810151600090429081108061193c575061012083015115156001145b1561194a5750600092915050565b6080830151606084015161195d91611a01565b81106119775761010083015160e084015161144991611a0d565b6000611990846060015183611a0d90919063ffffffff16565b60a085015190915060006119a48383611b03565b905060006119b28284611b0f565b905060006119db88608001516119d5848b60e00151611b0f90919063ffffffff16565b90611b03565b90506119f588610100015182611a0d90919063ffffffff16565b98975050505050505050565b60006114498284611eb6565b60006114498284611e74565b60008281526001602090815260408083206001600160a01b038516845290915290205460ff16610d20576040517fe2517d3f0000000000000000000000000000000000000000000000000000000081526001600160a01b0382166004820152602481018390526044016106ea565b6000611a9c6001600160a01b03841683611b1b565b90508051600014158015611ac1575080806020019051810190611abf9190611ec9565b155b15610a54576040517f5274afe70000000000000000000000000000000000000000000000000000000081526001600160a01b03841660048201526024016106ea565b60006114498284611ee6565b60006114498284611f08565b60606114498383600084600080856001600160a01b03168486604051611b419190611f1f565b60006040518083038185875af1925050503d8060008114611b7e576040519150601f19603f3d011682016040523d82523d6000602084013e611b83565b606091505b5091509150611b93868383611b9d565b9695505050505050565b606082611bb257611bad82611c12565b611449565b8151158015611bc957506001600160a01b0384163b155b15611c0b576040517f9996b3150000000000000000000000000000000000000000000000000000000081526001600160a01b03851660048201526024016106ea565b5080611449565b805115611c225780518082602001fd5b6040517f1425ea4200000000000000000000000000000000000000000000000000000000815260040160405180910390fd5b600060208284031215611c6657600080fd5b81357fffffffff000000000000000000000000000000000000000000000000000000008116811461144957600080fd5b80356001600160a01b0381168114611cad57600080fd5b919050565b80151581146109d957600080fd5b600080600080600080600060e0888a031215611cdb57600080fd5b611ce488611c96565b96506020880135955060408801359450606088013593506080880135925060a0880135611d1081611cb2565b8092505060c0880135905092959891949750929550565b600060208284031215611d3957600080fd5b5035919050565b60008060408385031215611d5357600080fd5b82359150611d6360208401611c96565b90509250929050565b600060208284031215611d7e57600080fd5b61144982611c96565b60008060408385031215611d9a57600080fd5b50508035926020909101359150565b81511515815261014081016020830151611dce60208401826001600160a01b03169052565b5060408301516040830152606083015160608301526080830151608083015260a083015160a083015260c0830151611e0a60c084018215159052565b5060e083810151908301526101008084015190830152610120928301511515929091019190915290565b60008060408385031215611e4757600080fd5b611e5083611c96565b946020939093013593505050565b634e487b7160e01b600052601160045260246000fd5b8181038181111561064457610644611e5e565b600060208284031215611e9957600080fd5b5051919050565b634e487b7160e01b600052603260045260246000fd5b8082018082111561064457610644611e5e565b600060208284031215611edb57600080fd5b815161144981611cb2565b600082611f0357634e487b7160e01b600052601260045260246000fd5b500490565b808202811582820484141761064457610644611e5e565b6000825160005b81811015611f405760208186018101518583015201611f26565b50600092019182525091905056fea264697066735822122060bbf2606a0d7e2a3d3a2f264aa446325925f403c5c53b5f5a9bfba593b7062d64736f6c63430008140033a49807205ce4d355092ef5a8a18f56e8913cf4a201fbe287825b095693c21775",
  "linkReferences": {},
  "deployedLinkReferences": {}
}