{
  "_format": "hh-sol-artifact-1",
  "contractName": "AccessManager",
  "sourceName": "@openzeppelin/contracts/access/manager/AccessManager.sol",
  "abi": [
    {
      "inputs": [
        {
          "internalType": "address",
          "name": "initialAdmin",
          "type": "address"
        }
      ],
      "stateMutability": "nonpayable",
      "type": "constructor"
    },
    {
      "inputs": [
        {
          "internalType": "bytes32",
          "name": "operationId",
          "type": "bytes32"
        }
      ],
      "name": "AccessManagerAlreadyScheduled",
      "type": "error"
    },
    {
      "inputs": [],
      "name": "AccessManagerBadConfirmation",
      "type": "error"
    },
    {
      "inputs": [
        {
          "internalType": "bytes32",
          "name": "operationId",
          "type": "bytes32"
        }
      ],
      "name": "AccessManagerExpired",
      "type": "error"
    },
    {
      "inputs": [
        {
          "internalType": "address",
          "name": "initialAdmin",
          "type": "address"
        }
      ],
      "name": "AccessManagerInvalidInitialAdmin",
      "type": "error"
    },
    {
      "inputs": [
        {
          "internalType": "address",
          "name": "account",
          "type": "address"
        }
      ],
      "name": "AccessManagerLockedAccount",
      "type": "error"
    },
    {
      "inputs": [
        {
          "internalType": "uint64",
          "name": "roleId",
          "type": "uint64"
        }
      ],
      "name": "AccessManagerLockedRole",
      "type": "error"
    },
    {
      "inputs": [
        {
          "internalType": "bytes32",
          "name": "operationId",
          "type": "bytes32"
        }
      ],
      "name": "AccessManagerNotReady",
      "type": "error"
    },
    {
      "inputs": [
        {
          "internalType": "bytes32",
          "name": "operationId",
          "type": "bytes32"
        }
      ],
      "name": "AccessManagerNotScheduled",
      "type": "error"
    },
    {
      "inputs": [
        {
          "internalType": "address",
          "name": "msgsender",
          "type": "address"
        },
        {
          "internalType": "uint64",
          "name": "roleId",
          "type": "uint64"
        }
      ],
      "name": "AccessManagerUnauthorizedAccount",
      "type": "error"
    },
    {
      "inputs": [
        {
          "internalType": "address",
          "name": "caller",
          "type": "address"
        },
        {
          "internalType": "address",
          "name": "target",
          "type": "address"
        },
        {
          "internalType": "bytes4",
          "name": "selector",
          "type": "bytes4"
        }
      ],
      "name": "AccessManagerUnauthorizedCall",
      "type": "error"
    },
    {
      "inputs": [
        {
          "internalType": "address",
          "name": "msgsender",
          "type": "address"
        },
        {
          "internalType": "address",
          "name": "caller",
          "type": "address"
        },
        {
          "internalType": "address",
          "name": "target",
          "type": "address"
        },
        {
          "internalType": "bytes4",
          "name": "selector",
          "type": "bytes4"
        }
      ],
      "name": "AccessManagerUnauthorizedCancel",
      "type": "error"
    },
    {
      "inputs": [
        {
          "internalType": "address",
          "name": "target",
          "type": "address"
        }
      ],
      "name": "AccessManagerUnauthorizedConsume",
      "type": "error"
    },
    {
      "inputs": [
        {
          "internalType": "address",
          "name": "target",
          "type": "address"
        }
      ],
      "name": "AddressEmptyCode",
      "type": "error"
    },
    {
      "inputs": [
        {
          "internalType": "address",
          "name": "account",
          "type": "address"
        }
      ],
      "name": "AddressInsufficientBalance",
      "type": "error"
    },
    {
      "inputs": [],
      "name": "FailedInnerCall",
      "type": "error"
    },
    {
      "inputs": [
        {
          "internalType": "uint8",
          "name": "bits",
          "type": "uint8"
        },
        {
          "internalType": "uint256",
          "name": "value",
          "type": "uint256"
        }
      ],
      "name": "SafeCastOverflowedUintDowncast",
      "type": "error"
    },
    {
      "anonymous": false,
      "inputs": [
        {
          "indexed": true,
          "internalType": "bytes32",
          "name": "operationId",
          "type": "bytes32"
        },
        {
          "indexed": true,
          "internalType": "uint32",
          "name": "nonce",
          "type": "uint32"
        }
      ],
      "name": "OperationCanceled",
      "type": "event"
    },
    {
      "anonymous": false,
      "inputs": [
        {
          "indexed": true,
          "internalType": "bytes32",
          "name": "operationId",
          "type": "bytes32"
        },
        {
          "indexed": true,
          "internalType": "uint32",
          "name": "nonce",
          "type": "uint32"
        }
      ],
      "name": "OperationExecuted",
      "type": "event"
    },
    {
      "anonymous": false,
      "inputs": [
        {
          "indexed": true,
          "internalType": "bytes32",
          "name": "operationId",
          "type": "bytes32"
        },
        {
          "indexed": true,
          "internalType": "uint32",
          "name": "nonce",
          "type": "uint32"
        },
        {
          "indexed": false,
          "internalType": "uint48",
          "name": "schedule",
          "type": "uint48"
        },
        {
          "indexed": false,
          "internalType": "address",
          "name": "caller",
          "type": "address"
        },
        {
          "indexed": false,
          "internalType": "address",
          "name": "target",
          "type": "address"
        },
        {
          "indexed": false,
          "internalType": "bytes",
          "name": "data",
          "type": "bytes"
        }
      ],
      "name": "OperationScheduled",
      "type": "event"
    },
    {
      "anonymous": false,
      "inputs": [
        {
          "indexed": true,
          "internalType": "uint64",
          "name": "roleId",
          "type": "uint64"
        },
        {
          "indexed": true,
          "internalType": "uint64",
          "name": "admin",
          "type": "uint64"
        }
      ],
      "name": "RoleAdminChanged",
      "type": "event"
    },
    {
      "anonymous": false,
      "inputs": [
        {
          "indexed": true,
          "internalType": "uint64",
          "name": "roleId",
          "type": "uint64"
        },
        {
          "indexed": false,
          "internalType": "uint32",
          "name": "delay",
          "type": "uint32"
        },
        {
          "indexed": false,
          "internalType": "uint48",
          "name": "since",
          "type": "uint48"
        }
      ],
      "name": "RoleGrantDelayChanged",
      "type": "event"
    },
    {
      "anonymous": false,
      "inputs": [
        {
          "indexed": true,
          "internalType": "uint64",
          "name": "roleId",
          "type": "uint64"
        },
        {
          "indexed": true,
          "internalType": "address",
          "name": "account",
          "type": "address"
        },
        {
          "indexed": false,
          "internalType": "uint32",
          "name": "delay",
          "type": "uint32"
        },
        {
          "indexed": false,
          "internalType": "uint48",
          "name": "since",
          "type": "uint48"
        },
        {
          "indexed": false,
          "internalType": "bool",
          "name": "newMember",
          "type": "bool"
        }
      ],
      "name": "RoleGranted",
      "type": "event"
    },
    {
      "anonymous": false,
      "inputs": [
        {
          "indexed": true,
          "internalType": "uint64",
          "name": "roleId",
          "type": "uint64"
        },
        {
          "indexed": true,
          "internalType": "uint64",
          "name": "guardian",
          "type": "uint64"
        }
      ],
      "name": "RoleGuardianChanged",
      "type": "event"
    },
    {
      "anonymous": false,
      "inputs": [
        {
          "indexed": true,
          "internalType": "uint64",
          "name": "roleId",
          "type": "uint64"
        },
        {
          "indexed": false,
          "internalType": "string",
          "name": "label",
          "type": "string"
        }
      ],
      "name": "RoleLabel",
      "type": "event"
    },
    {
      "anonymous": false,
      "inputs": [
        {
          "indexed": true,
          "internalType": "uint64",
          "name": "roleId",
          "type": "uint64"
        },
        {
          "indexed": true,
          "internalType": "address",
          "name": "account",
          "type": "address"
        }
      ],
      "name": "RoleRevoked",
      "type": "event"
    },
    {
      "anonymous": false,
      "inputs": [
        {
          "indexed": true,
          "internalType": "address",
          "name": "target",
          "type": "address"
        },
        {
          "indexed": false,
          "internalType": "uint32",
          "name": "delay",
          "type": "uint32"
        },
        {
          "indexed": false,
          "internalType": "uint48",
          "name": "since",
          "type": "uint48"
        }
      ],
      "name": "TargetAdminDelayUpdated",
      "type": "event"
    },
    {
      "anonymous": false,
      "inputs": [
        {
          "indexed": true,
          "internalType": "address",
          "name": "target",
          "type": "address"
        },
        {
          "indexed": false,
          "internalType": "bool",
          "name": "closed",
          "type": "bool"
        }
      ],
      "name": "TargetClosed",
      "type": "event"
    },
    {
      "anonymous": false,
      "inputs": [
        {
          "indexed": true,
          "internalType": "address",
          "name": "target",
          "type": "address"
        },
        {
          "indexed": false,
          "internalType": "bytes4",
          "name": "selector",
          "type": "bytes4"
        },
        {
          "indexed": true,
          "internalType": "uint64",
          "name": "roleId",
          "type": "uint64"
        }
      ],
      "name": "TargetFunctionRoleUpdated",
      "type": "event"
    },
    {
      "inputs": [],
      "name": "ADMIN_ROLE",
      "outputs": [
        {
          "internalType": "uint64",
          "name": "",
          "type": "uint64"
        }
      ],
      "stateMutability": "view",
      "type": "function"
    },
    {
      "inputs": [],
      "name": "PUBLIC_ROLE",
      "outputs": [
        {
          "internalType": "uint64",
          "name": "",
          "type": "uint64"
        }
      ],
      "stateMutability": "view",
      "type": "function"
    },
    {
      "inputs": [
        {
          "internalType": "address",
          "name": "caller",
          "type": "address"
        },
        {
          "internalType": "address",
          "name": "target",
          "type": "address"
        },
        {
          "internalType": "bytes4",
          "name": "selector",
          "type": "bytes4"
        }
      ],
      "name": "canCall",
      "outputs": [
        {
          "internalType": "bool",
          "name": "immediate",
          "type": "bool"
        },
        {
          "internalType": "uint32",
          "name": "delay",
          "type": "uint32"
        }
      ],
      "stateMutability": "view",
      "type": "function"
    },
    {
      "inputs": [
        {
          "internalType": "address",
          "name": "caller",
          "type": "address"
        },
        {
          "internalType": "address",
          "name": "target",
          "type": "address"
        },
        {
          "internalType": "bytes",
          "name": "data",
          "type": "bytes"
        }
      ],
      "name": "cancel",
      "outputs": [
        {
          "internalType": "uint32",
          "name": "",
          "type": "uint32"
        }
      ],
      "stateMutability": "nonpayable",
      "type": "function"
    },
    {
      "inputs": [
        {
          "internalType": "address",
          "name": "caller",
          "type": "address"
        },
        {
          "internalType": "bytes",
          "name": "data",
          "type": "bytes"
        }
      ],
      "name": "consumeScheduledOp",
      "outputs": [],
      "stateMutability": "nonpayable",
      "type": "function"
    },
    {
      "inputs": [
        {
          "internalType": "address",
          "name": "target",
          "type": "address"
        },
        {
          "internalType": "bytes",
          "name": "data",
          "type": "bytes"
        }
      ],
      "name": "execute",
      "outputs": [
        {
          "internalType": "uint32",
          "name": "",
          "type": "uint32"
        }
      ],
      "stateMutability": "payable",
      "type": "function"
    },
    {
      "inputs": [],
      "name": "expiration",
      "outputs": [
        {
          "internalType": "uint32",
          "name": "",
          "type": "uint32"
        }
      ],
      "stateMutability": "view",
      "type": "function"
    },
    {
      "inputs": [
        {
          "internalType": "uint64",
          "name": "roleId",
          "type": "uint64"
        },
        {
          "internalType": "address",
          "name": "account",
          "type": "address"
        }
      ],
      "name": "getAccess",
      "outputs": [
        {
          "internalType": "uint48",
          "name": "since",
          "type": "uint48"
        },
        {
          "internalType": "uint32",
          "name": "currentDelay",
          "type": "uint32"
        },
        {
          "internalType": "uint32",
          "name": "pendingDelay",
          "type": "uint32"
        },
        {
          "internalType": "uint48",
          "name": "effect",
          "type": "uint48"
        }
      ],
      "stateMutability": "view",
      "type": "function"
    },
    {
      "inputs": [
        {
          "internalType": "bytes32",
          "name": "id",
          "type": "bytes32"
        }
      ],
      "name": "getNonce",
      "outputs": [
        {
          "internalType": "uint32",
          "name": "",
          "type": "uint32"
        }
      ],
      "stateMutability": "view",
      "type": "function"
    },
    {
      "inputs": [
        {
          "internalType": "uint64",
          "name": "roleId",
          "type": "uint64"
        }
      ],
      "name": "getRoleAdmin",
      "outputs": [
        {
          "internalType": "uint64",
          "name": "",
          "type": "uint64"
        }
      ],
      "stateMutability": "view",
      "type": "function"
    },
    {
      "inputs": [
        {
          "internalType": "uint64",
          "name": "roleId",
          "type": "uint64"
        }
      ],
      "name": "getRoleGrantDelay",
      "outputs": [
        {
          "internalType": "uint32",
          "name": "",
          "type": "uint32"
        }
      ],
      "stateMutability": "view",
      "type": "function"
    },
    {
      "inputs": [
        {
          "internalType": "uint64",
          "name": "roleId",
          "type": "uint64"
        }
      ],
      "name": "getRoleGuardian",
      "outputs": [
        {
          "internalType": "uint64",
          "name": "",
          "type": "uint64"
        }
      ],
      "stateMutability": "view",
      "type": "function"
    },
    {
      "inputs": [
        {
          "internalType": "bytes32",
          "name": "id",
          "type": "bytes32"
        }
      ],
      "name": "getSchedule",
      "outputs": [
        {
          "internalType": "uint48",
          "name": "",
          "type": "uint48"
        }
      ],
      "stateMutability": "view",
      "type": "function"
    },
    {
      "inputs": [
        {
          "internalType": "address",
          "name": "target",
          "type": "address"
        }
      ],
      "name": "getTargetAdminDelay",
      "outputs": [
        {
          "internalType": "uint32",
          "name": "",
          "type": "uint32"
        }
      ],
      "stateMutability": "view",
      "type": "function"
    },
    {
      "inputs": [
        {
          "internalType": "address",
          "name": "target",
          "type": "address"
        },
        {
          "internalType": "bytes4",
          "name": "selector",
          "type": "bytes4"
        }
      ],
      "name": "getTargetFunctionRole",
      "outputs": [
        {
          "internalType": "uint64",
          "name": "",
          "type": "uint64"
        }
      ],
      "stateMutability": "view",
      "type": "function"
    },
    {
      "inputs": [
        {
          "internalType": "uint64",
          "name": "roleId",
          "type": "uint64"
        },
        {
          "internalType": "address",
          "name": "account",
          "type": "address"
        },
        {
          "internalType": "uint32",
          "name": "executionDelay",
          "type": "uint32"
        }
      ],
      "name": "grantRole",
      "outputs": [],
      "stateMutability": "nonpayable",
      "type": "function"
    },
    {
      "inputs": [
        {
          "internalType": "uint64",
          "name": "roleId",
          "type": "uint64"
        },
        {
          "internalType": "address",
          "name": "account",
          "type": "address"
        }
      ],
      "name": "hasRole",
      "outputs": [
        {
          "internalType": "bool",
          "name": "isMember",
          "type": "bool"
        },
        {
          "internalType": "uint32",
          "name": "executionDelay",
          "type": "uint32"
        }
      ],
      "stateMutability": "view",
      "type": "function"
    },
    {
      "inputs": [
        {
          "internalType": "address",
          "name": "caller",
          "type": "address"
        },
        {
          "internalType": "address",
          "name": "target",
          "type": "address"
        },
        {
          "internalType": "bytes",
          "name": "data",
          "type": "bytes"
        }
      ],
      "name": "hashOperation",
      "outputs": [
        {
          "internalType": "bytes32",
          "name": "",
          "type": "bytes32"
        }
      ],
      "stateMutability": "view",
      "type": "function"
    },
    {
      "inputs": [
        {
          "internalType": "address",
          "name": "target",
          "type": "address"
        }
      ],
      "name": "isTargetClosed",
      "outputs": [
        {
          "internalType": "bool",
          "name": "",
          "type": "bool"
        }
      ],
      "stateMutability": "view",
      "type": "function"
    },
    {
      "inputs": [
        {
          "internalType": "uint64",
          "name": "roleId",
          "type": "uint64"
        },
        {
          "internalType": "string",
          "name": "label",
          "type": "string"
        }
      ],
      "name": "labelRole",
      "outputs": [],
      "stateMutability": "nonpayable",
      "type": "function"
    },
    {
      "inputs": [],
      "name": "minSetback",
      "outputs": [
        {
          "internalType": "uint32",
          "name": "",
          "type": "uint32"
        }
      ],
      "stateMutability": "view",
      "type": "function"
    },
    {
      "inputs": [
        {
          "internalType": "bytes[]",
          "name": "data",
          "type": "bytes[]"
        }
      ],
      "name": "multicall",
      "outputs": [
        {
          "internalType": "bytes[]",
          "name": "results",
          "type": "bytes[]"
        }
      ],
      "stateMutability": "nonpayable",
      "type": "function"
    },
    {
      "inputs": [
        {
          "internalType": "uint64",
          "name": "roleId",
          "type": "uint64"
        },
        {
          "internalType": "address",
          "name": "callerConfirmation",
          "type": "address"
        }
      ],
      "name": "renounceRole",
      "outputs": [],
      "stateMutability": "nonpayable",
      "type": "function"
    },
    {
      "inputs": [
        {
          "internalType": "uint64",
          "name": "roleId",
          "type": "uint64"
        },
        {
          "internalType": "address",
          "name": "account",
          "type": "address"
        }
      ],
      "name": "revokeRole",
      "outputs": [],
      "stateMutability": "nonpayable",
      "type": "function"
    },
    {
      "inputs": [
        {
          "internalType": "address",
          "name": "target",
          "type": "address"
        },
        {
          "internalType": "bytes",
          "name": "data",
          "type": "bytes"
        },
        {
          "internalType": "uint48",
          "name": "when",
          "type": "uint48"
        }
      ],
      "name": "schedule",
      "outputs": [
        {
          "internalType": "bytes32",
          "name": "operationId",
          "type": "bytes32"
        },
        {
          "internalType": "uint32",
          "name": "nonce",
          "type": "uint32"
        }
      ],
      "stateMutability": "nonpayable",
      "type": "function"
    },
    {
      "inputs": [
        {
          "internalType": "uint64",
          "name": "roleId",
          "type": "uint64"
        },
        {
          "internalType": "uint32",
          "name": "newDelay",
          "type": "uint32"
        }
      ],
      "name": "setGrantDelay",
      "outputs": [],
      "stateMutability": "nonpayable",
      "type": "function"
    },
    {
      "inputs": [
        {
          "internalType": "uint64",
          "name": "roleId",
          "type": "uint64"
        },
        {
          "internalType": "uint64",
          "name": "admin",
          "type": "uint64"
        }
      ],
      "name": "setRoleAdmin",
      "outputs": [],
      "stateMutability": "nonpayable",
      "type": "function"
    },
    {
      "inputs": [
        {
          "internalType": "uint64",
          "name": "roleId",
          "type": "uint64"
        },
        {
          "internalType": "uint64",
          "name": "guardian",
          "type": "uint64"
        }
      ],
      "name": "setRoleGuardian",
      "outputs": [],
      "stateMutability": "nonpayable",
      "type": "function"
    },
    {
      "inputs": [
        {
          "internalType": "address",
          "name": "target",
          "type": "address"
        },
        {
          "internalType": "uint32",
          "name": "newDelay",
          "type": "uint32"
        }
      ],
      "name": "setTargetAdminDelay",
      "outputs": [],
      "stateMutability": "nonpayable",
      "type": "function"
    },
    {
      "inputs": [
        {
          "internalType": "address",
          "name": "target",
          "type": "address"
        },
        {
          "internalType": "bool",
          "name": "closed",
          "type": "bool"
        }
      ],
      "name": "setTargetClosed",
      "outputs": [],
      "stateMutability": "nonpayable",
      "type": "function"
    },
    {
      "inputs": [
        {
          "internalType": "address",
          "name": "target",
          "type": "address"
        },
        {
          "internalType": "bytes4[]",
          "name": "selectors",
          "type": "bytes4[]"
        },
        {
          "internalType": "uint64",
          "name": "roleId",
          "type": "uint64"
        }
      ],
      "name": "setTargetFunctionRole",
      "outputs": [],
      "stateMutability": "nonpayable",
      "type": "function"
    },
    {
      "inputs": [
        {
          "internalType": "address",
          "name": "target",
          "type": "address"
        },
        {
          "internalType": "address",
          "name": "newAuthority",
          "type": "address"
        }
      ],
      "name": "updateAuthority",
      "outputs": [],
      "stateMutability": "nonpayable",
      "type": "function"
    }
  ],
  "bytecode": "0x60806040523480156200001157600080fd5b50604051620032343803806200323483398101604081905262000034916200048f565b6001600160a01b0381166200006457604051630409d6d160e11b8152600060048201526024015b60405180910390fd5b6200007360008281806200007b565b505062000519565b60006002600160401b03196001600160401b03861601620000bb5760405163061c6a4360e21b81526001600160401b03861660048201526024016200005b565b6001600160401b03851660009081526001602090815260408083206001600160a01b038816845290915281205465ffffffffffff1615908115620001ba5763ffffffff85166200010a620002d2565b620001169190620004d0565b905060405180604001604052808265ffffffffffff168152602001620001488663ffffffff16620002e460201b60201c565b6001600160701b039081169091526001600160401b03891660009081526001602090815260408083206001600160a01b038c16845282529091208351815494909201519092166601000000000000026001600160a01b031990931665ffffffffffff9091161791909117905562000264565b6001600160401b03871660009081526001602090815260408083206001600160a01b038a168452909152812054620002099166010000000000009091046001600160701b0316908690620002ed565b6001600160401b03891660009081526001602090815260408083206001600160a01b038c168452909152902080546001600160701b03909316660100000000000002600160301b600160a01b03199093169290921790915590505b6040805163ffffffff8616815265ffffffffffff831660208201528315158183015290516001600160a01b038816916001600160401b038a16917ff98448b987f1428e0e230e1f3c6e2ce15b5693eaf31827fbd0b1ec4b424ae7cf9181900360600190a35095945050505050565b6000620002df42620003a2565b905090565b63ffffffff1690565b60008080620003056001600160701b038716620003db565b90506000620003488563ffffffff168763ffffffff168463ffffffff1611620003305760006200033c565b6200033c8885620004f9565b63ffffffff16620003fc565b905063ffffffff81166200035b620002d2565b620003679190620004d0565b925063ffffffff8616602083901b67ffffffff0000000016604085901b6dffffffffffff000000000000000016171793505050935093915050565b600065ffffffffffff821115620003d7576040516306dfcc6560e41b815260306004820152602481018390526044016200005b565b5090565b600080620003f26001600160701b03841662000416565b5090949350505050565b60008183116200040d57816200040f565b825b9392505050565b600080806200042f8462000429620002d2565b6200043c565b9250925092509193909250565b600080806001600160501b03602086901c166001600160701b03861665ffffffffffff604088901c81169087168111156200047a578282826200047f565b816000805b9550955095505050509250925092565b600060208284031215620004a257600080fd5b81516001600160a01b03811681146200040f57600080fd5b634e487b7160e01b600052601160045260246000fd5b65ffffffffffff818116838216019080821115620004f257620004f2620004ba565b5092915050565b63ffffffff828116828216039080821115620004f257620004f2620004ba565b612d0b80620005296000396000f3fe6080604052600436106101e35760003560e01c80636d5115bd11610102578063b700961311610095578063d22b598911610064578063d22b5989146106c4578063d6bb62c6146106e4578063f801a69814610704578063fe0776f51461073e57600080fd5b8063b700961314610632578063b7d2b1621461066e578063cc1b6c811461068e578063d1f856ee146106a457600080fd5b8063a166aa89116100d1578063a166aa8914610564578063a64d95ce146105b7578063abd9bd2a146105d7578063ac9650d81461060557600080fd5b80636d5115bd146104b857806375b238fc1461050f578063853551b81461052457806394c7d7ee1461054457600080fd5b806330cae1871161017a5780634665096d116101495780634665096d146104245780634c1da1e21461043a578063529629521461045a578063530dd4561461047a57600080fd5b806330cae187146103745780633adc277a146103945780633ca7c02a146103cb5780634136a33c146103e757600080fd5b806318ff183c116101b657806318ff183c146102c75780631cff79cd146102e757806325c471a0146102fa5780633078f1141461031a57600080fd5b806308d6122d146101e85780630b0a93ba1461020a57806312be872714610272578063167bd395146102a7575b600080fd5b3480156101f457600080fd5b5061020861020336600461257f565b61075e565b005b34801561021657600080fd5b506102546102253660046125e6565b67ffffffffffffffff908116600090815260016020819052604090912001546801000000000000000090041690565b60405167ffffffffffffffff90911681526020015b60405180910390f35b34801561027e57600080fd5b5061029261028d3660046125e6565b6107b9565b60405163ffffffff9091168152602001610269565b3480156102b357600080fd5b506102086102c2366004612601565b6107f5565b3480156102d357600080fd5b506102086102e236600461263f565b61080b565b6102926102f53660046126af565b61088b565b34801561030657600080fd5b50610208610315366004612718565b610a11565b34801561032657600080fd5b5061033a61033536600461275d565b610a33565b604051610269949392919065ffffffffffff948516815263ffffffff93841660208201529190921660408201529116606082015260800190565b34801561038057600080fd5b5061020861038f366004612779565b610a9c565b3480156103a057600080fd5b506103b46103af3660046127ac565b610aae565b60405165ffffffffffff9091168152602001610269565b3480156103d757600080fd5b5061025467ffffffffffffffff81565b3480156103f357600080fd5b506102926104023660046127ac565b6000908152600260205260409020546601000000000000900463ffffffff1690565b34801561043057600080fd5b5062093a80610292565b34801561044657600080fd5b506102926104553660046127c5565b610ae1565b34801561046657600080fd5b50610208610475366004612779565b610b0f565b34801561048657600080fd5b506102546104953660046125e6565b67ffffffffffffffff908116600090815260016020819052604090912001541690565b3480156104c457600080fd5b506102546104d33660046127f8565b6001600160a01b0382166000908152602081815260408083206001600160e01b03198516845290915290205467ffffffffffffffff1692915050565b34801561051b57600080fd5b50610254600081565b34801561053057600080fd5b5061020861053f366004612826565b610b21565b34801561055057600080fd5b5061020861055f3660046126af565b610bbc565b34801561057057600080fd5b506105a761057f3660046127c5565b6001600160a01b0316600090815260208190526040902060010154600160701b900460ff1690565b6040519015158152602001610269565b3480156105c357600080fd5b506102086105d2366004612844565b610c9a565b3480156105e357600080fd5b506105f76105f236600461286e565b610cac565b604051908152602001610269565b34801561061157600080fd5b506106256106203660046128d3565b610ce5565b6040516102699190612939565b34801561063e57600080fd5b5061065261064d3660046129b3565b610dda565b60408051921515835263ffffffff909116602083015201610269565b34801561067a57600080fd5b5061020861068936600461275d565b610edb565b34801561069a57600080fd5b5062069780610292565b3480156106b057600080fd5b506106526106bf36600461275d565b610ef2565b3480156106d057600080fd5b506102086106df3660046129fe565b610f70565b3480156106f057600080fd5b506102926106ff36600461286e565b610f82565b34801561071057600080fd5b5061072461071f366004612a1c565b61112b565b6040805192835263ffffffff909116602083015201610269565b34801561074a57600080fd5b5061020861075936600461275d565b611273565b6107666112b5565b60005b828110156107b2576107a28585858481811061078757610787612a8f565b905060200201602081019061079c9190612aa5565b8461134a565b6107ab81612ad8565b9050610769565b5050505050565b67ffffffffffffffff81166000908152600160208190526040822001546107ef90600160801b90046001600160701b03166113cd565b92915050565b6107fd6112b5565b61080782826113ec565b5050565b6108136112b5565b6040517f7a9e5e4b0000000000000000000000000000000000000000000000000000000081526001600160a01b038281166004830152831690637a9e5e4b90602401600060405180830381600087803b15801561086f57600080fd5b505af1158015610883573d6000803e3d6000fd5b505050505050565b600033818061089c838888886114b6565b91509150811580156108b2575063ffffffff8116155b1561091e5782876108c38888611509565b6040517f81c6f24b0000000000000000000000000000000000000000000000000000000081526001600160a01b0393841660048201529290911660248301526001600160e01b03191660448201526064015b60405180910390fd5b600061092c84898989610cac565b9050600063ffffffff8316151580610953575061094882610aae565b65ffffffffffff1615155b156109645761096182611521565b90505b6003546109b78a6109758b8b611509565b604080516001600160a01b03939093166020808501919091526001600160e01b0319929092168382015280518084038201815260609093019052815191012090565b6003819055506109ff8a8a8a8080601f016020809104026020016040519081016040528093929190818152602001838380828437600092019190915250349250611656915050565b506003559450505050505b9392505050565b610a196112b5565b610a2d8383610a27866107b9565b8461170c565b50505050565b67ffffffffffffffff821660009081526001602090815260408083206001600160a01b03851684529091528120805465ffffffffffff811692918291829190610a8e90660100000000000090046001600160701b031661197f565b969991985096509350505050565b610aa46112b5565b61080782826119a2565b60008181526002602052604081205465ffffffffffff16610ace81611a4a565b610ad85780610a0a565b60009392505050565b6001600160a01b0381166000908152602081905260408120600101546107ef906001600160701b03166113cd565b610b176112b5565b6108078282611a79565b610b296112b5565b67ffffffffffffffff83161580610b49575067ffffffffffffffff838116145b15610b735760405163061c6a4360e21b815267ffffffffffffffff84166004820152602401610915565b8267ffffffffffffffff167f1256f5b5ecb89caec12db449738f2fbcd1ba5806cf38f35413f4e5c15bf6a4508383604051610baf929190612b1a565b60405180910390a2505050565b604080517f8fb360370000000000000000000000000000000000000000000000000000000080825291513392918391638fb36037916004808201926020929091908290030181865afa158015610c16573d6000803e3d6000fd5b505050506040513d601f19601f82011682018060405250810190610c3a9190612b36565b6001600160e01b03191614610c86576040517f320ff7480000000000000000000000000000000000000000000000000000000081526001600160a01b0382166004820152602401610915565b6107b2610c9585838686610cac565b611521565b610ca26112b5565b6108078282611b43565b600084848484604051602001610cc59493929190612b53565b604051602081830303815290604052805190602001209050949350505050565b60608167ffffffffffffffff811115610d0057610d00612b80565b604051908082528060200260200182016040528015610d3357816020015b6060815260200190600190039081610d1e5790505b50905060005b82811015610dd357610da330858584818110610d5757610d57612a8f565b9050602002810190610d699190612b96565b8080601f016020809104026020016040519081016040528093929190818152602001838380828437600092019190915250611c6692505050565b828281518110610db557610db5612a8f565b60200260200101819052508080610dcb90612ad8565b915050610d39565b5092915050565b6001600160a01b0382166000908152602081905260408120600101548190600160701b900460ff1615610e1257506000905080610ed3565b306001600160a01b03861603610e6e57604080516001600160a01b0386166020808301919091526001600160e01b031986168284015282518083038401815260609092019092528051910120600354145b600091509150610ed3565b6001600160a01b0384166000908152602081815260408083206001600160e01b03198716845290915281205467ffffffffffffffff169080610eb08389610ef2565b9150915081610ec157600080610ecb565b63ffffffff811615815b945094505050505b935093915050565b610ee36112b5565b610eed8282611cdc565b505050565b60008067fffffffffffffffe1967ffffffffffffffff851601610f1b5750600190506000610f69565b600080610f288686610a33565b5050915091508165ffffffffffff16600014158015610f5e5750610f4a611dda565b65ffffffffffff168265ffffffffffff1611155b93509150610f699050565b9250929050565b610f786112b5565b6108078282611dea565b60003381610f908585611509565b90506000610fa088888888610cac565b60008181526002602052604081205491925065ffffffffffff9091169003610fde5760405163060a299b60e41b815260048101829052602401610915565b826001600160a01b0316886001600160a01b0316146110c6576000611004600085610ef2565b506001600160a01b0389166000908152602081815260408083206001600160e01b031988168452909152812054919250906110529061104c9067ffffffffffffffff16610225565b86610ef2565b50905081158015611061575080155b156110c3576040517f3fe2751c0000000000000000000000000000000000000000000000000000000081526001600160a01b038087166004830152808c1660248301528a1660448201526001600160e01b031985166064820152608401610915565b50505b600081815260026020526040808220805465ffffffffffff1916908190559051660100000000000090910463ffffffff1691829184917fbd9ac67a6e2f6463b80927326310338bcbb4bdb7936ce1365ea3e01067e7b9f791a398975050505050505050565b600080338161113c828989896114b6565b91505060008163ffffffff16611150611dda565b61115a9190612bdd565b905063ffffffff82161580611191575060008665ffffffffffff1611801561119157508065ffffffffffff168665ffffffffffff16105b156111a25782896108c38a8a611509565b6111bc8665ffffffffffff168265ffffffffffff16611ea7565b95506111ca838a8a8a610cac565b94506111d585611ebd565b60008581526002602052604090819020805465ffffffffffff891669ffffffffffffffffffff1982161766010000000000009182900463ffffffff90811660010190811692830291909117909255915190955086907f82a2da5dee54ea8021c6545b4444620291e07ee83be6dd57edb175062715f3b49061125f908a9088908f908f908f90612bfc565b60405180910390a350505094509492505050565b6001600160a01b0381163314610ee3576040517f5f159e6300000000000000000000000000000000000000000000000000000000815260040160405180910390fd5b336000806112c4838236611f23565b9150915081610eed578063ffffffff1660000361133a5760006112e7813661201c565b506040517ff07e038f0000000000000000000000000000000000000000000000000000000081526001600160a01b038716600482015267ffffffffffffffff821660248201529092506044019050610915565b610a2d610c958430600036610cac565b6001600160a01b0383166000818152602081815260408083206001600160e01b0319871680855290835292819020805467ffffffffffffffff191667ffffffffffffffff8716908117909155905192835292917f9ea6790c7dadfd01c9f8b9762b3682607af2c7e79e05a9f9fdf5580dde949151910160405180910390a3505050565b6000806113e2836001600160701b031661197f565b5090949350505050565b306001600160a01b03831603611439576040517f5a068bc80000000000000000000000000000000000000000000000000000000081526001600160a01b0383166004820152602401610915565b6001600160a01b038216600081815260208190526040908190206001018054841515600160701b026eff000000000000000000000000000019909116179055517f90d4e7bb7e5d933792b3562e1741306f8be94837e1348dacef9b6f1df56eb138906114aa90841515815260200190565b60405180910390a25050565b600080306001600160a01b038616036114dd576114d4868585611f23565b91509150611500565b600483106114f9576114f4868661064d8787611509565b6114d4565b5060009050805b94509492505050565b60006115186004828486612c42565b610a0a91612c6c565b60008181526002602052604081205465ffffffffffff8116906601000000000000900463ffffffff1681830361156d5760405163060a299b60e41b815260048101859052602401610915565b611575611dda565b65ffffffffffff168265ffffffffffff1611156115c1576040517f18cb6b7a00000000000000000000000000000000000000000000000000000000815260048101859052602401610915565b6115ca82611a4a565b15611604576040517f78a5d6e400000000000000000000000000000000000000000000000000000000815260048101859052602401610915565b600084815260026020526040808220805465ffffffffffff191690555163ffffffff83169186917f76a2a46953689d4861a5d3f6ed883ad7e6af674a21f8e162707159fc9dde614d9190a39392505050565b606081471015611694576040517fcd786059000000000000000000000000000000000000000000000000000000008152306004820152602401610915565b600080856001600160a01b031684866040516116b09190612c9c565b60006040518083038185875af1925050503d80600081146116ed576040519150601f19603f3d011682016040523d82523d6000602084013e6116f2565b606091505b5091509150611702868383612300565b9695505050505050565b600067fffffffffffffffe1967ffffffffffffffff86160161174d5760405163061c6a4360e21b815267ffffffffffffffff86166004820152602401610915565b67ffffffffffffffff851660009081526001602090815260408083206001600160a01b038816845290915281205465ffffffffffff1615908115611851578463ffffffff1661179a611dda565b6117a49190612bdd565b905060405180604001604052808265ffffffffffff1681526020016117d28663ffffffff1663ffffffff1690565b6001600160701b0390811690915267ffffffffffffffff891660009081526001602090815260408083206001600160a01b038c168452825290912083518154949092015190921666010000000000000273ffffffffffffffffffffffffffffffffffffffff1990931665ffffffffffff90911617919091179055611910565b67ffffffffffffffff871660009081526001602090815260408083206001600160a01b038a16845290915281205461189f9166010000000000009091046001600160701b0316908690612375565b67ffffffffffffffff891660009081526001602090815260408083206001600160a01b038c168452909152902080546001600160701b039093166601000000000000027fffffffffffffffffffffffff0000000000000000000000000000ffffffffffff9093169290921790915590505b6040805163ffffffff8616815265ffffffffffff831660208201528315158183015290516001600160a01b0388169167ffffffffffffffff8a16917ff98448b987f1428e0e230e1f3c6e2ce15b5693eaf31827fbd0b1ec4b424ae7cf9181900360600190a35095945050505050565b600080600061199584611990611dda565b61241f565b9250925092509193909250565b67ffffffffffffffff821615806119c2575067ffffffffffffffff828116145b156119ec5760405163061c6a4360e21b815267ffffffffffffffff83166004820152602401610915565b67ffffffffffffffff8281166000818152600160208190526040808320909101805467ffffffffffffffff19169486169485179055517f1fd6dd7631312dfac2205b52913f99de03b4d7e381d5d27d3dbfe0713e6e63409190a35050565b6000611a54611dda565b65ffffffffffff16611a6962093a8084612bdd565b65ffffffffffff16111592915050565b67ffffffffffffffff82161580611a99575067ffffffffffffffff828116145b15611ac35760405163061c6a4360e21b815267ffffffffffffffff83166004820152602401610915565b67ffffffffffffffff828116600081815260016020819052604080832090910180547fffffffffffffffffffffffffffffffff0000000000000000ffffffffffffffff1668010000000000000000958716958602179055517f7a8059630b897b5de4c08ade69f8b90c3ead1f8596d62d10b6c4d14a0afb4ae29190a35050565b67fffffffffffffffe1967ffffffffffffffff831601611b825760405163061c6a4360e21b815267ffffffffffffffff83166004820152602401610915565b67ffffffffffffffff8216600090815260016020819052604082200154611bbd90600160801b90046001600160701b03168362069780612375565b67ffffffffffffffff85166000818152600160208190526040918290200180546001600160701b03909516600160801b027fffff0000000000000000000000000000ffffffffffffffffffffffffffffffff9095169490941790935591519092507ffeb69018ee8b8fd50ea86348f1267d07673379f72cffdeccec63853ee8ce8b4890610baf908590859063ffffffff92909216825265ffffffffffff16602082015260400190565b6060600080846001600160a01b031684604051611c839190612c9c565b600060405180830381855af49150503d8060008114611cbe576040519150601f19603f3d011682016040523d82523d6000602084013e611cc3565b606091505b5091509150611cd3858383612300565b95945050505050565b600067fffffffffffffffe1967ffffffffffffffff841601611d1d5760405163061c6a4360e21b815267ffffffffffffffff84166004820152602401610915565b67ffffffffffffffff831660009081526001602090815260408083206001600160a01b038616845290915281205465ffffffffffff169003611d61575060006107ef565b67ffffffffffffffff831660008181526001602090815260408083206001600160a01b0387168085529252808320805473ffffffffffffffffffffffffffffffffffffffff19169055519092917ff229baa593af28c41b1d16b748cd7688f0c83aaf92d4be41c44005defe84c16691a350600192915050565b6000611de542612473565b905090565b6001600160a01b038216600090815260208190526040812060010154611e1d906001600160701b03168362069780612375565b6001600160a01b0385166000818152602081815260409182902060010180546dffffffffffffffffffffffffffff19166001600160701b039690961695909517909455805163ffffffff8716815265ffffffffffff841694810194909452919350917fa56b76017453f399ec2327ba00375dbfb1fd070ff854341ad6191e6a2e2de19c9101610baf565b6000818311611eb65781610a0a565b5090919050565b60008181526002602052604090205465ffffffffffff168015801590611ee95750611ee781611a4a565b155b15610807576040517f813e945900000000000000000000000000000000000000000000000000000000815260048101839052602401610915565b6000806004831015611f3a57506000905080610ed3565b306001600160a01b03861603611f9e57610e6330611f588686611509565b604080516001600160a01b03939093166020808501919091526001600160e01b031992909216838201528051808403820181526060909301905281519101206003541490565b6000806000611fad878761201c565b92509250925082611fc75760008094509450505050610ed3565b600080611fd4848b610ef2565b9150915081611fee57600080965096505050505050610ed3565b6120048363ffffffff168263ffffffff16611ea7565b63ffffffff8116159b909a5098505050505050505050565b600080806004841015612037575060009150819050806122f9565b60006120438686611509565b90506001600160e01b031981167f853551b80000000000000000000000000000000000000000000000000000000014806120a657506001600160e01b031981167f30cae18700000000000000000000000000000000000000000000000000000000145b806120da57506001600160e01b031981167f5296295200000000000000000000000000000000000000000000000000000000145b8061210e57506001600160e01b031981167fa64d95ce00000000000000000000000000000000000000000000000000000000145b8061214257506001600160e01b031981167fd22b598900000000000000000000000000000000000000000000000000000000145b15612158576001600080935093509350506122f9565b6001600160e01b031981167f18ff183c0000000000000000000000000000000000000000000000000000000014806121b957506001600160e01b031981167f167bd39500000000000000000000000000000000000000000000000000000000145b806121ed57506001600160e01b031981167f08d6122d00000000000000000000000000000000000000000000000000000000145b1561222f57600061220260246004888a612c42565b81019061220f91906127c5565b9050600061221c82610ae1565b600196506000955093506122f992505050565b6001600160e01b031981167f25c471a000000000000000000000000000000000000000000000000000000000148061229057506001600160e01b031981167fb7d2b16200000000000000000000000000000000000000000000000000000000145b156122ec5760006122a560246004888a612c42565b8101906122b291906125e6565b905060016122dd8267ffffffffffffffff908116600090815260016020819052604090912001541690565b600094509450945050506122f9565b6000806000935093509350505b9250925092565b60608261231557612310826124c3565b610a0a565b815115801561232c57506001600160a01b0384163b155b1561236e576040517f9996b3150000000000000000000000000000000000000000000000000000000081526001600160a01b0385166004820152602401610915565b5080610a0a565b600080600061238c866001600160701b03166113cd565b905060006123c98563ffffffff168763ffffffff168463ffffffff16116123b45760006123be565b6123be8885612cb8565b63ffffffff16611ea7565b90508063ffffffff166123da611dda565b6123e49190612bdd565b925063ffffffff8616602083901b67ffffffff0000000016604085901b6dffffffffffff000000000000000016171793505050935093915050565b6000808069ffffffffffffffffffff602086901c166001600160701b03861665ffffffffffff604088901c811690871681111561245e57828282612463565b816000805b9550955095505050509250925092565b600065ffffffffffff8211156124bf576040517f6dfcc6500000000000000000000000000000000000000000000000000000000081526030600482015260248101839052604401610915565b5090565b8051156124d35780518082602001fd5b6040517f1425ea4200000000000000000000000000000000000000000000000000000000815260040160405180910390fd5b50565b6001600160a01b038116811461250557600080fd5b60008083601f84011261252f57600080fd5b50813567ffffffffffffffff81111561254757600080fd5b6020830191508360208260051b8501011115610f6957600080fd5b803567ffffffffffffffff8116811461257a57600080fd5b919050565b6000806000806060858703121561259557600080fd5b84356125a081612508565b9350602085013567ffffffffffffffff8111156125bc57600080fd5b6125c88782880161251d565b90945092506125db905060408601612562565b905092959194509250565b6000602082840312156125f857600080fd5b610a0a82612562565b6000806040838503121561261457600080fd5b823561261f81612508565b91506020830135801515811461263457600080fd5b809150509250929050565b6000806040838503121561265257600080fd5b823561265d81612508565b9150602083013561263481612508565b60008083601f84011261267f57600080fd5b50813567ffffffffffffffff81111561269757600080fd5b602083019150836020828501011115610f6957600080fd5b6000806000604084860312156126c457600080fd5b83356126cf81612508565b9250602084013567ffffffffffffffff8111156126eb57600080fd5b6126f78682870161266d565b9497909650939450505050565b803563ffffffff8116811461257a57600080fd5b60008060006060848603121561272d57600080fd5b61273684612562565b9250602084013561274681612508565b915061275460408501612704565b90509250925092565b6000806040838503121561277057600080fd5b61265d83612562565b6000806040838503121561278c57600080fd5b61279583612562565b91506127a360208401612562565b90509250929050565b6000602082840312156127be57600080fd5b5035919050565b6000602082840312156127d757600080fd5b8135610a0a81612508565b6001600160e01b03198116811461250557600080fd5b6000806040838503121561280b57600080fd5b823561281681612508565b91506020830135612634816127e2565b60008060006040848603121561283b57600080fd5b6126cf84612562565b6000806040838503121561285757600080fd5b61286083612562565b91506127a360208401612704565b6000806000806060858703121561288457600080fd5b843561288f81612508565b9350602085013561289f81612508565b9250604085013567ffffffffffffffff8111156128bb57600080fd5b6128c78782880161266d565b95989497509550505050565b600080602083850312156128e657600080fd5b823567ffffffffffffffff8111156128fd57600080fd5b6129098582860161251d565b90969095509350505050565b60005b83811015612930578181015183820152602001612918565b50506000910152565b6000602080830181845280855180835260408601915060408160051b870101925083870160005b828110156129a657878503603f1901845281518051808752612987818989018a8501612915565b601f01601f191695909501860194509285019290850190600101612960565b5092979650505050505050565b6000806000606084860312156129c857600080fd5b83356129d381612508565b925060208401356129e381612508565b915060408401356129f3816127e2565b809150509250925092565b60008060408385031215612a1157600080fd5b823561286081612508565b60008060008060608587031215612a3257600080fd5b8435612a3d81612508565b9350602085013567ffffffffffffffff811115612a5957600080fd5b612a658782880161266d565b909450925050604085013565ffffffffffff81168114612a8457600080fd5b939692955090935050565b634e487b7160e01b600052603260045260246000fd5b600060208284031215612ab757600080fd5b8135610a0a816127e2565b634e487b7160e01b600052601160045260246000fd5b600060018201612aea57612aea612ac2565b5060010190565b81835281816020850137506000828201602090810191909152601f909101601f19169091010190565b602081526000612b2e602083018486612af1565b949350505050565b600060208284031215612b4857600080fd5b8151610a0a816127e2565b60006001600160a01b03808716835280861660208401525060606040830152611702606083018486612af1565b634e487b7160e01b600052604160045260246000fd5b6000808335601e19843603018112612bad57600080fd5b83018035915067ffffffffffffffff821115612bc857600080fd5b602001915036819003821315610f6957600080fd5b65ffffffffffff818116838216019080821115610dd357610dd3612ac2565b65ffffffffffff8616815260006001600160a01b03808716602084015280861660408401525060806060830152612c37608083018486612af1565b979650505050505050565b60008085851115612c5257600080fd5b83861115612c5f57600080fd5b5050820193919092039150565b6001600160e01b03198135818116916004851015612c945780818660040360031b1b83161692505b505092915050565b60008251612cae818460208701612915565b9190910192915050565b63ffffffff828116828216039080821115610dd357610dd3612ac256fea2646970667358221220122e11624eb15deff6ea05cac86ac43c320d6bef3543037d48d92978a77aa44464736f6c63430008140033",
  "linkReferences": {},
  "deployedLinkReferences": {}
}