{
  "address": "0x34c06f3c7BD5379e4da227990B61B1a40D759969",
  "abi": [
    {
      "inputs": [
        {
          "internalType": "address",
          "name": "_tokenAddress",
          "type": "address"
        },
        {
          "internalType": "uint8",
          "name": "_tokenDecimals",
          "type": "uint8"
        },
        {
          "internalType": "address",
          "name": "_weth",
          "type": "address"
        },
        {
          "internalType": "bool",
          "name": "_burnTokens",
          "type": "bool"
        }
      ],
      "stateMutability": "nonpayable",
      "type": "constructor"
    },
    {
      "inputs": [
        {
          "internalType": "address",
          "name": "owner",
          "type": "address"
        }
      ],
      "name": "OwnableInvalidOwner",
      "type": "error"
    },
    {
      "inputs": [
        {
          "internalType": "address",
          "name": "account",
          "type": "address"
        }
      ],
      "name": "OwnableUnauthorizedAccount",
      "type": "error"
    },
    {
      "anonymous": false,
      "inputs": [
        {
          "indexed": true,
          "internalType": "address",
          "name": "_buyer",
          "type": "address"
        },
        {
          "indexed": false,
          "internalType": "uint256",
          "name": "_tokenAmount",
          "type": "uint256"
        }
      ],
      "name": "Bought",
      "type": "event"
    },
    {
      "anonymous": false,
      "inputs": [
        {
          "indexed": true,
          "internalType": "address",
          "name": "_initiator",
          "type": "address"
        },
        {
          "indexed": false,
          "internalType": "uint256",
          "name": "_amount",
          "type": "uint256"
        }
      ],
      "name": "BurntRemainder",
      "type": "event"
    },
    {
      "anonymous": false,
      "inputs": [
        {
          "indexed": true,
          "internalType": "address",
          "name": "_inititator",
          "type": "address"
        },
        {
          "indexed": true,
          "internalType": "address",
          "name": "_token",
          "type": "address"
        },
        {
          "indexed": true,
          "internalType": "address",
          "name": "_presale",
          "type": "address"
        }
      ],
      "name": "Canceled",
      "type": "event"
    },
    {
      "anonymous": false,
      "inputs": [
        {
          "indexed": true,
          "internalType": "address",
          "name": "_participent",
          "type": "address"
        },
        {
          "indexed": false,
          "internalType": "uint256",
          "name": "_tokenAmount",
          "type": "uint256"
        }
      ],
      "name": "Claimed",
      "type": "event"
    },
    {
      "anonymous": false,
      "inputs": [
        {
          "indexed": true,
          "internalType": "address",
          "name": "_initiator",
          "type": "address"
        },
        {
          "indexed": false,
          "internalType": "uint256",
          "name": "_totalDeposit",
          "type": "uint256"
        }
      ],
      "name": "Deposited",
      "type": "event"
    },
    {
      "anonymous": false,
      "inputs": [
        {
          "indexed": true,
          "internalType": "address",
          "name": "previousOwner",
          "type": "address"
        },
        {
          "indexed": true,
          "internalType": "address",
          "name": "newOwner",
          "type": "address"
        }
      ],
      "name": "OwnershipTransferred",
      "type": "event"
    },
    {
      "anonymous": false,
      "inputs": [
        {
          "indexed": true,
          "internalType": "address",
          "name": "_refunder",
          "type": "address"
        },
        {
          "indexed": false,
          "internalType": "uint256",
          "name": "_tokenAmount",
          "type": "uint256"
        }
      ],
      "name": "Refunded",
      "type": "event"
    },
    {
      "anonymous": false,
      "inputs": [
        {
          "indexed": true,
          "internalType": "address",
          "name": "_initiator",
          "type": "address"
        },
        {
          "indexed": false,
          "internalType": "uint256",
          "name": "_amount",
          "type": "uint256"
        }
      ],
      "name": "RefundedRemainder",
      "type": "event"
    },
    {
      "anonymous": false,
      "inputs": [
        {
          "indexed": true,
          "internalType": "address",
          "name": "_creator",
          "type": "address"
        },
        {
          "indexed": false,
          "internalType": "uint256",
          "name": "_amount",
          "type": "uint256"
        }
      ],
      "name": "Withdraw",
      "type": "event"
    },
    {
      "inputs": [],
      "name": "_getTokenDeposit",
      "outputs": [
        {
          "internalType": "uint256",
          "name": "",
          "type": "uint256"
        }
      ],
      "stateMutability": "view",
      "type": "function"
    },
    {
      "inputs": [],
      "name": "burnTokens",
      "outputs": [
        {
          "internalType": "bool",
          "name": "",
          "type": "bool"
        }
      ],
      "stateMutability": "view",
      "type": "function"
    },
    {
      "inputs": [
        {
          "internalType": "address",
          "name": "_contributor",
          "type": "address"
        }
      ],
      "name": "buyTokens",
      "outputs": [],
      "stateMutability": "payable",
      "type": "function"
    },
    {
      "inputs": [],
      "name": "cancelSale",
      "outputs": [],
      "stateMutability": "nonpayable",
      "type": "function"
    },
    {
      "inputs": [],
      "name": "claimTokens",
      "outputs": [],
      "stateMutability": "nonpayable",
      "type": "function"
    },
    {
      "inputs": [],
      "name": "creatorWallet",
      "outputs": [
        {
          "internalType": "address",
          "name": "",
          "type": "address"
        }
      ],
      "stateMutability": "view",
      "type": "function"
    },
    {
      "inputs": [],
      "name": "deposit",
      "outputs": [],
      "stateMutability": "nonpayable",
      "type": "function"
    },
    {
      "inputs": [
        {
          "internalType": "address",
          "name": "",
          "type": "address"
        }
      ],
      "name": "ethContribution",
      "outputs": [
        {
          "internalType": "uint256",
          "name": "",
          "type": "uint256"
        }
      ],
      "stateMutability": "view",
      "type": "function"
    },
    {
      "inputs": [],
      "name": "ethRaised",
      "outputs": [
        {
          "internalType": "uint256",
          "name": "",
          "type": "uint256"
        }
      ],
      "stateMutability": "view",
      "type": "function"
    },
    {
      "inputs": [],
      "name": "finishSale",
      "outputs": [],
      "stateMutability": "nonpayable",
      "type": "function"
    },
    {
      "inputs": [
        {
          "internalType": "uint256",
          "name": "_tokenAmount",
          "type": "uint256"
        }
      ],
      "name": "getEthFromTokens",
      "outputs": [
        {
          "internalType": "uint256",
          "name": "",
          "type": "uint256"
        }
      ],
      "stateMutability": "view",
      "type": "function"
    },
    {
      "inputs": [
        {
          "internalType": "uint256",
          "name": "_amount",
          "type": "uint256"
        }
      ],
      "name": "getTokensFromEth",
      "outputs": [
        {
          "internalType": "uint256",
          "name": "",
          "type": "uint256"
        }
      ],
      "stateMutability": "view",
      "type": "function"
    },
    {
      "inputs": [
        {
          "internalType": "uint64",
          "name": "_startTime",
          "type": "uint64"
        },
        {
          "internalType": "uint64",
          "name": "_endTime",
          "type": "uint64"
        },
        {
          "internalType": "uint256",
          "name": "_saleRate",
          "type": "uint256"
        },
        {
          "internalType": "uint256",
          "name": "_hardCap",
          "type": "uint256"
        }
      ],
      "name": "initSale",
      "outputs": [],
      "stateMutability": "nonpayable",
      "type": "function"
    },
    {
      "inputs": [],
      "name": "isDeposit",
      "outputs": [
        {
          "internalType": "bool",
          "name": "",
          "type": "bool"
        }
      ],
      "stateMutability": "view",
      "type": "function"
    },
    {
      "inputs": [],
      "name": "isFinish",
      "outputs": [
        {
          "internalType": "bool",
          "name": "",
          "type": "bool"
        }
      ],
      "stateMutability": "view",
      "type": "function"
    },
    {
      "inputs": [],
      "name": "isInit",
      "outputs": [
        {
          "internalType": "bool",
          "name": "",
          "type": "bool"
        }
      ],
      "stateMutability": "view",
      "type": "function"
    },
    {
      "inputs": [],
      "name": "isRefund",
      "outputs": [
        {
          "internalType": "bool",
          "name": "",
          "type": "bool"
        }
      ],
      "stateMutability": "view",
      "type": "function"
    },
    {
      "inputs": [],
      "name": "isSaleActive",
      "outputs": [
        {
          "internalType": "bool",
          "name": "",
          "type": "bool"
        }
      ],
      "stateMutability": "view",
      "type": "function"
    },
    {
      "inputs": [],
      "name": "owner",
      "outputs": [
        {
          "internalType": "address",
          "name": "",
          "type": "address"
        }
      ],
      "stateMutability": "view",
      "type": "function"
    },
    {
      "inputs": [],
      "name": "pool",
      "outputs": [
        {
          "internalType": "uint64",
          "name": "startTime",
          "type": "uint64"
        },
        {
          "internalType": "uint64",
          "name": "endTime",
          "type": "uint64"
        },
        {
          "internalType": "uint256",
          "name": "saleRate",
          "type": "uint256"
        },
        {
          "internalType": "uint256",
          "name": "hardCap",
          "type": "uint256"
        }
      ],
      "stateMutability": "view",
      "type": "function"
    },
    {
      "inputs": [],
      "name": "presaleTokens",
      "outputs": [
        {
          "internalType": "uint256",
          "name": "",
          "type": "uint256"
        }
      ],
      "stateMutability": "view",
      "type": "function"
    },
    {
      "inputs": [],
      "name": "refund",
      "outputs": [],
      "stateMutability": "nonpayable",
      "type": "function"
    },
    {
      "inputs": [],
      "name": "renounceOwnership",
      "outputs": [],
      "stateMutability": "nonpayable",
      "type": "function"
    },
    {
      "inputs": [],
      "name": "tokenDecimals",
      "outputs": [
        {
          "internalType": "uint8",
          "name": "",
          "type": "uint8"
        }
      ],
      "stateMutability": "view",
      "type": "function"
    },
    {
      "inputs": [],
      "name": "tokenInstance",
      "outputs": [
        {
          "internalType": "contract IERC20",
          "name": "",
          "type": "address"
        }
      ],
      "stateMutability": "view",
      "type": "function"
    },
    {
      "inputs": [
        {
          "internalType": "address",
          "name": "newOwner",
          "type": "address"
        }
      ],
      "name": "transferOwnership",
      "outputs": [],
      "stateMutability": "nonpayable",
      "type": "function"
    },
    {
      "inputs": [],
      "name": "weth",
      "outputs": [
        {
          "internalType": "address",
          "name": "",
          "type": "address"
        }
      ],
      "stateMutability": "view",
      "type": "function"
    },
    {
      "inputs": [],
      "name": "withrawTokens",
      "outputs": [],
      "stateMutability": "nonpayable",
      "type": "function"
    },
    {
      "stateMutability": "payable",
      "type": "receive"
    }
  ],
  "transactionHash": "0x88fd27a2beb35aaa60ff8aa4df065e82fc13a5ddaad87d1c6fe8f0951f3f6267",
  "args": [
    "0xE1EF0cBa666e4BAcbBB666E9aE7978CC22BD23F6",
    18,
    "0xC02aaA39b223FE8D0A0e5C4F27eAD9083C756Cc2",
    false
  ],
  "numDeployments": 1,
  "solcInputHash": "7a3dc1a35c9b2cc1d0be0209b27f001a",
  "bytecode": "0x60806040523480156200001157600080fd5b506040516200256e3803806200256e8339810160408190526200003491620001ab565b33806200005c57604051631e4fbdf760e01b8152600060048201526024015b60405180910390fd5b62000067816200013e565b5060128360ff161115620000be5760405162461bcd60e51b815260206004820152601760248201527f446563696d616c73206e6f7420737570706f727465642e000000000000000000604482015260640162000053565b60008054600482905560028054931515600160c01b0264ffffffffff60a01b1990921691909117909155600580546001600160a01b039687166001600160a01b031991821617909155600180549091163317905560ff93909316600160a01b026001600160a81b0319909116939091169290921791909117905562000215565b600080546001600160a01b038381166001600160a01b0319831681178455604051919092169283917f8be0079c531659141344cd1fd0a4f28419497f9722a3daafe3b4186f6b6457e09190a35050565b80516001600160a01b0381168114620001a657600080fd5b919050565b60008060008060808587031215620001c257600080fd5b620001cd856200018e565b9350602085015160ff81168114620001e457600080fd5b9250620001f4604086016200018e565b9150606085015180151581146200020a57600080fd5b939692955090935050565b61234980620002256000396000f3fe6080604052600436106101bb5760003560e01c80637bc3b5ff116100ec578063d0e30db01161008a578063ec8ac4d811610064578063ec8ac4d814610592578063f2fde38b146105a0578063fddf0fc0146105c0578063ffa324dc146105d657600080fd5b8063d0e30db014610547578063d921eb781461055c578063e7e104901461057d57600080fd5b80638da5cb5b116100c65780638da5cb5b146104d35780638f86f5ea146104f1578063b145a5b814610506578063c0f6c0da1461052757600080fd5b80637bc3b5ff146104725780637cdc65f2146104935780638a226fe5146104b357600080fd5b80633fc8cef311610159578063564566a811610133578063564566a814610413578063590e1ae314610428578063658030b31461043d578063715018a61461045d57600080fd5b80633fc8cef3146103995780634034175e146103d157806348c54b9d146103fe57600080fd5b806327e5eebb1161019557806327e5eebb146103105780632c8ca0ea1461032557806338fb575d146103465780633b97e8561461036657600080fd5b806308003f78146102565780630a09815c1461028c57806316f0115b146102b057600080fd5b366102515760065467ffffffffffffffff1642108015906101ef5750600654600160401b900467ffffffffffffffff164211155b1561020457610202336105eb565b6105eb565b005b60405162461bcd60e51b815260206004820152601160248201527f50726573616c6520697320636c6f73656400000000000000000000000000000060448201526064015b60405180910390fd5b600080fd5b34801561026257600080fd5b5060005461027790600160c01b900460ff1681565b60405190151581526020015b60405180910390f35b34801561029857600080fd5b506102a260035481565b604051908152602001610283565b3480156102bc57600080fd5b506006546007546008546102e49267ffffffffffffffff80821693600160401b909204169184565b6040805167ffffffffffffffff9586168152949093166020850152918301526060820152608001610283565b34801561031c57600080fd5b506102a26107a5565b34801561033157600080fd5b5060005461027790600160b81b900460ff1681565b34801561035257600080fd5b506102a261036136600461205a565b610800565b34801561037257600080fd5b5060025461038790600160a01b900460ff1681565b60405160ff9091168152602001610283565b3480156103a557600080fd5b506002546103b9906001600160a01b031681565b6040516001600160a01b039091168152602001610283565b3480156103dd57600080fd5b506102a26103ec366004612073565b60096020526000908152604090205481565b34801561040a57600080fd5b50610202610818565b34801561041f57600080fd5b50610277610a76565b34801561043457600080fd5b50610202610aad565b34801561044957600080fd5b506005546103b9906001600160a01b031681565b34801561046957600080fd5b50610202610c59565b34801561047e57600080fd5b5060005461027790600160a81b900460ff1681565b34801561049f57600080fd5b506001546103b9906001600160a01b031681565b3480156104bf57600080fd5b506102026104ce3660046120c0565b610c6d565b3480156104df57600080fd5b506000546001600160a01b03166103b9565b3480156104fd57600080fd5b50610202610ef4565b34801561051257600080fd5b5060005461027790600160a01b900460ff1681565b34801561053357600080fd5b506102a261054236600461205a565b6113b8565b34801561055357600080fd5b506102026113f5565b34801561056857600080fd5b5060005461027790600160b01b900460ff1681565b34801561058957600080fd5b5061020261168b565b6102026101fd366004612073565b3480156105ac57600080fd5b506102026105bb366004612073565b611956565b3480156105cc57600080fd5b506102a260045481565b3480156105e257600080fd5b506102026119aa565b60065467ffffffffffffffff1642101561063e5760405162461bcd60e51b815260206004820152601460248201527329b0b6329036bab9ba1031329030b1ba34bb329760611b6044820152606401610248565b600654600160401b900467ffffffffffffffff164211156106985760405162461bcd60e51b815260206004820152601460248201527329b0b6329036bab9ba1031329030b1ba34bb329760611b6044820152606401610248565b600054600160a81b900460ff166106f15760405162461bcd60e51b815260206004820152601560248201527f546f6b656e73206e6f74206465706f73697465642e00000000000000000000006044820152606401610248565b346106fc8282611c2d565b33600090815260096020526040812054610715906113b8565b905081600460008282546107299190612118565b925050819055508060036000828254610742919061212b565b90915550503360009081526009602052604081208054849290610766908490612118565b909155505060405181815233907fc55650ccda1011e1cdc769b1fbf546ebb8c97800b6072b49e06cd560305b1d679060200160405180910390a2505050565b60025460009081906107c290600160a01b900460ff16601261213e565b6107cd90600a61223b565b600754600854670de0b6b3a7640000916107e69161224a565b6107f09190612261565b6107fa9190612261565b92915050565b6007546000906107f083670de0b6b3a764000061224a565b60065467ffffffffffffffff164210806108445750600654600160401b900467ffffffffffffffff1642115b80610853575060085460045410155b6108985760405162461bcd60e51b815260206004820152601660248201527529b0b6329036bab9ba1031329034b730b1ba34bb329760511b6044820152606401610248565b600054600160b81b900460ff166108f15760405162461bcd60e51b815260206004820152601560248201527f53616c65206973207374696c6c206163746976652e00000000000000000000006044820152606401610248565b600054600160b01b900460ff161561094b5760405162461bcd60e51b815260206004820152600f60248201527f526566756e642070726f636573732e00000000000000000000000000000000006044820152606401610248565b33600090815260096020526040812054610964906113b8565b3360008181526009602052604080822091909155600554905163a9059cbb60e01b81526004810192909252602482018390529192506001600160a01b039091169063a9059cbb906044016020604051808303816000875af11580156109cd573d6000803e3d6000fd5b505050506040513d601f19601f820116820180604052508101906109f19190612283565b610a3d5760405162461bcd60e51b815260206004820152600d60248201527f436c61696d206661696c65642e000000000000000000000000000000000000006044820152606401610248565b60405181815233907fd8138f8a3f377c5259ca548e70e4c2de94f129f5a11036a15b69513cba2b426a906020015b60405180910390a250565b60065460009067ffffffffffffffff164210801590610aa85750600654600160401b900467ffffffffffffffff164211155b905090565b60065467ffffffffffffffff16421080610ad95750600654600160401b900467ffffffffffffffff1642115b80610ae8575060085460045410155b610b2d5760405162461bcd60e51b815260206004820152601660248201527529b0b6329036bab9ba1031329034b730b1ba34bb329760511b6044820152606401610248565b600054600160b01b900460ff16151560011480610b6b5750600654600160401b900467ffffffffffffffff1642118015610b6b575060085460045411155b610bb75760405162461bcd60e51b815260206004820152601360248201527f526566756e6420756e617661696c61626c652e000000000000000000000000006044820152606401610248565b33600090815260096020526040902054478111610c56578015610c56573360008181526009602052604080822082905551829184156108fc02918591818181858888f19350505050158015610c10573d6000803e3d6000fd5b50806001600160a01b03167fd7dee2702d63ad89917b6a4da9981c90c4d24f8c2bdfd64c604ecae57d8d065183604051610c4c91815260200190565b60405180910390a2505b50565b610c61611f19565b610c6b6000611f5f565b565b610c75611f19565b60065467ffffffffffffffff16421080610ca15750600654600160401b900467ffffffffffffffff1642115b80610cb0575060085460045410155b610cf55760405162461bcd60e51b815260206004820152601660248201527529b0b6329036bab9ba1031329034b730b1ba34bb329760511b6044820152606401610248565b600054600160a01b900460ff1615610d4f5760405162461bcd60e51b815260206004820152601360248201527f53616c65206e6f20696e697469616c697a6564000000000000000000000000006044820152606401610248565b428467ffffffffffffffff161015610da95760405162461bcd60e51b815260206004820152601360248201527f496e76616c69642073746172742074696d652e000000000000000000000000006044820152606401610248565b428367ffffffffffffffff1611610e025760405162461bcd60e51b815260206004820152601160248201527f496e76616c696420656e642074696d652e0000000000000000000000000000006044820152606401610248565b60008211610e525760405162461bcd60e51b815260206004820152601260248201527f496e76616c69642073616c6520726174652e00000000000000000000000000006044820152606401610248565b6040805160808101825267ffffffffffffffff9586168082529490951660208601819052908501839052606090940181905260068054600160401b9095027fffffffffffffffffffffffffffffffff0000000000000000000000000000000090951690931793909317909155600755600855600080547fffffffffffffffffffffff00ffffffffffffffffffffffffffffffffffffffff16600160a01b179055565b610efc611f19565b60065467ffffffffffffffff16421080610f285750600654600160401b900467ffffffffffffffff1642115b80610f37575060085460045410155b610f7c5760405162461bcd60e51b815260206004820152601660248201527529b0b6329036bab9ba1031329034b730b1ba34bb329760511b6044820152606401610248565b60065467ffffffffffffffff164211610fd75760405162461bcd60e51b815260206004820152601b60248201527f43616e206e6f742066696e697368206265666f726520737461727400000000006044820152606401610248565b600054600160b81b900460ff16156110315760405162461bcd60e51b815260206004820152601660248201527f53616c6520616c7265616479206c61756e636865642e000000000000000000006044820152606401610248565b600054600160b01b900460ff161561108b5760405162461bcd60e51b815260206004820152600f60248201527f526566756e642070726f636573732e00000000000000000000000000000000006044820152606401610248565b6002546000906110a690600160a01b900460ff16601261213e565b6110b190600a61223b565b600754600454670de0b6b3a7640000916110ca9161224a565b6110d49190612261565b6110de9190612261565b600080547fffffffffffffffff00ffffffffffffffffffffffffffffffffffffffffffffff16600160b81b1781556001546004546040519394506001600160a01b039091169281156108fc0292818181858888f19350505050158015611148573d6000803e3d6000fd5b506008546004541015610c56576000816111606107a5565b61116a919061212b565b90506111ab6040518060400160405280600981526020017f72656d61696e646572000000000000000000000000000000000000000000000081525082611fc7565b600054600160c01b900460ff1615156001036112bd5760055460405163a9059cbb60e01b815261dead6004820152602481018390526001600160a01b039091169063a9059cbb906044016020604051808303816000875af1158015611214573d6000803e3d6000fd5b505050506040513d601f19601f820116820180604052508101906112389190612283565b6112845760405162461bcd60e51b815260206004820152600f60248201527f556e61626c6520746f206275726e2e00000000000000000000000000000000006044820152606401610248565b60405181815233907ff64f45e6447f41665c556373a7683d2b9537f22f7498825a215561a075d341959060200160405180910390a25050565b60055460015460405163a9059cbb60e01b81526001600160a01b0391821660048201526024810184905291169063a9059cbb906044016020604051808303816000875af1158015611312573d6000803e3d6000fd5b505050506040513d601f19601f820116820180604052508101906113369190612283565b6113825760405162461bcd60e51b815260206004820152600e60248201527f526566756e64206661696c65642e0000000000000000000000000000000000006044820152606401610248565b60405181815233907fb2a2a849a821dbd9c9ae4fad722faef4e72c7edbbadaeeaabfdba3c1b17aa86a90602001610c4c565b5050565b6002546000906113d390600160a01b900460ff16601261213e565b6113de90600a61223b565b600754670de0b6b3a7640000906107e6908561224a565b6113fd611f19565b600054600160a81b900460ff16156114575760405162461bcd60e51b815260206004820152601960248201527f546f6b656e7320616c7265616479206465706f73697465642e000000000000006044820152606401610248565b600054600160a01b900460ff166114b05760405162461bcd60e51b815260206004820152601460248201527f4e6f7420696e697469616c697a6564207965742e0000000000000000000000006044820152606401610248565b6002546000906114cb90600160a01b900460ff16601261213e565b6114d690600a61223b565b600754600854670de0b6b3a7640000916114ef9161224a565b6114f99190612261565b6115039190612261565b6003819055600080547fffffffffffffffffffff00ffffffffffffffffffffffffffffffffffffffffff16600160a81b17905560408051808201909152600c81527f746f74616c4465706f7369740000000000000000000000000000000000000000602082015290915081906115799082611fc7565b6005546040517f23b872dd000000000000000000000000000000000000000000000000000000008152336004820152306024820152604481018390526001600160a01b03909116906323b872dd906064016020604051808303816000875af11580156115e9573d6000803e3d6000fd5b505050506040513d601f19601f8201168201806040525081019061160d9190612283565b6116595760405162461bcd60e51b815260206004820152600f60248201527f4465706f736974206661696c65642e00000000000000000000000000000000006044820152606401610248565b60405181815233907f2da466a7b24304f47e87fa2e1e5a81b9831ce54fec19055ce277ca2f39ba42c490602001610c4c565b611693611f19565b60065467ffffffffffffffff164210156116e65760405162461bcd60e51b815260206004820152601460248201527329b0b6329036bab9ba1031329030b1ba34bb329760611b6044820152606401610248565b600654600160401b900467ffffffffffffffff164211156117405760405162461bcd60e51b815260206004820152601460248201527329b0b6329036bab9ba1031329030b1ba34bb329760611b6044820152606401610248565b600054600160b81b900460ff161561179a5760405162461bcd60e51b815260206004820152600e60248201527f53616c652066696e69736865642e0000000000000000000000000000000000006044820152606401610248565b600680547fffffffffffffffffffffffffffffffff0000000000000000ffffffffffffffff169055600080547fffffffffffffffffff00ffffffffffffffffffffffffffffffffffffffffffff16600160b01b1781556005546040516370a0823160e01b81523060048201526001600160a01b03909116906370a0823190602401602060405180830381865afa158015611838573d6000803e3d6000fd5b505050506040513d601f19601f8201168201806040525081019061185c91906122a5565b111561191a57600061186c6107a5565b60055460405163a9059cbb60e01b8152336004820152602481018390529192506001600160a01b03169063a9059cbb906044016020604051808303816000875af11580156118be573d6000803e3d6000fd5b505050506040513d601f19601f820116820180604052508101906118e29190612283565b5060405181815233907f884edad9ce6fa2440d8a54cc123490eb96d2768479d49ff9c7366125a94243649060200160405180910390a2505b60055460405130916001600160a01b03169033907f72452f1a219141fd5d3814b0d1d79e431ceb617f33a3a07bdd18a1a64ed0a6e890600090a4565b61195e611f19565b6001600160a01b0381166119a1576040517f1e4fbdf700000000000000000000000000000000000000000000000000000000815260006004820152602401610248565b610c5681611f5f565b6119b2611f19565b60065467ffffffffffffffff164210806119de5750600654600160401b900467ffffffffffffffff1642115b806119ed575060085460045410155b611a325760405162461bcd60e51b815260206004820152601660248201527529b0b6329036bab9ba1031329034b730b1ba34bb329760511b6044820152606401610248565b600054600160b01b900460ff16151560011480611a705750600654600160401b900467ffffffffffffffff1642118015611a70575060085460045411155b611abc5760405162461bcd60e51b815260206004820152601360248201527f526566756e6420756e617661696c61626c652e000000000000000000000000006044820152606401610248565b6005546040516370a0823160e01b81523060048201526000916001600160a01b0316906370a0823190602401602060405180830381865afa158015611b05573d6000803e3d6000fd5b505050506040513d601f19601f82011682018060405250810190611b2991906122a5565b1115610c6b576000611b396107a5565b60055460405163a9059cbb60e01b8152336004820152602481018390529192506001600160a01b03169063a9059cbb906044016020604051808303816000875af1158015611b8b573d6000803e3d6000fd5b505050506040513d601f19601f82011682018060405250810190611baf9190612283565b611bfb5760405162461bcd60e51b815260206004820152601060248201527f5769746864726177206661696c65642e000000000000000000000000000000006044820152606401610248565b60405181815233907f884edad9ce6fa2440d8a54cc123490eb96d2768479d49ff9c7366125a942436490602001610a6b565b6005546040516370a0823160e01b81523360048201526000916001600160a01b0316906370a0823190602401602060405180830381865afa158015611c76573d6000803e3d6000fd5b505050506040513d601f19601f82011682018060405250810190611c9a91906122a5565b11611d0d5760405162461bcd60e51b815260206004820152602960248201527f4d75737420686f6c6420746f6b656e20746f207061727469636970617465206960448201527f6e2070726573616c6500000000000000000000000000000000000000000000006064820152608401610248565b6001600160a01b038216611d635760405162461bcd60e51b815260206004820152601660248201527f5472616e7366657220746f203020616464726573732e000000000000000000006044820152606401610248565b80600003611db35760405162461bcd60e51b815260206004820152600f60248201527f57656920416d6f756e74206973203000000000000000000000000000000000006044820152606401610248565b6005546040516370a0823160e01b81523360048201526001600160a01b03909116906370a0823190602401602060405180830381865afa158015611dfb573d6000803e3d6000fd5b505050506040513d601f19601f82011682018060405250810190611e1f91906122a5565b6001600160a01b038316600090815260096020526040902054611e46906105429084612118565b1115611eba5760405162461bcd60e51b815260206004820152603560248201527f43616e277420627579206d6f726520746f6b656e73207468616e20776572652060448201527f61697264726f7070656420746f206163636f756e7400000000000000000000006064820152608401610248565b600854600454611ecb908390612118565b11156113b45760405162461bcd60e51b815260206004820152600b60248201527f484320526561636865642e0000000000000000000000000000000000000000006044820152606401610248565b6000546001600160a01b03163314610c6b576040517f118cdaa7000000000000000000000000000000000000000000000000000000008152336004820152602401610248565b600080546001600160a01b038381167fffffffffffffffffffffffff0000000000000000000000000000000000000000831681178455604051919092169283917f8be0079c531659141344cd1fd0a4f28419497f9722a3daafe3b4186f6b6457e09190a35050565b6113b48282604051602401611fdd9291906122be565b60408051601f198184030181529190526020810180517bffffffffffffffffffffffffffffffffffffffffffffffffffffffff167fb60e72cc00000000000000000000000000000000000000000000000000000000179052610c568160006a636f6e736f6c652e6c6f679050600080835160208501845afa505050565b60006020828403121561206c57600080fd5b5035919050565b60006020828403121561208557600080fd5b81356001600160a01b038116811461209c57600080fd5b9392505050565b803567ffffffffffffffff811681146120bb57600080fd5b919050565b600080600080608085870312156120d657600080fd5b6120df856120a3565b93506120ed602086016120a3565b93969395505050506040820135916060013590565b634e487b7160e01b600052601160045260246000fd5b808201808211156107fa576107fa612102565b818103818111156107fa576107fa612102565b60ff82811682821603908111156107fa576107fa612102565b600181815b8085111561219257816000190482111561217857612178612102565b8085161561218557918102915b93841c939080029061215c565b509250929050565b6000826121a9575060016107fa565b816121b6575060006107fa565b81600181146121cc57600281146121d6576121f2565b60019150506107fa565b60ff8411156121e7576121e7612102565b50506001821b6107fa565b5060208310610133831016604e8410600b8410161715612215575081810a6107fa565b61221f8383612157565b806000190482111561223357612233612102565b029392505050565b600061209c60ff84168361219a565b80820281158282048414176107fa576107fa612102565b60008261227e57634e487b7160e01b600052601260045260246000fd5b500490565b60006020828403121561229557600080fd5b8151801515811461209c57600080fd5b6000602082840312156122b757600080fd5b5051919050565b604081526000835180604084015260005b818110156122ec57602081870181015160608684010152016122cf565b506000606082850101526060601f19601f830116840101915050826020830152939250505056fea2646970667358221220eb4d84459e816be9ad9bca63a2e09a21375098967236957e75512a143b57b5d464736f6c63430008140033",
  "devdoc": {
    "errors": {
      "OwnableInvalidOwner(address)": [
        {
          "details": "The owner is not a valid owner account. (eg. `address(0)`)"
        }
      ],
      "OwnableUnauthorizedAccount(address)": [
        {
          "details": "The caller account is not authorized to perform an operation."
        }
      ]
    },
    "kind": "dev",
    "methods": {
      "owner()": {
        "details": "Returns the address of the current owner."
      },
      "renounceOwnership()": {
        "details": "Leaves the contract without owner. It will not be possible to call `onlyOwner` functions. Can only be called by the current owner. NOTE: Renouncing ownership will leave the contract without an owner, thereby disabling any functionality that is only available to the owner."
      },
      "transferOwnership(address)": {
        "details": "Transfers ownership of the contract to a new account (`newOwner`). Can only be called by the current owner."
      }
    },
    "version": 1
  },
  "userdoc": {
    "kind": "user",
    "methods": {},
    "version": 1
  },
  "storageLayout": {
    "storage": [
      {
        "astId": 8,
        "contract": "contracts/Presale/Presale.sol:Presale",
        "label": "_owner",
        "offset": 0,
        "slot": "0",
        "type": "t_address"
      },
      {
        "astId": 244,
        "contract": "contracts/Presale/Presale.sol:Presale",
        "label": "isInit",
        "offset": 20,
        "slot": "0",
        "type": "t_bool"
      },
      {
        "astId": 246,
        "contract": "contracts/Presale/Presale.sol:Presale",
        "label": "isDeposit",
        "offset": 21,
        "slot": "0",
        "type": "t_bool"
      },
      {
        "astId": 248,
        "contract": "contracts/Presale/Presale.sol:Presale",
        "label": "isRefund",
        "offset": 22,
        "slot": "0",
        "type": "t_bool"
      },
      {
        "astId": 250,
        "contract": "contracts/Presale/Presale.sol:Presale",
        "label": "isFinish",
        "offset": 23,
        "slot": "0",
        "type": "t_bool"
      },
      {
        "astId": 252,
        "contract": "contracts/Presale/Presale.sol:Presale",
        "label": "burnTokens",
        "offset": 24,
        "slot": "0",
        "type": "t_bool"
      },
      {
        "astId": 254,
        "contract": "contracts/Presale/Presale.sol:Presale",
        "label": "creatorWallet",
        "offset": 0,
        "slot": "1",
        "type": "t_address"
      },
      {
        "astId": 256,
        "contract": "contracts/Presale/Presale.sol:Presale",
        "label": "weth",
        "offset": 0,
        "slot": "2",
        "type": "t_address"
      },
      {
        "astId": 258,
        "contract": "contracts/Presale/Presale.sol:Presale",
        "label": "tokenDecimals",
        "offset": 20,
        "slot": "2",
        "type": "t_uint8"
      },
      {
        "astId": 260,
        "contract": "contracts/Presale/Presale.sol:Presale",
        "label": "presaleTokens",
        "offset": 0,
        "slot": "3",
        "type": "t_uint256"
      },
      {
        "astId": 262,
        "contract": "contracts/Presale/Presale.sol:Presale",
        "label": "ethRaised",
        "offset": 0,
        "slot": "4",
        "type": "t_uint256"
      },
      {
        "astId": 274,
        "contract": "contracts/Presale/Presale.sol:Presale",
        "label": "tokenInstance",
        "offset": 0,
        "slot": "5",
        "type": "t_contract(IERC20)240"
      },
      {
        "astId": 277,
        "contract": "contracts/Presale/Presale.sol:Presale",
        "label": "pool",
        "offset": 0,
        "slot": "6",
        "type": "t_struct(Pool)271_storage"
      },
      {
        "astId": 281,
        "contract": "contracts/Presale/Presale.sol:Presale",
        "label": "ethContribution",
        "offset": 0,
        "slot": "9",
        "type": "t_mapping(t_address,t_uint256)"
      }
    ],
    "types": {
      "t_address": {
        "encoding": "inplace",
        "label": "address",
        "numberOfBytes": "20"
      },
      "t_bool": {
        "encoding": "inplace",
        "label": "bool",
        "numberOfBytes": "1"
      },
      "t_contract(IERC20)240": {
        "encoding": "inplace",
        "label": "contract IERC20",
        "numberOfBytes": "20"
      },
      "t_mapping(t_address,t_uint256)": {
        "encoding": "mapping",
        "key": "t_address",
        "label": "mapping(address => uint256)",
        "numberOfBytes": "32",
        "value": "t_uint256"
      },
      "t_struct(Pool)271_storage": {
        "encoding": "inplace",
        "label": "struct Presale.Pool",
        "members": [
          {
            "astId": 264,
            "contract": "contracts/Presale/Presale.sol:Presale",
            "label": "startTime",
            "offset": 0,
            "slot": "0",
            "type": "t_uint64"
          },
          {
            "astId": 266,
            "contract": "contracts/Presale/Presale.sol:Presale",
            "label": "endTime",
            "offset": 8,
            "slot": "0",
            "type": "t_uint64"
          },
          {
            "astId": 268,
            "contract": "contracts/Presale/Presale.sol:Presale",
            "label": "saleRate",
            "offset": 0,
            "slot": "1",
            "type": "t_uint256"
          },
          {
            "astId": 270,
            "contract": "contracts/Presale/Presale.sol:Presale",
            "label": "hardCap",
            "offset": 0,
            "slot": "2",
            "type": "t_uint256"
          }
        ],
        "numberOfBytes": "96"
      },
      "t_uint256": {
        "encoding": "inplace",
        "label": "uint256",
        "numberOfBytes": "32"
      },
      "t_uint64": {
        "encoding": "inplace",
        "label": "uint64",
        "numberOfBytes": "8"
      },
      "t_uint8": {
        "encoding": "inplace",
        "label": "uint8",
        "numberOfBytes": "1"
      }
    }
  }
}