{
  "address": "0x610178dA211FEF7D417bC0e6FeD39F05609AD788",
  "abi": [
    {
      "inputs": [
        {
          "internalType": "address",
          "name": "pairAddr",
          "type": "address"
        },
        {
          "internalType": "address",
          "name": "tokenA",
          "type": "address"
        },
        {
          "internalType": "address",
          "name": "tokenB",
          "type": "address"
        }
      ],
      "stateMutability": "nonpayable",
      "type": "constructor"
    },
    {
      "inputs": [],
      "name": "PERIOD",
      "outputs": [
        {
          "internalType": "uint256",
          "name": "",
          "type": "uint256"
        }
      ],
      "stateMutability": "view",
      "type": "function"
    },
    {
      "inputs": [],
      "name": "blockTimestampLast",
      "outputs": [
        {
          "internalType": "uint32",
          "name": "",
          "type": "uint32"
        }
      ],
      "stateMutability": "view",
      "type": "function"
    },
    {
      "inputs": [
        {
          "internalType": "bytes",
          "name": "checkData",
          "type": "bytes"
        }
      ],
      "name": "checkUpkeep",
      "outputs": [
        {
          "internalType": "bool",
          "name": "upkeepNeeded",
          "type": "bool"
        },
        {
          "internalType": "bytes",
          "name": "performData",
          "type": "bytes"
        }
      ],
      "stateMutability": "view",
      "type": "function"
    },
    {
      "inputs": [
        {
          "internalType": "address",
          "name": "token",
          "type": "address"
        },
        {
          "internalType": "uint256",
          "name": "amountIn",
          "type": "uint256"
        }
      ],
      "name": "consult",
      "outputs": [
        {
          "internalType": "uint256",
          "name": "amountOut",
          "type": "uint256"
        }
      ],
      "stateMutability": "view",
      "type": "function"
    },
    {
      "inputs": [],
      "name": "pair",
      "outputs": [
        {
          "internalType": "contract IUniswapV2Pair",
          "name": "",
          "type": "address"
        }
      ],
      "stateMutability": "view",
      "type": "function"
    },
    {
      "inputs": [
        {
          "internalType": "bytes",
          "name": "performData",
          "type": "bytes"
        }
      ],
      "name": "performUpkeep",
      "outputs": [],
      "stateMutability": "nonpayable",
      "type": "function"
    },
    {
      "inputs": [],
      "name": "price0Average",
      "outputs": [
        {
          "internalType": "uint224",
          "name": "_x",
          "type": "uint224"
        }
      ],
      "stateMutability": "view",
      "type": "function"
    },
    {
      "inputs": [],
      "name": "price0CumulativeLast",
      "outputs": [
        {
          "internalType": "uint256",
          "name": "",
          "type": "uint256"
        }
      ],
      "stateMutability": "view",
      "type": "function"
    },
    {
      "inputs": [],
      "name": "price1Average",
      "outputs": [
        {
          "internalType": "uint224",
          "name": "_x",
          "type": "uint224"
        }
      ],
      "stateMutability": "view",
      "type": "function"
    },
    {
      "inputs": [],
      "name": "price1CumulativeLast",
      "outputs": [
        {
          "internalType": "uint256",
          "name": "",
          "type": "uint256"
        }
      ],
      "stateMutability": "view",
      "type": "function"
    },
    {
      "inputs": [],
      "name": "token0",
      "outputs": [
        {
          "internalType": "address",
          "name": "",
          "type": "address"
        }
      ],
      "stateMutability": "view",
      "type": "function"
    },
    {
      "inputs": [],
      "name": "token1",
      "outputs": [
        {
          "internalType": "address",
          "name": "",
          "type": "address"
        }
      ],
      "stateMutability": "view",
      "type": "function"
    },
    {
      "inputs": [],
      "name": "update",
      "outputs": [],
      "stateMutability": "nonpayable",
      "type": "function"
    }
  ],
  "transactionHash": "0x113a9a3984ec524d4bf068c10339955e154c7a0efce5dc8f387c7f73f78008ac",
  "args": [
    "0x9eECC5f7113720Fc60b52bb81CFC75635543103a",
    "0xe7f1725E7734CE288F8367e1Bb143E90bb3F0512",
    "0xDc64a140Aa3E981100a9becA4E685f962f0cF6C9"
  ],
  "numDeployments": 1,
  "solcInputHash": "2f8839b2840a46584fe6931acb327eda",
  "bytecode": "0x60c06040523480156200001157600080fd5b5060405162001200380380620012008339810160408190526200003491620002cf565b600080546001600160a01b0319166001600160a01b03851690811790915560408051630dfe168160e01b81529051630dfe1681916004808201926020929091908290030181865afa1580156200008e573d6000803e3d6000fd5b505050506040513d601f19601f82011682018060405250810190620000b4919062000319565b6001600160a01b039081166080526000546040805163d21220a760e01b81529051919092169163d21220a79160048083019260209291908290030181865afa15801562000105573d6000803e3d6000fd5b505050506040513d601f19601f820116820180604052508101906200012b919062000319565b6001600160a01b0390811660a05260005460408051635909c0d560e01b815290519190921691635909c0d59160048083019260209291908290030181865afa1580156200017c573d6000803e3d6000fd5b505050506040513d601f19601f82011682018060405250810190620001a291906200033e565b60015560005460408051635a3d549360e01b815290516001600160a01b0390921691635a3d5493916004808201926020929091908290030181865afa158015620001f0573d6000803e3d6000fd5b505050506040513d601f19601f820116820180604052508101906200021691906200033e565b6002556000805460408051630240bc6b60e21b8152905183926001600160a01b031691630902f1ac9160048083019260609291908290030181865afa15801562000264573d6000803e3d6000fd5b505050506040513d601f19601f820116820180604052508101906200028a919062000370565b6003805463ffffffff191663ffffffff9290921691909117905550620003c695505050505050565b80516001600160a01b0381168114620002ca57600080fd5b919050565b600080600060608486031215620002e557600080fd5b620002f084620002b2565b92506200030060208501620002b2565b91506200031060408501620002b2565b90509250925092565b6000602082840312156200032c57600080fd5b6200033782620002b2565b9392505050565b6000602082840312156200035157600080fd5b5051919050565b80516001600160701b0381168114620002ca57600080fd5b6000806000606084860312156200038657600080fd5b620003918462000358565b9250620003a16020850162000358565b9150604084015163ffffffff81168114620003bb57600080fd5b809150509250925092565b60805160a051610e07620003f96000396000818161021d01526102c501526000818160e901526102430152610e076000f3fe608060405234801561001057600080fd5b50600436106100df5760003560e01c80636e04ff0d1161008c578063a8aa1b3111610066578063a8aa1b31146101d7578063b4d1d795146101ea578063c5700a02146101f3578063d21220a71461021857600080fd5b80636e04ff0d1461019b578063a2e62045146101bc578063a6bb4539146101c457600080fd5b80635909c0d5116100bd5780635909c0d51461015e5780635a3d5493146101675780635e6aaf2c1461017057600080fd5b80630dfe1681146100e45780633ddac953146101285780634585e33b14610149575b600080fd5b61010b7f000000000000000000000000000000000000000000000000000000000000000081565b6040516001600160a01b0390911681526020015b60405180910390f35b61013b610136366004610b8e565b61023f565b60405190815260200161011f565b61015c610157366004610bc6565b6103b3565b005b61013b60015481565b61013b60025481565b600554610183906001600160e01b031681565b6040516001600160e01b03909116815260200161011f565b6101ae6101a9366004610bc6565b6103dc565b60405161011f929190610c38565b61015c610440565b600454610183906001600160e01b031681565b60005461010b906001600160a01b031681565b61013b610e1081565b6003546102039063ffffffff1681565b60405163ffffffff909116815260200161011f565b61010b7f000000000000000000000000000000000000000000000000000000000000000081565b60007f00000000000000000000000000000000000000000000000000000000000000006001600160a01b0316836001600160a01b0316036102c35760408051602081019091526004546001600160e01b031681526102a8906102a1908461044a565b5160701c90565b71ffffffffffffffffffffffffffffffffffff1690506103ad565b7f00000000000000000000000000000000000000000000000000000000000000006001600160a01b0316836001600160a01b03161461036f5760405162461bcd60e51b815260206004820152602260248201527f4578616d706c654f7261636c6553696d706c653a20494e56414c49445f544f4b60448201527f454e00000000000000000000000000000000000000000000000000000000000060648201526084015b60405180910390fd5b60408051602081019091526005546001600160e01b03168152610396906102a1908461044a565b71ffffffffffffffffffffffffffffffffffff1690505b92915050565b600354610e10906103ca9063ffffffff1642610ca6565b11156103d8576103d86104e8565b5050565b600354600090606090610e10906103f99063ffffffff1642610ca6565b11848481818080601f016020809104026020016040519081016040528093929190818152602001838380828437600092019190915250959a92995091975050505050505050565b6104486104e8565b565b6040805160208101909152600081526000821580610487575083516001600160e01b0316836104798183610cb9565b92506104859083610ce6565b145b6104d35760405162461bcd60e51b815260206004820152601960248201527f4669786564506f696e743a3a6d756c3a206f766572666c6f77000000000000006044820152606401610366565b60408051602081019091529081529392505050565b6000805481908190610502906001600160a01b0316610695565b60035492955090935091506000906105209063ffffffff1683610cfa565b9050610e108163ffffffff1610156105a05760405162461bcd60e51b815260206004820152602760248201527f4578616d706c654f7261636c6553696d706c653a20504552494f445f4e4f545f60448201527f454c4150534544000000000000000000000000000000000000000000000000006064820152608401610366565b60405180602001604052808263ffffffff16600154876105c09190610ca6565b6105ca9190610ce6565b6001600160e01b039081169091529051600480547fffffffff0000000000000000000000000000000000000000000000000000000016919092161790556040805160208101909152600254819063ffffffff8416906106299087610ca6565b6106339190610ce6565b6001600160e01b039081169091529051600580547fffffffff000000000000000000000000000000000000000000000000000000001691909216179055506001929092556002556003805463ffffffff191663ffffffff909216919091179055565b60008060006106a26108a8565b9050836001600160a01b0316635909c0d56040518163ffffffff1660e01b8152600401602060405180830381865afa1580156106e2573d6000803e3d6000fd5b505050506040513d601f19601f820116820180604052508101906107069190610d1e565b9250836001600160a01b0316635a3d54936040518163ffffffff1660e01b8152600401602060405180830381865afa158015610746573d6000803e3d6000fd5b505050506040513d601f19601f8201168201806040525081019061076a9190610d1e565b91506000806000866001600160a01b0316630902f1ac6040518163ffffffff1660e01b8152600401606060405180830381865afa1580156107af573d6000803e3d6000fd5b505050506040513d601f19601f820116820180604052508101906107d39190610d5a565b9250925092508363ffffffff168163ffffffff161461089e5760006107f88286610cfa565b90508063ffffffff1661082b846dffffffffffffffffffffffffffff16866dffffffffffffffffffffffffffff166108be565b5161083f91906001600160e01b0316610cb9565b6108499088610daa565b96508063ffffffff1661087c856dffffffffffffffffffffffffffff16856dffffffffffffffffffffffffffff166108be565b5161089091906001600160e01b0316610cb9565b61089a9087610daa565b9550505b5050509193909250565b60006108b964010000000042610dbd565b905090565b604080516020810190915260008152600082116109435760405162461bcd60e51b815260206004820152602660248201527f4669786564506f696e743a3a6672616374696f6e3a206469766973696f6e206260448201527f79207a65726f00000000000000000000000000000000000000000000000000006064820152608401610366565b8260000361096057506040805160208101909152600081526103ad565b6dffffffffffffffffffffffffffff83116109fe57600061098583607086901b610ce6565b90506001600160e01b038111156109de5760405162461bcd60e51b815260206004820152601e60248201527f4669786564506f696e743a3a6672616374696f6e3a206f766572666c6f7700006044820152606401610366565b6040518060200160405280826001600160e01b03168152509150506103ad565b6000610985846e010000000000000000000000000000856000808060001985870985870292508281108382030391505080600003610a4e5760008411610a4357600080fd5b508290049050610b87565b808411610a5a57600080fd5b600084868809808403938111909203919050600085610a798183610ca6565b16958690049593849004936000819003046001019050610a998184610cb9565b909317926000610aaa876003610cb9565b6002189050610ab98188610cb9565b610ac4906002610ca6565b610ace9082610cb9565b9050610ada8188610cb9565b610ae5906002610ca6565b610aef9082610cb9565b9050610afb8188610cb9565b610b06906002610ca6565b610b109082610cb9565b9050610b1c8188610cb9565b610b27906002610ca6565b610b319082610cb9565b9050610b3d8188610cb9565b610b48906002610ca6565b610b529082610cb9565b9050610b5e8188610cb9565b610b69906002610ca6565b610b739082610cb9565b9050610b7f8186610cb9565b955050505050505b9392505050565b60008060408385031215610ba157600080fd5b82356001600160a01b0381168114610bb857600080fd5b946020939093013593505050565b60008060208385031215610bd957600080fd5b823567ffffffffffffffff80821115610bf157600080fd5b818501915085601f830112610c0557600080fd5b813581811115610c1457600080fd5b866020828501011115610c2657600080fd5b60209290920196919550909350505050565b821515815260006020604081840152835180604085015260005b81811015610c6e57858101830151858201606001528201610c52565b506000606082860101526060601f19601f830116850101925050509392505050565b634e487b7160e01b600052601160045260246000fd5b818103818111156103ad576103ad610c90565b80820281158282048414176103ad576103ad610c90565b634e487b7160e01b600052601260045260246000fd5b600082610cf557610cf5610cd0565b500490565b63ffffffff828116828216039080821115610d1757610d17610c90565b5092915050565b600060208284031215610d3057600080fd5b5051919050565b80516dffffffffffffffffffffffffffff81168114610d5557600080fd5b919050565b600080600060608486031215610d6f57600080fd5b610d7884610d37565b9250610d8660208501610d37565b9150604084015163ffffffff81168114610d9f57600080fd5b809150509250925092565b808201808211156103ad576103ad610c90565b600082610dcc57610dcc610cd0565b50069056fea26469706673582212203e408b526a167d6f91d8822c180b5110b85a221e9889a781b42e6ad1a8c6bf8f64736f6c63430008140033",
  "devdoc": {
    "kind": "dev",
    "methods": {
      "checkUpkeep(bytes)": {
        "details": "To ensure that it is never called, you may want to add the cannotExecute modifier from KeeperBase to your implementation of this method.",
        "params": {
          "checkData": "specified in the upkeep registration so it is always the same for a registered upkeep. This can easily be broken down into specific arguments using `abi.decode`, so multiple upkeeps can be registered on the same contract and easily differentiated by the contract."
        },
        "returns": {
          "performData": "bytes that the keeper should call performUpkeep with, if upkeep is needed. If you would like to encode data to decode later, try `abi.encode`.",
          "upkeepNeeded": "boolean to indicate whether the keeper should call performUpkeep or not."
        }
      },
      "performUpkeep(bytes)": {
        "details": "The input to this method should not be trusted, and the caller of the method should not even be restricted to any single registry. Anyone should be able call it, and the input should be validated, there is no guarantee that the data passed in is the performData returned from checkUpkeep. This could happen due to malicious keepers, racing keepers, or simply a state change while the performUpkeep transaction is waiting for confirmation. Always validate the data passed in.",
        "params": {
          "performData": "is the data which was passed back from the checkData simulation. If it is encoded, it can easily be decoded into other types by calling `abi.decode`. This data should not be trusted, and should be validated against the contract's current state."
        }
      }
    },
    "version": 1
  },
  "userdoc": {
    "kind": "user",
    "methods": {
      "checkUpkeep(bytes)": {
        "notice": "method that is simulated by the keepers to see if any work actually needs to be performed. This method does does not actually need to be executable, and since it is only ever simulated it can consume lots of gas."
      },
      "performUpkeep(bytes)": {
        "notice": "method that is actually executed by the keepers, via the registry. The data returned by the checkUpkeep simulation will be passed into this method to actually be executed."
      }
    },
    "version": 1
  },
  "storageLayout": {
    "storage": [
      {
        "astId": 8332,
        "contract": "contracts/LPMining/PriceOracle.sol:PriceOracle",
        "label": "pair",
        "offset": 0,
        "slot": "0",
        "type": "t_contract(IUniswapV2Pair)17655"
      },
      {
        "astId": 8338,
        "contract": "contracts/LPMining/PriceOracle.sol:PriceOracle",
        "label": "price0CumulativeLast",
        "offset": 0,
        "slot": "1",
        "type": "t_uint256"
      },
      {
        "astId": 8340,
        "contract": "contracts/LPMining/PriceOracle.sol:PriceOracle",
        "label": "price1CumulativeLast",
        "offset": 0,
        "slot": "2",
        "type": "t_uint256"
      },
      {
        "astId": 8342,
        "contract": "contracts/LPMining/PriceOracle.sol:PriceOracle",
        "label": "blockTimestampLast",
        "offset": 0,
        "slot": "3",
        "type": "t_uint32"
      },
      {
        "astId": 8345,
        "contract": "contracts/LPMining/PriceOracle.sol:PriceOracle",
        "label": "price0Average",
        "offset": 0,
        "slot": "4",
        "type": "t_struct(uq112x112)18550_storage"
      },
      {
        "astId": 8348,
        "contract": "contracts/LPMining/PriceOracle.sol:PriceOracle",
        "label": "price1Average",
        "offset": 0,
        "slot": "5",
        "type": "t_struct(uq112x112)18550_storage"
      }
    ],
    "types": {
      "t_contract(IUniswapV2Pair)17655": {
        "encoding": "inplace",
        "label": "contract IUniswapV2Pair",
        "numberOfBytes": "20"
      },
      "t_struct(uq112x112)18550_storage": {
        "encoding": "inplace",
        "label": "struct FixedPoint.uq112x112",
        "members": [
          {
            "astId": 18549,
            "contract": "contracts/LPMining/PriceOracle.sol:PriceOracle",
            "label": "_x",
            "offset": 0,
            "slot": "0",
            "type": "t_uint224"
          }
        ],
        "numberOfBytes": "32"
      },
      "t_uint224": {
        "encoding": "inplace",
        "label": "uint224",
        "numberOfBytes": "28"
      },
      "t_uint256": {
        "encoding": "inplace",
        "label": "uint256",
        "numberOfBytes": "32"
      },
      "t_uint32": {
        "encoding": "inplace",
        "label": "uint32",
        "numberOfBytes": "4"
      }
    }
  }
}