{
  "address": "0xDc64a140Aa3E981100a9becA4E685f962f0cF6C9",
  "abi": [
    {
      "inputs": [
        {
          "internalType": "address",
          "name": "_initialOwner",
          "type": "address"
        },
        {
          "internalType": "address",
          "name": "_uniswapV2Router",
          "type": "address"
        }
      ],
      "stateMutability": "nonpayable",
      "type": "constructor"
    },
    {
      "inputs": [
        {
          "internalType": "address",
          "name": "owner",
          "type": "address"
        }
      ],
      "name": "OwnableInvalidOwner",
      "type": "error"
    },
    {
      "inputs": [
        {
          "internalType": "address",
          "name": "account",
          "type": "address"
        }
      ],
      "name": "OwnableUnauthorizedAccount",
      "type": "error"
    },
    {
      "anonymous": false,
      "inputs": [
        {
          "indexed": true,
          "internalType": "address",
          "name": "owner",
          "type": "address"
        },
        {
          "indexed": true,
          "internalType": "address",
          "name": "spender",
          "type": "address"
        },
        {
          "indexed": false,
          "internalType": "uint256",
          "name": "value",
          "type": "uint256"
        }
      ],
      "name": "Approval",
      "type": "event"
    },
    {
      "anonymous": false,
      "inputs": [
        {
          "indexed": false,
          "internalType": "uint256",
          "name": "minTokensBeforeSwap",
          "type": "uint256"
        }
      ],
      "name": "MinTokensBeforeSwapUpdated",
      "type": "event"
    },
    {
      "anonymous": false,
      "inputs": [
        {
          "indexed": true,
          "internalType": "address",
          "name": "previousOwner",
          "type": "address"
        },
        {
          "indexed": true,
          "internalType": "address",
          "name": "newOwner",
          "type": "address"
        }
      ],
      "name": "OwnershipTransferred",
      "type": "event"
    },
    {
      "anonymous": false,
      "inputs": [
        {
          "indexed": false,
          "internalType": "uint256",
          "name": "tokensSwapped",
          "type": "uint256"
        },
        {
          "indexed": false,
          "internalType": "uint256",
          "name": "ethReceived",
          "type": "uint256"
        },
        {
          "indexed": false,
          "internalType": "uint256",
          "name": "tokensIntoLiqudity",
          "type": "uint256"
        }
      ],
      "name": "SwapAndLiquify",
      "type": "event"
    },
    {
      "anonymous": false,
      "inputs": [
        {
          "indexed": false,
          "internalType": "bool",
          "name": "enabled",
          "type": "bool"
        }
      ],
      "name": "SwapAndLiquifyEnabledUpdated",
      "type": "event"
    },
    {
      "anonymous": false,
      "inputs": [
        {
          "indexed": true,
          "internalType": "address",
          "name": "from",
          "type": "address"
        },
        {
          "indexed": true,
          "internalType": "address",
          "name": "to",
          "type": "address"
        },
        {
          "indexed": false,
          "internalType": "uint256",
          "name": "value",
          "type": "uint256"
        }
      ],
      "name": "Transfer",
      "type": "event"
    },
    {
      "inputs": [],
      "name": "_liquidityFee",
      "outputs": [
        {
          "internalType": "uint256",
          "name": "",
          "type": "uint256"
        }
      ],
      "stateMutability": "view",
      "type": "function"
    },
    {
      "inputs": [],
      "name": "_taxFee",
      "outputs": [
        {
          "internalType": "uint256",
          "name": "",
          "type": "uint256"
        }
      ],
      "stateMutability": "view",
      "type": "function"
    },
    {
      "inputs": [
        {
          "internalType": "address",
          "name": "owner",
          "type": "address"
        },
        {
          "internalType": "address",
          "name": "spender",
          "type": "address"
        }
      ],
      "name": "allowance",
      "outputs": [
        {
          "internalType": "uint256",
          "name": "",
          "type": "uint256"
        }
      ],
      "stateMutability": "view",
      "type": "function"
    },
    {
      "inputs": [
        {
          "internalType": "address",
          "name": "spender",
          "type": "address"
        },
        {
          "internalType": "uint256",
          "name": "amount",
          "type": "uint256"
        }
      ],
      "name": "approve",
      "outputs": [
        {
          "internalType": "bool",
          "name": "",
          "type": "bool"
        }
      ],
      "stateMutability": "nonpayable",
      "type": "function"
    },
    {
      "inputs": [
        {
          "internalType": "address",
          "name": "account",
          "type": "address"
        }
      ],
      "name": "balanceOf",
      "outputs": [
        {
          "internalType": "uint256",
          "name": "",
          "type": "uint256"
        }
      ],
      "stateMutability": "view",
      "type": "function"
    },
    {
      "inputs": [],
      "name": "decimals",
      "outputs": [
        {
          "internalType": "uint8",
          "name": "",
          "type": "uint8"
        }
      ],
      "stateMutability": "view",
      "type": "function"
    },
    {
      "inputs": [
        {
          "internalType": "address",
          "name": "spender",
          "type": "address"
        },
        {
          "internalType": "uint256",
          "name": "subtractedValue",
          "type": "uint256"
        }
      ],
      "name": "decreaseAllowance",
      "outputs": [
        {
          "internalType": "bool",
          "name": "",
          "type": "bool"
        }
      ],
      "stateMutability": "nonpayable",
      "type": "function"
    },
    {
      "inputs": [],
      "name": "enableLiquidation",
      "outputs": [],
      "stateMutability": "nonpayable",
      "type": "function"
    },
    {
      "inputs": [
        {
          "internalType": "address",
          "name": "account",
          "type": "address"
        }
      ],
      "name": "excludeAccount",
      "outputs": [],
      "stateMutability": "nonpayable",
      "type": "function"
    },
    {
      "inputs": [
        {
          "internalType": "address",
          "name": "account",
          "type": "address"
        }
      ],
      "name": "excludeFromFee",
      "outputs": [],
      "stateMutability": "nonpayable",
      "type": "function"
    },
    {
      "inputs": [
        {
          "internalType": "address",
          "name": "account",
          "type": "address"
        }
      ],
      "name": "getIntegerPercentOfSupply",
      "outputs": [
        {
          "internalType": "uint256",
          "name": "",
          "type": "uint256"
        }
      ],
      "stateMutability": "view",
      "type": "function"
    },
    {
      "inputs": [
        {
          "internalType": "address",
          "name": "account",
          "type": "address"
        }
      ],
      "name": "getLastTransaction",
      "outputs": [
        {
          "internalType": "uint256",
          "name": "",
          "type": "uint256"
        }
      ],
      "stateMutability": "view",
      "type": "function"
    },
    {
      "inputs": [
        {
          "internalType": "address",
          "name": "account",
          "type": "address"
        }
      ],
      "name": "includeAccount",
      "outputs": [],
      "stateMutability": "nonpayable",
      "type": "function"
    },
    {
      "inputs": [
        {
          "internalType": "address",
          "name": "account",
          "type": "address"
        }
      ],
      "name": "includeInFee",
      "outputs": [],
      "stateMutability": "nonpayable",
      "type": "function"
    },
    {
      "inputs": [
        {
          "internalType": "address",
          "name": "spender",
          "type": "address"
        },
        {
          "internalType": "uint256",
          "name": "addedValue",
          "type": "uint256"
        }
      ],
      "name": "increaseAllowance",
      "outputs": [
        {
          "internalType": "bool",
          "name": "",
          "type": "bool"
        }
      ],
      "stateMutability": "nonpayable",
      "type": "function"
    },
    {
      "inputs": [
        {
          "internalType": "address",
          "name": "account",
          "type": "address"
        }
      ],
      "name": "isExcluded",
      "outputs": [
        {
          "internalType": "bool",
          "name": "",
          "type": "bool"
        }
      ],
      "stateMutability": "view",
      "type": "function"
    },
    {
      "inputs": [
        {
          "internalType": "address",
          "name": "wallet",
          "type": "address"
        }
      ],
      "name": "liquidateInactiveWallet",
      "outputs": [],
      "stateMutability": "nonpayable",
      "type": "function"
    },
    {
      "inputs": [],
      "name": "liquidationEnabled",
      "outputs": [
        {
          "internalType": "bool",
          "name": "",
          "type": "bool"
        }
      ],
      "stateMutability": "view",
      "type": "function"
    },
    {
      "inputs": [],
      "name": "liquidationThresholdPercent",
      "outputs": [
        {
          "internalType": "uint256",
          "name": "",
          "type": "uint256"
        }
      ],
      "stateMutability": "view",
      "type": "function"
    },
    {
      "inputs": [],
      "name": "liquidationThresholdTime",
      "outputs": [
        {
          "internalType": "uint256",
          "name": "",
          "type": "uint256"
        }
      ],
      "stateMutability": "view",
      "type": "function"
    },
    {
      "inputs": [],
      "name": "name",
      "outputs": [
        {
          "internalType": "string",
          "name": "",
          "type": "string"
        }
      ],
      "stateMutability": "view",
      "type": "function"
    },
    {
      "inputs": [],
      "name": "owner",
      "outputs": [
        {
          "internalType": "address",
          "name": "",
          "type": "address"
        }
      ],
      "stateMutability": "view",
      "type": "function"
    },
    {
      "inputs": [
        {
          "internalType": "uint256",
          "name": "tAmount",
          "type": "uint256"
        }
      ],
      "name": "reflect",
      "outputs": [],
      "stateMutability": "nonpayable",
      "type": "function"
    },
    {
      "inputs": [
        {
          "internalType": "uint256",
          "name": "tAmount",
          "type": "uint256"
        },
        {
          "internalType": "bool",
          "name": "deductTransferFee",
          "type": "bool"
        }
      ],
      "name": "reflectionFromToken",
      "outputs": [
        {
          "internalType": "uint256",
          "name": "",
          "type": "uint256"
        }
      ],
      "stateMutability": "view",
      "type": "function"
    },
    {
      "inputs": [],
      "name": "renounceOwnership",
      "outputs": [],
      "stateMutability": "nonpayable",
      "type": "function"
    },
    {
      "inputs": [
        {
          "internalType": "uint256",
          "name": "percent",
          "type": "uint256"
        }
      ],
      "name": "setLiquidationThresholdPercent",
      "outputs": [],
      "stateMutability": "nonpayable",
      "type": "function"
    },
    {
      "inputs": [
        {
          "internalType": "uint256",
          "name": "time",
          "type": "uint256"
        }
      ],
      "name": "setLiquidationThresholdTime",
      "outputs": [],
      "stateMutability": "nonpayable",
      "type": "function"
    },
    {
      "inputs": [
        {
          "internalType": "uint256",
          "name": "liquidityFee",
          "type": "uint256"
        }
      ],
      "name": "setLiquidityFeePercent",
      "outputs": [],
      "stateMutability": "nonpayable",
      "type": "function"
    },
    {
      "inputs": [
        {
          "internalType": "bool",
          "name": "_enabled",
          "type": "bool"
        }
      ],
      "name": "setSwapAndLiquifyEnabled",
      "outputs": [],
      "stateMutability": "nonpayable",
      "type": "function"
    },
    {
      "inputs": [
        {
          "internalType": "uint256",
          "name": "taxFee",
          "type": "uint256"
        }
      ],
      "name": "setTaxFeePercent",
      "outputs": [],
      "stateMutability": "nonpayable",
      "type": "function"
    },
    {
      "inputs": [],
      "name": "swapAndLiquifyEnabled",
      "outputs": [
        {
          "internalType": "bool",
          "name": "",
          "type": "bool"
        }
      ],
      "stateMutability": "view",
      "type": "function"
    },
    {
      "inputs": [],
      "name": "symbol",
      "outputs": [
        {
          "internalType": "string",
          "name": "",
          "type": "string"
        }
      ],
      "stateMutability": "view",
      "type": "function"
    },
    {
      "inputs": [
        {
          "internalType": "uint256",
          "name": "rAmount",
          "type": "uint256"
        }
      ],
      "name": "tokenFromReflection",
      "outputs": [
        {
          "internalType": "uint256",
          "name": "",
          "type": "uint256"
        }
      ],
      "stateMutability": "view",
      "type": "function"
    },
    {
      "inputs": [],
      "name": "totalFees",
      "outputs": [
        {
          "internalType": "uint256",
          "name": "",
          "type": "uint256"
        }
      ],
      "stateMutability": "view",
      "type": "function"
    },
    {
      "inputs": [],
      "name": "totalSupply",
      "outputs": [
        {
          "internalType": "uint256",
          "name": "",
          "type": "uint256"
        }
      ],
      "stateMutability": "pure",
      "type": "function"
    },
    {
      "inputs": [
        {
          "internalType": "address",
          "name": "recipient",
          "type": "address"
        },
        {
          "internalType": "uint256",
          "name": "amount",
          "type": "uint256"
        }
      ],
      "name": "transfer",
      "outputs": [
        {
          "internalType": "bool",
          "name": "",
          "type": "bool"
        }
      ],
      "stateMutability": "nonpayable",
      "type": "function"
    },
    {
      "inputs": [
        {
          "internalType": "address",
          "name": "sender",
          "type": "address"
        },
        {
          "internalType": "address",
          "name": "recipient",
          "type": "address"
        },
        {
          "internalType": "uint256",
          "name": "amount",
          "type": "uint256"
        }
      ],
      "name": "transferFrom",
      "outputs": [
        {
          "internalType": "bool",
          "name": "",
          "type": "bool"
        }
      ],
      "stateMutability": "nonpayable",
      "type": "function"
    },
    {
      "inputs": [
        {
          "internalType": "address",
          "name": "newOwner",
          "type": "address"
        }
      ],
      "name": "transferOwnership",
      "outputs": [],
      "stateMutability": "nonpayable",
      "type": "function"
    },
    {
      "inputs": [],
      "name": "uniswapV2Pair",
      "outputs": [
        {
          "internalType": "address",
          "name": "",
          "type": "address"
        }
      ],
      "stateMutability": "view",
      "type": "function"
    },
    {
      "inputs": [],
      "name": "uniswapV2Router",
      "outputs": [
        {
          "internalType": "contract IUniswapV2Router02",
          "name": "",
          "type": "address"
        }
      ],
      "stateMutability": "view",
      "type": "function"
    },
    {
      "stateMutability": "payable",
      "type": "receive"
    }
  ],
  "transactionHash": "0xf74fc1723e11cf767e4e5cae0a89ae38b03d2cb3437937bb2999d2caff21d9eb",
  "args": [
    "0xf39Fd6e51aad88F6F4ce6aB8827279cffFb92266",
    "0x9fE46736679d2D9a65F0992F2272dE9f3c7fa6e0"
  ],
  "numDeployments": 1,
  "solcInputHash": "ace629025e92e8af169929da96ab2b9e",
  "bytecode": "0x60c0604052620000216e01564486fe5f40c38a77173cbc0000600019620003fe565b6200002f9060001962000421565b6008556040805180820190915260048152634644494360e01b6020820152600a906200005c9082620004ee565b506040805180820190915260048152634644494360e01b6020820152600b90620000879082620004ee565b50600c805460ff191660129081179091556002600d819055600e556001600f81905560108190556011556201518090556013805462ff00ff191662010000179055678ac7230489e80000601455348015620000e157600080fd5b50604051620031cc380380620031cc8339810160408190526200010491620005d7565b816001600160a01b0381166200013457604051631e4fbdf760e01b81526000600482015260240160405180910390fd5b6200013f81620003ae565b506008543360009081526001602090815260409182902092909255805163c45a015560e01b8152905183926001600160a01b0384169263c45a015592600480830193928290030181865afa1580156200019c573d6000803e3d6000fd5b505050506040513d601f19601f82011682018060405250810190620001c291906200060f565b6001600160a01b031663c9c6539630836001600160a01b031663ad5c46486040518163ffffffff1660e01b8152600401602060405180830381865afa15801562000210573d6000803e3d6000fd5b505050506040513d601f19601f820116820180604052508101906200023691906200060f565b6040516001600160e01b031960e085901b1681526001600160a01b039283166004820152911660248201526044016020604051808303816000875af115801562000284573d6000803e3d6000fd5b505050506040513d601f19601f82011682018060405250810190620002aa91906200060f565b6001600160a01b0390811660a0528116608052600160056000620002d66000546001600160a01b031690565b6001600160a01b03908116825260208083019390935260409182016000908120805495151560ff19968716179055308082526005855283822080548716600190811790915560a05190931682526006909452828120805486168317905592835291208054909216179055620003483390565b6001600160a01b031660006001600160a01b03167fddf252ad1be2c89b69c2b068fc378daa952ba7f163c4a11628f55a4df523b3ef6e01564486fe5f40c38a77173cbc00006040516200039d91815260200190565b60405180910390a350505062000634565b600080546001600160a01b038381166001600160a01b0319831681178455604051919092169283917f8be0079c531659141344cd1fd0a4f28419497f9722a3daafe3b4186f6b6457e09190a35050565b6000826200041c57634e487b7160e01b600052601260045260246000fd5b500690565b818103818111156200044357634e487b7160e01b600052601160045260246000fd5b92915050565b634e487b7160e01b600052604160045260246000fd5b600181811c908216806200047457607f821691505b6020821081036200049557634e487b7160e01b600052602260045260246000fd5b50919050565b601f821115620004e957600081815260208120601f850160051c81016020861015620004c45750805b601f850160051c820191505b81811015620004e557828155600101620004d0565b5050505b505050565b81516001600160401b038111156200050a576200050a62000449565b62000522816200051b84546200045f565b846200049b565b602080601f8311600181146200055a5760008415620005415750858301515b600019600386901b1c1916600185901b178555620004e5565b600085815260208120601f198616915b828110156200058b578886015182559484019460019091019084016200056a565b5085821015620005aa5787850151600019600388901b60f8161c191681555b5050505050600190811b01905550565b80516001600160a01b0381168114620005d257600080fd5b919050565b60008060408385031215620005eb57600080fd5b620005f683620005ba565b91506200060660208401620005ba565b90509250929050565b6000602082840312156200062257600080fd5b6200062d82620005ba565b9392505050565b60805160a051612b48620006846000396000818161052901526119e10152600081816103cd01528181612018015281816120d1015281816121260152818161219801526121bf0152612b486000f3fe6080604052600436106102be5760003560e01c80636bc87c3a1161016e578063ae574a90116100cb578063ea2f0b371161007f578063f2cc0c1811610064578063f2cc0c18146107ce578063f2fde38b146107ee578063f84354f11461080e57600080fd5b8063ea2f0b371461078e578063eb5690f8146107ae57600080fd5b8063c9fc4707116100b0578063c9fc4707146106d9578063cba0e9961461070f578063dd62ed3e1461074857600080fd5b8063ae574a901461069f578063c49b9a80146106b957600080fd5b80638ee88c53116101225780639e2d9575116101075780639e2d95751461063f578063a457c2d71461065f578063a9059cbb1461067f57600080fd5b80638ee88c531461060a57806395d89b411461062a57600080fd5b8063715018a611610153578063715018a6146105c157806371ad4cc2146105d65780638da5cb5b146105ec57600080fd5b80636bc87c3a1461058b57806370a08231146105a157600080fd5b80632d8381191161021c578063437823ec116101d057806349bd5a5e116101b557806349bd5a5e146105175780634a74bb021461054b5780634e2fa2031461056b57600080fd5b8063437823ec146104d75780634549b039146104f757600080fd5b8063320d2fa011610201578063320d2fa01461048b57806339509351146104a15780633b124fe7146104c157600080fd5b80632d83811914610449578063313ce5671461046957600080fd5b806313114a9d116102735780631694505e116102585780631694505e146103bb57806318160ddd1461040757806323b872dd1461042957600080fd5b806313114a9d1461037c57806316317e7e1461039b57600080fd5b8063061c82d0116102a4578063061c82d01461030157806306fdde0314610321578063095ea7b31461034c57600080fd5b8062bc2ea8146102ca578063053ab182146102e157600080fd5b366102c557005b600080fd5b3480156102d657600080fd5b506102df61082e565b005b3480156102ed57600080fd5b506102df6102fc3660046127c7565b610845565b34801561030d57600080fd5b506102df61031c3660046127c7565b6109da565b34801561032d57600080fd5b506103366109e7565b60405161034391906127e0565b60405180910390f35b34801561035857600080fd5b5061036c610367366004612843565b610a79565b6040519015158152602001610343565b34801561038857600080fd5b506009545b604051908152602001610343565b3480156103a757600080fd5b506102df6103b63660046127c7565b610aa2565b3480156103c757600080fd5b506103ef7f000000000000000000000000000000000000000000000000000000000000000081565b6040516001600160a01b039091168152602001610343565b34801561041357600080fd5b506e01564486fe5f40c38a77173cbc000061038d565b34801561043557600080fd5b5061036c61044436600461286f565b610b2f565b34801561045557600080fd5b5061038d6104643660046127c7565b610c48565b34801561047557600080fd5b50600c5460405160ff9091168152602001610343565b34801561049757600080fd5b5061038d60115481565b3480156104ad57600080fd5b5061036c6104bc366004612843565b610cdf565b3480156104cd57600080fd5b5061038d600d5481565b3480156104e357600080fd5b506102df6104f23660046128b0565b610d16565b34801561050357600080fd5b5061038d6105123660046128e2565b610d42565b34801561052357600080fd5b506103ef7f000000000000000000000000000000000000000000000000000000000000000081565b34801561055757600080fd5b5060135461036c9062010000900460ff1681565b34801561057757600080fd5b506102df6105863660046127c7565b610ddc565b34801561059757600080fd5b5061038d600f5481565b3480156105ad57600080fd5b5061038d6105bc3660046128b0565b610eda565b3480156105cd57600080fd5b506102df610f39565b3480156105e257600080fd5b5061038d60125481565b3480156105f857600080fd5b506000546001600160a01b03166103ef565b34801561061657600080fd5b506102df6106253660046127c7565b610f4d565b34801561063657600080fd5b50610336610f5a565b34801561064b57600080fd5b506102df61065a3660046128b0565b610f69565b34801561066b57600080fd5b5061036c61067a366004612843565b611154565b34801561068b57600080fd5b5061036c61069a366004612843565b61122f565b3480156106ab57600080fd5b5060135461036c9060ff1681565b3480156106c557600080fd5b506102df6106d436600461290e565b611269565b3480156106e557600080fd5b5061038d6106f43660046128b0565b6001600160a01b031660009081526004602052604090205490565b34801561071b57600080fd5b5061036c61072a3660046128b0565b6001600160a01b031660009081526006602052604090205460ff1690565b34801561075457600080fd5b5061038d610763366004612929565b6001600160a01b03918216600090815260036020908152604080832093909416825291909152205490565b34801561079a57600080fd5b506102df6107a93660046128b0565b6112c7565b3480156107ba57600080fd5b5061038d6107c93660046128b0565b6112f0565b3480156107da57600080fd5b506102df6107e93660046128b0565b611320565b3480156107fa57600080fd5b506102df6108093660046128b0565b61145e565b34801561081a57600080fd5b506102df6108293660046128b0565b6114b5565b61083661165f565b6013805460ff19166001179055565b3360008181526006602052604090205460ff16156108bf5760405162461bcd60e51b815260206004820152602c60248201527f4578636c75646564206164647265737365732063616e6e6f742063616c6c207460448201526b3434b990333ab731ba34b7b760a11b60648201526084015b60405180910390fd5b6011546e01564486fe5f40c38a77173cbc00006108db83610eda565b6108e6906064612978565b6108f0919061298f565b106109635760405162461bcd60e51b815260206004820152602f60248201527f63616e6e6f74207265666c6563742c206163636f756e7420686f6c6473206f7660448201527f6572203125206f6620737570706c79000000000000000000000000000000000060648201526084016108b6565b600061096e836116a5565b505050506001600160a01b03841660009081526001602052604090205491925061099a918391506129b1565b6001600160a01b0383166000908152600160205260409020556008546109c19082906129b1565b6008556009546109d29084906129c4565b600955505050565b6109e261165f565b600d55565b6060600a80546109f6906129d7565b80601f0160208091040260200160405190810160405280929190818152602001828054610a22906129d7565b8015610a6f5780601f10610a4457610100808354040283529160200191610a6f565b820191906000526020600020905b815481529060010190602001808311610a5257829003601f168201915b5050505050905090565b6000610a863384846116fc565b5033600090815260046020526040902042905560015b92915050565b610aaa61165f565b606481108015610ab8575060015b610b2a5760405162461bcd60e51b815260206004820152602160248201527f6d75737420626520612070657263656e742076616c75652066726f6d20302d3960448201527f390000000000000000000000000000000000000000000000000000000000000060648201526084016108b6565b601155565b6000610b3c848484611854565b6001600160a01b0384166000908152600360209081526040808320338452909152812054610b6b9084906129b1565b1015610bdf5760405162461bcd60e51b815260206004820152602860248201527f45524332303a207472616e7366657220616d6f756e742065786365656473206160448201527f6c6c6f77616e636500000000000000000000000000000000000000000000000060648201526084016108b6565b6001600160a01b038416600090815260036020908152604080832033808552925290912054610c1a918691610c159086906129b1565b6116fc565b50503360009081526004602052604080822042908190556001600160a01b0393909316825290205550600190565b6000600854821115610cc25760405162461bcd60e51b815260206004820152602a60248201527f416d6f756e74206d757374206265206c657373207468616e20746f74616c207260448201527f65666c656374696f6e730000000000000000000000000000000000000000000060648201526084016108b6565b6000610ccc611ab0565b9050610cd8818461298f565b9392505050565b3360008181526003602090815260408083206001600160a01b03871684529091528120549091610a86918590610c159086906129c4565b610d1e61165f565b6001600160a01b03166000908152600560205260409020805460ff19166001179055565b60006e01564486fe5f40c38a77173cbc0000831115610da35760405162461bcd60e51b815260206004820152601f60248201527f416d6f756e74206d757374206265206c657373207468616e20737570706c790060448201526064016108b6565b81610dc2576000610db3846116a5565b50939550610a9c945050505050565b6000610dcd846116a5565b50929550610a9c945050505050565b610de461165f565b62015180811015610e5d5760405162461bcd60e51b815260206004820152603060248201527f6d696e696d756d2074696d6520666f72206163636f756e7420746f206265206960448201527f6e6163746976652069732031206461790000000000000000000000000000000060648201526084016108b6565b601254811015610ed55760405162461bcd60e51b815260206004820152602a60248201527f6e6577207468726573686f6c64206d757374206265206c61726765722074686160448201527f6e2070726576696f75730000000000000000000000000000000000000000000060648201526084016108b6565b601255565b6001600160a01b03811660009081526006602052604081205460ff1615610f1757506001600160a01b031660009081526002602052604090205490565b6001600160a01b038216600090815260016020526040902054610a9c90610c48565b610f4161165f565b610f4b6000611ad3565b565b610f5561165f565b600f55565b6060600b80546109f6906129d7565b601354339060ff16610fbd5760405162461bcd60e51b815260206004820152601e60248201527f4c69717569646174696f6e206973206e6f742079657420656e61626c6564000060448201526064016108b6565b6001600160a01b03821660009081526006602052604090205460ff161561104c5760405162461bcd60e51b815260206004820152602360248201527f43616e6e6f74206c6971756964617465206578636c756465642061646472657360448201527f736573000000000000000000000000000000000000000000000000000000000060648201526084016108b6565b6001600160a01b03811660009081526006602052604090205460ff16156110ca5760405162461bcd60e51b815260206004820152602c60248201527f4578636c75646564206164647265737365732063616e6e6f742063616c6c207460448201526b3434b990333ab731ba34b7b760a11b60648201526084016108b6565b6012546001600160a01b0383166000908152600460205260409020546110f090426129b1565b101561113e5760405162461bcd60e51b815260206004820152601760248201527f4163636f756e74206973206e6f7420696e61637469766500000000000000000060448201526064016108b6565b61115061114a83610eda565b83610963565b5050565b3360009081526003602090815260408083206001600160a01b038616845290915281205481906111859084906129b1565b10156111f95760405162461bcd60e51b815260206004820152602560248201527f45524332303a2064656372656173656420616c6c6f77616e63652062656c6f7760448201527f207a65726f00000000000000000000000000000000000000000000000000000060648201526084016108b6565b3360008181526003602090815260408083206001600160a01b0388168452909152902054610a8691908590610c159086906129b1565b600061123c338484611854565b50503360009081526004602052604080822042908190556001600160a01b03939093168252902055600190565b61127161165f565b60138054821515620100000262ff0000199091161790556040517f53726dfcaf90650aa7eb35524f4d3220f07413c8d6cb404cc8c18bf5591bc159906112bc90831515815260200190565b60405180910390a150565b6112cf61165f565b6001600160a01b03166000908152600560205260409020805460ff19169055565b60006e01564486fe5f40c38a77173cbc000061130b83610eda565b611316906064612978565b610a9c919061298f565b61132861165f565b6001600160a01b03811660009081526006602052604090205460ff16156113915760405162461bcd60e51b815260206004820152601b60248201527f4163636f756e7420697320616c7265616479206578636c75646564000000000060448201526064016108b6565b6001600160a01b038116600090815260016020526040902054156113eb576001600160a01b0381166000908152600160205260409020546113d190610c48565b6001600160a01b0382166000908152600260205260409020555b6001600160a01b03166000818152600660205260408120805460ff191660019081179091556007805491820181559091527fa66cc928b5edb82af9bd49922954155ab7b0942694bea4ce44661d9a8736c68801805473ffffffffffffffffffffffffffffffffffffffff19169091179055565b61146661165f565b6001600160a01b0381166114a9576040517f1e4fbdf7000000000000000000000000000000000000000000000000000000008152600060048201526024016108b6565b6114b281611ad3565b50565b6114bd61165f565b6001600160a01b03811660009081526006602052604090205460ff166115255760405162461bcd60e51b815260206004820152601b60248201527f4163636f756e7420697320616c7265616479206578636c75646564000000000060448201526064016108b6565b60005b60075481101561115057816001600160a01b03166007828154811061154f5761154f612a11565b6000918252602090912001546001600160a01b03160361164d5760078054611579906001906129b1565b8154811061158957611589612a11565b600091825260209091200154600780546001600160a01b0390921691839081106115b5576115b5612a11565b6000918252602080832091909101805473ffffffffffffffffffffffffffffffffffffffff19166001600160a01b039485161790559184168152600282526040808220829055600690925220805460ff19169055600780548061161a5761161a612a27565b6000828152602090208101600019908101805473ffffffffffffffffffffffffffffffffffffffff191690550190555050565b8061165781612a3d565b915050611528565b6000546001600160a01b03163314610f4b576040517f118cdaa70000000000000000000000000000000000000000000000000000000081523360048201526024016108b6565b60008060008060008060008060006116bc8a611b30565b92509250925060006116cc611ab0565b905060008060006116df8e878688611b73565b919e509c509a509598509396509194505050505091939550919395565b6001600160a01b0383166117775760405162461bcd60e51b8152602060048201526024808201527f45524332303a20617070726f76652066726f6d20746865207a65726f2061646460448201527f726573730000000000000000000000000000000000000000000000000000000060648201526084016108b6565b6001600160a01b0382166117f35760405162461bcd60e51b815260206004820152602260248201527f45524332303a20617070726f766520746f20746865207a65726f20616464726560448201527f737300000000000000000000000000000000000000000000000000000000000060648201526084016108b6565b6001600160a01b0383811660008181526003602090815260408083209487168084529482529182902085905590518481527f8c5be1e5ebec7d5bd14f71427d1e84f3dd0314c0f7b2291e5b200ac8c7c3b925910160405180910390a3505050565b6001600160a01b0383166118d05760405162461bcd60e51b815260206004820152602560248201527f45524332303a207472616e736665722066726f6d20746865207a65726f20616460448201527f647265737300000000000000000000000000000000000000000000000000000060648201526084016108b6565b6001600160a01b03821661194c5760405162461bcd60e51b815260206004820152602360248201527f45524332303a207472616e7366657220746f20746865207a65726f206164647260448201527f657373000000000000000000000000000000000000000000000000000000000060648201526084016108b6565b600081116119c25760405162461bcd60e51b815260206004820152602960248201527f5472616e7366657220616d6f756e74206d75737420626520677265617465722060448201527f7468616e207a65726f000000000000000000000000000000000000000000000060648201526084016108b6565b60006119cd30610eda565b60145490915081108015908190611a1657507f00000000000000000000000000000000000000000000000000000000000000006001600160a01b0316856001600160a01b031614155b8015611a2a5750601354610100900460ff16155b8015611a3e575060135462010000900460ff165b15611a51576014549150611a5182611bca565b6001600160a01b03851660009081526005602052604090205460019060ff1680611a9357506001600160a01b03851660009081526005602052604090205460ff165b15611a9c575060005b611aa886868684611c6b565b505050505050565b6000806000611abd611de8565b9092509050611acc818361298f565b9250505090565b600080546001600160a01b0383811673ffffffffffffffffffffffffffffffffffffffff19831681178455604051919092169283917f8be0079c531659141344cd1fd0a4f28419497f9722a3daafe3b4186f6b6457e09190a35050565b600080600080611b3f85611f9d565b90506000611b4c86611faf565b9050600081611b5b84896129b1565b611b6591906129b1565b979296509094509092505050565b6000808080611b828689612978565b90506000611b908789612978565b90506000611b9e8888612978565b9050600081611bad84866129b1565b611bb791906129b1565b939b939a50919850919650505050505050565b6013805461ff0019166101001790556000611be660028361298f565b90506000611bf4828461298f565b905047611c0083611fc1565b6000611c0c82476129b1565b9050611c188382612192565b60408051858152602081018390529081018490527f17bbfb9a6069321b6ded73bd96327c9e6b7212a5cd51ff219cd61370acafb5619060600160405180910390a150506013805461ff0019169055505050565b80611c7857611c786122b0565b6001600160a01b03841660009081526006602052604090205460ff168015611cb957506001600160a01b03831660009081526006602052604090205460ff16155b15611cce57611cc98484846122de565b611dcc565b6001600160a01b03841660009081526006602052604090205460ff16158015611d0f57506001600160a01b03831660009081526006602052604090205460ff165b15611d1f57611cc9848484612410565b6001600160a01b03841660009081526006602052604090205460ff16158015611d6157506001600160a01b03831660009081526006602052604090205460ff16155b15611d7157611cc98484846124f1565b6001600160a01b03841660009081526006602052604090205460ff168015611db157506001600160a01b03831660009081526006602052604090205460ff165b15611dc157611cc984848461259b565b611dcc8484846124f1565b80611de257611de2600e54600d55601054600f55565b50505050565b60085460009081906e01564486fe5f40c38a77173cbc0000825b600754811015611f5357826001600060078481548110611e2457611e24612a11565b60009182526020808320909101546001600160a01b031683528201929092526040019020541180611e8f5750816002600060078481548110611e6857611e68612a11565b60009182526020808320909101546001600160a01b03168352820192909252604001902054115b15611eb1575050600854936e01564486fe5f40c38a77173cbc00009350915050565b6001600060078381548110611ec857611ec8612a11565b60009182526020808320909101546001600160a01b03168352820192909252604001902054611ef790846129b1565b92506002600060078381548110611f1057611f10612a11565b60009182526020808320909101546001600160a01b03168352820192909252604001902054611f3f90836129b1565b915080611f4b81612a3d565b915050611e02565b506e01564486fe5f40c38a77173cbc0000600854611f71919061298f565b821015611f94575050600854926e01564486fe5f40c38a77173cbc000092509050565b90939092509050565b60006064600d54836113169190612978565b60006064600f54836113169190612978565b6040805160028082526060820183526000926020830190803683370190505090503081600081518110611ff657611ff6612a11565b60200260200101906001600160a01b031690816001600160a01b0316815250507f00000000000000000000000000000000000000000000000000000000000000006001600160a01b031663ad5c46486040518163ffffffff1660e01b8152600401602060405180830381865afa158015612074573d6000803e3d6000fd5b505050506040513d601f19601f820116820180604052508101906120989190612a56565b816001815181106120ab576120ab612a11565b60200260200101906001600160a01b031690816001600160a01b0316815250506120f6307f0000000000000000000000000000000000000000000000000000000000000000846116fc565b6040517f791ac9470000000000000000000000000000000000000000000000000000000081526001600160a01b037f0000000000000000000000000000000000000000000000000000000000000000169063791ac94790612164908590600090869030904290600401612a73565b600060405180830381600087803b15801561217e57600080fd5b505af1158015611aa8573d6000803e3d6000fd5b6121bd307f0000000000000000000000000000000000000000000000000000000000000000846116fc565b7f00000000000000000000000000000000000000000000000000000000000000006001600160a01b031663f305d7198230856000806122046000546001600160a01b031690565b60405160e088901b7fffffffff000000000000000000000000000000000000000000000000000000001681526001600160a01b03958616600482015260248101949094526044840192909252606483015290911660848201524260a482015260c40160606040518083038185885af1158015612284573d6000803e3d6000fd5b50505050506040513d601f19601f820116820180604052508101906122a99190612ae4565b5050505050565b600d541580156122c05750600f54155b156122c757565b600d8054600e55600f805460105560009182905555565b6000806000806000806122f0876116a5565b6001600160a01b038f16600090815260026020526040902054959b509399509197509550935091506123239088906129b1565b6001600160a01b038a166000908152600260209081526040808320939093556001905220546123539087906129b1565b6001600160a01b03808b1660009081526001602052604080822093909355908a16815220546123839086906129c4565b6001600160a01b0389166000908152600160205260409020556123a58161269a565b6123af8483612725565b6123b88861274b565b876001600160a01b0316896001600160a01b03167fddf252ad1be2c89b69c2b068fc378daa952ba7f163c4a11628f55a4df523b3ef856040516123fd91815260200190565b60405180910390a3505050505050505050565b600080600080600080612422876116a5565b6001600160a01b038f16600090815260016020526040902054959b509399509197509550935091506124559087906129b1565b6001600160a01b03808b16600090815260016020908152604080832094909455918b1681526002909152205461248c9084906129c4565b6001600160a01b0389166000908152600260209081526040808320939093556001905220546124bc9086906129c4565b6001600160a01b0389166000908152600160205260409020556124de8161269a565b6124e88483612725565b6123b88961274b565b600080600080600080612503876116a5565b6001600160a01b038f16600090815260016020526040902054959b509399509197509550935091506125369087906129b1565b6001600160a01b03808b1660009081526001602052604080822093909355908a16815220546125669086906129c4565b6001600160a01b0389166000908152600160205260409020556125888161269a565b6125928483612725565b6124e88861274b565b6000806000806000806125ad876116a5565b6001600160a01b038f16600090815260026020526040902054959b509399509197509550935091506125e09088906129b1565b6001600160a01b038a166000908152600260209081526040808320939093556001905220546126109087906129b1565b6001600160a01b03808b16600090815260016020908152604080832094909455918b168152600290915220546126479084906129c4565b6001600160a01b0389166000908152600260209081526040808320939093556001905220546126779086906129c4565b6001600160a01b0389166000908152600160205260409020556123b88483612725565b60006126a4611ab0565b905060006126b28284612978565b306000908152600160205260409020549091506126d09082906129c4565b3060009081526001602090815260408083209390935560069052205460ff1615612720573060009081526002602052604090205461270f9084906129c4565b306000908152600260205260409020555b505050565b8160085461273391906129b1565b6008556009546127449082906129c4565b6009555050565b600080546001600160a01b031690506011546e01564486fe5f40c38a77173cbc000061277684610eda565b612781906064612978565b61278b919061298f565b101580156127ab5750806001600160a01b0316826001600160a01b031614155b156111505760135460ff16156111505761115061114a83610eda565b6000602082840312156127d957600080fd5b5035919050565b600060208083528351808285015260005b8181101561280d578581018301518582016040015282016127f1565b506000604082860101526040601f19601f8301168501019250505092915050565b6001600160a01b03811681146114b257600080fd5b6000806040838503121561285657600080fd5b82356128618161282e565b946020939093013593505050565b60008060006060848603121561288457600080fd5b833561288f8161282e565b9250602084013561289f8161282e565b929592945050506040919091013590565b6000602082840312156128c257600080fd5b8135610cd88161282e565b803580151581146128dd57600080fd5b919050565b600080604083850312156128f557600080fd5b82359150612905602084016128cd565b90509250929050565b60006020828403121561292057600080fd5b610cd8826128cd565b6000806040838503121561293c57600080fd5b82356129478161282e565b915060208301356129578161282e565b809150509250929050565b634e487b7160e01b600052601160045260246000fd5b8082028115828204841417610a9c57610a9c612962565b6000826129ac57634e487b7160e01b600052601260045260246000fd5b500490565b81810381811115610a9c57610a9c612962565b80820180821115610a9c57610a9c612962565b600181811c908216806129eb57607f821691505b602082108103612a0b57634e487b7160e01b600052602260045260246000fd5b50919050565b634e487b7160e01b600052603260045260246000fd5b634e487b7160e01b600052603160045260246000fd5b600060018201612a4f57612a4f612962565b5060010190565b600060208284031215612a6857600080fd5b8151610cd88161282e565b600060a082018783526020878185015260a0604085015281875180845260c086019150828901935060005b81811015612ac35784516001600160a01b031683529383019391830191600101612a9e565b50506001600160a01b03969096166060850152505050608001529392505050565b600080600060608486031215612af957600080fd5b835192506020840151915060408401519050925092509256fea2646970667358221220076b2498889d0f6323888a6812d97760a84c96b4bdc6f3861d6b63adc3a47c1964736f6c63430008140033",
  "devdoc": {
    "errors": {
      "OwnableInvalidOwner(address)": [
        {
          "details": "The owner is not a valid owner account. (eg. `address(0)`)"
        }
      ],
      "OwnableUnauthorizedAccount(address)": [
        {
          "details": "The caller account is not authorized to perform an operation."
        }
      ]
    },
    "events": {
      "Approval(address,address,uint256)": {
        "details": "Emitted when the allowance of a `spender` for an `owner` is set by a call to {approve}. `value` is the new allowance."
      },
      "Transfer(address,address,uint256)": {
        "details": "Emitted when `value` tokens are moved from one account (`from`) to another (`to`). Note that `value` may be zero."
      }
    },
    "kind": "dev",
    "methods": {
      "allowance(address,address)": {
        "details": "Returns the remaining number of tokens that `spender` will be allowed to spend on behalf of `owner` through {transferFrom}. This is zero by default. This value changes when {approve} or {transferFrom} are called."
      },
      "balanceOf(address)": {
        "details": "Returns the value of tokens owned by `account`."
      },
      "owner()": {
        "details": "Returns the address of the current owner."
      },
      "renounceOwnership()": {
        "details": "Leaves the contract without owner. It will not be possible to call `onlyOwner` functions. Can only be called by the current owner. NOTE: Renouncing ownership will leave the contract without an owner, thereby disabling any functionality that is only available to the owner."
      },
      "totalSupply()": {
        "details": "Returns the value of tokens in existence."
      },
      "transferOwnership(address)": {
        "details": "Transfers ownership of the contract to a new account (`newOwner`). Can only be called by the current owner."
      }
    },
    "version": 1
  },
  "userdoc": {
    "kind": "user",
    "methods": {},
    "version": 1
  },
  "storageLayout": {
    "storage": [
      {
        "astId": 8,
        "contract": "contracts/REFLECT.sol:REFLECT",
        "label": "_owner",
        "offset": 0,
        "slot": "0",
        "type": "t_address"
      },
      {
        "astId": 2039,
        "contract": "contracts/REFLECT.sol:REFLECT",
        "label": "_rOwned",
        "offset": 0,
        "slot": "1",
        "type": "t_mapping(t_address,t_uint256)"
      },
      {
        "astId": 2043,
        "contract": "contracts/REFLECT.sol:REFLECT",
        "label": "_tOwned",
        "offset": 0,
        "slot": "2",
        "type": "t_mapping(t_address,t_uint256)"
      },
      {
        "astId": 2049,
        "contract": "contracts/REFLECT.sol:REFLECT",
        "label": "_allowances",
        "offset": 0,
        "slot": "3",
        "type": "t_mapping(t_address,t_mapping(t_address,t_uint256))"
      },
      {
        "astId": 2053,
        "contract": "contracts/REFLECT.sol:REFLECT",
        "label": "_lastTransaction",
        "offset": 0,
        "slot": "4",
        "type": "t_mapping(t_address,t_uint256)"
      },
      {
        "astId": 2057,
        "contract": "contracts/REFLECT.sol:REFLECT",
        "label": "_isExcludedFromFee",
        "offset": 0,
        "slot": "5",
        "type": "t_mapping(t_address,t_bool)"
      },
      {
        "astId": 2061,
        "contract": "contracts/REFLECT.sol:REFLECT",
        "label": "_isExcluded",
        "offset": 0,
        "slot": "6",
        "type": "t_mapping(t_address,t_bool)"
      },
      {
        "astId": 2064,
        "contract": "contracts/REFLECT.sol:REFLECT",
        "label": "_excluded",
        "offset": 0,
        "slot": "7",
        "type": "t_array(t_address)dyn_storage"
      },
      {
        "astId": 2087,
        "contract": "contracts/REFLECT.sol:REFLECT",
        "label": "_rTotal",
        "offset": 0,
        "slot": "8",
        "type": "t_uint256"
      },
      {
        "astId": 2089,
        "contract": "contracts/REFLECT.sol:REFLECT",
        "label": "_tFeeTotal",
        "offset": 0,
        "slot": "9",
        "type": "t_uint256"
      },
      {
        "astId": 2092,
        "contract": "contracts/REFLECT.sol:REFLECT",
        "label": "_name",
        "offset": 0,
        "slot": "10",
        "type": "t_string_storage"
      },
      {
        "astId": 2095,
        "contract": "contracts/REFLECT.sol:REFLECT",
        "label": "_symbol",
        "offset": 0,
        "slot": "11",
        "type": "t_string_storage"
      },
      {
        "astId": 2098,
        "contract": "contracts/REFLECT.sol:REFLECT",
        "label": "_decimals",
        "offset": 0,
        "slot": "12",
        "type": "t_uint8"
      },
      {
        "astId": 2101,
        "contract": "contracts/REFLECT.sol:REFLECT",
        "label": "_taxFee",
        "offset": 0,
        "slot": "13",
        "type": "t_uint256"
      },
      {
        "astId": 2104,
        "contract": "contracts/REFLECT.sol:REFLECT",
        "label": "_previousTaxFee",
        "offset": 0,
        "slot": "14",
        "type": "t_uint256"
      },
      {
        "astId": 2107,
        "contract": "contracts/REFLECT.sol:REFLECT",
        "label": "_liquidityFee",
        "offset": 0,
        "slot": "15",
        "type": "t_uint256"
      },
      {
        "astId": 2110,
        "contract": "contracts/REFLECT.sol:REFLECT",
        "label": "_previousLiquidityFee",
        "offset": 0,
        "slot": "16",
        "type": "t_uint256"
      },
      {
        "astId": 2113,
        "contract": "contracts/REFLECT.sol:REFLECT",
        "label": "liquidationThresholdPercent",
        "offset": 0,
        "slot": "17",
        "type": "t_uint256"
      },
      {
        "astId": 2116,
        "contract": "contracts/REFLECT.sol:REFLECT",
        "label": "liquidationThresholdTime",
        "offset": 0,
        "slot": "18",
        "type": "t_uint256"
      },
      {
        "astId": 2124,
        "contract": "contracts/REFLECT.sol:REFLECT",
        "label": "liquidationEnabled",
        "offset": 0,
        "slot": "19",
        "type": "t_bool"
      },
      {
        "astId": 2126,
        "contract": "contracts/REFLECT.sol:REFLECT",
        "label": "inSwapAndLiquify",
        "offset": 1,
        "slot": "19",
        "type": "t_bool"
      },
      {
        "astId": 2129,
        "contract": "contracts/REFLECT.sol:REFLECT",
        "label": "swapAndLiquifyEnabled",
        "offset": 2,
        "slot": "19",
        "type": "t_bool"
      },
      {
        "astId": 2136,
        "contract": "contracts/REFLECT.sol:REFLECT",
        "label": "numTokensSellToAddToLiquidity",
        "offset": 0,
        "slot": "20",
        "type": "t_uint256"
      }
    ],
    "types": {
      "t_address": {
        "encoding": "inplace",
        "label": "address",
        "numberOfBytes": "20"
      },
      "t_array(t_address)dyn_storage": {
        "base": "t_address",
        "encoding": "dynamic_array",
        "label": "address[]",
        "numberOfBytes": "32"
      },
      "t_bool": {
        "encoding": "inplace",
        "label": "bool",
        "numberOfBytes": "1"
      },
      "t_mapping(t_address,t_bool)": {
        "encoding": "mapping",
        "key": "t_address",
        "label": "mapping(address => bool)",
        "numberOfBytes": "32",
        "value": "t_bool"
      },
      "t_mapping(t_address,t_mapping(t_address,t_uint256))": {
        "encoding": "mapping",
        "key": "t_address",
        "label": "mapping(address => mapping(address => uint256))",
        "numberOfBytes": "32",
        "value": "t_mapping(t_address,t_uint256)"
      },
      "t_mapping(t_address,t_uint256)": {
        "encoding": "mapping",
        "key": "t_address",
        "label": "mapping(address => uint256)",
        "numberOfBytes": "32",
        "value": "t_uint256"
      },
      "t_string_storage": {
        "encoding": "bytes",
        "label": "string",
        "numberOfBytes": "32"
      },
      "t_uint256": {
        "encoding": "inplace",
        "label": "uint256",
        "numberOfBytes": "32"
      },
      "t_uint8": {
        "encoding": "inplace",
        "label": "uint8",
        "numberOfBytes": "1"
      }
    }
  }
}